{
  "_format": "hh-sol-artifact-1",
  "contractName": "AccessControlledOffchainAggregator",
  "sourceName": "contracts/aggregatorEthUsd/AccessControlledOffchainAggregator.sol",
  "abi": [
    {
      "inputs": [
        {
          "internalType": "uint32",
          "name": "_maximumGasPrice",
          "type": "uint32"
        },
        {
          "internalType": "uint32",
          "name": "_reasonableGasPrice",
          "type": "uint32"
        },
        {
          "internalType": "uint32",
          "name": "_microLinkPerEth",
          "type": "uint32"
        },
        {
          "internalType": "uint32",
          "name": "_linkGweiPerObservation",
          "type": "uint32"
        },
        {
          "internalType": "uint32",
          "name": "_linkGweiPerTransmission",
          "type": "uint32"
        },
        {
          "internalType": "address",
          "name": "_link",
          "type": "address"
        },
        {
          "internalType": "int192",
          "name": "_minAnswer",
          "type": "int192"
        },
        {
          "internalType": "int192",
          "name": "_maxAnswer",
          "type": "int192"
        },
        {
          "internalType": "contract AccessControllerInterface",
          "name": "_billingAccessController",
          "type": "address"
        },
        {
          "internalType": "contract AccessControllerInterface",
          "name": "_requesterAccessController",
          "type": "address"
        },
        {
          "internalType": "uint8",
          "name": "_decimals",
          "type": "uint8"
        },
        {
          "internalType": "string",
          "name": "description",
          "type": "string"
        }
      ],
      "stateMutability": "nonpayable",
      "type": "constructor"
    },
    {
      "anonymous": false,
      "inputs": [
        {
          "indexed": false,
          "internalType": "address",
          "name": "user",
          "type": "address"
        }
      ],
      "name": "AddedAccess",
      "type": "event"
    },
    {
      "anonymous": false,
      "inputs": [
        {
          "indexed": true,
          "internalType": "int256",
          "name": "current",
          "type": "int256"
        },
        {
          "indexed": true,
          "internalType": "uint256",
          "name": "roundId",
          "type": "uint256"
        },
        {
          "indexed": false,
          "internalType": "uint256",
          "name": "updatedAt",
          "type": "uint256"
        }
      ],
      "name": "AnswerUpdated",
      "type": "event"
    },
    {
      "anonymous": false,
      "inputs": [
        {
          "indexed": false,
          "internalType": "contract AccessControllerInterface",
          "name": "old",
          "type": "address"
        },
        {
          "indexed": false,
          "internalType": "contract AccessControllerInterface",
          "name": "current",
          "type": "address"
        }
      ],
      "name": "BillingAccessControllerSet",
      "type": "event"
    },
    {
      "anonymous": false,
      "inputs": [
        {
          "indexed": false,
          "internalType": "uint32",
          "name": "maximumGasPrice",
          "type": "uint32"
        },
        {
          "indexed": false,
          "internalType": "uint32",
          "name": "reasonableGasPrice",
          "type": "uint32"
        },
        {
          "indexed": false,
          "internalType": "uint32",
          "name": "microLinkPerEth",
          "type": "uint32"
        },
        {
          "indexed": false,
          "internalType": "uint32",
          "name": "linkGweiPerObservation",
          "type": "uint32"
        },
        {
          "indexed": false,
          "internalType": "uint32",
          "name": "linkGweiPerTransmission",
          "type": "uint32"
        }
      ],
      "name": "BillingSet",
      "type": "event"
    },
    {
      "anonymous": false,
      "inputs": [],
      "name": "CheckAccessDisabled",
      "type": "event"
    },
    {
      "anonymous": false,
      "inputs": [],
      "name": "CheckAccessEnabled",
      "type": "event"
    },
    {
      "anonymous": false,
      "inputs": [
        {
          "indexed": false,
          "internalType": "uint32",
          "name": "previousConfigBlockNumber",
          "type": "uint32"
        },
        {
          "indexed": false,
          "internalType": "uint64",
          "name": "configCount",
          "type": "uint64"
        },
        {
          "indexed": false,
          "internalType": "address[]",
          "name": "signers",
          "type": "address[]"
        },
        {
          "indexed": false,
          "internalType": "address[]",
          "name": "transmitters",
          "type": "address[]"
        },
        {
          "indexed": false,
          "internalType": "uint8",
          "name": "threshold",
          "type": "uint8"
        },
        {
          "indexed": false,
          "internalType": "uint64",
          "name": "encodedConfigVersion",
          "type": "uint64"
        },
        {
          "indexed": false,
          "internalType": "bytes",
          "name": "encoded",
          "type": "bytes"
        }
      ],
      "name": "ConfigSet",
      "type": "event"
    },
    {
      "anonymous": false,
      "inputs": [
        {
          "indexed": true,
          "internalType": "uint256",
          "name": "roundId",
          "type": "uint256"
        },
        {
          "indexed": true,
          "internalType": "address",
          "name": "startedBy",
          "type": "address"
        },
        {
          "indexed": false,
          "internalType": "uint256",
          "name": "startedAt",
          "type": "uint256"
        }
      ],
      "name": "NewRound",
      "type": "event"
    },
    {
      "anonymous": false,
      "inputs": [
        {
          "indexed": true,
          "internalType": "uint32",
          "name": "aggregatorRoundId",
          "type": "uint32"
        },
        {
          "indexed": false,
          "internalType": "int192",
          "name": "answer",
          "type": "int192"
        },
        {
          "indexed": false,
          "internalType": "address",
          "name": "transmitter",
          "type": "address"
        },
        {
          "indexed": false,
          "internalType": "int192[]",
          "name": "observations",
          "type": "int192[]"
        },
        {
          "indexed": false,
          "internalType": "bytes",
          "name": "observers",
          "type": "bytes"
        },
        {
          "indexed": false,
          "internalType": "bytes32",
          "name": "rawReportContext",
          "type": "bytes32"
        }
      ],
      "name": "NewTransmission",
      "type": "event"
    },
    {
      "anonymous": false,
      "inputs": [
        {
          "indexed": false,
          "internalType": "address",
          "name": "transmitter",
          "type": "address"
        },
        {
          "indexed": false,
          "internalType": "address",
          "name": "payee",
          "type": "address"
        },
        {
          "indexed": false,
          "internalType": "uint256",
          "name": "amount",
          "type": "uint256"
        }
      ],
      "name": "OraclePaid",
      "type": "event"
    },
    {
      "anonymous": false,
      "inputs": [
        {
          "indexed": true,
          "internalType": "address",
          "name": "from",
          "type": "address"
        },
        {
          "indexed": true,
          "internalType": "address",
          "name": "to",
          "type": "address"
        }
      ],
      "name": "OwnershipTransferRequested",
      "type": "event"
    },
    {
      "anonymous": false,
      "inputs": [
        {
          "indexed": true,
          "internalType": "address",
          "name": "from",
          "type": "address"
        },
        {
          "indexed": true,
          "internalType": "address",
          "name": "to",
          "type": "address"
        }
      ],
      "name": "OwnershipTransferred",
      "type": "event"
    },
    {
      "anonymous": false,
      "inputs": [
        {
          "indexed": true,
          "internalType": "address",
          "name": "transmitter",
          "type": "address"
        },
        {
          "indexed": true,
          "internalType": "address",
          "name": "current",
          "type": "address"
        },
        {
          "indexed": true,
          "internalType": "address",
          "name": "proposed",
          "type": "address"
        }
      ],
      "name": "PayeeshipTransferRequested",
      "type": "event"
    },
    {
      "anonymous": false,
      "inputs": [
        {
          "indexed": true,
          "internalType": "address",
          "name": "transmitter",
          "type": "address"
        },
        {
          "indexed": true,
          "internalType": "address",
          "name": "previous",
          "type": "address"
        },
        {
          "indexed": true,
          "internalType": "address",
          "name": "current",
          "type": "address"
        }
      ],
      "name": "PayeeshipTransferred",
      "type": "event"
    },
    {
      "anonymous": false,
      "inputs": [
        {
          "indexed": false,
          "internalType": "address",
          "name": "user",
          "type": "address"
        }
      ],
      "name": "RemovedAccess",
      "type": "event"
    },
    {
      "anonymous": false,
      "inputs": [
        {
          "indexed": false,
          "internalType": "contract AccessControllerInterface",
          "name": "old",
          "type": "address"
        },
        {
          "indexed": false,
          "internalType": "contract AccessControllerInterface",
          "name": "current",
          "type": "address"
        }
      ],
      "name": "RequesterAccessControllerSet",
      "type": "event"
    },
    {
      "anonymous": false,
      "inputs": [
        {
          "indexed": true,
          "internalType": "address",
          "name": "requester",
          "type": "address"
        },
        {
          "indexed": false,
          "internalType": "bytes16",
          "name": "configDigest",
          "type": "bytes16"
        },
        {
          "indexed": false,
          "internalType": "uint32",
          "name": "epoch",
          "type": "uint32"
        },
        {
          "indexed": false,
          "internalType": "uint8",
          "name": "round",
          "type": "uint8"
        }
      ],
      "name": "RoundRequested",
      "type": "event"
    },
    {
      "anonymous": false,
      "inputs": [
        {
          "indexed": true,
          "internalType": "contract AggregatorValidatorInterface",
          "name": "previousValidator",
          "type": "address"
        },
        {
          "indexed": false,
          "internalType": "uint32",
          "name": "previousGasLimit",
          "type": "uint32"
        },
        {
          "indexed": true,
          "internalType": "contract AggregatorValidatorInterface",
          "name": "currentValidator",
          "type": "address"
        },
        {
          "indexed": false,
          "internalType": "uint32",
          "name": "currentGasLimit",
          "type": "uint32"
        }
      ],
      "name": "ValidatorConfigSet",
      "type": "event"
    },
    {
      "inputs": [],
      "name": "LINK",
      "outputs": [
        {
          "internalType": "contract LinkTokenInterface",
          "name": "",
          "type": "address"
        }
      ],
      "stateMutability": "view",
      "type": "function"
    },
    {
      "inputs": [],
      "name": "acceptOwnership",
      "outputs": [],
      "stateMutability": "nonpayable",
      "type": "function"
    },
    {
      "inputs": [
        {
          "internalType": "address",
          "name": "_transmitter",
          "type": "address"
        }
      ],
      "name": "acceptPayeeship",
      "outputs": [],
      "stateMutability": "nonpayable",
      "type": "function"
    },
    {
      "inputs": [
        {
          "internalType": "address",
          "name": "_user",
          "type": "address"
        }
      ],
      "name": "addAccess",
      "outputs": [],
      "stateMutability": "nonpayable",
      "type": "function"
    },
    {
      "inputs": [],
      "name": "billingAccessController",
      "outputs": [
        {
          "internalType": "contract AccessControllerInterface",
          "name": "",
          "type": "address"
        }
      ],
      "stateMutability": "view",
      "type": "function"
    },
    {
      "inputs": [],
      "name": "checkEnabled",
      "outputs": [
        {
          "internalType": "bool",
          "name": "",
          "type": "bool"
        }
      ],
      "stateMutability": "view",
      "type": "function"
    },
    {
      "inputs": [],
      "name": "decimals",
      "outputs": [
        {
          "internalType": "uint8",
          "name": "",
          "type": "uint8"
        }
      ],
      "stateMutability": "view",
      "type": "function"
    },
    {
      "inputs": [],
      "name": "description",
      "outputs": [
        {
          "internalType": "string",
          "name": "",
          "type": "string"
        }
      ],
      "stateMutability": "view",
      "type": "function"
    },
    {
      "inputs": [],
      "name": "disableAccessCheck",
      "outputs": [],
      "stateMutability": "nonpayable",
      "type": "function"
    },
    {
      "inputs": [],
      "name": "enableAccessCheck",
      "outputs": [],
      "stateMutability": "nonpayable",
      "type": "function"
    },
    {
      "inputs": [
        {
          "internalType": "uint256",
          "name": "_roundId",
          "type": "uint256"
        }
      ],
      "name": "getAnswer",
      "outputs": [
        {
          "internalType": "int256",
          "name": "",
          "type": "int256"
        }
      ],
      "stateMutability": "view",
      "type": "function"
    },
    {
      "inputs": [],
      "name": "getBilling",
      "outputs": [
        {
          "internalType": "uint32",
          "name": "maximumGasPrice",
          "type": "uint32"
        },
        {
          "internalType": "uint32",
          "name": "reasonableGasPrice",
          "type": "uint32"
        },
        {
          "internalType": "uint32",
          "name": "microLinkPerEth",
          "type": "uint32"
        },
        {
          "internalType": "uint32",
          "name": "linkGweiPerObservation",
          "type": "uint32"
        },
        {
          "internalType": "uint32",
          "name": "linkGweiPerTransmission",
          "type": "uint32"
        }
      ],
      "stateMutability": "view",
      "type": "function"
    },
    {
      "inputs": [
        {
          "internalType": "uint80",
          "name": "_roundId",
          "type": "uint80"
        }
      ],
      "name": "getRoundData",
      "outputs": [
        {
          "internalType": "uint80",
          "name": "roundId",
          "type": "uint80"
        },
        {
          "internalType": "int256",
          "name": "answer",
          "type": "int256"
        },
        {
          "internalType": "uint256",
          "name": "startedAt",
          "type": "uint256"
        },
        {
          "internalType": "uint256",
          "name": "updatedAt",
          "type": "uint256"
        },
        {
          "internalType": "uint80",
          "name": "answeredInRound",
          "type": "uint80"
        }
      ],
      "stateMutability": "view",
      "type": "function"
    },
    {
      "inputs": [
        {
          "internalType": "uint256",
          "name": "_roundId",
          "type": "uint256"
        }
      ],
      "name": "getTimestamp",
      "outputs": [
        {
          "internalType": "uint256",
          "name": "",
          "type": "uint256"
        }
      ],
      "stateMutability": "view",
      "type": "function"
    },
    {
      "inputs": [
        {
          "internalType": "address",
          "name": "_user",
          "type": "address"
        },
        {
          "internalType": "bytes",
          "name": "_calldata",
          "type": "bytes"
        }
      ],
      "name": "hasAccess",
      "outputs": [
        {
          "internalType": "bool",
          "name": "",
          "type": "bool"
        }
      ],
      "stateMutability": "view",
      "type": "function"
    },
    {
      "inputs": [],
      "name": "latestAnswer",
      "outputs": [
        {
          "internalType": "int256",
          "name": "",
          "type": "int256"
        }
      ],
      "stateMutability": "view",
      "type": "function"
    },
    {
      "inputs": [],
      "name": "latestConfigDetails",
      "outputs": [
        {
          "internalType": "uint32",
          "name": "configCount",
          "type": "uint32"
        },
        {
          "internalType": "uint32",
          "name": "blockNumber",
          "type": "uint32"
        },
        {
          "internalType": "bytes16",
          "name": "configDigest",
          "type": "bytes16"
        }
      ],
      "stateMutability": "view",
      "type": "function"
    },
    {
      "inputs": [],
      "name": "latestRound",
      "outputs": [
        {
          "internalType": "uint256",
          "name": "",
          "type": "uint256"
        }
      ],
      "stateMutability": "view",
      "type": "function"
    },
    {
      "inputs": [],
      "name": "latestRoundData",
      "outputs": [
        {
          "internalType": "uint80",
          "name": "roundId",
          "type": "uint80"
        },
        {
          "internalType": "int256",
          "name": "answer",
          "type": "int256"
        },
        {
          "internalType": "uint256",
          "name": "startedAt",
          "type": "uint256"
        },
        {
          "internalType": "uint256",
          "name": "updatedAt",
          "type": "uint256"
        },
        {
          "internalType": "uint80",
          "name": "answeredInRound",
          "type": "uint80"
        }
      ],
      "stateMutability": "view",
      "type": "function"
    },
    {
      "inputs": [],
      "name": "latestTimestamp",
      "outputs": [
        {
          "internalType": "uint256",
          "name": "",
          "type": "uint256"
        }
      ],
      "stateMutability": "view",
      "type": "function"
    },
    {
      "inputs": [],
      "name": "latestTransmissionDetails",
      "outputs": [
        {
          "internalType": "bytes16",
          "name": "configDigest",
          "type": "bytes16"
        },
        {
          "internalType": "uint32",
          "name": "epoch",
          "type": "uint32"
        },
        {
          "internalType": "uint8",
          "name": "round",
          "type": "uint8"
        },
        {
          "internalType": "int192",
          "name": "latestAnswer",
          "type": "int192"
        },
        {
          "internalType": "uint64",
          "name": "latestTimestamp",
          "type": "uint64"
        }
      ],
      "stateMutability": "view",
      "type": "function"
    },
    {
      "inputs": [],
      "name": "linkAvailableForPayment",
      "outputs": [
        {
          "internalType": "int256",
          "name": "availableBalance",
          "type": "int256"
        }
      ],
      "stateMutability": "view",
      "type": "function"
    },
    {
      "inputs": [],
      "name": "maxAnswer",
      "outputs": [
        {
          "internalType": "int192",
          "name": "",
          "type": "int192"
        }
      ],
      "stateMutability": "view",
      "type": "function"
    },
    {
      "inputs": [],
      "name": "minAnswer",
      "outputs": [
        {
          "internalType": "int192",
          "name": "",
          "type": "int192"
        }
      ],
      "stateMutability": "view",
      "type": "function"
    },
    {
      "inputs": [
        {
          "internalType": "address",
          "name": "_signerOrTransmitter",
          "type": "address"
        }
      ],
      "name": "oracleObservationCount",
      "outputs": [
        {
          "internalType": "uint16",
          "name": "",
          "type": "uint16"
        }
      ],
      "stateMutability": "view",
      "type": "function"
    },
    {
      "inputs": [
        {
          "internalType": "address",
          "name": "_transmitter",
          "type": "address"
        }
      ],
      "name": "owedPayment",
      "outputs": [
        {
          "internalType": "uint256",
          "name": "",
          "type": "uint256"
        }
      ],
      "stateMutability": "view",
      "type": "function"
    },
    {
      "inputs": [],
      "name": "owner",
      "outputs": [
        {
          "internalType": "address payable",
          "name": "",
          "type": "address"
        }
      ],
      "stateMutability": "view",
      "type": "function"
    },
    {
      "inputs": [
        {
          "internalType": "address",
          "name": "_user",
          "type": "address"
        }
      ],
      "name": "removeAccess",
      "outputs": [],
      "stateMutability": "nonpayable",
      "type": "function"
    },
    {
      "inputs": [],
      "name": "requestNewRound",
      "outputs": [
        {
          "internalType": "uint80",
          "name": "",
          "type": "uint80"
        }
      ],
      "stateMutability": "nonpayable",
      "type": "function"
    },
    {
      "inputs": [],
      "name": "requesterAccessController",
      "outputs": [
        {
          "internalType": "contract AccessControllerInterface",
          "name": "",
          "type": "address"
        }
      ],
      "stateMutability": "view",
      "type": "function"
    },
    {
      "inputs": [
        {
          "internalType": "uint32",
          "name": "_maximumGasPrice",
          "type": "uint32"
        },
        {
          "internalType": "uint32",
          "name": "_reasonableGasPrice",
          "type": "uint32"
        },
        {
          "internalType": "uint32",
          "name": "_microLinkPerEth",
          "type": "uint32"
        },
        {
          "internalType": "uint32",
          "name": "_linkGweiPerObservation",
          "type": "uint32"
        },
        {
          "internalType": "uint32",
          "name": "_linkGweiPerTransmission",
          "type": "uint32"
        }
      ],
      "name": "setBilling",
      "outputs": [],
      "stateMutability": "nonpayable",
      "type": "function"
    },
    {
      "inputs": [
        {
          "internalType": "contract AccessControllerInterface",
          "name": "_billingAccessController",
          "type": "address"
        }
      ],
      "name": "setBillingAccessController",
      "outputs": [],
      "stateMutability": "nonpayable",
      "type": "function"
    },
    {
      "inputs": [
        {
          "internalType": "address[]",
          "name": "_signers",
          "type": "address[]"
        },
        {
          "internalType": "address[]",
          "name": "_transmitters",
          "type": "address[]"
        },
        {
          "internalType": "uint8",
          "name": "_threshold",
          "type": "uint8"
        },
        {
          "internalType": "uint64",
          "name": "_encodedConfigVersion",
          "type": "uint64"
        },
        {
          "internalType": "bytes",
          "name": "_encoded",
          "type": "bytes"
        }
      ],
      "name": "setConfig",
      "outputs": [],
      "stateMutability": "nonpayable",
      "type": "function"
    },
    {
      "inputs": [
        {
          "internalType": "address[]",
          "name": "_transmitters",
          "type": "address[]"
        },
        {
          "internalType": "address[]",
          "name": "_payees",
          "type": "address[]"
        }
      ],
      "name": "setPayees",
      "outputs": [],
      "stateMutability": "nonpayable",
      "type": "function"
    },
    {
      "inputs": [
        {
          "internalType": "contract AccessControllerInterface",
          "name": "_requesterAccessController",
          "type": "address"
        }
      ],
      "name": "setRequesterAccessController",
      "outputs": [],
      "stateMutability": "nonpayable",
      "type": "function"
    },
    {
      "inputs": [
        {
          "internalType": "contract AggregatorValidatorInterface",
          "name": "_newValidator",
          "type": "address"
        },
        {
          "internalType": "uint32",
          "name": "_newGasLimit",
          "type": "uint32"
        }
      ],
      "name": "setValidatorConfig",
      "outputs": [],
      "stateMutability": "nonpayable",
      "type": "function"
    },
    {
      "inputs": [
        {
          "internalType": "address",
          "name": "_to",
          "type": "address"
        }
      ],
      "name": "transferOwnership",
      "outputs": [],
      "stateMutability": "nonpayable",
      "type": "function"
    },
    {
      "inputs": [
        {
          "internalType": "address",
          "name": "_transmitter",
          "type": "address"
        },
        {
          "internalType": "address",
          "name": "_proposed",
          "type": "address"
        }
      ],
      "name": "transferPayeeship",
      "outputs": [],
      "stateMutability": "nonpayable",
      "type": "function"
    },
    {
      "inputs": [
        {
          "internalType": "bytes",
          "name": "_report",
          "type": "bytes"
        },
        {
          "internalType": "bytes32[]",
          "name": "_rs",
          "type": "bytes32[]"
        },
        {
          "internalType": "bytes32[]",
          "name": "_ss",
          "type": "bytes32[]"
        },
        {
          "internalType": "bytes32",
          "name": "_rawVs",
          "type": "bytes32"
        }
      ],
      "name": "transmit",
      "outputs": [],
      "stateMutability": "nonpayable",
      "type": "function"
    },
    {
      "inputs": [],
      "name": "transmitters",
      "outputs": [
        {
          "internalType": "address[]",
          "name": "",
          "type": "address[]"
        }
      ],
      "stateMutability": "view",
      "type": "function"
    },
    {
      "inputs": [],
      "name": "typeAndVersion",
      "outputs": [
        {
          "internalType": "string",
          "name": "",
          "type": "string"
        }
      ],
      "stateMutability": "pure",
      "type": "function"
    },
    {
      "inputs": [],
      "name": "validatorConfig",
      "outputs": [
        {
          "internalType": "contract AggregatorValidatorInterface",
          "name": "validator",
          "type": "address"
        },
        {
          "internalType": "uint32",
          "name": "gasLimit",
          "type": "uint32"
        }
      ],
      "stateMutability": "view",
      "type": "function"
    },
    {
      "inputs": [],
      "name": "version",
      "outputs": [
        {
          "internalType": "uint256",
          "name": "",
          "type": "uint256"
        }
      ],
      "stateMutability": "view",
      "type": "function"
    },
    {
      "inputs": [
        {
          "internalType": "address",
          "name": "_recipient",
          "type": "address"
        },
        {
          "internalType": "uint256",
          "name": "_amount",
          "type": "uint256"
        }
      ],
      "name": "withdrawFunds",
      "outputs": [],
      "stateMutability": "nonpayable",
      "type": "function"
    },
    {
      "inputs": [
        {
          "internalType": "address",
          "name": "_transmitter",
          "type": "address"
        }
      ],
      "name": "withdrawPayment",
      "outputs": [],
      "stateMutability": "nonpayable",
      "type": "function"
    }
  ],
  "bytecode": "0x6101006040523480156200001257600080fd5b5060405162005a4938038062005a4983398181016040526101808110156200003957600080fd5b815160208301516040808501516060860151608087015160a088015160c089015160e08a01516101008b01516101208c01516101408d01516101608e0180519a519c9e9b9d999c989b979a969995989497939692959194939182019284640100000000821115620000a957600080fd5b908301906020820185811115620000bf57600080fd5b8251640100000000811182820188101715620000da57600080fd5b82525081516020918201929091019080838360005b8381101562000109578181015183820152602001620000ef565b50505050905090810190601f168015620001375780820380516001836020036101000a031916815260200191505b506040525050600080546001600160a01b03191633179055508b8b8b8b8b8b8b8b8b8b8b8b8b8b8b8b8b8b89620001728787878787620002b9565b6200017d81620003ab565b6001600160601b0319606083901b166080526200019962000642565b620001a362000642565b60005b601f8160ff161015620001f3576001838260ff16601f8110620001c557fe5b61ffff909216602092909202015260018260ff8316601f8110620001e557fe5b6020020152600101620001a6565b5062000203600483601f62000661565b5062000213600882601f620006fe565b505050505060f887901b7fff000000000000000000000000000000000000000000000000000000000000001660e052505083516200025c9350602f92506020850191506200072f565b50620002688362000424565b62000275600080620004fc565b50505050601791820b820b604090811b60a05290820b90910b901b60c05250506030805460ff1916600117905550620007c89e505050505050505050505050505050565b6040805160a0808201835263ffffffff88811680845288821660208086018290528984168688018190528985166060808901829052958a1660809889018190526002805463ffffffff1916871763ffffffff60201b191664010000000087021763ffffffff60401b19166801000000000000000085021763ffffffff60601b19166c0100000000000000000000000084021763ffffffff60801b1916600160801b830217905589519586529285019390935283880152928201529283015291517fd0d9486a2c673e2a4b57fc82e4c8a556b3e2b82dd5db07e2c04a920ca0f469b6929181900390910190a15050505050565b6003546001600160a01b0390811690821681146200042057600380546001600160a01b0319166001600160a01b03848116918217909255604080519284168352602083019190915280517f793cb73064f3c8cde7e187ae515511e6e56d1ee89bf08b82fa60fb70f8d489129281900390910190a15b5050565b6000546001600160a01b0316331462000484576040805162461bcd60e51b815260206004820152601660248201527f4f6e6c792063616c6c61626c65206279206f776e657200000000000000000000604482015290519081900360640190fd5b602e546001600160a01b0390811690821681146200042057602e80546001600160a01b0319166001600160a01b03848116918217909255604080519284168352602083019190915280517f27b89aede8b560578baaa25ee5ce3852c5eecad1e114b941bbd89e1eb4bae6349281900390910190a15050565b6000546001600160a01b031633146200055c576040805162461bcd60e51b815260206004820152601660248201527f4f6e6c792063616c6c61626c65206279206f776e657200000000000000000000604482015290519081900360640190fd5b60408051808201909152602d546001600160a01b03808216808452600160a01b90920463ffffffff1660208401528416141580620005aa57508163ffffffff16816020015163ffffffff1614155b156200063d576040805180820182526001600160a01b0385811680835263ffffffff8681166020948501819052602d80546001600160a01b031916841763ffffffff60a01b1916600160a01b8302179055865187860151875193168352948201528451919493909216927fb04e3a37abe9c0fcdfebdeae019a8e2b12ddf53f5d55ffb0caccc1bedaca1541928290030190a35b505050565b604051806103e00160405280601f906020820280368337509192915050565b600283019183908215620006ec5791602002820160005b83821115620006ba57835183826101000a81548161ffff021916908361ffff160217905550926020019260020160208160010104928301926001030262000678565b8015620006ea5782816101000a81549061ffff0219169055600201602081600101049283019260010302620006ba565b505b50620006fa929150620007b1565b5090565b82601f8101928215620006ec579160200282015b82811115620006ec57825182559160200191906001019062000712565b828054600181600116156101000203166002900490600052602060002090601f016020900481019282620007675760008555620006ec565b82601f106200078257805160ff1916838001178555620006ec565b82800160010185558215620006ec5791820182811115620006ec57825182559160200191906001019062000712565b5b80821115620006fa5760008155600101620007b2565b60805160601c60a05160401c60c05160401c60e05160f81c61521c6200082d60003980610f52525080611886528061338f525080610ec75280613362525080610ea35280612741528061283152806137585280613e9f5280614620525061521c6000f3fe608060405234801561001057600080fd5b50600436106102ff5760003560e01c80638da5cb5b1161019c578063bd824706116100ee578063e5fe457711610097578063f2fde38b11610071578063f2fde38b14610c5f578063fbffd2c114610c85578063feaf968c14610cab576102ff565b8063e5fe457714610ba4578063eb45716314610bff578063eb5dcd6c14610c31576102ff565b8063d09dc339116100c8578063d09dc33914610b57578063dc7f012414610b5f578063e4902f8214610b67576102ff565b8063bd824706146109d2578063c107532914610a17578063c980753914610a43576102ff565b80639c849b3011610150578063b121e1471161012a578063b121e14714610972578063b5ab58dc14610998578063b633620c146109b5576102ff565b80639c849b30146108645780639e3ceeab14610926578063a118f2491461094c576102ff565b806398e5b12a1161018157806398e5b12a146107c2578063996e8298146107e95780639a6fc8f5146107f1576102ff565b80638da5cb5b1461078a5780638e0566de14610792576102ff565b80636b14daf8116102555780638038e4a1116102095780638205bf6a116101e35780638205bf6a146107365780638823da6c1461073e5780638ac28d5a14610764576102ff565b80638038e4a114610694578063814118341461069c57806381ff7048146106f4576102ff565b806370efdf2d1161023a57806370efdf2d1461067c5780637284e4161461068457806379ba50971461068c576102ff565b80636b14daf8146105aa57806370da2f6714610674576102ff565b806329937268116102b757806354fd4d501161029157806354fd4d501461046d578063585aa7de14610475578063668a0f02146105a2576102ff565b80632993726814610406578063313ce5671461044757806350d25bcd14610465576102ff565b8063181f5a77116102e8578063181f5a77146103465780631b6b6d23146103c357806322adbc78146103e7576102ff565b80630a756983146103045780630eafb25b1461030e575b600080fd5b61030c610cb3565b005b6103346004803603602081101561032457600080fd5b50356001600160a01b0316610d4c565b60408051918252519081900360200190f35b61034e610e81565b6040805160208082528351818301528351919283929083019185019080838360005b83811015610388578181015183820152602001610370565b50505050905090810190601f1680156103b55780820380516001836020036101000a031916815260200191505b509250505060405180910390f35b6103cb610ea1565b604080516001600160a01b039092168252519081900360200190f35b6103ef610ec5565b6040805160179290920b8252519081900360200190f35b61040e610ee9565b6040805163ffffffff96871681529486166020860152928516848401529084166060840152909216608082015290519081900360a00190f35b61044f610f50565b6040805160ff9092168252519081900360200190f35b610334610f74565b610334611001565b61030c600480360360a081101561048b57600080fd5b8101906020810181356401000000008111156104a657600080fd5b8201836020820111156104b857600080fd5b803590602001918460208302840111640100000000831117156104da57600080fd5b9193909290916020810190356401000000008111156104f857600080fd5b82018360208201111561050a57600080fd5b8035906020019184602083028401116401000000008311171561052c57600080fd5b9193909260ff8335169267ffffffffffffffff60208201351692919060608101906040013564010000000081111561056357600080fd5b82018360208201111561057557600080fd5b8035906020019184600183028401116401000000008311171561059757600080fd5b509092509050611006565b6103346117d4565b610660600480360360408110156105c057600080fd5b6001600160a01b0382351691908101906040810160208201356401000000008111156105eb57600080fd5b8201836020820111156105fd57600080fd5b8035906020019184600183028401116401000000008311171561061f57600080fd5b91908080601f01602080910402602001604051908101604052809392919081815260200183838082843760009201919091525092955061185c945050505050565b604080519115158252519081900360200190f35b6103ef611884565b6103cb6118a8565b61034e6118b7565b61030c61193f565b61030c6119f5565b6106a4611a8f565b60408051602080825283518183015283519192839290830191858101910280838360005b838110156106e05781810151838201526020016106c8565b505050509050019250505060405180910390f35b6106fc611af1565b6040805163ffffffff94851681529290931660208301526fffffffffffffffffffffffffffffffff19168183015290519081900360600190f35b610334611b12565b61030c6004803603602081101561075457600080fd5b50356001600160a01b0316611b9a565b61030c6004803603602081101561077a57600080fd5b50356001600160a01b0316611c6c565b6103cb611ce3565b61079a611cf2565b604080516001600160a01b03909316835263ffffffff90911660208301528051918290030190f35b6107ca611d25565b6040805169ffffffffffffffffffff9092168252519081900360200190f35b6103cb611f01565b61081a6004803603602081101561080757600080fd5b503569ffffffffffffffffffff16611f10565b604051808669ffffffffffffffffffff1681526020018581526020018481526020018381526020018269ffffffffffffffffffff1681526020019550505050505060405180910390f35b61030c6004803603604081101561087a57600080fd5b81019060208101813564010000000081111561089557600080fd5b8201836020820111156108a757600080fd5b803590602001918460208302840111640100000000831117156108c957600080fd5b9193909290916020810190356401000000008111156108e757600080fd5b8201836020820111156108f957600080fd5b8035906020019184602083028401116401000000008311171561091b57600080fd5b509092509050611fb1565b61030c6004803603602081101561093c57600080fd5b50356001600160a01b03166121cb565b61030c6004803603602081101561096257600080fd5b50356001600160a01b031661229b565b61030c6004803603602081101561098857600080fd5b50356001600160a01b03166122fc565b610334600480360360208110156109ae57600080fd5b50356123dd565b610334600480360360208110156109cb57600080fd5b5035612466565b61030c600480360360a08110156109e857600080fd5b5063ffffffff8135811691602081013582169160408201358116916060810135821691608090910135166124ef565b61030c60048036036040811015610a2d57600080fd5b506001600160a01b03813516906020013561261e565b61030c60048036036080811015610a5957600080fd5b810190602081018135640100000000811115610a7457600080fd5b820183602082011115610a8657600080fd5b80359060200191846001830284011164010000000083111715610aa857600080fd5b919390929091602081019035640100000000811115610ac657600080fd5b820183602082011115610ad857600080fd5b80359060200191846020830284011164010000000083111715610afa57600080fd5b919390929091602081019035640100000000811115610b1857600080fd5b820183602082011115610b2a57600080fd5b80359060200191846020830284011164010000000083111715610b4c57600080fd5b919350915035612929565b610334613753565b610660613804565b610b8d60048036036020811015610b7d57600080fd5b50356001600160a01b031661380d565b6040805161ffff9092168252519081900360200190f35b610bac6138ba565b604080516fffffffffffffffffffffffffffffffff19909616865263ffffffff909416602086015260ff9092168484015260170b606084015267ffffffffffffffff166080830152519081900360a00190f35b61030c60048036036040811015610c1557600080fd5b5080356001600160a01b0316906020013563ffffffff16613974565b61030c60048036036040811015610c4757600080fd5b506001600160a01b0381358116916020013516613ac8565b61030c60048036036020811015610c7557600080fd5b50356001600160a01b0316613c0b565b61030c60048036036020811015610c9b57600080fd5b50356001600160a01b0316613cb4565b61081a613d15565b6000546001600160a01b03163314610d0b576040805162461bcd60e51b815260206004820152601660248201527527b7363c9031b0b63630b1363290313c9037bbb732b960511b604482015290519081900360640190fd5b60305460ff1615610d4a576030805460ff191690556040517f3be8a977a014527b50ae38adda80b56911c267328965c98ddc385d248f53963890600090a15b565b6001600160a01b03811660009081526027602090815260408083208151808301909252805460ff808216845285948401916101009004166002811115610d8e57fe5b6002811115610d9957fe5b9052509050600081602001516002811115610db057fe5b1415610dc0576000915050610e7c565b6040805160a08101825260025463ffffffff8082168352640100000000820481166020840152680100000000000000008204811693830193909352600160601b8104831660608301819052600160801b90910490921660808201528251909160009160019060049060ff16601f8110610e3557fe5b601091828204019190066002029054906101000a900461ffff160361ffff1602633b9aca0002905060016008846000015160ff16601f8110610e7357fe5b01540301925050505b919050565b60606040518060600160405280602881526020016151bf60289139905090565b7f000000000000000000000000000000000000000000000000000000000000000081565b7f000000000000000000000000000000000000000000000000000000000000000081565b6040805160a08101825260025463ffffffff80821680845264010000000083048216602085018190526801000000000000000084048316958501869052600160601b8404831660608601819052600160801b90940490921660809094018490529490939290565b7f000000000000000000000000000000000000000000000000000000000000000081565b6000610fb7336000368080601f01602080910402602001604051908101604052809392919081815260200183838082843760009201919091525061185c92505050565b610ff4576040805162461bcd60e51b81526020600482015260096024820152684e6f2061636365737360b81b604482015290519081900360640190fd5b610ffc613db4565b905090565b600481565b868560ff8616601f831115611062576040805162461bcd60e51b815260206004820152601060248201527f746f6f206d616e79207369676e65727300000000000000000000000000000000604482015290519081900360640190fd5b600081116110b7576040805162461bcd60e51b815260206004820152601a60248201527f7468726573686f6c64206d75737420626520706f736974697665000000000000604482015290519081900360640190fd5b8183146110f55760405162461bcd60e51b815260040180806020018281038252602481526020018061519b6024913960400191505060405180910390fd5b80600302831161114c576040805162461bcd60e51b815260206004820181905260248201527f6661756c74792d6f7261636c65207468726573686f6c6420746f6f2068696768604482015290519081900360640190fd5b6000546001600160a01b031633146111a4576040805162461bcd60e51b815260206004820152601660248201527527b7363c9031b0b63630b1363290313c9037bbb732b960511b604482015290519081900360640190fd5b602854156112a15760288054600019810191600091839081106111c357fe5b6000918252602082200154602980546001600160a01b03909216935090849081106111ea57fe5b6000918252602090912001546001600160a01b0316905061120a81613ddd565b6001600160a01b03808316600090815260276020526040808220805461ffff199081169091559284168252902080549091169055602880548061124957fe5b600082815260209020810160001990810180546001600160a01b0319169055019055602980548061127657fe5b600082815260209020810160001990810180546001600160a01b0319169055019055506111a4915050565b60005b8a811015611609576000602760008e8e858181106112be57fe5b602090810292909201356001600160a01b031683525081019190915260400160002054610100900460ff1660028111156112f457fe5b14611346576040805162461bcd60e51b815260206004820152601760248201527f7265706561746564207369676e65722061646472657373000000000000000000604482015290519081900360640190fd5b6040805180820190915260ff8216815260016020820152602760008e8e8581811061136d57fe5b602090810292909201356001600160a01b0316835250818101929092526040016000208251815460ff191660ff90911617808255918301519091829061ff0019166101008360028111156113bd57fe5b02179055506000915060069050818c8c858181106113d757fe5b6001600160a01b0360209182029390930135831684528301939093526040909101600020541691909114159050611455576040805162461bcd60e51b815260206004820152601160248201527f7061796565206d75737420626520736574000000000000000000000000000000604482015290519081900360640190fd5b6000602760008c8c8581811061146757fe5b602090810292909201356001600160a01b031683525081019190915260400160002054610100900460ff16600281111561149d57fe5b146114ef576040805162461bcd60e51b815260206004820152601c60248201527f7265706561746564207472616e736d6974746572206164647265737300000000604482015290519081900360640190fd5b6040805180820190915260ff8216815260026020820152602760008c8c8581811061151657fe5b602090810292909201356001600160a01b0316835250818101929092526040016000208251815460ff191660ff90911617808255918301519091829061ff00191661010083600281111561156657fe5b021790555090505060288c8c8381811061157c57fe5b835460018101855560009485526020948590200180546001600160a01b0319166001600160a01b03959092029390930135939093169290921790555060298a8a838181106115c657fe5b835460018181018655600095865260209586902090910180546001600160a01b0319166001600160a01b03969093029490940135949094161790915550016112a4565b50602a805460ff8916600160a81b0260ff60a81b19909116179055602c80544363ffffffff90811664010000000090810267ffffffff0000000019841617808316600101831663ffffffff1990911617938490559091048116911661167630828f8f8f8f8f8f8f8f613ffc565b602a60000160006101000a8154816fffffffffffffffffffffffffffffffff021916908360801c02179055506000602a60000160106101000a81548164ffffffffff021916908364ffffffffff1602179055507f25d719d88a4512dd76c7442b910a83360845505894eb444ef299409e180f8fb982828f8f8f8f8f8f8f8f604051808b63ffffffff1681526020018a67ffffffffffffffff16815260200180602001806020018760ff1681526020018667ffffffffffffffff1681526020018060200184810384528c8c82818152602001925060200280828437600083820152601f01601f191690910185810384528a8152602090810191508b908b0280828437600083820152601f01601f191690910185810383528681526020019050868680828437600083820152604051601f909101601f19169092018290039f50909d5050505050505050505050505050a150505050505050505050505050565b6000611817336000368080601f01602080910402602001604051908101604052809392919081815260200183838082843760009201919091525061185c92505050565b611854576040805162461bcd60e51b81526020600482015260096024820152684e6f2061636365737360b81b604482015290519081900360640190fd5b610ffc614100565b60006118688383614113565b8061187b57506001600160a01b03831632145b90505b92915050565b7f000000000000000000000000000000000000000000000000000000000000000081565b602e546001600160a01b031690565b60606118fa336000368080601f01602080910402602001604051908101604052809392919081815260200183838082843760009201919091525061185c92505050565b611937576040805162461bcd60e51b81526020600482015260096024820152684e6f2061636365737360b81b604482015290519081900360640190fd5b610ffc614143565b6001546001600160a01b0316331461199e576040805162461bcd60e51b815260206004820152601660248201527f4d7573742062652070726f706f736564206f776e657200000000000000000000604482015290519081900360640190fd5b60008054336001600160a01b0319808316821784556001805490911690556040516001600160a01b0390921692909183917f8be0079c531659141344cd1fd0a4f28419497f9722a3daafe3b4186f6b6457e091a350565b6000546001600160a01b03163314611a4d576040805162461bcd60e51b815260206004820152601660248201527527b7363c9031b0b63630b1363290313c9037bbb732b960511b604482015290519081900360640190fd5b60305460ff16610d4a576030805460ff191660011790556040517faebf329500988c6488a0074e5a0a9ff304561fc5c6fc877aeb1d59c8282c348090600090a1565b60606029805480602002602001604051908101604052809291908181526020018280548015611ae757602002820191906000526020600020905b81546001600160a01b03168152600190910190602001808311611ac9575b5050505050905090565b602c54602a5463ffffffff808316926401000000009004169060801b909192565b6000611b55336000368080601f01602080910402602001604051908101604052809392919081815260200183838082843760009201919091525061185c92505050565b611b92576040805162461bcd60e51b81526020600482015260096024820152684e6f2061636365737360b81b604482015290519081900360640190fd5b610ffc6141d0565b6000546001600160a01b03163314611bf2576040805162461bcd60e51b815260206004820152601660248201527527b7363c9031b0b63630b1363290313c9037bbb732b960511b604482015290519081900360640190fd5b6001600160a01b03811660009081526031602052604090205460ff1615611c69576001600160a01b038116600081815260316020908152604091829020805460ff19169055815192835290517f3d68a6fce901d20453d1a7aa06bf3950302a735948037deb182a8db66df2a0d19281900390910190a15b50565b6001600160a01b03818116600090815260066020526040902054163314611cda576040805162461bcd60e51b815260206004820152601760248201527f4f6e6c792070617965652063616e207769746864726177000000000000000000604482015290519081900360640190fd5b611c6981613ddd565b6000546001600160a01b031681565b60408051808201909152602d546001600160a01b038116808352600160a01b90910463ffffffff16602090920182905291565b600080546001600160a01b0316331480611de85750602e5460408051630d629b5f60e31b815233600482018181526024830193845236604484018190526001600160a01b0390951694636b14daf894929360009391929190606401848480828437600083820152604051601f909101601f1916909201965060209550909350505081840390508186803b158015611dbb57600080fd5b505afa158015611dcf573d6000803e3d6000fd5b505050506040513d6020811015611de557600080fd5b50515b611e39576040805162461bcd60e51b815260206004820152601d60248201527f4f6e6c79206f776e6572267265717565737465722063616e2063616c6c000000604482015290519081900360640190fd5b6040805160808082018352602a549081901b6fffffffffffffffffffffffffffffffff1916808352600160801b820464ffffffffff8116602080860191909152600160a81b840460ff90811686880152600160b01b90940463ffffffff9081166060808801919091528751948552600884901c909116918401919091529216818501529251919233927f3ea16a923ff4b1df6526e854c9e3a995c43385d70e73359e10623c74f0b52037929181900390910190a2806060015160010163ffffffff1691505090565b6003546001600160a01b031690565b6000806000806000611f59336000368080601f01602080910402602001604051908101604052809392919081815260200183838082843760009201919091525061185c92505050565b611f96576040805162461bcd60e51b81526020600482015260096024820152684e6f2061636365737360b81b604482015290519081900360640190fd5b611f9f86614203565b939a9299509097509550909350915050565b6000546001600160a01b03163314612009576040805162461bcd60e51b815260206004820152601660248201527527b7363c9031b0b63630b1363290313c9037bbb732b960511b604482015290519081900360640190fd5b82811461205d576040805162461bcd60e51b815260206004820181905260248201527f7472616e736d6974746572732e73697a6520213d207061796565732e73697a65604482015290519081900360640190fd5b60005b838110156121c457600085858381811061207657fe5b905060200201356001600160a01b03169050600084848481811061209657fe5b6001600160a01b0385811660009081526006602090815260409091205492029390930135831693509091169050801580806120e25750826001600160a01b0316826001600160a01b0316145b612133576040805162461bcd60e51b815260206004820152601160248201527f706179656520616c726561647920736574000000000000000000000000000000604482015290519081900360640190fd5b6001600160a01b03848116600090815260066020526040902080546001600160a01b031916858316908117909155908316146121b457826001600160a01b0316826001600160a01b0316856001600160a01b03167f78af32efdcad432315431e9b03d27e6cd98fb79c405fdc5af7c1714d9c0f75b360405160405180910390a45b5050600190920191506120609050565b5050505050565b6000546001600160a01b03163314612223576040805162461bcd60e51b815260206004820152601660248201527527b7363c9031b0b63630b1363290313c9037bbb732b960511b604482015290519081900360640190fd5b602e546001600160a01b03908116908216811461229757602e80546001600160a01b0319166001600160a01b03848116918217909255604080519284168352602083019190915280517f27b89aede8b560578baaa25ee5ce3852c5eecad1e114b941bbd89e1eb4bae6349281900390910190a15b5050565b6000546001600160a01b031633146122f3576040805162461bcd60e51b815260206004820152601660248201527527b7363c9031b0b63630b1363290313c9037bbb732b960511b604482015290519081900360640190fd5b611c6981614339565b6001600160a01b0381811660009081526007602052604090205416331461236a576040805162461bcd60e51b815260206004820152601f60248201527f6f6e6c792070726f706f736564207061796565732063616e2061636365707400604482015290519081900360640190fd5b6001600160a01b0381811660008181526006602090815260408083208054336001600160a01b031980831682179093556007909452828520805490921690915590519416939092849290917f78af32efdcad432315431e9b03d27e6cd98fb79c405fdc5af7c1714d9c0f75b39190a45050565b6000612420336000368080601f01602080910402602001604051908101604052809392919081815260200183838082843760009201919091525061185c92505050565b61245d576040805162461bcd60e51b81526020600482015260096024820152684e6f2061636365737360b81b604482015290519081900360640190fd5b61187e826143b4565b60006124a9336000368080601f01602080910402602001604051908101604052809392919081815260200183838082843760009201919091525061185c92505050565b6124e6576040805162461bcd60e51b81526020600482015260096024820152684e6f2061636365737360b81b604482015290519081900360640190fd5b61187e826143ea565b6003546000546001600160a01b0391821691163314806125b0575060408051630d629b5f60e31b815233600482018181526024830193845236604484018190526001600160a01b03861694636b14daf8946000939190606401848480828437600083820152604051601f909101601f1916909201965060209550909350505081840390508186803b15801561258357600080fd5b505afa158015612597573d6000803e3d6000fd5b505050506040513d60208110156125ad57600080fd5b50515b612601576040805162461bcd60e51b815260206004820181905260248201527f4f6e6c79206f776e65722662696c6c696e6741646d696e2063616e2063616c6c604482015290519081900360640190fd5b61260961442a565b61261686868686866147ce565b505050505050565b6000546001600160a01b03163314806126e0575060035460408051630d629b5f60e31b815233600482018181526024830193845236604484018190526001600160a01b0390951694636b14daf894929360009391929190606401848480828437600083820152604051601f909101601f1916909201965060209550909350505081840390508186803b1580156126b357600080fd5b505afa1580156126c7573d6000803e3d6000fd5b505050506040513d60208110156126dd57600080fd5b50515b612731576040805162461bcd60e51b815260206004820181905260248201527f4f6e6c79206f776e65722662696c6c696e6741646d696e2063616e2063616c6c604482015290519081900360640190fd5b600061273b6148ed565b905060007f00000000000000000000000000000000000000000000000000000000000000006001600160a01b03166370a08231306040518263ffffffff1660e01b815260040180826001600160a01b0316815260200191505060206040518083038186803b1580156127ac57600080fd5b505afa1580156127c0573d6000803e3d6000fd5b505050506040513d60208110156127d657600080fd5b505190508181101561282f576040805162461bcd60e51b815260206004820152601460248201527f696e73756666696369656e742062616c616e6365000000000000000000000000604482015290519081900360640190fd5b7f00000000000000000000000000000000000000000000000000000000000000006001600160a01b031663a9059cbb8561286b85850387614aa7565b6040518363ffffffff1660e01b815260040180836001600160a01b0316815260200182815260200192505050602060405180830381600087803b1580156128b157600080fd5b505af11580156128c5573d6000803e3d6000fd5b505050506040513d60208110156128db57600080fd5b5051612923576040805162461bcd60e51b8152602060048201526012602482015271696e73756666696369656e742066756e647360701b604482015290519081900360640190fd5b50505050565b60005a905061293c888888888888614abe565b361461298f576040805162461bcd60e51b815260206004820152601960248201527f7472616e736d6974206d65737361676520746f6f206c6f6e6700000000000000604482015290519081900360640190fd5b612997615030565b6040805160808082018352602a549081901b6fffffffffffffffffffffffffffffffff19168252600160801b810464ffffffffff166020830152600160a81b810460ff1692820192909252600160b01b90910463ffffffff166060808301919091529082526000908a908a90811015612a0f57600080fd5b813591602081013591810190606081016040820135640100000000811115612a3657600080fd5b820183602082011115612a4857600080fd5b80359060200191846020830284011164010000000083111715612a6a57600080fd5b91908080602002602001604051908101604052809392919081815260200183836020028082843760009201919091525050505060408801525050506080840182905283515190925060589190911b906fffffffffffffffffffffffffffffffff19808316911614612b22576040805162461bcd60e51b815260206004820152601560248201527f636f6e666967446967657374206d69736d617463680000000000000000000000604482015290519081900360640190fd5b608083015183516020015164ffffffffff808316911610612b8a576040805162461bcd60e51b815260206004820152600c60248201527f7374616c65207265706f72740000000000000000000000000000000000000000604482015290519081900360640190fd5b83516040015160ff168911612be6576040805162461bcd60e51b815260206004820152601560248201527f6e6f7420656e6f756768207369676e6174757265730000000000000000000000604482015290519081900360640190fd5b601f891115612c3c576040805162461bcd60e51b815260206004820152601360248201527f746f6f206d616e79207369676e61747572657300000000000000000000000000604482015290519081900360640190fd5b868914612c90576040805162461bcd60e51b815260206004820152601e60248201527f7369676e617475726573206f7574206f6620726567697374726174696f6e0000604482015290519081900360640190fd5b601f8460400151511115612ceb576040805162461bcd60e51b815260206004820152601e60248201527f6e756d206f62736572766174696f6e73206f7574206f6620626f756e64730000604482015290519081900360640190fd5b83600001516040015160020260ff1684604001515111612d52576040805162461bcd60e51b815260206004820152601e60248201527f746f6f206665772076616c75657320746f207472757374206d656469616e0000604482015290519081900360640190fd5b8867ffffffffffffffff81118015612d6957600080fd5b506040519080825280601f01601f191660200182016040528015612d94576020820181803683370190505b50606085015260005b60ff81168a1115612e0557868160ff1660208110612db757fe5b1a60f81b85606001518260ff1681518110612dce57fe5b60200101907effffffffffffffffffffffffffffffffffffffffffffffffffffffffffffff1916908160001a905350600101612d9d565b5083604001515167ffffffffffffffff81118015612e2257600080fd5b506040519080825280601f01601f191660200182016040528015612e4d576020820181803683370190505b506020850152612e5b615064565b60005b8560400151518160ff161015612f61576000858260ff1660208110612e7f57fe5b1a90508281601f8110612e8e57fe5b602002015115612ee5576040805162461bcd60e51b815260206004820152601760248201527f6f6273657276657220696e646578207265706561746564000000000000000000604482015290519081900360640190fd5b6001838260ff16601f8110612ef657fe5b91151560209283029190910152869060ff8416908110612f1257fe5b1a60f81b87602001518360ff1681518110612f2957fe5b60200101907effffffffffffffffffffffffffffffffffffffffffffffffffffffffffffff1916908160001a90535050600101612e5e565b503360009081526027602090815260408083208151808301909252805460ff80821684529293919291840191610100909104166002811115612f9f57fe5b6002811115612faa57fe5b9052509050600281602001516002811115612fc157fe5b148015612ff557506029816000015160ff1681548110612fdd57fe5b6000918252602090912001546001600160a01b031633145b613046576040805162461bcd60e51b815260206004820152601860248201527f756e617574686f72697a6564207472616e736d69747465720000000000000000604482015290519081900360640190fd5b5050835164ffffffffff90911660209091015250506040516000908a908a908083838082843760405192018290039091209450613087935061506492505050565b61308f615083565b60005b89811015613288576000600185876060015184815181106130af57fe5b60209101015160f81c601b018e8e868181106130c757fe5b905060200201358d8d878181106130da57fe5b9050602002013560405160008152602001604052604051808581526020018460ff1681526020018381526020018281526020019450505050506020604051602081039080840390855afa158015613135573d6000803e3d6000fd5b505060408051601f198101516001600160a01b03811660009081526027602090815290849020838501909452835460ff8082168552929650929450840191610100900416600281111561318457fe5b600281111561318f57fe5b90525092506001836020015160028111156131a657fe5b146131f8576040805162461bcd60e51b815260206004820152601e60248201527f61646472657373206e6f7420617574686f72697a656420746f207369676e0000604482015290519081900360640190fd5b8251849060ff16601f811061320957fe5b602002015115613260576040805162461bcd60e51b815260206004820152601460248201527f6e6f6e2d756e69717565207369676e6174757265000000000000000000000000604482015290519081900360640190fd5b600184846000015160ff16601f811061327557fe5b9115156020909202015250600101613092565b5050505060005b600182604001515103811015613339576000826040015182600101815181106132b457fe5b602002602001015160170b836040015183815181106132cf57fe5b602002602001015160170b1315905080613330576040805162461bcd60e51b815260206004820152601760248201527f6f62736572766174696f6e73206e6f7420736f72746564000000000000000000604482015290519081900360640190fd5b5060010161328f565b5060408101518051600091906002810490811061335257fe5b602002602001015190508060170b7f000000000000000000000000000000000000000000000000000000000000000060170b131580156133b857507f000000000000000000000000000000000000000000000000000000000000000060170b8160170b13155b613409576040805162461bcd60e51b815260206004820152601e60248201527f6d656469616e206973206f7574206f66206d696e2d6d61782072616e67650000604482015290519081900360640190fd5b81516060908101805163ffffffff60019091018116909152604080518082018252601785810b80835267ffffffffffffffff42811660208086019182528a5189015188166000908152602b8252878120965187549351909416600160c01b029390950b77ffffffffffffffffffffffffffffffffffffffffffffffff9081167fffffffffffffffff0000000000000000000000000000000000000000000000009093169290921790911691909117909355875186015184890151848a01516080808c015188519586523386890181905291860181905260a0988601898152845199870199909952835194909916997ff6a97944f31ea060dfde0566e4167c1a1082551e64b60ecb14d599a9d023d451998c999298949793969095909492939185019260c086019289820192909102908190849084905b8381101561355757818101518382015260200161353f565b50505050905001838103825285818151815260200191508051906020019080838360005b8381101561359357818101518382015260200161357b565b50505050905090810190601f1680156135c05780820380516001836020036101000a031916815260200191505b5097505050505050505060405180910390a281516060015160408051428152905160009263ffffffff16917f0109fc6f55cf40689f02fbaad7af7fe7bbac8a3d2186600afc7d3e10cac60271919081900360200190a381600001516060015163ffffffff168160170b7f0559884fd3a460db3073b7fc896cc77986f16e378210ded43186175bf646fc5f426040518082815260200191505060405180910390a36136758260000151606001518260170b614ad6565b5080518051602a8054602084015160408501516060909501516fffffffffffffffffffffffffffffffff1990921660809490941c939093177fffffffffffffffffffffff0000000000ffffffffffffffffffffffffffffffff16600160801b64ffffffffff909416939093029290921760ff60a81b1916600160a81b60ff90941693909302929092177fffffffffffff00000000ffffffffffffffffffffffffffffffffffffffffffff16600160b01b63ffffffff9283160217909155821061373a57fe5b613748828260200151614be7565b505050505050505050565b6000807f00000000000000000000000000000000000000000000000000000000000000006001600160a01b03166370a08231306040518263ffffffff1660e01b815260040180826001600160a01b0316815260200191505060206040518083038186803b1580156137c357600080fd5b505afa1580156137d7573d6000803e3d6000fd5b505050506040513d60208110156137ed57600080fd5b5051905060006137fb6148ed565b90910391505090565b60305460ff1681565b6001600160a01b03811660009081526027602090815260408083208151808301909252805460ff80821684528594840191610100900416600281111561384f57fe5b600281111561385a57fe5b905250905060008160200151600281111561387157fe5b1415613881576000915050610e7c565b60016004826000015160ff16601f811061389757fe5b601091828204019190066002029054906101000a900461ffff1603915050919050565b600080808080333214613914576040805162461bcd60e51b815260206004820152601460248201527f4f6e6c792063616c6c61626c6520627920454f41000000000000000000000000604482015290519081900360640190fd5b5050602a5463ffffffff600160b01b820481166000908152602b6020526040902054608083901b96600160801b909304600881901c909216955064ffffffffff9091169350601781900b9250600160c01b900467ffffffffffffffff1690565b6000546001600160a01b031633146139cc576040805162461bcd60e51b815260206004820152601660248201527527b7363c9031b0b63630b1363290313c9037bbb732b960511b604482015290519081900360640190fd5b60408051808201909152602d546001600160a01b03808216808452600160a01b90920463ffffffff1660208401528416141580613a1957508163ffffffff16816020015163ffffffff1614155b15613ac3576040805180820182526001600160a01b0385811680835263ffffffff8681166020948501819052602d80546001600160a01b03191684177fffffffffffffffff00000000ffffffffffffffffffffffffffffffffffffffff16600160a01b8302179055865187860151875193168352948201528451919493909216927fb04e3a37abe9c0fcdfebdeae019a8e2b12ddf53f5d55ffb0caccc1bedaca1541928290030190a35b505050565b6001600160a01b03828116600090815260066020526040902054163314613b36576040805162461bcd60e51b815260206004820152601d60248201527f6f6e6c792063757272656e742070617965652063616e20757064617465000000604482015290519081900360640190fd5b336001600160a01b0382161415613b94576040805162461bcd60e51b815260206004820152601760248201527f63616e6e6f74207472616e7366657220746f2073656c66000000000000000000604482015290519081900360640190fd5b6001600160a01b03808316600090815260076020526040902080548383166001600160a01b031982168117909255909116908114613ac3576040516001600160a01b038084169133918616907f84f7c7c80bb8ed2279b4aab5f61cd05e6374073d38f46d7f32de8c30e9e3836790600090a4505050565b6000546001600160a01b03163314613c63576040805162461bcd60e51b815260206004820152601660248201527527b7363c9031b0b63630b1363290313c9037bbb732b960511b604482015290519081900360640190fd5b600180546001600160a01b0319166001600160a01b0383811691821790925560008054604051929316917fed8889f560326eb138920d842192f0eb3dd22b4f139c87a2c57538e05bae12789190a350565b6000546001600160a01b03163314613d0c576040805162461bcd60e51b815260206004820152601660248201527527b7363c9031b0b63630b1363290313c9037bbb732b960511b604482015290519081900360640190fd5b611c6981614e1e565b6000806000806000613d5e336000368080601f01602080910402602001604051908101604052809392919081815260200183838082843760009201919091525061185c92505050565b613d9b576040805162461bcd60e51b81526020600482015260096024820152684e6f2061636365737360b81b604482015290519081900360640190fd5b613da3614e95565b945094509450945094509091929394565b602a54600160b01b900463ffffffff166000908152602b6020526040902054601790810b900b90565b6001600160a01b03811660009081526027602090815260408083208151808301909252805460ff80821684529293919291840191610100909104166002811115613e2357fe5b6002811115613e2e57fe5b90525090506000613e3e83610d4c565b90508015613ac3576001600160a01b0380841660009081526006602090815260408083205481517fa9059cbb0000000000000000000000000000000000000000000000000000000081529085166004820181905260248201879052915191947f0000000000000000000000000000000000000000000000000000000000000000169363a9059cbb9360448084019491939192918390030190829087803b158015613ee757600080fd5b505af1158015613efb573d6000803e3d6000fd5b505050506040513d6020811015613f1157600080fd5b5051613f59576040805162461bcd60e51b8152602060048201526012602482015271696e73756666696369656e742066756e647360701b604482015290519081900360640190fd5b60016004846000015160ff16601f8110613f6f57fe5b601091828204019190066002026101000a81548161ffff021916908361ffff16021790555060016008846000015160ff16601f8110613faa57fe5b0155604080516001600160a01b0380871682528316602082015280820184905290517fe8ec50e5150ae28ae37e493ff389ffab7ffaec2dc4dccfca03f12a3de29d12b29181900360600190a150505050565b60008a8a8a8a8a8a8a8a8a8a604051602001808b6001600160a01b031681526020018a67ffffffffffffffff16815260200180602001806020018760ff1681526020018667ffffffffffffffff1681526020018060200184810384528c8c82818152602001925060200280828437600083820152601f01601f191690910185810384528a8152602090810191508b908b0280828437600083820152601f01601f191690910185810383528681526020019050868680828437600081840152601f19601f8201169050808301925050509d50505050505050505050505050506040516020818303038152906040528051906020012090509a9950505050505050505050565b602a54600160b01b900463ffffffff1690565b6001600160a01b03821660009081526031602052604081205460ff168061187b57505060305460ff161592915050565b602f8054604080516020601f6002600019610100600188161502019095169490940493840181900481028201810190925282815260609390929091830182828015611ae75780601f106141a457610100808354040283529160200191611ae7565b820191906000526020600020905b8154815290600101906020018083116141b257509395945050505050565b602a54600160b01b900463ffffffff166000908152602b6020526040902054600160c01b900467ffffffffffffffff1690565b600080600080600063ffffffff8669ffffffffffffffffffff1611156040518060400160405280600f81526020017f4e6f20646174612070726573656e740000000000000000000000000000000000815250906142de5760405162461bcd60e51b81526004018080602001828103825283818151815260200191508051906020019080838360005b838110156142a357818101518382015260200161428b565b50505050905090810190601f1680156142d05780820380516001836020036101000a031916815260200191505b509250505060405180910390fd5b5050505063ffffffff83166000908152602b6020908152604091829020825180840190935254601781810b810b810b808552600160c01b90920467ffffffffffffffff1693909201839052949594900b939092508291508490565b6001600160a01b03811660009081526031602052604090205460ff16611c69576001600160a01b038116600081815260316020908152604091829020805460ff19166001179055815192835290517f87286ad1f399c8e82bf0c4ef4fcdc570ea2e1e92176e5c848b6413545b885db49281900390910190a150565b600063ffffffff8211156143ca57506000610e7c565b5063ffffffff166000908152602b6020526040902054601790810b900b90565b600063ffffffff82111561440057506000610e7c565b5063ffffffff166000908152602b6020526040902054600160c01b900467ffffffffffffffff1690565b6040805160a08101825260025463ffffffff8082168352640100000000820481166020840152680100000000000000008204811683850152600160601b820481166060840152600160801b90910416608082015281516103e0810192839052909160009190600490601f908285855b82829054906101000a900461ffff1661ffff1681526020019060020190602082600101049283019260010382029150808411614499575050604080516103e0810191829052959650600095945060089350601f9250905082845b8154815260200190600101908083116144f357505050505090506000602980548060200260200160405190810160405280929190818152602001828054801561456557602002820191906000526020600020905b81546001600160a01b03168152600190910190602001808311614547575b5050505050905060005b81518110156147b257600060018483601f811061458857fe5b6020020151039050600060018684601f81106145a057fe5b60200201510361ffff169050600082886060015163ffffffff168302633b9aca000201905060008111156147a7576000600660008787815181106145e057fe5b60200260200101516001600160a01b03166001600160a01b0316815260200190815260200160002060009054906101000a90046001600160a01b031690507f00000000000000000000000000000000000000000000000000000000000000006001600160a01b031663a9059cbb82846040518363ffffffff1660e01b815260040180836001600160a01b0316815260200182815260200192505050602060405180830381600087803b15801561469557600080fd5b505af11580156146a9573d6000803e3d6000fd5b505050506040513d60208110156146bf57600080fd5b5051614707576040805162461bcd60e51b8152602060048201526012602482015271696e73756666696369656e742066756e647360701b604482015290519081900360640190fd5b60018886601f811061471557fe5b61ffff909216602092909202015260018786601f811061473157fe5b602002015285517fe8ec50e5150ae28ae37e493ff389ffab7ffaec2dc4dccfca03f12a3de29d12b29087908790811061476657fe5b6020026020010151828460405180846001600160a01b03168152602001836001600160a01b03168152602001828152602001935050505060405180910390a1505b50505060010161456f565b506147c0600484601f61509a565b506121c4600883601f615130565b6040805160a0808201835263ffffffff88811680845288821660208086018290528984168688018190528985166060808901829052958a1660809889018190526002805463ffffffff1916871767ffffffff0000000019166401000000008702176bffffffff00000000000000001916680100000000000000008502177fffffffffffffffffffffffffffffffff00000000ffffffffffffffffffffffff16600160601b8402177fffffffffffffffffffffffff00000000ffffffffffffffffffffffffffffffff16600160801b830217905589519586529285019390935283880152928201529283015291517fd0d9486a2c673e2a4b57fc82e4c8a556b3e2b82dd5db07e2c04a920ca0f469b6929181900390910190a15050505050565b604080516103e0810191829052600091829190600490601f908285855b82829054906101000a900461ffff1661ffff168152602001906002019060208260010104928301926001038202915080841161490a5790505050505050905060005b601f81101561497a5760018282601f811061496357fe5b60200201510361ffff16929092019160010161494c565b506040805160a08101825260025463ffffffff808216835264010000000082048116602080850191909152680100000000000000008304821684860152600160601b8304821660608501819052600160801b90930490911660808401526029805485518184028101840190965280865296909202633b9aca0002959293600093909291830182828015614a3657602002820191906000526020600020905b81546001600160a01b03168152600190910190602001808311614a18575b5050604080516103e0810191829052949550600094935060089250601f915082845b815481526020019060010190808311614a58575050505050905060005b8251811015614a9f5760018282601f8110614a8c57fe5b6020020151039590950194600101614a75565b505050505090565b600081831015614ab857508161187e565b50919050565b602083810286019082020160e4019695505050505050565b60408051808201909152602d546001600160a01b038116808352600160a01b90910463ffffffff166020830152614b0d5750612297565b600019830163ffffffff8181166000818152602b602090815260408083205487518884015183517fbeed9b510000000000000000000000000000000000000000000000000000000081526004810197909752601792830b90920b602487018190528b88166044880152606487018b9052925192966001600160a01b039091169563beed9b51959290911693608480830194919391928390030190829088803b158015614bb857600080fd5b5087f193505050508015614bde57506040513d6020811015614bd957600080fd5b505160015b612616576121c4565b3360009081526027602090815260408083208151808301909252805460ff80821684529293919291840191610100909104166002811115614c2457fe5b6002811115614c2f57fe5b9052506040805160a08101825260025463ffffffff8082168352640100000000820481166020840152680100000000000000008204811683850152600160601b820481166060840152600160801b90910416608082015281516103e081019283905292935091614ce991859190600490601f90826000855b82829054906101000a900461ffff1661ffff1681526020019060020190602082600101049283019260010382029150808411614ca75790505050505050614ef1565b614cf790600490601f61509a565b50600282602001516002811115614d0a57fe5b14614d5c576040805162461bcd60e51b815260206004820181905260248201527f73656e7420627920756e64657369676e61746564207472616e736d6974746572604482015290519081900360640190fd5b6000614d83633b9aca003a04836020015163ffffffff16846000015163ffffffff16614f66565b90506010360260005a90506000614da28863ffffffff16858585614f8c565b6fffffffffffffffffffffffffffffffff1690506000620f4240866040015163ffffffff16830281614dd057fe5b049050856080015163ffffffff16633b9aca0002816008896000015160ff16601f8110614df957fe5b015401016008886000015160ff16601f8110614e1157fe5b0155505050505050505050565b6003546001600160a01b03908116908216811461229757600380546001600160a01b0319166001600160a01b03848116918217909255604080519284168352602083019190915280517f793cb73064f3c8cde7e187ae515511e6e56d1ee89bf08b82fa60fb70f8d489129281900390910190a15050565b602a54600160b01b900463ffffffff166000818152602b6020908152604091829020825180840190935254601781810b810b810b808552600160c01b90920467ffffffffffffffff1693909201839052929392900b9181908490565b614ef9615064565b60005b8351811015614f5e576000848281518110614f1357fe5b016020015160f81c9050614f388482601f8110614f2c57fe5b60200201516001615018565b848260ff16601f8110614f4757fe5b61ffff909216602092909202015250600101614efc565b509092915050565b60008383811015614f7957600285850304015b614f838184614aa7565b95945050505050565b600081851015614fe3576040805162461bcd60e51b815260206004820181905260248201527f6761734c6566742063616e6e6f742065786365656420696e697469616c476173604482015290519081900360640190fd5b818503830161179301633b9aca00858202026fffffffffffffffffffffffffffffffff811061500e57fe5b9695505050505050565b600061187b8261ffff168461ffff160161ffff614aa7565b6040518060a0016040528061504361515e565b81526060602082018190526040820181905280820152600060809091015290565b604051806103e00160405280601f906020820280368337509192915050565b604080518082019091526000808252602082015290565b6002830191839082156151205791602002820160005b838211156150f057835183826101000a81548161ffff021916908361ffff16021790555092602001926002016020816001010492830192600103026150b0565b801561511e5782816101000a81549061ffff02191690556002016020816001010492830192600103026150f0565b505b5061512c929150615185565b5090565b82601f8101928215615120579160200282015b82811115615120578251825591602001919060010190615143565b60408051608081018252600080825260208201819052918101829052606081019190915290565b5b8082111561512c576000815560010161518656fe6f7261636c6520616464726573736573206f7574206f6620726567697374726174696f6e416363657373436f6e74726f6c6c65644f6666636861696e41676772656761746f7220322e302e30a26469706673582212206f6e419299c945c83a707eb179b8feb3891526c6154fa568f4f081123352e39b64736f6c63430007060033",
  "linkReferences": {},
  "deployedLinkReferences": {}
}