{
  "_format": "hh-sol-artifact-1",
  "contractName": "AccessControlTestHelper",
  "sourceName": "contracts/aggregatorEthUsd/AccessControlTestHelper.sol",
  "abi": [
    {
      "anonymous": false,
      "inputs": [],
      "name": "Dummy",
      "type": "event"
    },
    {
      "inputs": [
        {
          "internalType": "address",
          "name": "_aggregator",
          "type": "address"
        },
        {
          "internalType": "uint256",
          "name": "_roundID",
          "type": "uint256"
        }
      ],
      "name": "readGetAnswer",
      "outputs": [],
      "stateMutability": "nonpayable",
      "type": "function"
    },
    {
      "inputs": [
        {
          "internalType": "address",
          "name": "_aggregator",
          "type": "address"
        },
        {
          "internalType": "uint80",
          "name": "_roundID",
          "type": "uint80"
        }
      ],
      "name": "readGetRoundData",
      "outputs": [],
      "stateMutability": "nonpayable",
      "type": "function"
    },
    {
      "inputs": [
        {
          "internalType": "address",
          "name": "_aggregator",
          "type": "address"
        },
        {
          "internalType": "uint256",
          "name": "_roundID",
          "type": "uint256"
        }
      ],
      "name": "readGetTimestamp",
      "outputs": [],
      "stateMutability": "nonpayable",
      "type": "function"
    },
    {
      "inputs": [
        {
          "internalType": "address",
          "name": "_aggregator",
          "type": "address"
        }
      ],
      "name": "readLatestAnswer",
      "outputs": [],
      "stateMutability": "nonpayable",
      "type": "function"
    },
    {
      "inputs": [
        {
          "internalType": "address",
          "name": "_aggregator",
          "type": "address"
        }
      ],
      "name": "readLatestRound",
      "outputs": [],
      "stateMutability": "nonpayable",
      "type": "function"
    },
    {
      "inputs": [
        {
          "internalType": "address",
          "name": "_aggregator",
          "type": "address"
        }
      ],
      "name": "readLatestRoundData",
      "outputs": [],
      "stateMutability": "nonpayable",
      "type": "function"
    },
    {
      "inputs": [
        {
          "internalType": "address",
          "name": "_aggregator",
          "type": "address"
        }
      ],
      "name": "readLatestTimestamp",
      "outputs": [],
      "stateMutability": "nonpayable",
      "type": "function"
    },
    {
      "inputs": [
        {
          "internalType": "address",
          "name": "_aggregator",
          "type": "address"
        }
      ],
      "name": "testLatestTransmissionDetails",
      "outputs": [],
      "stateMutability": "view",
      "type": "function"
    }
  ],
  "bytecode": "0x608060405234801561001057600080fd5b5061053c806100206000396000f3fe608060405234801561001057600080fd5b50600436106100885760003560e01c8063c0c9c7db1161005b578063c0c9c7db1461013f578063c9592ab914610165578063d2f79c4714610191578063eea2913a146101b757610088565b806304cefda51461008d57806320f2c97c146100b557806395319deb146100db578063bf5fc18b14610113575b600080fd5b6100b3600480360360208110156100a357600080fd5b50356001600160a01b03166101dd565b005b6100b3600480360360208110156100cb57600080fd5b50356001600160a01b0316610245565b6100b3600480360360408110156100f157600080fd5b5080356001600160a01b0316906020013569ffffffffffffffffffff166102d6565b6100b36004803603604081101561012957600080fd5b506001600160a01b03813516906020013561037f565b6100b36004803603602081101561015557600080fd5b50356001600160a01b03166103ed565b6100b36004803603604081101561017b57600080fd5b506001600160a01b038135169060200135610450565b6100b3600480360360208110156101a757600080fd5b50356001600160a01b0316610494565b6100b3600480360360208110156101cd57600080fd5b50356001600160a01b03166104cd565b806001600160a01b031663e5fe45776040518163ffffffff1660e01b815260040160a06040518083038186803b15801561021657600080fd5b505afa15801561022a573d6000803e3d6000fd5b505050506040513d60a081101561024057600080fd5b505050565b806001600160a01b031663feaf968c6040518163ffffffff1660e01b815260040160a06040518083038186803b15801561027e57600080fd5b505afa158015610292573d6000803e3d6000fd5b505050506040513d60a08110156102a857600080fd5b50506040517f10e4ab9f2ce395bf5539d7c60c9bfeef0b416602954734c5bb8bfd9433c9ff6890600090a150565b816001600160a01b0316639a6fc8f5826040518263ffffffff1660e01b8152600401808269ffffffffffffffffffff16815260200191505060a06040518083038186803b15801561032657600080fd5b505afa15801561033a573d6000803e3d6000fd5b505050506040513d60a081101561035057600080fd5b50506040517f10e4ab9f2ce395bf5539d7c60c9bfeef0b416602954734c5bb8bfd9433c9ff6890600090a15050565b816001600160a01b031663b5ab58dc826040518263ffffffff1660e01b81526004018082815260200191505060206040518083038186803b1580156103c357600080fd5b505afa1580156103d7573d6000803e3d6000fd5b505050506040513d602081101561035057600080fd5b806001600160a01b03166350d25bcd6040518163ffffffff1660e01b815260040160206040518083038186803b15801561042657600080fd5b505afa15801561043a573d6000803e3d6000fd5b505050506040513d60208110156102a857600080fd5b816001600160a01b031663b633620c826040518263ffffffff1660e01b81526004018082815260200191505060206040518083038186803b1580156103c357600080fd5b806001600160a01b0316638205bf6a6040518163ffffffff1660e01b815260040160206040518083038186803b15801561042657600080fd5b806001600160a01b031663668a0f026040518163ffffffff1660e01b815260040160206040518083038186803b15801561042657600080fdfea2646970667358221220f37f840ed9acbfdb949f85c45bbeb97fc46277deb7eaacdc5fc5ac8083ede8ef64736f6c63430007060033",
  "linkReferences": {},
  "deployedLinkReferences": {}
}