{
  "_format": "hh-sol-artifact-1",
  "contractName": "MockTransferHook",
  "sourceName": "contracts/AaveToken/MockTransferHook.sol",
  "abi": [
    {
      "anonymous": false,
      "inputs": [],
      "name": "MockHookEvent",
      "type": "event"
    },
    {
      "inputs": [
        {
          "internalType": "address",
          "name": "from",
          "type": "address"
        },
        {
          "internalType": "address",
          "name": "to",
          "type": "address"
        },
        {
          "internalType": "uint256",
          "name": "amount",
          "type": "uint256"
        }
      ],
      "name": "onTransfer",
      "outputs": [],
      "stateMutability": "nonpayable",
      "type": "function"
    }
  ],
  "bytecode": "0x608060405234801561001057600080fd5b5060ff8061001f6000396000f3fe6080604052348015600f57600080fd5b506004361060285760003560e01c80634a39314914602d575b600080fd5b609660048036036060811015604157600080fd5b81019080803573ffffffffffffffffffffffffffffffffffffffff169060200190929190803573ffffffffffffffffffffffffffffffffffffffff169060200190929190803590602001909291905050506098565b005b7f34250cbfa6d218c1d0a9b5950b60dac352f03d00642722e501cbc86d1ea8130160405160405180910390a150505056fea2646970667358221220b5959e09aeab508757b911420048069363afb9f71030c3edfec9ac386be38a3064736f6c634300060a0033",
  "linkReferences": {},
  "deployedLinkReferences": {}
}