{
  "_format": "hh-sol-artifact-1",
  "contractName": "TestOffchainAggregator",
  "sourceName": "contracts/aggregatorEthUsd/TestOffchainAggregator.sol",
  "abi": [
    {
      "inputs": [
        {
          "internalType": "uint32",
          "name": "_maximumGasPrice",
          "type": "uint32"
        },
        {
          "internalType": "uint32",
          "name": "_reasonableGasPrice",
          "type": "uint32"
        },
        {
          "internalType": "uint32",
          "name": "_microLinkPerEth",
          "type": "uint32"
        },
        {
          "internalType": "uint32",
          "name": "_linkGweiPerObservation",
          "type": "uint32"
        },
        {
          "internalType": "uint32",
          "name": "_linkGweiPerTransmission",
          "type": "uint32"
        },
        {
          "internalType": "address",
          "name": "_link",
          "type": "address"
        },
        {
          "internalType": "int192",
          "name": "_minAnswer",
          "type": "int192"
        },
        {
          "internalType": "int192",
          "name": "_maxAnswer",
          "type": "int192"
        },
        {
          "internalType": "contract AccessControllerInterface",
          "name": "_billingAccessController",
          "type": "address"
        },
        {
          "internalType": "contract AccessControllerInterface",
          "name": "_requesterAdminAccessController",
          "type": "address"
        }
      ],
      "stateMutability": "nonpayable",
      "type": "constructor"
    },
    {
      "anonymous": false,
      "inputs": [
        {
          "indexed": false,
          "internalType": "address",
          "name": "user",
          "type": "address"
        }
      ],
      "name": "AddedAccess",
      "type": "event"
    },
    {
      "anonymous": false,
      "inputs": [
        {
          "indexed": true,
          "internalType": "int256",
          "name": "current",
          "type": "int256"
        },
        {
          "indexed": true,
          "internalType": "uint256",
          "name": "roundId",
          "type": "uint256"
        },
        {
          "indexed": false,
          "internalType": "uint256",
          "name": "updatedAt",
          "type": "uint256"
        }
      ],
      "name": "AnswerUpdated",
      "type": "event"
    },
    {
      "anonymous": false,
      "inputs": [
        {
          "indexed": false,
          "internalType": "contract AccessControllerInterface",
          "name": "old",
          "type": "address"
        },
        {
          "indexed": false,
          "internalType": "contract AccessControllerInterface",
          "name": "current",
          "type": "address"
        }
      ],
      "name": "BillingAccessControllerSet",
      "type": "event"
    },
    {
      "anonymous": false,
      "inputs": [
        {
          "indexed": false,
          "internalType": "uint32",
          "name": "maximumGasPrice",
          "type": "uint32"
        },
        {
          "indexed": false,
          "internalType": "uint32",
          "name": "reasonableGasPrice",
          "type": "uint32"
        },
        {
          "indexed": false,
          "internalType": "uint32",
          "name": "microLinkPerEth",
          "type": "uint32"
        },
        {
          "indexed": false,
          "internalType": "uint32",
          "name": "linkGweiPerObservation",
          "type": "uint32"
        },
        {
          "indexed": false,
          "internalType": "uint32",
          "name": "linkGweiPerTransmission",
          "type": "uint32"
        }
      ],
      "name": "BillingSet",
      "type": "event"
    },
    {
      "anonymous": false,
      "inputs": [],
      "name": "CheckAccessDisabled",
      "type": "event"
    },
    {
      "anonymous": false,
      "inputs": [],
      "name": "CheckAccessEnabled",
      "type": "event"
    },
    {
      "anonymous": false,
      "inputs": [
        {
          "indexed": false,
          "internalType": "uint32",
          "name": "previousConfigBlockNumber",
          "type": "uint32"
        },
        {
          "indexed": false,
          "internalType": "uint64",
          "name": "configCount",
          "type": "uint64"
        },
        {
          "indexed": false,
          "internalType": "address[]",
          "name": "signers",
          "type": "address[]"
        },
        {
          "indexed": false,
          "internalType": "address[]",
          "name": "transmitters",
          "type": "address[]"
        },
        {
          "indexed": false,
          "internalType": "uint8",
          "name": "threshold",
          "type": "uint8"
        },
        {
          "indexed": false,
          "internalType": "uint64",
          "name": "encodedConfigVersion",
          "type": "uint64"
        },
        {
          "indexed": false,
          "internalType": "bytes",
          "name": "encoded",
          "type": "bytes"
        }
      ],
      "name": "ConfigSet",
      "type": "event"
    },
    {
      "anonymous": false,
      "inputs": [
        {
          "indexed": true,
          "internalType": "uint256",
          "name": "roundId",
          "type": "uint256"
        },
        {
          "indexed": true,
          "internalType": "address",
          "name": "startedBy",
          "type": "address"
        },
        {
          "indexed": false,
          "internalType": "uint256",
          "name": "startedAt",
          "type": "uint256"
        }
      ],
      "name": "NewRound",
      "type": "event"
    },
    {
      "anonymous": false,
      "inputs": [
        {
          "indexed": true,
          "internalType": "uint32",
          "name": "aggregatorRoundId",
          "type": "uint32"
        },
        {
          "indexed": false,
          "internalType": "int192",
          "name": "answer",
          "type": "int192"
        },
        {
          "indexed": false,
          "internalType": "address",
          "name": "transmitter",
          "type": "address"
        },
        {
          "indexed": false,
          "internalType": "int192[]",
          "name": "observations",
          "type": "int192[]"
        },
        {
          "indexed": false,
          "internalType": "bytes",
          "name": "observers",
          "type": "bytes"
        },
        {
          "indexed": false,
          "internalType": "bytes32",
          "name": "rawReportContext",
          "type": "bytes32"
        }
      ],
      "name": "NewTransmission",
      "type": "event"
    },
    {
      "anonymous": false,
      "inputs": [
        {
          "indexed": false,
          "internalType": "address",
          "name": "transmitter",
          "type": "address"
        },
        {
          "indexed": false,
          "internalType": "address",
          "name": "payee",
          "type": "address"
        },
        {
          "indexed": false,
          "internalType": "uint256",
          "name": "amount",
          "type": "uint256"
        }
      ],
      "name": "OraclePaid",
      "type": "event"
    },
    {
      "anonymous": false,
      "inputs": [
        {
          "indexed": true,
          "internalType": "address",
          "name": "from",
          "type": "address"
        },
        {
          "indexed": true,
          "internalType": "address",
          "name": "to",
          "type": "address"
        }
      ],
      "name": "OwnershipTransferRequested",
      "type": "event"
    },
    {
      "anonymous": false,
      "inputs": [
        {
          "indexed": true,
          "internalType": "address",
          "name": "from",
          "type": "address"
        },
        {
          "indexed": true,
          "internalType": "address",
          "name": "to",
          "type": "address"
        }
      ],
      "name": "OwnershipTransferred",
      "type": "event"
    },
    {
      "anonymous": false,
      "inputs": [
        {
          "indexed": true,
          "internalType": "address",
          "name": "transmitter",
          "type": "address"
        },
        {
          "indexed": true,
          "internalType": "address",
          "name": "current",
          "type": "address"
        },
        {
          "indexed": true,
          "internalType": "address",
          "name": "proposed",
          "type": "address"
        }
      ],
      "name": "PayeeshipTransferRequested",
      "type": "event"
    },
    {
      "anonymous": false,
      "inputs": [
        {
          "indexed": true,
          "internalType": "address",
          "name": "transmitter",
          "type": "address"
        },
        {
          "indexed": true,
          "internalType": "address",
          "name": "previous",
          "type": "address"
        },
        {
          "indexed": true,
          "internalType": "address",
          "name": "current",
          "type": "address"
        }
      ],
      "name": "PayeeshipTransferred",
      "type": "event"
    },
    {
      "anonymous": false,
      "inputs": [
        {
          "indexed": false,
          "internalType": "address",
          "name": "user",
          "type": "address"
        }
      ],
      "name": "RemovedAccess",
      "type": "event"
    },
    {
      "anonymous": false,
      "inputs": [
        {
          "indexed": false,
          "internalType": "contract AccessControllerInterface",
          "name": "old",
          "type": "address"
        },
        {
          "indexed": false,
          "internalType": "contract AccessControllerInterface",
          "name": "current",
          "type": "address"
        }
      ],
      "name": "RequesterAccessControllerSet",
      "type": "event"
    },
    {
      "anonymous": false,
      "inputs": [
        {
          "indexed": true,
          "internalType": "address",
          "name": "requester",
          "type": "address"
        },
        {
          "indexed": false,
          "internalType": "bytes16",
          "name": "configDigest",
          "type": "bytes16"
        },
        {
          "indexed": false,
          "internalType": "uint32",
          "name": "epoch",
          "type": "uint32"
        },
        {
          "indexed": false,
          "internalType": "uint8",
          "name": "round",
          "type": "uint8"
        }
      ],
      "name": "RoundRequested",
      "type": "event"
    },
    {
      "anonymous": false,
      "inputs": [
        {
          "indexed": true,
          "internalType": "contract AggregatorValidatorInterface",
          "name": "previousValidator",
          "type": "address"
        },
        {
          "indexed": false,
          "internalType": "uint32",
          "name": "previousGasLimit",
          "type": "uint32"
        },
        {
          "indexed": true,
          "internalType": "contract AggregatorValidatorInterface",
          "name": "currentValidator",
          "type": "address"
        },
        {
          "indexed": false,
          "internalType": "uint32",
          "name": "currentGasLimit",
          "type": "uint32"
        }
      ],
      "name": "ValidatorConfigSet",
      "type": "event"
    },
    {
      "inputs": [],
      "name": "LINK",
      "outputs": [
        {
          "internalType": "contract LinkTokenInterface",
          "name": "",
          "type": "address"
        }
      ],
      "stateMutability": "view",
      "type": "function"
    },
    {
      "inputs": [],
      "name": "acceptOwnership",
      "outputs": [],
      "stateMutability": "nonpayable",
      "type": "function"
    },
    {
      "inputs": [
        {
          "internalType": "address",
          "name": "_transmitter",
          "type": "address"
        }
      ],
      "name": "acceptPayeeship",
      "outputs": [],
      "stateMutability": "nonpayable",
      "type": "function"
    },
    {
      "inputs": [
        {
          "internalType": "address",
          "name": "_user",
          "type": "address"
        }
      ],
      "name": "addAccess",
      "outputs": [],
      "stateMutability": "nonpayable",
      "type": "function"
    },
    {
      "inputs": [],
      "name": "billingAccessController",
      "outputs": [
        {
          "internalType": "contract AccessControllerInterface",
          "name": "",
          "type": "address"
        }
      ],
      "stateMutability": "view",
      "type": "function"
    },
    {
      "inputs": [],
      "name": "billingData",
      "outputs": [
        {
          "internalType": "uint16[31]",
          "name": "observationsCounts",
          "type": "uint16[31]"
        },
        {
          "internalType": "uint256[31]",
          "name": "gasReimbursements",
          "type": "uint256[31]"
        },
        {
          "internalType": "uint32",
          "name": "maximumGasPrice",
          "type": "uint32"
        },
        {
          "internalType": "uint32",
          "name": "reasonableGasPrice",
          "type": "uint32"
        },
        {
          "internalType": "uint32",
          "name": "microLinkPerEth",
          "type": "uint32"
        },
        {
          "internalType": "uint32",
          "name": "linkGweiPerObservation",
          "type": "uint32"
        },
        {
          "internalType": "uint32",
          "name": "linkGweiPerTransmission",
          "type": "uint32"
        }
      ],
      "stateMutability": "view",
      "type": "function"
    },
    {
      "inputs": [],
      "name": "checkEnabled",
      "outputs": [
        {
          "internalType": "bool",
          "name": "",
          "type": "bool"
        }
      ],
      "stateMutability": "view",
      "type": "function"
    },
    {
      "inputs": [],
      "name": "decimals",
      "outputs": [
        {
          "internalType": "uint8",
          "name": "",
          "type": "uint8"
        }
      ],
      "stateMutability": "view",
      "type": "function"
    },
    {
      "inputs": [],
      "name": "description",
      "outputs": [
        {
          "internalType": "string",
          "name": "",
          "type": "string"
        }
      ],
      "stateMutability": "view",
      "type": "function"
    },
    {
      "inputs": [],
      "name": "disableAccessCheck",
      "outputs": [],
      "stateMutability": "nonpayable",
      "type": "function"
    },
    {
      "inputs": [],
      "name": "enableAccessCheck",
      "outputs": [],
      "stateMutability": "nonpayable",
      "type": "function"
    },
    {
      "inputs": [
        {
          "internalType": "uint256",
          "name": "_roundId",
          "type": "uint256"
        }
      ],
      "name": "getAnswer",
      "outputs": [
        {
          "internalType": "int256",
          "name": "",
          "type": "int256"
        }
      ],
      "stateMutability": "view",
      "type": "function"
    },
    {
      "inputs": [],
      "name": "getBilling",
      "outputs": [
        {
          "internalType": "uint32",
          "name": "maximumGasPrice",
          "type": "uint32"
        },
        {
          "internalType": "uint32",
          "name": "reasonableGasPrice",
          "type": "uint32"
        },
        {
          "internalType": "uint32",
          "name": "microLinkPerEth",
          "type": "uint32"
        },
        {
          "internalType": "uint32",
          "name": "linkGweiPerObservation",
          "type": "uint32"
        },
        {
          "internalType": "uint32",
          "name": "linkGweiPerTransmission",
          "type": "uint32"
        }
      ],
      "stateMutability": "view",
      "type": "function"
    },
    {
      "inputs": [],
      "name": "getConfigDigest",
      "outputs": [
        {
          "internalType": "bytes16",
          "name": "",
          "type": "bytes16"
        }
      ],
      "stateMutability": "view",
      "type": "function"
    },
    {
      "inputs": [
        {
          "internalType": "uint80",
          "name": "_roundId",
          "type": "uint80"
        }
      ],
      "name": "getRoundData",
      "outputs": [
        {
          "internalType": "uint80",
          "name": "roundId",
          "type": "uint80"
        },
        {
          "internalType": "int256",
          "name": "answer",
          "type": "int256"
        },
        {
          "internalType": "uint256",
          "name": "startedAt",
          "type": "uint256"
        },
        {
          "internalType": "uint256",
          "name": "updatedAt",
          "type": "uint256"
        },
        {
          "internalType": "uint80",
          "name": "answeredInRound",
          "type": "uint80"
        }
      ],
      "stateMutability": "view",
      "type": "function"
    },
    {
      "inputs": [
        {
          "internalType": "uint256",
          "name": "_roundId",
          "type": "uint256"
        }
      ],
      "name": "getTimestamp",
      "outputs": [
        {
          "internalType": "uint256",
          "name": "",
          "type": "uint256"
        }
      ],
      "stateMutability": "view",
      "type": "function"
    },
    {
      "inputs": [
        {
          "internalType": "address",
          "name": "_user",
          "type": "address"
        },
        {
          "internalType": "bytes",
          "name": "_calldata",
          "type": "bytes"
        }
      ],
      "name": "hasAccess",
      "outputs": [
        {
          "internalType": "bool",
          "name": "",
          "type": "bool"
        }
      ],
      "stateMutability": "view",
      "type": "function"
    },
    {
      "inputs": [],
      "name": "latestAnswer",
      "outputs": [
        {
          "internalType": "int256",
          "name": "",
          "type": "int256"
        }
      ],
      "stateMutability": "view",
      "type": "function"
    },
    {
      "inputs": [],
      "name": "latestConfigDetails",
      "outputs": [
        {
          "internalType": "uint32",
          "name": "configCount",
          "type": "uint32"
        },
        {
          "internalType": "uint32",
          "name": "blockNumber",
          "type": "uint32"
        },
        {
          "internalType": "bytes16",
          "name": "configDigest",
          "type": "bytes16"
        }
      ],
      "stateMutability": "view",
      "type": "function"
    },
    {
      "inputs": [],
      "name": "latestRound",
      "outputs": [
        {
          "internalType": "uint256",
          "name": "",
          "type": "uint256"
        }
      ],
      "stateMutability": "view",
      "type": "function"
    },
    {
      "inputs": [],
      "name": "latestRoundData",
      "outputs": [
        {
          "internalType": "uint80",
          "name": "roundId",
          "type": "uint80"
        },
        {
          "internalType": "int256",
          "name": "answer",
          "type": "int256"
        },
        {
          "internalType": "uint256",
          "name": "startedAt",
          "type": "uint256"
        },
        {
          "internalType": "uint256",
          "name": "updatedAt",
          "type": "uint256"
        },
        {
          "internalType": "uint80",
          "name": "answeredInRound",
          "type": "uint80"
        }
      ],
      "stateMutability": "view",
      "type": "function"
    },
    {
      "inputs": [],
      "name": "latestTimestamp",
      "outputs": [
        {
          "internalType": "uint256",
          "name": "",
          "type": "uint256"
        }
      ],
      "stateMutability": "view",
      "type": "function"
    },
    {
      "inputs": [],
      "name": "latestTransmissionDetails",
      "outputs": [
        {
          "internalType": "bytes16",
          "name": "configDigest",
          "type": "bytes16"
        },
        {
          "internalType": "uint32",
          "name": "epoch",
          "type": "uint32"
        },
        {
          "internalType": "uint8",
          "name": "round",
          "type": "uint8"
        },
        {
          "internalType": "int192",
          "name": "latestAnswer",
          "type": "int192"
        },
        {
          "internalType": "uint64",
          "name": "latestTimestamp",
          "type": "uint64"
        }
      ],
      "stateMutability": "view",
      "type": "function"
    },
    {
      "inputs": [],
      "name": "linkAvailableForPayment",
      "outputs": [
        {
          "internalType": "int256",
          "name": "availableBalance",
          "type": "int256"
        }
      ],
      "stateMutability": "view",
      "type": "function"
    },
    {
      "inputs": [],
      "name": "maxAnswer",
      "outputs": [
        {
          "internalType": "int192",
          "name": "",
          "type": "int192"
        }
      ],
      "stateMutability": "view",
      "type": "function"
    },
    {
      "inputs": [],
      "name": "minAnswer",
      "outputs": [
        {
          "internalType": "int192",
          "name": "",
          "type": "int192"
        }
      ],
      "stateMutability": "view",
      "type": "function"
    },
    {
      "inputs": [
        {
          "internalType": "address",
          "name": "_signerOrTransmitter",
          "type": "address"
        }
      ],
      "name": "oracleObservationCount",
      "outputs": [
        {
          "internalType": "uint16",
          "name": "",
          "type": "uint16"
        }
      ],
      "stateMutability": "view",
      "type": "function"
    },
    {
      "inputs": [
        {
          "internalType": "address",
          "name": "_transmitter",
          "type": "address"
        }
      ],
      "name": "owedPayment",
      "outputs": [
        {
          "internalType": "uint256",
          "name": "",
          "type": "uint256"
        }
      ],
      "stateMutability": "view",
      "type": "function"
    },
    {
      "inputs": [],
      "name": "owner",
      "outputs": [
        {
          "internalType": "address payable",
          "name": "",
          "type": "address"
        }
      ],
      "stateMutability": "view",
      "type": "function"
    },
    {
      "inputs": [
        {
          "internalType": "address",
          "name": "_user",
          "type": "address"
        }
      ],
      "name": "removeAccess",
      "outputs": [],
      "stateMutability": "nonpayable",
      "type": "function"
    },
    {
      "inputs": [],
      "name": "requestNewRound",
      "outputs": [
        {
          "internalType": "uint80",
          "name": "",
          "type": "uint80"
        }
      ],
      "stateMutability": "nonpayable",
      "type": "function"
    },
    {
      "inputs": [],
      "name": "requesterAccessController",
      "outputs": [
        {
          "internalType": "contract AccessControllerInterface",
          "name": "",
          "type": "address"
        }
      ],
      "stateMutability": "view",
      "type": "function"
    },
    {
      "inputs": [
        {
          "internalType": "uint32",
          "name": "_maximumGasPrice",
          "type": "uint32"
        },
        {
          "internalType": "uint32",
          "name": "_reasonableGasPrice",
          "type": "uint32"
        },
        {
          "internalType": "uint32",
          "name": "_microLinkPerEth",
          "type": "uint32"
        },
        {
          "internalType": "uint32",
          "name": "_linkGweiPerObservation",
          "type": "uint32"
        },
        {
          "internalType": "uint32",
          "name": "_linkGweiPerTransmission",
          "type": "uint32"
        }
      ],
      "name": "setBilling",
      "outputs": [],
      "stateMutability": "nonpayable",
      "type": "function"
    },
    {
      "inputs": [
        {
          "internalType": "contract AccessControllerInterface",
          "name": "_billingAccessController",
          "type": "address"
        }
      ],
      "name": "setBillingAccessController",
      "outputs": [],
      "stateMutability": "nonpayable",
      "type": "function"
    },
    {
      "inputs": [
        {
          "internalType": "address[]",
          "name": "_signers",
          "type": "address[]"
        },
        {
          "internalType": "address[]",
          "name": "_transmitters",
          "type": "address[]"
        },
        {
          "internalType": "uint8",
          "name": "_threshold",
          "type": "uint8"
        },
        {
          "internalType": "uint64",
          "name": "_encodedConfigVersion",
          "type": "uint64"
        },
        {
          "internalType": "bytes",
          "name": "_encoded",
          "type": "bytes"
        }
      ],
      "name": "setConfig",
      "outputs": [],
      "stateMutability": "nonpayable",
      "type": "function"
    },
    {
      "inputs": [
        {
          "internalType": "address[]",
          "name": "_transmitters",
          "type": "address[]"
        },
        {
          "internalType": "address[]",
          "name": "_payees",
          "type": "address[]"
        }
      ],
      "name": "setPayees",
      "outputs": [],
      "stateMutability": "nonpayable",
      "type": "function"
    },
    {
      "inputs": [
        {
          "internalType": "contract AccessControllerInterface",
          "name": "_requesterAccessController",
          "type": "address"
        }
      ],
      "name": "setRequesterAccessController",
      "outputs": [],
      "stateMutability": "nonpayable",
      "type": "function"
    },
    {
      "inputs": [
        {
          "internalType": "contract AggregatorValidatorInterface",
          "name": "_newValidator",
          "type": "address"
        },
        {
          "internalType": "uint32",
          "name": "_newGasLimit",
          "type": "uint32"
        }
      ],
      "name": "setValidatorConfig",
      "outputs": [],
      "stateMutability": "nonpayable",
      "type": "function"
    },
    {
      "inputs": [],
      "name": "testAccountingGasCost",
      "outputs": [
        {
          "internalType": "uint256",
          "name": "",
          "type": "uint256"
        }
      ],
      "stateMutability": "pure",
      "type": "function"
    },
    {
      "inputs": [
        {
          "internalType": "uint256",
          "name": "amount",
          "type": "uint256"
        }
      ],
      "name": "testBurnLINK",
      "outputs": [],
      "stateMutability": "nonpayable",
      "type": "function"
    },
    {
      "inputs": [
        {
          "internalType": "bytes",
          "name": "report",
          "type": "bytes"
        }
      ],
      "name": "testDecodeReport",
      "outputs": [
        {
          "internalType": "bytes32",
          "name": "",
          "type": "bytes32"
        },
        {
          "internalType": "bytes32",
          "name": "",
          "type": "bytes32"
        },
        {
          "internalType": "int192[]",
          "name": "",
          "type": "int192[]"
        }
      ],
      "stateMutability": "pure",
      "type": "function"
    },
    {
      "inputs": [
        {
          "internalType": "uint256",
          "name": "txGasPrice",
          "type": "uint256"
        },
        {
          "internalType": "uint256",
          "name": "reasonableGasPrice",
          "type": "uint256"
        },
        {
          "internalType": "uint256",
          "name": "maximumGasPrice",
          "type": "uint256"
        }
      ],
      "name": "testImpliedGasPrice",
      "outputs": [
        {
          "internalType": "uint256",
          "name": "",
          "type": "uint256"
        }
      ],
      "stateMutability": "pure",
      "type": "function"
    },
    {
      "inputs": [
        {
          "internalType": "address",
          "name": "_transmitter",
          "type": "address"
        }
      ],
      "name": "testPayee",
      "outputs": [
        {
          "internalType": "address",
          "name": "",
          "type": "address"
        }
      ],
      "stateMutability": "view",
      "type": "function"
    },
    {
      "inputs": [
        {
          "internalType": "uint16",
          "name": "_x",
          "type": "uint16"
        },
        {
          "internalType": "uint16",
          "name": "_y",
          "type": "uint16"
        }
      ],
      "name": "testSaturatingAddUint16",
      "outputs": [
        {
          "internalType": "uint16",
          "name": "",
          "type": "uint16"
        }
      ],
      "stateMutability": "pure",
      "type": "function"
    },
    {
      "inputs": [
        {
          "internalType": "address",
          "name": "_transmitterOrSigner",
          "type": "address"
        },
        {
          "internalType": "uint256",
          "name": "_amountLinkWei",
          "type": "uint256"
        }
      ],
      "name": "testSetGasReimbursements",
      "outputs": [],
      "stateMutability": "nonpayable",
      "type": "function"
    },
    {
      "inputs": [
        {
          "internalType": "address",
          "name": "_oracle",
          "type": "address"
        },
        {
          "internalType": "uint16",
          "name": "_amount",
          "type": "uint16"
        }
      ],
      "name": "testSetOracleObservationCount",
      "outputs": [],
      "stateMutability": "nonpayable",
      "type": "function"
    },
    {
      "inputs": [],
      "name": "testTotalLinkDue",
      "outputs": [
        {
          "internalType": "uint256",
          "name": "linkDue",
          "type": "uint256"
        }
      ],
      "stateMutability": "view",
      "type": "function"
    },
    {
      "inputs": [
        {
          "internalType": "uint256",
          "name": "initialGas",
          "type": "uint256"
        },
        {
          "internalType": "uint256",
          "name": "gasPrice",
          "type": "uint256"
        },
        {
          "internalType": "uint256",
          "name": "callDataCost",
          "type": "uint256"
        },
        {
          "internalType": "uint256",
          "name": "gasLeft",
          "type": "uint256"
        }
      ],
      "name": "testTransmitterGasCostEthWei",
      "outputs": [
        {
          "internalType": "uint128",
          "name": "",
          "type": "uint128"
        }
      ],
      "stateMutability": "pure",
      "type": "function"
    },
    {
      "inputs": [
        {
          "internalType": "address",
          "name": "_to",
          "type": "address"
        }
      ],
      "name": "transferOwnership",
      "outputs": [],
      "stateMutability": "nonpayable",
      "type": "function"
    },
    {
      "inputs": [
        {
          "internalType": "address",
          "name": "_transmitter",
          "type": "address"
        },
        {
          "internalType": "address",
          "name": "_proposed",
          "type": "address"
        }
      ],
      "name": "transferPayeeship",
      "outputs": [],
      "stateMutability": "nonpayable",
      "type": "function"
    },
    {
      "inputs": [
        {
          "internalType": "bytes",
          "name": "_report",
          "type": "bytes"
        },
        {
          "internalType": "bytes32[]",
          "name": "_rs",
          "type": "bytes32[]"
        },
        {
          "internalType": "bytes32[]",
          "name": "_ss",
          "type": "bytes32[]"
        },
        {
          "internalType": "bytes32",
          "name": "_rawVs",
          "type": "bytes32"
        }
      ],
      "name": "transmit",
      "outputs": [],
      "stateMutability": "nonpayable",
      "type": "function"
    },
    {
      "inputs": [],
      "name": "transmitters",
      "outputs": [
        {
          "internalType": "address[]",
          "name": "",
          "type": "address[]"
        }
      ],
      "stateMutability": "view",
      "type": "function"
    },
    {
      "inputs": [],
      "name": "typeAndVersion",
      "outputs": [
        {
          "internalType": "string",
          "name": "",
          "type": "string"
        }
      ],
      "stateMutability": "pure",
      "type": "function"
    },
    {
      "inputs": [],
      "name": "validatorConfig",
      "outputs": [
        {
          "internalType": "contract AggregatorValidatorInterface",
          "name": "validator",
          "type": "address"
        },
        {
          "internalType": "uint32",
          "name": "gasLimit",
          "type": "uint32"
        }
      ],
      "stateMutability": "view",
      "type": "function"
    },
    {
      "inputs": [],
      "name": "version",
      "outputs": [
        {
          "internalType": "uint256",
          "name": "",
          "type": "uint256"
        }
      ],
      "stateMutability": "view",
      "type": "function"
    },
    {
      "inputs": [
        {
          "internalType": "address",
          "name": "_recipient",
          "type": "address"
        },
        {
          "internalType": "uint256",
          "name": "_amount",
          "type": "uint256"
        }
      ],
      "name": "withdrawFunds",
      "outputs": [],
      "stateMutability": "nonpayable",
      "type": "function"
    },
    {
      "inputs": [
        {
          "internalType": "address",
          "name": "_transmitter",
          "type": "address"
        }
      ],
      "name": "withdrawPayment",
      "outputs": [],
      "stateMutability": "nonpayable",
      "type": "function"
    }
  ],
  "bytecode": "0x6101006040523480156200001257600080fd5b50604051620061163803806200611683398181016040526101408110156200003957600080fd5b5080516020808301516040808501516060860151608087015160a088015160c089015160e08a01516101008b0151610120909b015187518089019098526004885263151154d560e21b99880199909952600080546001600160a01b03191633178155999a97999598949793969295919490939290918b918b918b918b918b918b918b918b918b918b91908b8b8b8b8b8b8b8b8b8b8b8b8b8b8b8b8b8b89620000e587878787876200024d565b620000f0816200033f565b6001600160601b0319606083901b166080526200010c620005d6565b62000116620005d6565b60005b601f8160ff16101562000166576001838260ff16601f81106200013857fe5b61ffff909216602092909202015260018260ff8316601f81106200015857fe5b602002015260010162000119565b5062000176600483601f620005f5565b5062000186600882601f62000692565b505050505060f887901b7fff000000000000000000000000000000000000000000000000000000000000001660e05250508351620001cf9350602f9250602085019150620006c3565b50620001db83620003b8565b620001e860008062000490565b8560170b60a08160170b60401b815250508460170b60c08160170b60401b815250505050505050505050505050506001603060006101000a81548160ff021916908315150217905550505050505050505050505050505050505050505050506200075c565b6040805160a0808201835263ffffffff88811680845288821660208086018290528984168688018190528985166060808901829052958a1660809889018190526002805463ffffffff1916871763ffffffff60201b191664010000000087021763ffffffff60401b19166801000000000000000085021763ffffffff60601b19166c0100000000000000000000000084021763ffffffff60801b1916600160801b830217905589519586529285019390935283880152928201529283015291517fd0d9486a2c673e2a4b57fc82e4c8a556b3e2b82dd5db07e2c04a920ca0f469b6929181900390910190a15050505050565b6003546001600160a01b039081169082168114620003b457600380546001600160a01b0319166001600160a01b03848116918217909255604080519284168352602083019190915280517f793cb73064f3c8cde7e187ae515511e6e56d1ee89bf08b82fa60fb70f8d489129281900390910190a15b5050565b6000546001600160a01b0316331462000418576040805162461bcd60e51b815260206004820152601660248201527f4f6e6c792063616c6c61626c65206279206f776e657200000000000000000000604482015290519081900360640190fd5b602e546001600160a01b039081169082168114620003b457602e80546001600160a01b0319166001600160a01b03848116918217909255604080519284168352602083019190915280517f27b89aede8b560578baaa25ee5ce3852c5eecad1e114b941bbd89e1eb4bae6349281900390910190a15050565b6000546001600160a01b03163314620004f0576040805162461bcd60e51b815260206004820152601660248201527f4f6e6c792063616c6c61626c65206279206f776e657200000000000000000000604482015290519081900360640190fd5b60408051808201909152602d546001600160a01b03808216808452600160a01b90920463ffffffff16602084015284161415806200053e57508163ffffffff16816020015163ffffffff1614155b15620005d1576040805180820182526001600160a01b0385811680835263ffffffff8681166020948501819052602d80546001600160a01b031916841763ffffffff60a01b1916600160a01b8302179055865187860151875193168352948201528451919493909216927fb04e3a37abe9c0fcdfebdeae019a8e2b12ddf53f5d55ffb0caccc1bedaca1541928290030190a35b505050565b604051806103e00160405280601f906020820280368337509192915050565b600283019183908215620006805791602002820160005b838211156200064e57835183826101000a81548161ffff021916908361ffff16021790555092602001926002016020816001010492830192600103026200060c565b80156200067e5782816101000a81549061ffff02191690556002016020816001010492830192600103026200064e565b505b506200068e92915062000745565b5090565b82601f810192821562000680579160200282015b8281111562000680578251825591602001919060010190620006a6565b828054600181600116156101000203166002900490600052602060002090601f016020900481019282620006fb576000855562000680565b82601f106200071657805160ff191683800117855562000680565b8280016001018555821562000680579182018281111562000680578251825591602001919060010190620006a6565b5b808211156200068e576000815560010162000746565b60805160601c60a05160401c60c05160401c60e05160f81c615950620007c6600039806112e9525080611d5c528061392752508061126452806138fa52508061124052806128315280612ced5280612ddd5280613ce752806147a85280614fc752506159506000f3fe608060405234801561001057600080fd5b50600436106103835760003560e01c80638da5cb5b116101de578063bd8247061161010f578063e4902f82116100ad578063f2fde38b1161007c578063f2fde38b14610fc4578063fa98a1c714610fea578063fbffd2c114611013578063feaf968c1461103957610383565b8063e4902f8214610eec578063e5fe457714610f12578063eb45716314610f64578063eb5dcd6c14610f9657610383565b8063d09dc339116100e9578063d09dc33914610e80578063d18bf87e14610e88578063dc7f012414610eb8578063e285191114610ec057610383565b8063bd82470614610d01578063c107532914610d46578063c980753914610d7257610383565b80639e3ceeab1161017c578063acfe7f9c11610156578063acfe7f9c14610c84578063b121e14714610ca1578063b5ab58dc14610cc7578063b633620c14610ce457610383565b80639e3ceeab14610c125780639eb6e06014610c38578063a118f24914610c5e57610383565b8063996e8298116101b8578063996e829814610a995780639a6fc8f514610aa15780639b764d9714610b145780639c849b3014610b5457610383565b80638da5cb5b14610a3a5780638e0566de14610a4257806398e5b12a14610a7257610383565b8063668a0f02116102b857806379ba50971161025657806381ff70481161023057806381ff7048146109ad5780638205bf6a146109e65780638823da6c146109ee5780638ac28d5a14610a1457610383565b806379ba5097146109455780638038e4a11461094d578063814118341461095557610383565b806370da2f671161029257806370da2f67146108d957806370efdf2d146108e15780637284e416146108e957806377096177146108f157610383565b8063668a0f02146107e457806366cfeaf1146107ec5780636b14daf81461081157610383565b806329937268116103255780633c04967b116102ff5780633c04967b146105ff57806350d25bcd146106ad57806354fd4d50146106b5578063585aa7de146106bd57610383565b8063299372681461049a578063313ce567146104db5780633b5cdfa2146104f957610383565b8063102a474b11610361578063102a474b146103d2578063181f5a77146103da5780631b6b6d231461045757806322adbc781461047b57610383565b80630a756983146103885780630b69df86146103925780630eafb25b146103ac575b600080fd5b610390611041565b005b61039a6110da565b60408051918252519081900360200190f35b61039a600480360360208110156103c257600080fd5b50356001600160a01b03166110e0565b61039a61120f565b6103e261121e565b6040805160208082528351818301528351919283929083019185019080838360005b8381101561041c578181015183820152602001610404565b50505050905090810190601f1680156104495780820380516001836020036101000a031916815260200191505b509250505060405180910390f35b61045f61123e565b604080516001600160a01b039092168252519081900360200190f35b610483611262565b6040805160179290920b8252519081900360200190f35b6104a2611286565b6040805163ffffffff96871681529486166020860152928516848401529084166060840152909216608082015290519081900360a00190f35b6104e36112e7565b6040805160ff9092168252519081900360200190f35b61059d6004803603602081101561050f57600080fd5b810190602081018135600160201b81111561052957600080fd5b82018360208201111561053b57600080fd5b803590602001918460018302840111600160201b8311171561055c57600080fd5b91908080601f01602080910402602001604051908101604052809392919081815260200183838082843760009201919091525092955061130b945050505050565b6040518084815260200183815260200180602001828103825283818151815260200191508051906020019060200280838360005b838110156105e95781810151838201526020016105d1565b5050505090500194505050505060405180910390f35b610607611326565b60405180886103e080838360005b8381101561062d578181015183820152602001610615565b5050505090500187601f60200280838360005b83811015610658578181015183820152602001610640565b505050509050018663ffffffff1681526020018563ffffffff1681526020018463ffffffff1681526020018363ffffffff1681526020018263ffffffff16815260200197505050505050505060405180910390f35b61039a611447565b61039a6114cf565b610390600480360360a08110156106d357600080fd5b810190602081018135600160201b8111156106ed57600080fd5b8201836020820111156106ff57600080fd5b803590602001918460208302840111600160201b8311171561072057600080fd5b919390929091602081019035600160201b81111561073d57600080fd5b82018360208201111561074f57600080fd5b803590602001918460208302840111600160201b8311171561077057600080fd5b9193909260ff8335169267ffffffffffffffff602082013516929190606081019060400135600160201b8111156107a657600080fd5b8201836020820111156107b857600080fd5b803590602001918460018302840111600160201b831117156107d957600080fd5b5090925090506114d4565b61039a611ca1565b6107f4611d29565b604080516001600160801b03199092168252519081900360200190f35b6108c56004803603604081101561082757600080fd5b6001600160a01b038235169190810190604081016020820135600160201b81111561085157600080fd5b82018360208201111561086357600080fd5b803590602001918460018302840111600160201b8311171561088457600080fd5b91908080601f016020809104026020016040519081016040528093929190818152602001838380828437600092019190915250929550611d32945050505050565b604080519115158252519081900360200190f35b610483611d5a565b61045f611d7e565b6103e2611d8d565b6109206004803603608081101561090757600080fd5b5080359060208101359060408101359060600135611e15565b604080516fffffffffffffffffffffffffffffffff9092168252519081900360200190f35b610390611e2c565b610390611ee2565b61095d611f7c565b60408051602080825283518183015283519192839290830191858101910280838360005b83811015610999578181015183820152602001610981565b505050509050019250505060405180910390f35b6109b5611fde565b6040805163ffffffff94851681529290931660208301526001600160801b0319168183015290519081900360600190f35b61039a611ffe565b61039060048036036020811015610a0457600080fd5b50356001600160a01b0316612086565b61039060048036036020811015610a2a57600080fd5b50356001600160a01b0316612158565b61045f6121cf565b610a4a6121de565b604080516001600160a01b03909316835263ffffffff90911660208301528051918290030190f35b610a7a612211565b6040805169ffffffffffffffffffff9092168252519081900360200190f35b61045f6123e4565b610aca60048036036020811015610ab757600080fd5b503569ffffffffffffffffffff166123f3565b604051808669ffffffffffffffffffff1681526020018581526020018481526020018381526020018269ffffffffffffffffffff1681526020019550505050505060405180910390f35b610b3d60048036036040811015610b2a57600080fd5b5061ffff81358116916020013516612494565b6040805161ffff9092168252519081900360200190f35b61039060048036036040811015610b6a57600080fd5b810190602081018135600160201b811115610b8457600080fd5b820183602082011115610b9657600080fd5b803590602001918460208302840111600160201b83111715610bb757600080fd5b919390929091602081019035600160201b811115610bd457600080fd5b820183602082011115610be657600080fd5b803590602001918460208302840111600160201b83111715610c0757600080fd5b5090925090506124a0565b61039060048036036020811015610c2857600080fd5b50356001600160a01b03166126ba565b61045f60048036036020811015610c4e57600080fd5b50356001600160a01b031661278a565b61039060048036036020811015610c7457600080fd5b50356001600160a01b03166127a8565b61039060048036036020811015610c9a57600080fd5b5035612809565b61039060048036036020811015610cb757600080fd5b50356001600160a01b03166128a8565b61039a60048036036020811015610cdd57600080fd5b5035612989565b61039a60048036036020811015610cfa57600080fd5b5035612a12565b610390600480360360a0811015610d1757600080fd5b5063ffffffff813581169160208101358216916040820135811691606081013582169160809091013516612a9b565b61039060048036036040811015610d5c57600080fd5b506001600160a01b038135169060200135612bca565b61039060048036036080811015610d8857600080fd5b810190602081018135600160201b811115610da257600080fd5b820183602082011115610db457600080fd5b803590602001918460018302840111600160201b83111715610dd557600080fd5b919390929091602081019035600160201b811115610df257600080fd5b820183602082011115610e0457600080fd5b803590602001918460208302840111600160201b83111715610e2557600080fd5b919390929091602081019035600160201b811115610e4257600080fd5b820183602082011115610e5457600080fd5b803590602001918460208302840111600160201b83111715610e7557600080fd5b919350915035612ed5565b61039a613ce2565b61039060048036036040811015610e9e57600080fd5b5080356001600160a01b0316906020013561ffff16613d93565b6108c5613dea565b61039060048036036040811015610ed657600080fd5b506001600160a01b038135169060200135613df3565b610b3d60048036036020811015610f0257600080fd5b50356001600160a01b0316613ea8565b610f1a613f55565b604080516001600160801b0319909616865263ffffffff909416602086015260ff9092168484015260170b606084015267ffffffffffffffff166080830152519081900360a00190f35b61039060048036036040811015610f7a57600080fd5b5080356001600160a01b0316906020013563ffffffff1661400f565b61039060048036036040811015610fac57600080fd5b506001600160a01b0381358116916020013516614162565b61039060048036036020811015610fda57600080fd5b50356001600160a01b03166142a5565b61039a6004803603606081101561100057600080fd5b508035906020810135906040013561434e565b6103906004803603602081101561102957600080fd5b50356001600160a01b0316614363565b610aca6143c4565b6000546001600160a01b03163314611099576040805162461bcd60e51b815260206004820152601660248201527527b7363c9031b0b63630b1363290313c9037bbb732b960511b604482015290519081900360640190fd5b60305460ff16156110d8576030805460ff191690556040517f3be8a977a014527b50ae38adda80b56911c267328965c98ddc385d248f53963890600090a15b565b61179390565b6001600160a01b03811660009081526027602090815260408083208151808301909252805460ff80821684528594840191610100900416600281111561112257fe5b600281111561112d57fe5b905250905060008160200151600281111561114457fe5b141561115457600091505061120a565b6040805160a08101825260025463ffffffff8082168352600160201b820481166020840152600160401b8204811693830193909352600160601b8104831660608301819052600160801b90910490921660808201528251909160009160019060049060ff16601f81106111c357fe5b601091828204019190066002029054906101000a900461ffff160361ffff1602633b9aca0002905060016008846000015160ff16601f811061120157fe5b01540301925050505b919050565b6000611219614463565b905090565b60606040518060600160405280602881526020016158f360289139905090565b7f000000000000000000000000000000000000000000000000000000000000000081565b7f000000000000000000000000000000000000000000000000000000000000000081565b6040805160a08101825260025463ffffffff808216808452600160201b8304821660208501819052600160401b84048316958501869052600160601b8404831660608601819052600160801b90940490921660809094018490529490939290565b7f000000000000000000000000000000000000000000000000000000000000000081565b600080606061131984614617565b9250925092509193909250565b61132e615764565b611336615764565b6040805160a08101825260025463ffffffff808216808452600160201b8304821660208501819052600160401b84048316858701819052600160601b8504841660608701819052600160801b9095049093166080860181905286516103e081019097526000968796879687968796929560049560089591939187601f8282826020028201916000905b82829054906101000a900461ffff1661ffff16815260200190600201906020826001010492830192600103820291508084116113bf575050604080516103e0810191829052959c508b9450601f93509150839050845b815481526020019060010190808311611415575050505050955097509750975097509750975097505090919293949596565b600061148a336000368080601f016020809104026020016040519081016040528093929190818152602001838380828437600092019190915250611d3292505050565b6114c7576040805162461bcd60e51b81526020600482015260096024820152684e6f2061636365737360b81b604482015290519081900360640190fd5b6112196146d6565b600481565b868560ff8616601f831115611530576040805162461bcd60e51b815260206004820152601060248201527f746f6f206d616e79207369676e65727300000000000000000000000000000000604482015290519081900360640190fd5b60008111611585576040805162461bcd60e51b815260206004820152601a60248201527f7468726573686f6c64206d75737420626520706f736974697665000000000000604482015290519081900360640190fd5b8183146115c35760405162461bcd60e51b81526004018080602001828103825260248152602001806158cf6024913960400191505060405180910390fd5b80600302831161161a576040805162461bcd60e51b815260206004820181905260248201527f6661756c74792d6f7261636c65207468726573686f6c6420746f6f2068696768604482015290519081900360640190fd5b6000546001600160a01b03163314611672576040805162461bcd60e51b815260206004820152601660248201527527b7363c9031b0b63630b1363290313c9037bbb732b960511b604482015290519081900360640190fd5b6028541561176f57602880546000198101916000918390811061169157fe5b6000918252602082200154602980546001600160a01b03909216935090849081106116b857fe5b6000918252602090912001546001600160a01b031690506116d8816146ff565b6001600160a01b03808316600090815260276020526040808220805461ffff199081169091559284168252902080549091169055602880548061171757fe5b600082815260209020810160001990810180546001600160a01b0319169055019055602980548061174457fe5b600082815260209020810160001990810180546001600160a01b031916905501905550611672915050565b60005b8a811015611ad7576000602760008e8e8581811061178c57fe5b602090810292909201356001600160a01b031683525081019190915260400160002054610100900460ff1660028111156117c257fe5b14611814576040805162461bcd60e51b815260206004820152601760248201527f7265706561746564207369676e65722061646472657373000000000000000000604482015290519081900360640190fd5b6040805180820190915260ff8216815260016020820152602760008e8e8581811061183b57fe5b602090810292909201356001600160a01b0316835250818101929092526040016000208251815460ff191660ff90911617808255918301519091829061ff00191661010083600281111561188b57fe5b02179055506000915060069050818c8c858181106118a557fe5b6001600160a01b0360209182029390930135831684528301939093526040909101600020541691909114159050611923576040805162461bcd60e51b815260206004820152601160248201527f7061796565206d75737420626520736574000000000000000000000000000000604482015290519081900360640190fd5b6000602760008c8c8581811061193557fe5b602090810292909201356001600160a01b031683525081019190915260400160002054610100900460ff16600281111561196b57fe5b146119bd576040805162461bcd60e51b815260206004820152601c60248201527f7265706561746564207472616e736d6974746572206164647265737300000000604482015290519081900360640190fd5b6040805180820190915260ff8216815260026020820152602760008c8c858181106119e457fe5b602090810292909201356001600160a01b0316835250818101929092526040016000208251815460ff191660ff90911617808255918301519091829061ff001916610100836002811115611a3457fe5b021790555090505060288c8c83818110611a4a57fe5b835460018101855560009485526020948590200180546001600160a01b0319166001600160a01b03959092029390930135939093169290921790555060298a8a83818110611a9457fe5b835460018181018655600095865260209586902090910180546001600160a01b0319166001600160a01b0396909302949094013594909416179091555001611772565b50602a805460ff8916600160a81b0260ff60a81b19909116179055602c80544363ffffffff908116600160201b90810267ffffffff0000000019841617808316600101831663ffffffff19909116179384905590910481169116611b4330828f8f8f8f8f8f8f8f614905565b602a60000160006101000a8154816fffffffffffffffffffffffffffffffff021916908360801c02179055506000602a60000160106101000a81548164ffffffffff021916908364ffffffffff1602179055507f25d719d88a4512dd76c7442b910a83360845505894eb444ef299409e180f8fb982828f8f8f8f8f8f8f8f604051808b63ffffffff1681526020018a67ffffffffffffffff16815260200180602001806020018760ff1681526020018667ffffffffffffffff1681526020018060200184810384528c8c82818152602001925060200280828437600083820152601f01601f191690910185810384528a8152602090810191508b908b0280828437600083820152601f01601f191690910185810383528681526020019050868680828437600083820152604051601f909101601f19169092018290039f50909d5050505050505050505050505050a150505050505050505050505050565b6000611ce4336000368080601f016020809104026020016040519081016040528093929190818152602001838380828437600092019190915250611d3292505050565b611d21576040805162461bcd60e51b81526020600482015260096024820152684e6f2061636365737360b81b604482015290519081900360640190fd5b611219614a09565b602a5460801b90565b6000611d3e8383614a1c565b80611d5157506001600160a01b03831632145b90505b92915050565b7f000000000000000000000000000000000000000000000000000000000000000081565b602e546001600160a01b031690565b6060611dd0336000368080601f016020809104026020016040519081016040528093929190818152602001838380828437600092019190915250611d3292505050565b611e0d576040805162461bcd60e51b81526020600482015260096024820152684e6f2061636365737360b81b604482015290519081900360640190fd5b611219614a4c565b6000611e2385858585614ad9565b95945050505050565b6001546001600160a01b03163314611e8b576040805162461bcd60e51b815260206004820152601660248201527f4d7573742062652070726f706f736564206f776e657200000000000000000000604482015290519081900360640190fd5b60008054336001600160a01b0319808316821784556001805490911690556040516001600160a01b0390921692909183917f8be0079c531659141344cd1fd0a4f28419497f9722a3daafe3b4186f6b6457e091a350565b6000546001600160a01b03163314611f3a576040805162461bcd60e51b815260206004820152601660248201527527b7363c9031b0b63630b1363290313c9037bbb732b960511b604482015290519081900360640190fd5b60305460ff166110d8576030805460ff191660011790556040517faebf329500988c6488a0074e5a0a9ff304561fc5c6fc877aeb1d59c8282c348090600090a1565b60606029805480602002602001604051908101604052809291908181526020018280548015611fd457602002820191906000526020600020905b81546001600160a01b03168152600190910190602001808311611fb6575b5050505050905090565b602c54602a5463ffffffff80831692600160201b9004169060801b909192565b6000612041336000368080601f016020809104026020016040519081016040528093929190818152602001838380828437600092019190915250611d3292505050565b61207e576040805162461bcd60e51b81526020600482015260096024820152684e6f2061636365737360b81b604482015290519081900360640190fd5b611219614b65565b6000546001600160a01b031633146120de576040805162461bcd60e51b815260206004820152601660248201527527b7363c9031b0b63630b1363290313c9037bbb732b960511b604482015290519081900360640190fd5b6001600160a01b03811660009081526031602052604090205460ff1615612155576001600160a01b038116600081815260316020908152604091829020805460ff19169055815192835290517f3d68a6fce901d20453d1a7aa06bf3950302a735948037deb182a8db66df2a0d19281900390910190a15b50565b6001600160a01b038181166000908152600660205260409020541633146121c6576040805162461bcd60e51b815260206004820152601760248201527f4f6e6c792070617965652063616e207769746864726177000000000000000000604482015290519081900360640190fd5b612155816146ff565b6000546001600160a01b031681565b60408051808201909152602d546001600160a01b038116808352600160a01b90910463ffffffff16602090920182905291565b600080546001600160a01b03163314806122d45750602e5460408051630d629b5f60e31b815233600482018181526024830193845236604484018190526001600160a01b0390951694636b14daf894929360009391929190606401848480828437600083820152604051601f909101601f1916909201965060209550909350505081840390508186803b1580156122a757600080fd5b505afa1580156122bb573d6000803e3d6000fd5b505050506040513d60208110156122d157600080fd5b50515b612325576040805162461bcd60e51b815260206004820152601d60248201527f4f6e6c79206f776e6572267265717565737465722063616e2063616c6c000000604482015290519081900360640190fd5b6040805160808082018352602a549081901b6001600160801b031916808352600160801b820464ffffffffff8116602080860191909152600160a81b840460ff90811686880152600160b01b90940463ffffffff9081166060808801919091528751948552600884901c909116918401919091529216818501529251919233927f3ea16a923ff4b1df6526e854c9e3a995c43385d70e73359e10623c74f0b52037929181900390910190a2806060015160010163ffffffff1691505090565b6003546001600160a01b031690565b600080600080600061243c336000368080601f016020809104026020016040519081016040528093929190818152602001838380828437600092019190915250611d3292505050565b612479576040805162461bcd60e51b81526020600482015260096024820152684e6f2061636365737360b81b604482015290519081900360640190fd5b61248286614b98565b939a9299509097509550909350915050565b6000611d518383614cce565b6000546001600160a01b031633146124f8576040805162461bcd60e51b815260206004820152601660248201527527b7363c9031b0b63630b1363290313c9037bbb732b960511b604482015290519081900360640190fd5b82811461254c576040805162461bcd60e51b815260206004820181905260248201527f7472616e736d6974746572732e73697a6520213d207061796565732e73697a65604482015290519081900360640190fd5b60005b838110156126b357600085858381811061256557fe5b905060200201356001600160a01b03169050600084848481811061258557fe5b6001600160a01b0385811660009081526006602090815260409091205492029390930135831693509091169050801580806125d15750826001600160a01b0316826001600160a01b0316145b612622576040805162461bcd60e51b815260206004820152601160248201527f706179656520616c726561647920736574000000000000000000000000000000604482015290519081900360640190fd5b6001600160a01b03848116600090815260066020526040902080546001600160a01b031916858316908117909155908316146126a357826001600160a01b0316826001600160a01b0316856001600160a01b03167f78af32efdcad432315431e9b03d27e6cd98fb79c405fdc5af7c1714d9c0f75b360405160405180910390a45b50506001909201915061254f9050565b5050505050565b6000546001600160a01b03163314612712576040805162461bcd60e51b815260206004820152601660248201527527b7363c9031b0b63630b1363290313c9037bbb732b960511b604482015290519081900360640190fd5b602e546001600160a01b03908116908216811461278657602e80546001600160a01b0319166001600160a01b03848116918217909255604080519284168352602083019190915280517f27b89aede8b560578baaa25ee5ce3852c5eecad1e114b941bbd89e1eb4bae6349281900390910190a15b5050565b6001600160a01b039081166000908152600660205260409020541690565b6000546001600160a01b03163314612800576040805162461bcd60e51b815260206004820152601660248201527527b7363c9031b0b63630b1363290313c9037bbb732b960511b604482015290519081900360640190fd5b61215581614ce6565b6040805163a9059cbb60e01b8152600160048201526024810183905290516001600160a01b037f0000000000000000000000000000000000000000000000000000000000000000169163a9059cbb9160448083019260209291908290030181600087803b15801561287957600080fd5b505af115801561288d573d6000803e3d6000fd5b505050506040513d60208110156128a357600080fd5b505050565b6001600160a01b03818116600090815260076020526040902054163314612916576040805162461bcd60e51b815260206004820152601f60248201527f6f6e6c792070726f706f736564207061796565732063616e2061636365707400604482015290519081900360640190fd5b6001600160a01b0381811660008181526006602090815260408083208054336001600160a01b031980831682179093556007909452828520805490921690915590519416939092849290917f78af32efdcad432315431e9b03d27e6cd98fb79c405fdc5af7c1714d9c0f75b39190a45050565b60006129cc336000368080601f016020809104026020016040519081016040528093929190818152602001838380828437600092019190915250611d3292505050565b612a09576040805162461bcd60e51b81526020600482015260096024820152684e6f2061636365737360b81b604482015290519081900360640190fd5b611d5482614d61565b6000612a55336000368080601f016020809104026020016040519081016040528093929190818152602001838380828437600092019190915250611d3292505050565b612a92576040805162461bcd60e51b81526020600482015260096024820152684e6f2061636365737360b81b604482015290519081900360640190fd5b611d5482614d97565b6003546000546001600160a01b039182169116331480612b5c575060408051630d629b5f60e31b815233600482018181526024830193845236604484018190526001600160a01b03861694636b14daf8946000939190606401848480828437600083820152604051601f909101601f1916909201965060209550909350505081840390508186803b158015612b2f57600080fd5b505afa158015612b43573d6000803e3d6000fd5b505050506040513d6020811015612b5957600080fd5b50515b612bad576040805162461bcd60e51b815260206004820181905260248201527f4f6e6c79206f776e65722662696c6c696e6741646d696e2063616e2063616c6c604482015290519081900360640190fd5b612bb5614dd7565b612bc28686868686615175565b505050505050565b6000546001600160a01b0316331480612c8c575060035460408051630d629b5f60e31b815233600482018181526024830193845236604484018190526001600160a01b0390951694636b14daf894929360009391929190606401848480828437600083820152604051601f909101601f1916909201965060209550909350505081840390508186803b158015612c5f57600080fd5b505afa158015612c73573d6000803e3d6000fd5b505050506040513d6020811015612c8957600080fd5b50515b612cdd576040805162461bcd60e51b815260206004820181905260248201527f4f6e6c79206f776e65722662696c6c696e6741646d696e2063616e2063616c6c604482015290519081900360640190fd5b6000612ce7614463565b905060007f00000000000000000000000000000000000000000000000000000000000000006001600160a01b03166370a08231306040518263ffffffff1660e01b815260040180826001600160a01b0316815260200191505060206040518083038186803b158015612d5857600080fd5b505afa158015612d6c573d6000803e3d6000fd5b505050506040513d6020811015612d8257600080fd5b5051905081811015612ddb576040805162461bcd60e51b815260206004820152601460248201527f696e73756666696369656e742062616c616e6365000000000000000000000000604482015290519081900360640190fd5b7f00000000000000000000000000000000000000000000000000000000000000006001600160a01b031663a9059cbb85612e178585038761528e565b6040518363ffffffff1660e01b815260040180836001600160a01b0316815260200182815260200192505050602060405180830381600087803b158015612e5d57600080fd5b505af1158015612e71573d6000803e3d6000fd5b505050506040513d6020811015612e8757600080fd5b5051612ecf576040805162461bcd60e51b8152602060048201526012602482015271696e73756666696369656e742066756e647360701b604482015290519081900360640190fd5b50505050565b60005a9050612ee88888888888886152a5565b3614612f3b576040805162461bcd60e51b815260206004820152601960248201527f7472616e736d6974206d65737361676520746f6f206c6f6e6700000000000000604482015290519081900360640190fd5b612f43615783565b6040805160808082018352602a549081901b6001600160801b0319168252600160801b810464ffffffffff166020830152600160a81b810460ff1692820192909252600160b01b90910463ffffffff166060808301919091529082526000908a908a90811015612fb257600080fd5b813591602081013591810190606081016040820135600160201b811115612fd857600080fd5b820183602082011115612fea57600080fd5b803590602001918460208302840111600160201b8311171561300b57600080fd5b91908080602002602001604051908101604052809392919081815260200183836020028082843760009201919091525050505060408801525050506080840182905283515190925060589190911b906001600160801b03198083169116146130ba576040805162461bcd60e51b815260206004820152601560248201527f636f6e666967446967657374206d69736d617463680000000000000000000000604482015290519081900360640190fd5b608083015183516020015164ffffffffff808316911610613122576040805162461bcd60e51b815260206004820152600c60248201527f7374616c65207265706f72740000000000000000000000000000000000000000604482015290519081900360640190fd5b83516040015160ff16891161317e576040805162461bcd60e51b815260206004820152601560248201527f6e6f7420656e6f756768207369676e6174757265730000000000000000000000604482015290519081900360640190fd5b601f8911156131d4576040805162461bcd60e51b815260206004820152601360248201527f746f6f206d616e79207369676e61747572657300000000000000000000000000604482015290519081900360640190fd5b868914613228576040805162461bcd60e51b815260206004820152601e60248201527f7369676e617475726573206f7574206f6620726567697374726174696f6e0000604482015290519081900360640190fd5b601f8460400151511115613283576040805162461bcd60e51b815260206004820152601e60248201527f6e756d206f62736572766174696f6e73206f7574206f6620626f756e64730000604482015290519081900360640190fd5b83600001516040015160020260ff16846040015151116132ea576040805162461bcd60e51b815260206004820152601e60248201527f746f6f206665772076616c75657320746f207472757374206d656469616e0000604482015290519081900360640190fd5b8867ffffffffffffffff8111801561330157600080fd5b506040519080825280601f01601f19166020018201604052801561332c576020820181803683370190505b50606085015260005b60ff81168a111561339d57868160ff166020811061334f57fe5b1a60f81b85606001518260ff168151811061336657fe5b60200101907effffffffffffffffffffffffffffffffffffffffffffffffffffffffffffff1916908160001a905350600101613335565b5083604001515167ffffffffffffffff811180156133ba57600080fd5b506040519080825280601f01601f1916602001820160405280156133e5576020820181803683370190505b5060208501526133f3615764565b60005b8560400151518160ff1610156134f9576000858260ff166020811061341757fe5b1a90508281601f811061342657fe5b60200201511561347d576040805162461bcd60e51b815260206004820152601760248201527f6f6273657276657220696e646578207265706561746564000000000000000000604482015290519081900360640190fd5b6001838260ff16601f811061348e57fe5b91151560209283029190910152869060ff84169081106134aa57fe5b1a60f81b87602001518360ff16815181106134c157fe5b60200101907effffffffffffffffffffffffffffffffffffffffffffffffffffffffffffff1916908160001a905350506001016133f6565b503360009081526027602090815260408083208151808301909252805460ff8082168452929391929184019161010090910416600281111561353757fe5b600281111561354257fe5b905250905060028160200151600281111561355957fe5b14801561358d57506029816000015160ff168154811061357557fe5b6000918252602090912001546001600160a01b031633145b6135de576040805162461bcd60e51b815260206004820152601860248201527f756e617574686f72697a6564207472616e736d69747465720000000000000000604482015290519081900360640190fd5b5050835164ffffffffff90911660209091015250506040516000908a908a90808383808284376040519201829003909120945061361f935061576492505050565b6136276157b7565b60005b898110156138205760006001858760600151848151811061364757fe5b60209101015160f81c601b018e8e8681811061365f57fe5b905060200201358d8d8781811061367257fe5b9050602002013560405160008152602001604052604051808581526020018460ff1681526020018381526020018281526020019450505050506020604051602081039080840390855afa1580156136cd573d6000803e3d6000fd5b505060408051601f198101516001600160a01b03811660009081526027602090815290849020838501909452835460ff8082168552929650929450840191610100900416600281111561371c57fe5b600281111561372757fe5b905250925060018360200151600281111561373e57fe5b14613790576040805162461bcd60e51b815260206004820152601e60248201527f61646472657373206e6f7420617574686f72697a656420746f207369676e0000604482015290519081900360640190fd5b8251849060ff16601f81106137a157fe5b6020020151156137f8576040805162461bcd60e51b815260206004820152601460248201527f6e6f6e2d756e69717565207369676e6174757265000000000000000000000000604482015290519081900360640190fd5b600184846000015160ff16601f811061380d57fe5b911515602090920201525060010161362a565b5050505060005b6001826040015151038110156138d15760008260400151826001018151811061384c57fe5b602002602001015160170b8360400151838151811061386757fe5b602002602001015160170b13159050806138c8576040805162461bcd60e51b815260206004820152601760248201527f6f62736572766174696f6e73206e6f7420736f72746564000000000000000000604482015290519081900360640190fd5b50600101613827565b506040810151805160009190600281049081106138ea57fe5b602002602001015190508060170b7f000000000000000000000000000000000000000000000000000000000000000060170b1315801561395057507f000000000000000000000000000000000000000000000000000000000000000060170b8160170b13155b6139a1576040805162461bcd60e51b815260206004820152601e60248201527f6d656469616e206973206f7574206f66206d696e2d6d61782072616e67650000604482015290519081900360640190fd5b81516060908101805163ffffffff60019091018116909152604080518082018252601785810b80835267ffffffffffffffff42811660208086019182528a5189015188166000908152602b8252878120965187549351909416600160c01b029390950b77ffffffffffffffffffffffffffffffffffffffffffffffff9081167fffffffffffffffff0000000000000000000000000000000000000000000000009093169290921790911691909117909355875186015184890151848a01516080808c015188519586523386890181905291860181905260a0988601898152845199870199909952835194909916997ff6a97944f31ea060dfde0566e4167c1a1082551e64b60ecb14d599a9d023d451998c999298949793969095909492939185019260c086019289820192909102908190849084905b83811015613aef578181015183820152602001613ad7565b50505050905001838103825285818151815260200191508051906020019080838360005b83811015613b2b578181015183820152602001613b13565b50505050905090810190601f168015613b585780820380516001836020036101000a031916815260200191505b5097505050505050505060405180910390a281516060015160408051428152905160009263ffffffff16917f0109fc6f55cf40689f02fbaad7af7fe7bbac8a3d2186600afc7d3e10cac60271919081900360200190a381600001516060015163ffffffff168160170b7f0559884fd3a460db3073b7fc896cc77986f16e378210ded43186175bf646fc5f426040518082815260200191505060405180910390a3613c0d8260000151606001518260170b6152bd565b5080518051602a8054602084015160408501516060909501516001600160801b031990921660809490941c939093177fffffffffffffffffffffff0000000000ffffffffffffffffffffffffffffffff16600160801b64ffffffffff909416939093029290921760ff60a81b1916600160a81b60ff90941693909302929092177fffffffffffff00000000ffffffffffffffffffffffffffffffffffffffffffff16600160b01b63ffffffff92831602179091558210613cc957fe5b613cd78282602001516153ce565b505050505050505050565b6000807f00000000000000000000000000000000000000000000000000000000000000006001600160a01b03166370a08231306040518263ffffffff1660e01b815260040180826001600160a01b0316815260200191505060206040518083038186803b158015613d5257600080fd5b505afa158015613d66573d6000803e3d6000fd5b505050506040513d6020811015613d7c57600080fd5b505190506000613d8a614463565b90910391505090565b6001600160a01b038216600090815260276020526040902054600182019060049060ff16601f8110613dc157fe5b601091828204019190066002026101000a81548161ffff021916908361ffff1602179055505050565b60305460ff1681565b60006001600160a01b038316600090815260276020526040902054610100900460ff166002811115613e2157fe5b1415613e74576040805162461bcd60e51b815260206004820152600f60248201527f6164647265737320756e6b6e6f776e0000000000000000000000000000000000604482015290519081900360640190fd5b6001600160a01b038216600090815260276020526040902054600182019060089060ff16601f8110613ea257fe5b01555050565b6001600160a01b03811660009081526027602090815260408083208151808301909252805460ff808216845285948401916101009004166002811115613eea57fe5b6002811115613ef557fe5b9052509050600081602001516002811115613f0c57fe5b1415613f1c57600091505061120a565b60016004826000015160ff16601f8110613f3257fe5b601091828204019190066002029054906101000a900461ffff1603915050919050565b600080808080333214613faf576040805162461bcd60e51b815260206004820152601460248201527f4f6e6c792063616c6c61626c6520627920454f41000000000000000000000000604482015290519081900360640190fd5b5050602a5463ffffffff600160b01b820481166000908152602b6020526040902054608083901b96600160801b909304600881901c909216955064ffffffffff9091169350601781900b9250600160c01b900467ffffffffffffffff1690565b6000546001600160a01b03163314614067576040805162461bcd60e51b815260206004820152601660248201527527b7363c9031b0b63630b1363290313c9037bbb732b960511b604482015290519081900360640190fd5b60408051808201909152602d546001600160a01b03808216808452600160a01b90920463ffffffff16602084015284161415806140b457508163ffffffff16816020015163ffffffff1614155b156128a3576040805180820182526001600160a01b0385811680835263ffffffff8681166020948501819052602d80546001600160a01b03191684177fffffffffffffffff00000000ffffffffffffffffffffffffffffffffffffffff16600160a01b8302179055865187860151875193168352948201528451919493909216927fb04e3a37abe9c0fcdfebdeae019a8e2b12ddf53f5d55ffb0caccc1bedaca1541928290030190a3505050565b6001600160a01b038281166000908152600660205260409020541633146141d0576040805162461bcd60e51b815260206004820152601d60248201527f6f6e6c792063757272656e742070617965652063616e20757064617465000000604482015290519081900360640190fd5b336001600160a01b038216141561422e576040805162461bcd60e51b815260206004820152601760248201527f63616e6e6f74207472616e7366657220746f2073656c66000000000000000000604482015290519081900360640190fd5b6001600160a01b03808316600090815260076020526040902080548383166001600160a01b0319821681179092559091169081146128a3576040516001600160a01b038084169133918616907f84f7c7c80bb8ed2279b4aab5f61cd05e6374073d38f46d7f32de8c30e9e3836790600090a4505050565b6000546001600160a01b031633146142fd576040805162461bcd60e51b815260206004820152601660248201527527b7363c9031b0b63630b1363290313c9037bbb732b960511b604482015290519081900360640190fd5b600180546001600160a01b0319166001600160a01b0383811691821790925560008054604051929316917fed8889f560326eb138920d842192f0eb3dd22b4f139c87a2c57538e05bae12789190a350565b600061435b8484846155ff565b949350505050565b6000546001600160a01b031633146143bb576040805162461bcd60e51b815260206004820152601660248201527527b7363c9031b0b63630b1363290313c9037bbb732b960511b604482015290519081900360640190fd5b6121558161561c565b600080600080600061440d336000368080601f016020809104026020016040519081016040528093929190818152602001838380828437600092019190915250611d3292505050565b61444a576040805162461bcd60e51b81526020600482015260096024820152684e6f2061636365737360b81b604482015290519081900360640190fd5b614452615693565b945094509450945094509091929394565b604080516103e0810191829052600091829190600490601f908285855b82829054906101000a900461ffff1661ffff16815260200190600201906020826001010492830192600103820291508084116144805790505050505050905060005b601f8110156144f05760018282601f81106144d957fe5b60200201510361ffff1692909201916001016144c2565b506040805160a08101825260025463ffffffff8082168352600160201b82048116602080850191909152600160401b8304821684860152600160601b8304821660608501819052600160801b90930490911660808401526029805485518184028101840190965280865296909202633b9aca00029592936000939092918301828280156145a657602002820191906000526020600020905b81546001600160a01b03168152600190910190602001808311614588575b5050604080516103e0810191829052949550600094935060089250601f915082845b8154815260200190600101908083116145c8575050505050905060005b825181101561460f5760018282601f81106145fc57fe5b60200201510395909501946001016145e5565b505050505090565b600080606083806020019051606081101561463157600080fd5b81516020830151604080850180519151939592948301929184600160201b82111561465b57600080fd5b90830190602082018581111561467057600080fd5b82518660208202830111600160201b8211171561468c57600080fd5b82525081516020918201928201910280838360005b838110156146b95781810151838201526020016146a1565b505050509190910160405250949993985091965091945050505050565b602a54600160b01b900463ffffffff166000908152602b6020526040902054601790810b900b90565b6001600160a01b03811660009081526027602090815260408083208151808301909252805460ff8082168452929391929184019161010090910416600281111561474557fe5b600281111561475057fe5b90525090506000614760836110e0565b905080156128a3576001600160a01b03808416600090815260066020908152604080832054815163a9059cbb60e01b81529085166004820181905260248201879052915191947f0000000000000000000000000000000000000000000000000000000000000000169363a9059cbb9360448084019491939192918390030190829087803b1580156147f057600080fd5b505af1158015614804573d6000803e3d6000fd5b505050506040513d602081101561481a57600080fd5b5051614862576040805162461bcd60e51b8152602060048201526012602482015271696e73756666696369656e742066756e647360701b604482015290519081900360640190fd5b60016004846000015160ff16601f811061487857fe5b601091828204019190066002026101000a81548161ffff021916908361ffff16021790555060016008846000015160ff16601f81106148b357fe5b0155604080516001600160a01b0380871682528316602082015280820184905290517fe8ec50e5150ae28ae37e493ff389ffab7ffaec2dc4dccfca03f12a3de29d12b29181900360600190a150505050565b60008a8a8a8a8a8a8a8a8a8a604051602001808b6001600160a01b031681526020018a67ffffffffffffffff16815260200180602001806020018760ff1681526020018667ffffffffffffffff1681526020018060200184810384528c8c82818152602001925060200280828437600083820152601f01601f191690910185810384528a8152602090810191508b908b0280828437600083820152601f01601f191690910185810383528681526020019050868680828437600081840152601f19601f8201169050808301925050509d50505050505050505050505050506040516020818303038152906040528051906020012090509a9950505050505050505050565b602a54600160b01b900463ffffffff1690565b6001600160a01b03821660009081526031602052604081205460ff1680611d5157505060305460ff161592915050565b602f8054604080516020601f6002600019610100600188161502019095169490940493840181900481028201810190925282815260609390929091830182828015611fd45780601f10614aad57610100808354040283529160200191611fd4565b820191906000526020600020905b815481529060010190602001808311614abb57509395945050505050565b600081851015614b30576040805162461bcd60e51b815260206004820181905260248201527f6761734c6566742063616e6e6f742065786365656420696e697469616c476173604482015290519081900360640190fd5b818503830161179301633b9aca00858202026fffffffffffffffffffffffffffffffff8110614b5b57fe5b9695505050505050565b602a54600160b01b900463ffffffff166000908152602b6020526040902054600160c01b900467ffffffffffffffff1690565b600080600080600063ffffffff8669ffffffffffffffffffff1611156040518060400160405280600f81526020017f4e6f20646174612070726573656e74000000000000000000000000000000000081525090614c735760405162461bcd60e51b81526004018080602001828103825283818151815260200191508051906020019080838360005b83811015614c38578181015183820152602001614c20565b50505050905090810190601f168015614c655780820380516001836020036101000a031916815260200191505b509250505060405180910390fd5b5050505063ffffffff83166000908152602b6020908152604091829020825180840190935254601781810b810b810b808552600160c01b90920467ffffffffffffffff1693909201839052949594900b939092508291508490565b6000611d518261ffff168461ffff160161ffff61528e565b6001600160a01b03811660009081526031602052604090205460ff16612155576001600160a01b038116600081815260316020908152604091829020805460ff19166001179055815192835290517f87286ad1f399c8e82bf0c4ef4fcdc570ea2e1e92176e5c848b6413545b885db49281900390910190a150565b600063ffffffff821115614d775750600061120a565b5063ffffffff166000908152602b6020526040902054601790810b900b90565b600063ffffffff821115614dad5750600061120a565b5063ffffffff166000908152602b6020526040902054600160c01b900467ffffffffffffffff1690565b6040805160a08101825260025463ffffffff8082168352600160201b820481166020840152600160401b8204811683850152600160601b820481166060840152600160801b90910416608082015281516103e0810192839052909160009190600490601f908285855b82829054906101000a900461ffff1661ffff1681526020019060020190602082600101049283019260010382029150808411614e40575050604080516103e0810191829052959650600095945060089350601f9250905082845b815481526020019060010190808311614e9a575050505050905060006029805480602002602001604051908101604052809291908181526020018280548015614f0c57602002820191906000526020600020905b81546001600160a01b03168152600190910190602001808311614eee575b5050505050905060005b815181101561515957600060018483601f8110614f2f57fe5b6020020151039050600060018684601f8110614f4757fe5b60200201510361ffff169050600082886060015163ffffffff168302633b9aca0002019050600081111561514e57600060066000878781518110614f8757fe5b60200260200101516001600160a01b03166001600160a01b0316815260200190815260200160002060009054906101000a90046001600160a01b031690507f00000000000000000000000000000000000000000000000000000000000000006001600160a01b031663a9059cbb82846040518363ffffffff1660e01b815260040180836001600160a01b0316815260200182815260200192505050602060405180830381600087803b15801561503c57600080fd5b505af1158015615050573d6000803e3d6000fd5b505050506040513d602081101561506657600080fd5b50516150ae576040805162461bcd60e51b8152602060048201526012602482015271696e73756666696369656e742066756e647360701b604482015290519081900360640190fd5b60018886601f81106150bc57fe5b61ffff909216602092909202015260018786601f81106150d857fe5b602002015285517fe8ec50e5150ae28ae37e493ff389ffab7ffaec2dc4dccfca03f12a3de29d12b29087908790811061510d57fe5b6020026020010151828460405180846001600160a01b03168152602001836001600160a01b03168152602001828152602001935050505060405180910390a1505b505050600101614f16565b50615167600484601f6157ce565b506126b3600883601f615864565b6040805160a0808201835263ffffffff88811680845288821660208086018290528984168688018190528985166060808901829052958a1660809889018190526002805463ffffffff1916871767ffffffff000000001916600160201b8702176bffffffff00000000000000001916600160401b8502177fffffffffffffffffffffffffffffffff00000000ffffffffffffffffffffffff16600160601b8402177fffffffffffffffffffffffff00000000ffffffffffffffffffffffffffffffff16600160801b830217905589519586529285019390935283880152928201529283015291517fd0d9486a2c673e2a4b57fc82e4c8a556b3e2b82dd5db07e2c04a920ca0f469b6929181900390910190a15050505050565b60008183101561529f575081611d54565b50919050565b602083810286019082020160e4019695505050505050565b60408051808201909152602d546001600160a01b038116808352600160a01b90910463ffffffff1660208301526152f45750612786565b600019830163ffffffff8181166000818152602b602090815260408083205487518884015183517fbeed9b510000000000000000000000000000000000000000000000000000000081526004810197909752601792830b90920b602487018190528b88166044880152606487018b9052925192966001600160a01b039091169563beed9b51959290911693608480830194919391928390030190829088803b15801561539f57600080fd5b5087f1935050505080156153c557506040513d60208110156153c057600080fd5b505160015b612bc2576126b3565b3360009081526027602090815260408083208151808301909252805460ff8082168452929391929184019161010090910416600281111561540b57fe5b600281111561541657fe5b9052506040805160a08101825260025463ffffffff8082168352600160201b820481166020840152600160401b8204811683850152600160601b820481166060840152600160801b90910416608082015281516103e0810192839052929350916154ca91859190600490601f90826000855b82829054906101000a900461ffff1661ffff168152602001906002019060208260010104928301926001038202915080841161548857905050505050506156ef565b6154d890600490601f6157ce565b506002826020015160028111156154eb57fe5b1461553d576040805162461bcd60e51b815260206004820181905260248201527f73656e7420627920756e64657369676e61746564207472616e736d6974746572604482015290519081900360640190fd5b6000615564633b9aca003a04836020015163ffffffff16846000015163ffffffff166155ff565b90506010360260005a905060006155838863ffffffff16858585614ad9565b6fffffffffffffffffffffffffffffffff1690506000620f4240866040015163ffffffff168302816155b157fe5b049050856080015163ffffffff16633b9aca0002816008896000015160ff16601f81106155da57fe5b015401016008886000015160ff16601f81106155f257fe5b0155505050505050505050565b6000838381101561561257600285850304015b611e23818461528e565b6003546001600160a01b03908116908216811461278657600380546001600160a01b0319166001600160a01b03848116918217909255604080519284168352602083019190915280517f793cb73064f3c8cde7e187ae515511e6e56d1ee89bf08b82fa60fb70f8d489129281900390910190a15050565b602a54600160b01b900463ffffffff166000818152602b6020908152604091829020825180840190935254601781810b810b810b808552600160c01b90920467ffffffffffffffff1693909201839052929392900b9181908490565b6156f7615764565b60005b835181101561575c57600084828151811061571157fe5b016020015160f81c90506157368482601f811061572a57fe5b60200201516001614cce565b848260ff16601f811061574557fe5b61ffff9092166020929092020152506001016156fa565b509092915050565b604051806103e00160405280601f906020820280368337509192915050565b6040518060a00160405280615796615892565b81526060602082018190526040820181905280820152600060809091015290565b604080518082019091526000808252602082015290565b6002830191839082156158545791602002820160005b8382111561582457835183826101000a81548161ffff021916908361ffff16021790555092602001926002016020816001010492830192600103026157e4565b80156158525782816101000a81549061ffff0219169055600201602081600101049283019260010302615824565b505b506158609291506158b9565b5090565b82601f8101928215615854579160200282015b82811115615854578251825591602001919060010190615877565b60408051608081018252600080825260208201819052918101829052606081019190915290565b5b8082111561586057600081556001016158ba56fe6f7261636c6520616464726573736573206f7574206f6620726567697374726174696f6e416363657373436f6e74726f6c6c65644f6666636861696e41676772656761746f7220322e302e30a2646970667358221220e1204ee302e18a323f6b9bb3575a9207c5a169277a09f53c13cfa1974621b61564736f6c63430007060033",
  "linkReferences": {},
  "deployedLinkReferences": {}
}