{
  "_format": "hh-sol-artifact-1",
  "contractName": "TestValidator",
  "sourceName": "contracts/aggregatorEthUsd/TestValidator.sol",
  "abi": [
    {
      "anonymous": false,
      "inputs": [
        {
          "indexed": false,
          "internalType": "uint256",
          "name": "previousRoundId",
          "type": "uint256"
        },
        {
          "indexed": false,
          "internalType": "int256",
          "name": "previousAnswer",
          "type": "int256"
        },
        {
          "indexed": false,
          "internalType": "uint256",
          "name": "currentRoundId",
          "type": "uint256"
        },
        {
          "indexed": false,
          "internalType": "int256",
          "name": "currentAnswer",
          "type": "int256"
        },
        {
          "indexed": false,
          "internalType": "uint256",
          "name": "initialGas",
          "type": "uint256"
        }
      ],
      "name": "Validated",
      "type": "event"
    },
    {
      "inputs": [],
      "name": "latestRoundId",
      "outputs": [
        {
          "internalType": "uint256",
          "name": "",
          "type": "uint256"
        }
      ],
      "stateMutability": "view",
      "type": "function"
    },
    {
      "inputs": [
        {
          "internalType": "uint32",
          "name": "minGasUse",
          "type": "uint32"
        }
      ],
      "name": "setMinGasUse",
      "outputs": [],
      "stateMutability": "nonpayable",
      "type": "function"
    },
    {
      "inputs": [
        {
          "internalType": "uint256",
          "name": "previousRoundId",
          "type": "uint256"
        },
        {
          "internalType": "int256",
          "name": "previousAnswer",
          "type": "int256"
        },
        {
          "internalType": "uint256",
          "name": "currentRoundId",
          "type": "uint256"
        },
        {
          "internalType": "int256",
          "name": "currentAnswer",
          "type": "int256"
        }
      ],
      "name": "validate",
      "outputs": [
        {
          "internalType": "bool",
          "name": "",
          "type": "bool"
        }
      ],
      "stateMutability": "nonpayable",
      "type": "function"
    }
  ],
  "bytecode": "0x608060405234801561001057600080fd5b506101a1806100206000396000f3fe608060405234801561001057600080fd5b50600436106100415760003560e01c806311a8f41314610046578063beed9b5114610060578063c4792df4146100a3575b600080fd5b61004e6100c8565b60408051918252519081900360200190f35b61008f6004803603608081101561007657600080fd5b50803590602081013590604081013590606001356100ce565b604080519115158252519081900360200190f35b6100c6600480360360208110156100b957600080fd5b503563ffffffff1661014f565b005b60015490565b6000805a6040805188815260208101889052808201879052606081018690526080810183905290519192507fdb623f4f39d41e75ae1cbe50460c3d1496b6cf9a0db391b7197f82cab2744d21919081900360a00190a1600184905560005463ffffffff165b805a8303101561014257610133565b5060019695505050505050565b6000805463ffffffff191663ffffffff9290921691909117905556fea264697066735822122079fcc03df6e019ca84b97ce1e1cc9b63be3c0da1441adec00930c074089d753364736f6c63430007060033",
  "linkReferences": {},
  "deployedLinkReferences": {}
}