{
  "_format": "hh-sol-artifact-1",
  "contractName": "AaveFallbackOracle",
  "sourceName": "contracts/fallback/AaveFallbackOracle.sol",
  "abi": [
    {
      "anonymous": false,
      "inputs": [
        {
          "indexed": false,
          "internalType": "address",
          "name": "sybil",
          "type": "address"
        },
        {
          "indexed": false,
          "internalType": "address[]",
          "name": "assets",
          "type": "address[]"
        },
        {
          "indexed": false,
          "internalType": "uint128[]",
          "name": "prices",
          "type": "uint128[]"
        }
      ],
      "name": "PricesSubmitted",
      "type": "event"
    },
    {
      "inputs": [],
      "name": "PERCENTAGE_BASE",
      "outputs": [
        {
          "internalType": "uint256",
          "name": "",
          "type": "uint256"
        }
      ],
      "stateMutability": "view",
      "type": "function"
    },
    {
      "inputs": [
        {
          "internalType": "uint256",
          "name": "deviation",
          "type": "uint256"
        },
        {
          "internalType": "address[]",
          "name": "assets",
          "type": "address[]"
        },
        {
          "internalType": "uint256[]",
          "name": "candidatePrices",
          "type": "uint256[]"
        }
      ],
      "name": "filterCandidatePricesByDeviation",
      "outputs": [
        {
          "internalType": "address[]",
          "name": "",
          "type": "address[]"
        },
        {
          "internalType": "uint256[]",
          "name": "",
          "type": "uint256[]"
        }
      ],
      "stateMutability": "view",
      "type": "function"
    },
    {
      "inputs": [
        {
          "internalType": "address",
          "name": "asset",
          "type": "address"
        }
      ],
      "name": "getAssetPrice",
      "outputs": [
        {
          "internalType": "uint256",
          "name": "",
          "type": "uint256"
        }
      ],
      "stateMutability": "view",
      "type": "function"
    },
    {
      "inputs": [
        {
          "internalType": "address[]",
          "name": "assets",
          "type": "address[]"
        }
      ],
      "name": "getPricesData",
      "outputs": [
        {
          "components": [
            {
              "internalType": "uint64",
              "name": "blockNumber",
              "type": "uint64"
            },
            {
              "internalType": "uint64",
              "name": "blockTimestamp",
              "type": "uint64"
            },
            {
              "internalType": "uint128",
              "name": "price",
              "type": "uint128"
            }
          ],
          "internalType": "struct AaveFallbackOracle.Price[]",
          "name": "",
          "type": "tuple[]"
        }
      ],
      "stateMutability": "view",
      "type": "function"
    },
    {
      "inputs": [
        {
          "internalType": "address",
          "name": "sybil",
          "type": "address"
        }
      ],
      "name": "isSybilWhitelisted",
      "outputs": [
        {
          "internalType": "bool",
          "name": "",
          "type": "bool"
        }
      ],
      "stateMutability": "pure",
      "type": "function"
    },
    {
      "inputs": [
        {
          "internalType": "address[]",
          "name": "assets",
          "type": "address[]"
        },
        {
          "internalType": "uint128[]",
          "name": "prices",
          "type": "uint128[]"
        }
      ],
      "name": "submitPrices",
      "outputs": [],
      "stateMutability": "nonpayable",
      "type": "function"
    }
  ],
  "bytecode": "0x608060405234801561001057600080fd5b506117dc806100206000396000f3fe608060405234801561001057600080fd5b50600436106100625760003560e01c80630e5665e61461006757806330d454f01461008357806342136b08146100b35780635f1e09d9146100e357806387c1394314610114578063b3596f0714610132575b600080fd5b610081600480360381019061007c9190610e5c565b610162565b005b61009d60048036038101906100989190610dee565b610373565b6040516100aa9190611463565b60405180910390f35b6100cd60048036038101906100c89190610e17565b6103bf565b6040516100da9190611441565b60405180910390f35b6100fd60048036038101906100f89190610efa565b61056d565b60405161010b92919061140a565b60405180910390f35b61011c6109ab565b6040516101299190611520565b60405180910390f35b61014c60048036038101906101479190610dee565b6109b1565b6040516101599190611520565b60405180910390f35b61016b33610a2a565b8181905084849050146101b3576040517f08c379a00000000000000000000000000000000000000000000000000000000081526004016101aa90611500565b60405180910390fd5b60005b8484905081101561032d5760405180606001604052804367ffffffffffffffff1681526020014267ffffffffffffffff1681526020018484848181106101f857fe5b905060200201602081019061020d9190610ed1565b6fffffffffffffffffffffffffffffffff1681525060008087878581811061023157fe5b90506020020160208101906102469190610dee565b73ffffffffffffffffffffffffffffffffffffffff1673ffffffffffffffffffffffffffffffffffffffff16815260200190815260200160002060008201518160000160006101000a81548167ffffffffffffffff021916908367ffffffffffffffff16021790555060208201518160000160086101000a81548167ffffffffffffffff021916908367ffffffffffffffff16021790555060408201518160000160106101000a8154816fffffffffffffffffffffffffffffffff02191690836fffffffffffffffffffffffffffffffff16021790555090505080806001019150506101b6565b507f995dd01082df56f242aad7e0a6f87116e5d4c972ab8377309354fa2bd0de3e5933858585856040516103659594939291906113c1565b60405180910390a150505050565b600073de715503e63e6a148f55a20f0a81a02fef81b88473ffffffffffffffffffffffffffffffffffffffff168273ffffffffffffffffffffffffffffffffffffffff16149050919050565b6060808383905067ffffffffffffffff811180156103dc57600080fd5b5060405190808252806020026020018201604052801561041657816020015b610403610c8a565b8152602001906001900390816103fb5790505b50905060005b848490508110156105625760008086868481811061043657fe5b905060200201602081019061044b9190610dee565b73ffffffffffffffffffffffffffffffffffffffff1673ffffffffffffffffffffffffffffffffffffffff1681526020019081526020016000206040518060600160405290816000820160009054906101000a900467ffffffffffffffff1667ffffffffffffffff1667ffffffffffffffff1681526020016000820160089054906101000a900467ffffffffffffffff1667ffffffffffffffff1667ffffffffffffffff1681526020016000820160109054906101000a90046fffffffffffffffffffffffffffffffff166fffffffffffffffffffffffffffffffff166fffffffffffffffffffffffffffffffff168152505082828151811061054a57fe5b6020026020010181905250808060010191505061041c565b508091505092915050565b6060808383905086869050146105b8576040517f08c379a00000000000000000000000000000000000000000000000000000000081526004016105af90611500565b60405180910390fd5b60608686905067ffffffffffffffff811180156105d457600080fd5b506040519080825280602002602001820160405280156106035781602001602082028036833780820191505090505b50905060608787905067ffffffffffffffff8111801561062257600080fd5b506040519080825280602002602001820160405280156106515781602001602082028036833780820191505090505b509050600080600090505b898990508110156108605760008060008c8c8581811061067857fe5b905060200201602081019061068d9190610dee565b73ffffffffffffffffffffffffffffffffffffffff1673ffffffffffffffffffffffffffffffffffffffff16815260200190815260200160002060000160109054906101000a90046fffffffffffffffffffffffffffffffff1690506107366127106107286107078f612710610a7590919063ffffffff16565b8c8c8781811061071357fe5b90506020020135610aca90919063ffffffff16565b610b3a90919063ffffffff16565b816fffffffffffffffffffffffffffffffff1611806107b2575061079d61271061078f61076e8f612710610b8490919063ffffffff16565b8c8c8781811061077a57fe5b90506020020135610aca90919063ffffffff16565b610b3a90919063ffffffff16565b816fffffffffffffffffffffffffffffffff16105b15610852578a8a838181106107c357fe5b90506020020160208101906107d89190610dee565b8584815181106107e457fe5b602002602001019073ffffffffffffffffffffffffffffffffffffffff16908173ffffffffffffffffffffffffffffffffffffffff168152505088888381811061082a57fe5b9050602002013584848151811061083d57fe5b60200260200101818152505082806001019350505b50808060010191505061065c565b5060608167ffffffffffffffff8111801561087a57600080fd5b506040519080825280602002602001820160405280156108a95781602001602082028036833780820191505090505b50905060608267ffffffffffffffff811180156108c557600080fd5b506040519080825280602002602001820160405280156108f45781602001602082028036833780820191505090505b50905060005b838110156109955785818151811061090e57fe5b602002602001015183828151811061092257fe5b602002602001019073ffffffffffffffffffffffffffffffffffffffff16908173ffffffffffffffffffffffffffffffffffffffff168152505084818151811061096857fe5b602002602001015182828151811061097c57fe5b60200260200101818152505080806001019150506108fa565b5081819650965050505050509550959350505050565b61271081565b60008060008373ffffffffffffffffffffffffffffffffffffffff1673ffffffffffffffffffffffffffffffffffffffff16815260200190815260200160002060000160109054906101000a90046fffffffffffffffffffffffffffffffff166fffffffffffffffffffffffffffffffff169050919050565b610a3381610373565b610a72576040517f08c379a0000000000000000000000000000000000000000000000000000000008152600401610a69906114c0565b60405180910390fd5b50565b600080828401905083811015610ac0576040517f08c379a0000000000000000000000000000000000000000000000000000000008152600401610ab7906114a0565b60405180910390fd5b8091505092915050565b600080831415610add5760009050610b34565b6000828402905082848281610aee57fe5b0414610b2f576040517f08c379a0000000000000000000000000000000000000000000000000000000008152600401610b26906114e0565b60405180910390fd5b809150505b92915050565b6000610b7c83836040518060400160405280601a81526020017f536166654d6174683a206469766973696f6e206279207a65726f000000000000815250610bce565b905092915050565b6000610bc683836040518060400160405280601e81526020017f536166654d6174683a207375627472616374696f6e206f766572666c6f770000815250610c2f565b905092915050565b60008083118290610c15576040517f08c379a0000000000000000000000000000000000000000000000000000000008152600401610c0c919061147e565b60405180910390fd5b506000838581610c2157fe5b049050809150509392505050565b6000838311158290610c77576040517f08c379a0000000000000000000000000000000000000000000000000000000008152600401610c6e919061147e565b60405180910390fd5b5060008385039050809150509392505050565b6040518060600160405280600067ffffffffffffffff168152602001600067ffffffffffffffff16815260200160006fffffffffffffffffffffffffffffffff1681525090565b600081359050610ce081611761565b92915050565b60008083601f840112610cf857600080fd5b8235905067ffffffffffffffff811115610d1157600080fd5b602083019150836020820283011115610d2957600080fd5b9250929050565b60008083601f840112610d4257600080fd5b8235905067ffffffffffffffff811115610d5b57600080fd5b602083019150836020820283011115610d7357600080fd5b9250929050565b60008083601f840112610d8c57600080fd5b8235905067ffffffffffffffff811115610da557600080fd5b602083019150836020820283011115610dbd57600080fd5b9250929050565b600081359050610dd381611778565b92915050565b600081359050610de88161178f565b92915050565b600060208284031215610e0057600080fd5b6000610e0e84828501610cd1565b91505092915050565b60008060208385031215610e2a57600080fd5b600083013567ffffffffffffffff811115610e4457600080fd5b610e5085828601610ce6565b92509250509250929050565b60008060008060408587031215610e7257600080fd5b600085013567ffffffffffffffff811115610e8c57600080fd5b610e9887828801610ce6565b9450945050602085013567ffffffffffffffff811115610eb757600080fd5b610ec387828801610d30565b925092505092959194509250565b600060208284031215610ee357600080fd5b6000610ef184828501610dc4565b91505092915050565b600080600080600060608688031215610f1257600080fd5b6000610f2088828901610dd9565b955050602086013567ffffffffffffffff811115610f3d57600080fd5b610f4988828901610ce6565b9450945050604086013567ffffffffffffffff811115610f6857600080fd5b610f7488828901610d7a565b92509250509295509295909350565b6000610f8f8383610ff2565b60208301905092915050565b6000610fa78383611343565b60608301905092915050565b6000610fbf8383611385565b60208301905092915050565b6000610fd78383611394565b60208301905092915050565b610fec816116e7565b82525050565b610ffb8161166f565b82525050565b600061100d83856115ec565b93506110188261153b565b8060005b858110156110515761102e8284611641565b6110388882610f83565b9750611043836115ab565b92505060018101905061101c565b5085925050509392505050565b60006110698261157f565b61107381856115ec565b935061107e83611545565b8060005b838110156110af5781516110968882610f83565b97506110a1836115b8565b925050600181019050611082565b5085935050505092915050565b60006110c78261158a565b6110d181856115fd565b93506110dc83611555565b8060005b8381101561110d5781516110f48882610f9b565b97506110ff836115c5565b9250506001810190506110e0565b5085935050505092915050565b6000611126838561160e565b935061113182611565565b8060005b8581101561116a576111478284611658565b6111518882610fb3565b975061115c836115d2565b925050600181019050611135565b5085925050509392505050565b600061118282611595565b61118c818561161f565b93506111978361156f565b8060005b838110156111c85781516111af8882610fcb565b97506111ba836115df565b92505060018101905061119b565b5085935050505092915050565b6111de81611681565b82525050565b60006111ef826115a0565b6111f98185611630565b935061120981856020860161171d565b61121281611750565b840191505092915050565b600061122a601b83611630565b91507f536166654d6174683a206164646974696f6e206f766572666c6f7700000000006000830152602082019050919050565b600061126a600d83611630565b91507f494e56414c49445f535942494c000000000000000000000000000000000000006000830152602082019050919050565b60006112aa602183611630565b91507f536166654d6174683a206d756c7469706c69636174696f6e206f766572666c6f60008301527f77000000000000000000000000000000000000000000000000000000000000006020830152604082019050919050565b6000611310601a83611630565b91507f494e434f4e53495354454e545f504152414d535f4c454e4754480000000000006000830152602082019050919050565b60608201600082015161135960008501826113b2565b50602082015161136c60208501826113b2565b50604082015161137f6040850182611385565b50505050565b61138e8161168d565b82525050565b61139d816116c9565b82525050565b6113ac816116c9565b82525050565b6113bb816116d3565b82525050565b60006060820190506113d66000830188610fe3565b81810360208301526113e9818688611001565b905081810360408301526113fe81848661111a565b90509695505050505050565b60006040820190508181036000830152611424818561105e565b905081810360208301526114388184611177565b90509392505050565b6000602082019050818103600083015261145b81846110bc565b905092915050565b600060208201905061147860008301846111d5565b92915050565b6000602082019050818103600083015261149881846111e4565b905092915050565b600060208201905081810360008301526114b98161121d565b9050919050565b600060208201905081810360008301526114d98161125d565b9050919050565b600060208201905081810360008301526114f98161129d565b9050919050565b6000602082019050818103600083015261151981611303565b9050919050565b600060208201905061153560008301846113a3565b92915050565b6000819050919050565b6000819050602082019050919050565b6000819050602082019050919050565b6000819050919050565b6000819050602082019050919050565b600081519050919050565b600081519050919050565b600081519050919050565b600081519050919050565b6000602082019050919050565b6000602082019050919050565b6000602082019050919050565b6000602082019050919050565b6000602082019050919050565b600082825260208201905092915050565b600082825260208201905092915050565b600082825260208201905092915050565b600082825260208201905092915050565b600082825260208201905092915050565b60006116506020840184610cd1565b905092915050565b60006116676020840184610dc4565b905092915050565b600061167a826116a9565b9050919050565b60008115159050919050565b60006fffffffffffffffffffffffffffffffff82169050919050565b600073ffffffffffffffffffffffffffffffffffffffff82169050919050565b6000819050919050565b600067ffffffffffffffff82169050919050565b60006116f2826116f9565b9050919050565b60006117048261170b565b9050919050565b6000611716826116a9565b9050919050565b60005b8381101561173b578082015181840152602081019050611720565b8381111561174a576000848401525b50505050565b6000601f19601f8301169050919050565b61176a8161166f565b811461177557600080fd5b50565b6117818161168d565b811461178c57600080fd5b50565b611798816116c9565b81146117a357600080fd5b5056fea26469706673582212208e13fc8c37738ccf34c82c270a8da90aef19a64069a1ae8d850c4ce4229e1ec564736f6c63430007040033",
  "linkReferences": {},
  "deployedLinkReferences": {}
}