{
  "_format": "hh-sol-artifact-1",
  "contractName": "MockUniswapV2Router02",
  "sourceName": "contracts/UniswapRouter/MockUniswapV2Router02.sol",
  "abi": [
    {
      "inputs": [],
      "name": "AAVE_ORACLE",
      "outputs": [
        {
          "internalType": "contract IPriceOracleGetter",
          "name": "",
          "type": "address"
        }
      ],
      "stateMutability": "view",
      "type": "function"
    },
    {
      "inputs": [
        {
          "internalType": "uint256",
          "name": "amountOut",
          "type": "uint256"
        },
        {
          "internalType": "address[]",
          "name": "path",
          "type": "address[]"
        }
      ],
      "name": "getAmountsIn",
      "outputs": [
        {
          "internalType": "uint256[]",
          "name": "",
          "type": "uint256[]"
        }
      ],
      "stateMutability": "view",
      "type": "function"
    },
    {
      "inputs": [
        {
          "internalType": "uint256",
          "name": "amountIn",
          "type": "uint256"
        },
        {
          "internalType": "address[]",
          "name": "path",
          "type": "address[]"
        }
      ],
      "name": "getAmountsOut",
      "outputs": [
        {
          "internalType": "uint256[]",
          "name": "",
          "type": "uint256[]"
        }
      ],
      "stateMutability": "view",
      "type": "function"
    },
    {
      "inputs": [
        {
          "internalType": "address[]",
          "name": "tokens",
          "type": "address[]"
        },
        {
          "internalType": "address",
          "name": "destination",
          "type": "address"
        }
      ],
      "name": "rescueTokens",
      "outputs": [],
      "stateMutability": "nonpayable",
      "type": "function"
    },
    {
      "inputs": [
        {
          "internalType": "uint256",
          "name": "amountIn",
          "type": "uint256"
        },
        {
          "internalType": "uint256",
          "name": "minAmountOut",
          "type": "uint256"
        },
        {
          "internalType": "address[]",
          "name": "path",
          "type": "address[]"
        },
        {
          "internalType": "address",
          "name": "to",
          "type": "address"
        },
        {
          "internalType": "uint256",
          "name": "deadline",
          "type": "uint256"
        }
      ],
      "name": "swapExactTokensForTokens",
      "outputs": [
        {
          "internalType": "uint256[]",
          "name": "",
          "type": "uint256[]"
        }
      ],
      "stateMutability": "nonpayable",
      "type": "function"
    },
    {
      "inputs": [
        {
          "internalType": "uint256",
          "name": "amountOut",
          "type": "uint256"
        },
        {
          "internalType": "uint256",
          "name": "maxAmountIn",
          "type": "uint256"
        },
        {
          "internalType": "address[]",
          "name": "path",
          "type": "address[]"
        },
        {
          "internalType": "address",
          "name": "to",
          "type": "address"
        },
        {
          "internalType": "uint256",
          "name": "deadline",
          "type": "uint256"
        }
      ],
      "name": "swapTokensForExactTokens",
      "outputs": [
        {
          "internalType": "uint256[]",
          "name": "",
          "type": "uint256[]"
        }
      ],
      "stateMutability": "nonpayable",
      "type": "function"
    }
  ],
  "bytecode": "0x608060405234801561001057600080fd5b50611623806100206000396000f3fe608060405234801561001057600080fd5b50600436106100625760003560e01c806313f8bf67146100675780631f00ca74146100b157806338ed1739146101c857806374ba4d36146102d45780638803dbee1461036d578063d06ca61f14610479575b600080fd5b61006f610590565b604051808273ffffffffffffffffffffffffffffffffffffffff1673ffffffffffffffffffffffffffffffffffffffff16815260200191505060405180910390f35b610171600480360360408110156100c757600080fd5b8101908080359060200190929190803590602001906401000000008111156100ee57600080fd5b82018360208201111561010057600080fd5b8035906020019184602083028401116401000000008311171561012257600080fd5b919080806020026020016040519081016040528093929190818152602001838360200280828437600081840152601f19601f8201169050808301925050505050505091929192905050506105a8565b6040518080602001828103825283818151815260200191508051906020019060200280838360005b838110156101b4578082015181840152602081019050610199565b505050509050019250505060405180910390f35b61027d600480360360a08110156101de57600080fd5b8101908080359060200190929190803590602001909291908035906020019064010000000081111561020f57600080fd5b82018360208201111561022157600080fd5b8035906020019184602083028401116401000000008311171561024357600080fd5b9091929391929390803573ffffffffffffffffffffffffffffffffffffffff1690602001909291908035906020019092919050505061096a565b6040518080602001828103825283818151815260200191508051906020019060200280838360005b838110156102c05780820151818401526020810190506102a5565b505050509050019250505060405180910390f35b61036b600480360360408110156102ea57600080fd5b810190808035906020019064010000000081111561030757600080fd5b82018360208201111561031957600080fd5b8035906020019184602083028401116401000000008311171561033b57600080fd5b9091929391929390803573ffffffffffffffffffffffffffffffffffffffff169060200190929190505050610c09565b005b610422600480360360a081101561038357600080fd5b810190808035906020019092919080359060200190929190803590602001906401000000008111156103b457600080fd5b8201836020820111156103c657600080fd5b803590602001918460208302840111640100000000831117156103e857600080fd5b9091929391929390803573ffffffffffffffffffffffffffffffffffffffff16906020019092919080359060200190929190505050610dd5565b6040518080602001828103825283818151815260200191508051906020019060200280838360005b8381101561046557808201518184015260208101905061044a565b505050509050019250505060405180910390f35b6105396004803603604081101561048f57600080fd5b8101908080359060200190929190803590602001906401000000008111156104b657600080fd5b8201836020820111156104c857600080fd5b803590602001918460208302840111640100000000831117156104ea57600080fd5b919080806020026020016040519081016040528093929190818152602001838360200280828437600081840152601f19601f820116905080830192505050505050509192919290505050611074565b6040518080602001828103825283818151815260200191508051906020019060200280838360005b8381101561057c578082015181840152602081019050610561565b505050509050019250505060405180910390f35b73b8be51e6563bb312cbb2aa26e352516c25c26ac181565b60606000826000815181106105b957fe5b602002602001015190506000836001815181106105d257fe5b60200260200101519050600073b8be51e6563bb312cbb2aa26e352516c25c26ac173ffffffffffffffffffffffffffffffffffffffff1663b3596f07836040518263ffffffff1660e01b8152600401808273ffffffffffffffffffffffffffffffffffffffff1673ffffffffffffffffffffffffffffffffffffffff16815260200191505060206040518083038186803b15801561066f57600080fd5b505afa158015610683573d6000803e3d6000fd5b505050506040513d602081101561069957600080fd5b81019080805190602001909291905050509050600073b8be51e6563bb312cbb2aa26e352516c25c26ac173ffffffffffffffffffffffffffffffffffffffff1663b3596f07856040518263ffffffff1660e01b8152600401808273ffffffffffffffffffffffffffffffffffffffff1673ffffffffffffffffffffffffffffffffffffffff16815260200191505060206040518083038186803b15801561073f57600080fd5b505afa158015610753573d6000803e3d6000fd5b505050506040513d602081101561076957600080fd5b8101908080519060200190929190505050905060008473ffffffffffffffffffffffffffffffffffffffff1663313ce5676040518163ffffffff1660e01b815260040160206040518083038186803b1580156107c457600080fd5b505afa1580156107d8573d6000803e3d6000fd5b505050506040513d60208110156107ee57600080fd5b810190808051906020019092919050505060ff16905060008473ffffffffffffffffffffffffffffffffffffffff1663313ce5676040518163ffffffff1660e01b815260040160206040518083038186803b15801561084c57600080fd5b505afa158015610860573d6000803e3d6000fd5b505050506040513d602081101561087657600080fd5b810190808051906020019092919050505060ff1690506060600267ffffffffffffffff811180156108a657600080fd5b506040519080825280602002602001820160405280156108d55781602001602082028036833780820191505090505b5090506109276108f183600a0a8661143690919063ffffffff16565b61091985600a0a61090b8e8a61143690919063ffffffff16565b61143690919063ffffffff16565b6114bc90919063ffffffff16565b8160008151811061093457fe5b602002602001018181525050898160018151811061094e57fe5b6020026020010181815250508097505050505050505092915050565b606060008585600081811061097b57fe5b9050602002013573ffffffffffffffffffffffffffffffffffffffff1690506000868660018181106109a957fe5b9050602002013573ffffffffffffffffffffffffffffffffffffffff1690506060610a158a898980806020026020016040519081016040528093929190818152602001838360200280828437600081840152601f19601f82011690508083019250505050505050611074565b90508273ffffffffffffffffffffffffffffffffffffffff166323b872dd333084600081518110610a4257fe5b60200260200101516040518463ffffffff1660e01b8152600401808473ffffffffffffffffffffffffffffffffffffffff1673ffffffffffffffffffffffffffffffffffffffff1681526020018373ffffffffffffffffffffffffffffffffffffffff1673ffffffffffffffffffffffffffffffffffffffff1681526020018281526020019350505050602060405180830381600087803b158015610ae657600080fd5b505af1158015610afa573d6000803e3d6000fd5b505050506040513d6020811015610b1057600080fd5b8101908080519060200190929190505050508173ffffffffffffffffffffffffffffffffffffffff1663a9059cbb8783600181518110610b4c57fe5b60200260200101516040518363ffffffff1660e01b8152600401808373ffffffffffffffffffffffffffffffffffffffff1673ffffffffffffffffffffffffffffffffffffffff16815260200182815260200192505050602060405180830381600087803b158015610bbd57600080fd5b505af1158015610bd1573d6000803e3d6000fd5b505050506040513d6020811015610be757600080fd5b8101908080519060200190929190505050508093505050509695505050505050565b60008090505b83839050811015610dcf576000848483818110610c2857fe5b9050602002013573ffffffffffffffffffffffffffffffffffffffff1690508073ffffffffffffffffffffffffffffffffffffffff1663a9059cbb848373ffffffffffffffffffffffffffffffffffffffff166370a08231306040518263ffffffff1660e01b8152600401808273ffffffffffffffffffffffffffffffffffffffff1673ffffffffffffffffffffffffffffffffffffffff16815260200191505060206040518083038186803b158015610ce157600080fd5b505afa158015610cf5573d6000803e3d6000fd5b505050506040513d6020811015610d0b57600080fd5b81019080805190602001909291905050506040518363ffffffff1660e01b8152600401808373ffffffffffffffffffffffffffffffffffffffff1673ffffffffffffffffffffffffffffffffffffffff16815260200182815260200192505050602060405180830381600087803b158015610d8557600080fd5b505af1158015610d99573d6000803e3d6000fd5b505050506040513d6020811015610daf57600080fd5b810190808051906020019092919050505050508080600101915050610c0f565b50505050565b6060600085856000818110610de657fe5b9050602002013573ffffffffffffffffffffffffffffffffffffffff169050600086866001818110610e1457fe5b9050602002013573ffffffffffffffffffffffffffffffffffffffff1690506060610e808a898980806020026020016040519081016040528093929190818152602001838360200280828437600081840152601f19601f820116905080830192505050505050506105a8565b90508273ffffffffffffffffffffffffffffffffffffffff166323b872dd333084600081518110610ead57fe5b60200260200101516040518463ffffffff1660e01b8152600401808473ffffffffffffffffffffffffffffffffffffffff1673ffffffffffffffffffffffffffffffffffffffff1681526020018373ffffffffffffffffffffffffffffffffffffffff1673ffffffffffffffffffffffffffffffffffffffff1681526020018281526020019350505050602060405180830381600087803b158015610f5157600080fd5b505af1158015610f65573d6000803e3d6000fd5b505050506040513d6020811015610f7b57600080fd5b8101908080519060200190929190505050508173ffffffffffffffffffffffffffffffffffffffff1663a9059cbb8783600181518110610fb757fe5b60200260200101516040518363ffffffff1660e01b8152600401808373ffffffffffffffffffffffffffffffffffffffff1673ffffffffffffffffffffffffffffffffffffffff16815260200182815260200192505050602060405180830381600087803b15801561102857600080fd5b505af115801561103c573d6000803e3d6000fd5b505050506040513d602081101561105257600080fd5b8101908080519060200190929190505050508093505050509695505050505050565b606060008260008151811061108557fe5b6020026020010151905060008360018151811061109e57fe5b60200260200101519050600073b8be51e6563bb312cbb2aa26e352516c25c26ac173ffffffffffffffffffffffffffffffffffffffff1663b3596f07836040518263ffffffff1660e01b8152600401808273ffffffffffffffffffffffffffffffffffffffff1673ffffffffffffffffffffffffffffffffffffffff16815260200191505060206040518083038186803b15801561113b57600080fd5b505afa15801561114f573d6000803e3d6000fd5b505050506040513d602081101561116557600080fd5b81019080805190602001909291905050509050600073b8be51e6563bb312cbb2aa26e352516c25c26ac173ffffffffffffffffffffffffffffffffffffffff1663b3596f07856040518263ffffffff1660e01b8152600401808273ffffffffffffffffffffffffffffffffffffffff1673ffffffffffffffffffffffffffffffffffffffff16815260200191505060206040518083038186803b15801561120b57600080fd5b505afa15801561121f573d6000803e3d6000fd5b505050506040513d602081101561123557600080fd5b8101908080519060200190929190505050905060008473ffffffffffffffffffffffffffffffffffffffff1663313ce5676040518163ffffffff1660e01b815260040160206040518083038186803b15801561129057600080fd5b505afa1580156112a4573d6000803e3d6000fd5b505050506040513d60208110156112ba57600080fd5b810190808051906020019092919050505060ff16905060008473ffffffffffffffffffffffffffffffffffffffff1663313ce5676040518163ffffffff1660e01b815260040160206040518083038186803b15801561131857600080fd5b505afa15801561132c573d6000803e3d6000fd5b505050506040513d602081101561134257600080fd5b810190808051906020019092919050505060ff1690506060600267ffffffffffffffff8111801561137257600080fd5b506040519080825280602002602001820160405280156113a15781602001602082028036833780820191505090505b50905089816000815181106113b257fe5b60200260200101818152505061140d6113d784600a0a8761143690919063ffffffff16565b6113ff84600a0a6113f1888f61143690919063ffffffff16565b61143690919063ffffffff16565b6114bc90919063ffffffff16565b8160018151811061141a57fe5b6020026020010181815250508097505050505050505092915050565b60008083141561144957600090506114b6565b600082840290508284828161145a57fe5b04146114b1576040517f08c379a00000000000000000000000000000000000000000000000000000000081526004018080602001828103825260218152602001806115cd6021913960400191505060405180910390fd5b809150505b92915050565b60006114fe83836040518060400160405280601a81526020017f536166654d6174683a206469766973696f6e206279207a65726f000000000000815250611506565b905092915050565b600080831182906115b2576040517f08c379a00000000000000000000000000000000000000000000000000000000081526004018080602001828103825283818151815260200191508051906020019080838360005b8381101561157757808201518184015260208101905061155c565b50505050905090810190601f1680156115a45780820380516001836020036101000a031916815260200191505b509250505060405180910390fd5b5060008385816115be57fe5b04905080915050939250505056fe536166654d6174683a206d756c7469706c69636174696f6e206f766572666c6f77a2646970667358221220ddac0bb8d25adac986c634188731d5752b7db0d20fcb9ec5e11865692a8f70b264736f6c63430006080033",
  "linkReferences": {},
  "deployedLinkReferences": {}
}