{
  "_format": "hh-sol-artifact-1",
  "contractName": "UiPoolDataProviderV2",
  "sourceName": "contracts/misc/UiPoolDataProviderV2.sol",
  "abi": [
    {
      "inputs": [
        {
          "internalType": "contract IChainlinkAggregator",
          "name": "_networkBaseTokenPriceInUsdProxyAggregator",
          "type": "address"
        },
        {
          "internalType": "contract IChainlinkAggregator",
          "name": "_marketReferenceCurrencyPriceInUsdProxyAggregator",
          "type": "address"
        }
      ],
      "stateMutability": "nonpayable",
      "type": "constructor"
    },
    {
      "inputs": [],
      "name": "ETH_CURRENCY_UNIT",
      "outputs": [
        {
          "internalType": "uint256",
          "name": "",
          "type": "uint256"
        }
      ],
      "stateMutability": "view",
      "type": "function"
    },
    {
      "inputs": [],
      "name": "MKRAddress",
      "outputs": [
        {
          "internalType": "address",
          "name": "",
          "type": "address"
        }
      ],
      "stateMutability": "view",
      "type": "function"
    },
    {
      "inputs": [
        {
          "internalType": "bytes32",
          "name": "_bytes32",
          "type": "bytes32"
        }
      ],
      "name": "bytes32ToString",
      "outputs": [
        {
          "internalType": "string",
          "name": "",
          "type": "string"
        }
      ],
      "stateMutability": "pure",
      "type": "function"
    },
    {
      "inputs": [
        {
          "internalType": "contract ILendingPoolAddressesProvider",
          "name": "provider",
          "type": "address"
        }
      ],
      "name": "getReservesData",
      "outputs": [
        {
          "components": [
            {
              "internalType": "address",
              "name": "underlyingAsset",
              "type": "address"
            },
            {
              "internalType": "string",
              "name": "name",
              "type": "string"
            },
            {
              "internalType": "string",
              "name": "symbol",
              "type": "string"
            },
            {
              "internalType": "uint256",
              "name": "decimals",
              "type": "uint256"
            },
            {
              "internalType": "uint256",
              "name": "baseLTVasCollateral",
              "type": "uint256"
            },
            {
              "internalType": "uint256",
              "name": "reserveLiquidationThreshold",
              "type": "uint256"
            },
            {
              "internalType": "uint256",
              "name": "reserveLiquidationBonus",
              "type": "uint256"
            },
            {
              "internalType": "uint256",
              "name": "reserveFactor",
              "type": "uint256"
            },
            {
              "internalType": "bool",
              "name": "usageAsCollateralEnabled",
              "type": "bool"
            },
            {
              "internalType": "bool",
              "name": "borrowingEnabled",
              "type": "bool"
            },
            {
              "internalType": "bool",
              "name": "stableBorrowRateEnabled",
              "type": "bool"
            },
            {
              "internalType": "bool",
              "name": "isActive",
              "type": "bool"
            },
            {
              "internalType": "bool",
              "name": "isFrozen",
              "type": "bool"
            },
            {
              "internalType": "uint128",
              "name": "liquidityIndex",
              "type": "uint128"
            },
            {
              "internalType": "uint128",
              "name": "variableBorrowIndex",
              "type": "uint128"
            },
            {
              "internalType": "uint128",
              "name": "liquidityRate",
              "type": "uint128"
            },
            {
              "internalType": "uint128",
              "name": "variableBorrowRate",
              "type": "uint128"
            },
            {
              "internalType": "uint128",
              "name": "stableBorrowRate",
              "type": "uint128"
            },
            {
              "internalType": "uint40",
              "name": "lastUpdateTimestamp",
              "type": "uint40"
            },
            {
              "internalType": "address",
              "name": "aTokenAddress",
              "type": "address"
            },
            {
              "internalType": "address",
              "name": "stableDebtTokenAddress",
              "type": "address"
            },
            {
              "internalType": "address",
              "name": "variableDebtTokenAddress",
              "type": "address"
            },
            {
              "internalType": "address",
              "name": "interestRateStrategyAddress",
              "type": "address"
            },
            {
              "internalType": "uint256",
              "name": "availableLiquidity",
              "type": "uint256"
            },
            {
              "internalType": "uint256",
              "name": "totalPrincipalStableDebt",
              "type": "uint256"
            },
            {
              "internalType": "uint256",
              "name": "averageStableRate",
              "type": "uint256"
            },
            {
              "internalType": "uint256",
              "name": "stableDebtLastUpdateTimestamp",
              "type": "uint256"
            },
            {
              "internalType": "uint256",
              "name": "totalScaledVariableDebt",
              "type": "uint256"
            },
            {
              "internalType": "uint256",
              "name": "priceInMarketReferenceCurrency",
              "type": "uint256"
            },
            {
              "internalType": "uint256",
              "name": "variableRateSlope1",
              "type": "uint256"
            },
            {
              "internalType": "uint256",
              "name": "variableRateSlope2",
              "type": "uint256"
            },
            {
              "internalType": "uint256",
              "name": "stableRateSlope1",
              "type": "uint256"
            },
            {
              "internalType": "uint256",
              "name": "stableRateSlope2",
              "type": "uint256"
            }
          ],
          "internalType": "struct IUiPoolDataProviderV2.AggregatedReserveData[]",
          "name": "",
          "type": "tuple[]"
        },
        {
          "components": [
            {
              "internalType": "uint256",
              "name": "marketReferenceCurrencyUnit",
              "type": "uint256"
            },
            {
              "internalType": "int256",
              "name": "marketReferenceCurrencyPriceInUsd",
              "type": "int256"
            },
            {
              "internalType": "int256",
              "name": "networkBaseTokenPriceInUsd",
              "type": "int256"
            },
            {
              "internalType": "uint8",
              "name": "networkBaseTokenPriceDecimals",
              "type": "uint8"
            }
          ],
          "internalType": "struct IUiPoolDataProviderV2.BaseCurrencyInfo",
          "name": "",
          "type": "tuple"
        }
      ],
      "stateMutability": "view",
      "type": "function"
    },
    {
      "inputs": [
        {
          "internalType": "contract ILendingPoolAddressesProvider",
          "name": "provider",
          "type": "address"
        }
      ],
      "name": "getReservesList",
      "outputs": [
        {
          "internalType": "address[]",
          "name": "",
          "type": "address[]"
        }
      ],
      "stateMutability": "view",
      "type": "function"
    },
    {
      "inputs": [
        {
          "internalType": "contract ILendingPoolAddressesProvider",
          "name": "provider",
          "type": "address"
        },
        {
          "internalType": "address",
          "name": "user",
          "type": "address"
        }
      ],
      "name": "getUserReservesData",
      "outputs": [
        {
          "components": [
            {
              "internalType": "address",
              "name": "underlyingAsset",
              "type": "address"
            },
            {
              "internalType": "uint256",
              "name": "scaledATokenBalance",
              "type": "uint256"
            },
            {
              "internalType": "bool",
              "name": "usageAsCollateralEnabledOnUser",
              "type": "bool"
            },
            {
              "internalType": "uint256",
              "name": "stableBorrowRate",
              "type": "uint256"
            },
            {
              "internalType": "uint256",
              "name": "scaledVariableDebt",
              "type": "uint256"
            },
            {
              "internalType": "uint256",
              "name": "principalStableDebt",
              "type": "uint256"
            },
            {
              "internalType": "uint256",
              "name": "stableBorrowLastUpdateTimestamp",
              "type": "uint256"
            }
          ],
          "internalType": "struct IUiPoolDataProviderV2.UserReserveData[]",
          "name": "",
          "type": "tuple[]"
        }
      ],
      "stateMutability": "view",
      "type": "function"
    },
    {
      "inputs": [],
      "name": "marketReferenceCurrencyPriceInUsdProxyAggregator",
      "outputs": [
        {
          "internalType": "contract IChainlinkAggregator",
          "name": "",
          "type": "address"
        }
      ],
      "stateMutability": "view",
      "type": "function"
    },
    {
      "inputs": [],
      "name": "networkBaseTokenPriceInUsdProxyAggregator",
      "outputs": [
        {
          "internalType": "contract IChainlinkAggregator",
          "name": "",
          "type": "address"
        }
      ],
      "stateMutability": "view",
      "type": "function"
    }
  ],
  "bytecode": "0x60c06040523480156200001157600080fd5b5060405162001c4e38038062001c4e833981016040819052620000349162000053565b6001600160601b0319606092831b8116608052911b1660a052620000aa565b6000806040838503121562000066578182fd5b8251620000738162000091565b6020840151909250620000868162000091565b809150509250929050565b6001600160a01b0381168114620000a757600080fd5b50565b60805160601c60a05160601c611b66620000e8600039806109d25280610f265280610fe452508061015f5280610d3d5280610dd75250611b666000f3fe608060405234801561001057600080fd5b50600436106100885760003560e01c80639201de551161005b5780639201de55146101005780639dd9e2ce14610120578063d22cf68a14610128578063ec489c211461013057610088565b80630496f53a1461008d5780633c1740ed146100ab57806351974cc0146100c0578063586c1442146100e0575b600080fd5b610095610151565b6040516100a29190611adc565b60405180910390f35b6100b361015d565b6040516100a2919061194b565b6100d36100ce366004611501565b610181565b6040516100a29190611a3d565b6100f36100ee3660046114e5565b6107bf565b6040516100a2919061195f565b61011361010e3660046114cd565b6108b2565b6040516100a29190611ac9565b6100b36109b8565b6100b36109d0565b61014361013e3660046114e5565b6109f4565b6040516100a29291906119ac565b670de0b6b3a764000081565b7f000000000000000000000000000000000000000000000000000000000000000081565b60606000836001600160a01b0316630261bf8b6040518163ffffffff1660e01b815260040160206040518083038186803b1580156101be57600080fd5b505afa1580156101d2573d6000803e3d6000fd5b505050506040513d601f19601f820116820180604052508101906101f69190611406565b90506060816001600160a01b031663d1946dbc6040518163ffffffff1660e01b815260040160006040518083038186803b15801561023357600080fd5b505afa158015610247573d6000803e3d6000fd5b505050506040513d6000823e601f3d908101601f1916820160405261026f9190810190611422565b9050610279611149565b604051634417a58360e01b81526001600160a01b03841690634417a583906102a590889060040161194b565b60206040518083038186803b1580156102bd57600080fd5b505afa1580156102d1573d6000803e3d6000fd5b505050506040513d601f19601f820116820180604052508101906102f5919061164c565b905060606001600160a01b03861661030e576000610311565b82515b67ffffffffffffffff8111801561032757600080fd5b5060405190808252806020026020018201604052801561036157816020015b61034e61115c565b8152602001906001900390816103465790505b50905060005b83518110156107b2576103786111a4565b856001600160a01b03166335ea6a7586848151811061039357fe5b60200260200101516040518263ffffffff1660e01b81526004016103b7919061194b565b6101806040518083038186803b1580156103d057600080fd5b505afa1580156103e4573d6000803e3d6000fd5b505050506040513d601f19601f820116820180604052508101906104089190611551565b905084828151811061041657fe5b602002602001015183838151811061042a57fe5b60209081029190910101516001600160a01b03918216905260e0820151604051630ed1279f60e11b8152911690631da24f3e9061046b908b9060040161194b565b60206040518083038186803b15801561048357600080fd5b505afa158015610497573d6000803e3d6000fd5b505050506040513d601f19601f820116820180604052508101906104bb9190611539565b8383815181106104c757fe5b60209081029190910181015101526104df8483611097565b8383815181106104eb57fe5b602090810291909101015190151560409091015261050984836110f8565b156107a9578061012001516001600160a01b0316631da24f3e896040518263ffffffff1660e01b815260040161053f919061194b565b60206040518083038186803b15801561055757600080fd5b505afa15801561056b573d6000803e3d6000fd5b505050506040513d601f19601f8201168201806040525081019061058f9190611539565b83838151811061059b57fe5b602002602001015160800181815250508061010001516001600160a01b031663c634dfaa896040518263ffffffff1660e01b81526004016105dc919061194b565b60206040518083038186803b1580156105f457600080fd5b505afa158015610608573d6000803e3d6000fd5b505050506040513d601f19601f8201168201806040525081019061062c9190611539565b83838151811061063857fe5b602002602001015160a001818152505082828151811061065457fe5b602002602001015160a001516000146107a9578061010001516001600160a01b031663e78c9b3b896040518263ffffffff1660e01b8152600401610698919061194b565b60206040518083038186803b1580156106b057600080fd5b505afa1580156106c4573d6000803e3d6000fd5b505050506040513d601f19601f820116820180604052508101906106e89190611539565b8383815181106106f457fe5b602002602001015160600181815250508061010001516001600160a01b03166379ce6b8c896040518263ffffffff1660e01b8152600401610735919061194b565b60206040518083038186803b15801561074d57600080fd5b505afa158015610761573d6000803e3d6000fd5b505050506040513d601f19601f820116820180604052508101906107859190611667565b64ffffffffff1683838151811061079857fe5b602002602001015160c00181815250505b50600101610367565b5093505050505b92915050565b60606000826001600160a01b0316630261bf8b6040518163ffffffff1660e01b815260040160206040518083038186803b1580156107fc57600080fd5b505afa158015610810573d6000803e3d6000fd5b505050506040513d601f19601f820116820180604052508101906108349190611406565b9050806001600160a01b031663d1946dbc6040518163ffffffff1660e01b815260040160006040518083038186803b15801561086f57600080fd5b505afa158015610883573d6000803e3d6000fd5b505050506040513d6000823e601f3d908101601f191682016040526108ab9190810190611422565b9392505050565b606060005b60208160ff161080156108e55750828160ff16602081106108d457fe5b1a60f81b6001600160f81b03191615155b156108f2576001016108b7565b60608160ff1667ffffffffffffffff8111801561090e57600080fd5b506040519080825280601f01601f191660200182016040528015610939576020820181803683370190505b509050600091505b60208260ff1610801561096f5750838260ff166020811061095e57fe5b1a60f81b6001600160f81b03191615155b156108ab57838260ff166020811061098357fe5b1a60f81b818360ff168151811061099657fe5b60200101906001600160f81b031916908160001a905350600190910190610941565b739f8f72aa9304c8b593d555f12ef6589cc3a579a281565b7f000000000000000000000000000000000000000000000000000000000000000081565b60606109fe61120f565b6000836001600160a01b031663fca513a86040518163ffffffff1660e01b815260040160206040518083038186803b158015610a3957600080fd5b505afa158015610a4d573d6000803e3d6000fd5b505050506040513d601f19601f82011682018060405250810190610a719190611406565b90506000846001600160a01b0316630261bf8b6040518163ffffffff1660e01b815260040160206040518083038186803b158015610aae57600080fd5b505afa158015610ac2573d6000803e3d6000fd5b505050506040513d601f19601f82011682018060405250810190610ae69190611406565b90506060816001600160a01b031663d1946dbc6040518163ffffffff1660e01b815260040160006040518083038186803b158015610b2357600080fd5b505afa158015610b37573d6000803e3d6000fd5b505050506040513d6000823e601f3d908101601f19168201604052610b5f9190810190611422565b90506060815167ffffffffffffffff81118015610b7b57600080fd5b50604051908082528060200260200182016040528015610bb557816020015b610ba261123a565b815260200190600190039081610b9a5790505b50905060005b8251811015610d3257610bcc61123a565b828281518110610bd857fe5b60200260200101519050838281518110610bee57fe5b60209081029190910101516001600160a01b03168152610c0c6111a4565b81516040516335ea6a7560e01b81526001600160a01b038816916335ea6a7591610c39919060040161194b565b6101806040518083038186803b158015610c5257600080fd5b505afa158015610c66573d6000803e3d6000fd5b505050506040513d601f19601f82011682018060405250810190610c8a9190611551565b60208101516001600160801b039081166101a0850152604082015181166101c0850152606082015181166101e08501526080820151811661020085015260a08201511661022084015260c081015164ffffffffff1661024084015260e08101516001600160a01b03908116610260850152610100820151811661028085015261012082015181166102a085015261014090910151166102c09092019190915250600101610bbb565b50610d3b61120f565b7f00000000000000000000000000000000000000000000000000000000000000006001600160a01b03166350d25bcd6040518163ffffffff1660e01b815260040160206040518083038186803b158015610d9457600080fd5b505afa158015610da8573d6000803e3d6000fd5b505050506040513d601f19601f82011682018060405250810190610dcc9190611539565b8160400181815250507f00000000000000000000000000000000000000000000000000000000000000006001600160a01b031663313ce5676040518163ffffffff1660e01b815260040160206040518083038186803b158015610e2e57600080fd5b505afa158015610e42573d6000803e3d6000fd5b505050506040513d601f19601f82011682018060405250810190610e66919061168c565b60ff16606082015260408051638c89b64f60e01b815290516001600160a01b03871691638c89b64f916004808301926020929190829003018186803b158015610eae57600080fd5b505afa925050508015610ede575060408051601f3d908101601f19168201909252610edb91810190611539565b60015b610fc0573d808015610f0c576040519150601f19603f3d011682016040523d82523d6000602084013e610f11565b606091505b50670de0b6b3a76400008260000181815250507f00000000000000000000000000000000000000000000000000000000000000006001600160a01b03166350d25bcd6040518163ffffffff1660e01b815260040160206040518083038186803b158015610f7d57600080fd5b505afa158015610f91573d6000803e3d6000fd5b505050506040513d601f19601f82011682018060405250810190610fb59190611539565b60208301525061108a565b80670de0b6b3a7640000141561107d57670de0b6b3a76400008260000181815250507f00000000000000000000000000000000000000000000000000000000000000006001600160a01b03166350d25bcd6040518163ffffffff1660e01b815260040160206040518083038186803b15801561103b57600080fd5b505afa15801561104f573d6000803e3d6000fd5b505050506040513d601f19601f820116820180604052508101906110739190611539565b6020830152611088565b808252602082018190525b505b9095509350505050915091565b60006080821060405180604001604052806002815260200161373760f01b815250906110df5760405162461bcd60e51b81526004016110d69190611ac9565b60405180910390fd5b5050815160016002830281019190911c16151592915050565b60006080821060405180604001604052806002815260200161373760f01b815250906111375760405162461bcd60e51b81526004016110d69190611ac9565b50509051600160029092021c16151590565b6040518060200160405280600081525090565b6040518060e0016040528060006001600160a01b0316815260200160008152602001600015158152602001600081526020016000815260200160008152602001600081525090565b6040518061018001604052806111b8611149565b815260006020820181905260408201819052606082018190526080820181905260a0820181905260c0820181905260e082018190526101008201819052610120820181905261014082018190526101609091015290565b6040518060800160405280600081526020016000815260200160008152602001600060ff1681525090565b60405180610420016040528060006001600160a01b031681526020016060815260200160608152602001600081526020016000815260200160008152602001600081526020016000815260200160001515815260200160001515815260200160001515815260200160001515815260200160001515815260200160006001600160801b0316815260200160006001600160801b0316815260200160006001600160801b0316815260200160006001600160801b0316815260200160006001600160801b03168152602001600064ffffffffff16815260200160006001600160a01b0316815260200160006001600160a01b0316815260200160006001600160a01b0316815260200160006001600160a01b03168152602001600081526020016000815260200160008152602001600081526020016000815260200160008152602001600081526020016000815260200160008152602001600081525090565b80516107b981611b18565b6000602082840312156113b5578081fd5b6113bf6020611ae5565b9151825250919050565b80516001600160801b03811681146107b957600080fd5b805164ffffffffff811681146107b957600080fd5b805160ff811681146107b957600080fd5b600060208284031215611417578081fd5b81516108ab81611b18565b60006020808385031215611434578182fd5b825167ffffffffffffffff8082111561144b578384fd5b818501915085601f83011261145e578384fd5b81518181111561146c578485fd5b838102915061147c848301611ae5565b8181528481019084860184860187018a1015611496578788fd5b8795505b838610156114c0576114ac8a82611399565b83526001959095019491860191860161149a565b5098975050505050505050565b6000602082840312156114de578081fd5b5035919050565b6000602082840312156114f6578081fd5b81356108ab81611b18565b60008060408385031215611513578081fd5b823561151e81611b18565b9150602083013561152e81611b18565b809150509250929050565b60006020828403121561154a578081fd5b5051919050565b6000610180808385031215611564578182fd5b61156d81611ae5565b905061157984846113a4565b815261158884602085016113c9565b602082015261159a84604085016113c9565b60408201526115ac84606085016113c9565b60608201526115be84608085016113c9565b60808201526115d08460a085016113c9565b60a08201526115e28460c085016113e0565b60c08201526115f48460e08501611399565b60e082015261010061160885828601611399565b9082015261012061161b85858301611399565b9082015261014061162e85858301611399565b90820152610160611641858583016113f5565b908201529392505050565b60006020828403121561165d578081fd5b6108ab83836113a4565b600060208284031215611678578081fd5b815164ffffffffff811681146108ab578182fd5b60006020828403121561169d578081fd5b6108ab83836113f5565b60006104206116b78484516118ce565b60208301518160208601526116ce828601826118e1565b915050604083015184820360408601526116e882826118e1565b915050606083015160608501526080830151608085015260a083015160a085015260c083015160c085015260e083015160e085015261010080840151611730828701826118db565b505061012080840151611745828701826118db565b50506101408084015161175a828701826118db565b50506101608084015161176f828701826118db565b505061018080840151611784828701826118db565b50506101a0808401516117998287018261192c565b50506101c0808401516117ae8287018261192c565b50506101e0808401516117c38287018261192c565b5050610200808401516117d88287018261192c565b5050610220808401516117ed8287018261192c565b50506102408084015161180282870182611939565b505061026080840151611817828701826118ce565b50506102808084015161182c828701826118ce565b50506102a080840151611841828701826118ce565b50506102c080840151611856828701826118ce565b50506102e08381015190850152610300808401519085015261032080840151908501526103408084015190850152610360808401519085015261038080840151908501526103a080840151908501526103c080840151908501526103e080840151908501526104009283015192909301919091525090565b6001600160a01b03169052565b15159052565b60008151808452815b81811015611906576020818501810151868301820152016118ea565b818111156119175782602083870101525b50601f01601f19169290920160200192915050565b6001600160801b03169052565b64ffffffffff169052565b60ff169052565b6001600160a01b0391909116815260200190565b6020808252825182820181905260009190848201906040850190845b818110156119a05783516001600160a01b03168352928401929184019160010161197b565b50909695505050505050565b600060a0820160a0835280855180835260c0850191506020925060c0838202860101838801855b83811015611a015760bf198884030185526119ef8383516116a7565b948601949250908501906001016119d3565b505080945050505083518184015280840151604084015250604083015160608301526060830151611a356080840182611944565b509392505050565b602080825282518282018190526000919060409081850190868401855b82811015611abc578151611a6e8151611b0c565b8552808701518786015285810151151586860152606080820151908601526080808201519086015260a0808201519086015260c0908101519085015260e09093019290850190600101611a5a565b5091979650505050505050565b6000602082526108ab60208301846118e1565b90815260200190565b60405181810167ffffffffffffffff81118282101715611b0457600080fd5b604052919050565b6001600160a01b031690565b6001600160a01b0381168114611b2d57600080fd5b5056fea2646970667358221220631213a81b8838e0809bfb739436224b8d388d0b2fa8ade1e718a3f8e8a749c364736f6c634300060c0033",
  "linkReferences": {},
  "deployedLinkReferences": {}
}