{
  "contracts/aggregator/AccessControlledOffchainAggregator.sol": {
    "AccessControlledOffchainAggregator": {
      "abi": [
        {
          "inputs": [
            {
              "internalType": "uint32",
              "name": "_maximumGasPrice",
              "type": "uint32"
            },
            {
              "internalType": "uint32",
              "name": "_reasonableGasPrice",
              "type": "uint32"
            },
            {
              "internalType": "uint32",
              "name": "_microLinkPerEth",
              "type": "uint32"
            },
            {
              "internalType": "uint32",
              "name": "_linkGweiPerObservation",
              "type": "uint32"
            },
            {
              "internalType": "uint32",
              "name": "_linkGweiPerTransmission",
              "type": "uint32"
            },
            {
              "internalType": "address",
              "name": "_link",
              "type": "address"
            },
            {
              "internalType": "address",
              "name": "_validator",
              "type": "address"
            },
            {
              "internalType": "int192",
              "name": "_minAnswer",
              "type": "int192"
            },
            {
              "internalType": "int192",
              "name": "_maxAnswer",
              "type": "int192"
            },
            {
              "internalType": "contract AccessControllerInterface",
              "name": "_billingAccessController",
              "type": "address"
            },
            {
              "internalType": "contract AccessControllerInterface",
              "name": "_requesterAccessController",
              "type": "address"
            },
            {
              "internalType": "uint8",
              "name": "_decimals",
              "type": "uint8"
            },
            {
              "internalType": "string",
              "name": "description",
              "type": "string"
            }
          ],
          "stateMutability": "nonpayable",
          "type": "constructor"
        },
        {
          "anonymous": false,
          "inputs": [
            {
              "indexed": false,
              "internalType": "address",
              "name": "user",
              "type": "address"
            }
          ],
          "name": "AddedAccess",
          "type": "event"
        },
        {
          "anonymous": false,
          "inputs": [
            {
              "indexed": true,
              "internalType": "int256",
              "name": "current",
              "type": "int256"
            },
            {
              "indexed": true,
              "internalType": "uint256",
              "name": "roundId",
              "type": "uint256"
            },
            {
              "indexed": false,
              "internalType": "uint256",
              "name": "updatedAt",
              "type": "uint256"
            }
          ],
          "name": "AnswerUpdated",
          "type": "event"
        },
        {
          "anonymous": false,
          "inputs": [
            {
              "indexed": false,
              "internalType": "contract AccessControllerInterface",
              "name": "old",
              "type": "address"
            },
            {
              "indexed": false,
              "internalType": "contract AccessControllerInterface",
              "name": "current",
              "type": "address"
            }
          ],
          "name": "BillingAccessControllerSet",
          "type": "event"
        },
        {
          "anonymous": false,
          "inputs": [
            {
              "indexed": false,
              "internalType": "uint32",
              "name": "maximumGasPrice",
              "type": "uint32"
            },
            {
              "indexed": false,
              "internalType": "uint32",
              "name": "reasonableGasPrice",
              "type": "uint32"
            },
            {
              "indexed": false,
              "internalType": "uint32",
              "name": "microLinkPerEth",
              "type": "uint32"
            },
            {
              "indexed": false,
              "internalType": "uint32",
              "name": "linkGweiPerObservation",
              "type": "uint32"
            },
            {
              "indexed": false,
              "internalType": "uint32",
              "name": "linkGweiPerTransmission",
              "type": "uint32"
            }
          ],
          "name": "BillingSet",
          "type": "event"
        },
        {
          "anonymous": false,
          "inputs": [],
          "name": "CheckAccessDisabled",
          "type": "event"
        },
        {
          "anonymous": false,
          "inputs": [],
          "name": "CheckAccessEnabled",
          "type": "event"
        },
        {
          "anonymous": false,
          "inputs": [
            {
              "indexed": false,
              "internalType": "uint32",
              "name": "previousConfigBlockNumber",
              "type": "uint32"
            },
            {
              "indexed": false,
              "internalType": "uint64",
              "name": "configCount",
              "type": "uint64"
            },
            {
              "indexed": false,
              "internalType": "address[]",
              "name": "signers",
              "type": "address[]"
            },
            {
              "indexed": false,
              "internalType": "address[]",
              "name": "transmitters",
              "type": "address[]"
            },
            {
              "indexed": false,
              "internalType": "uint8",
              "name": "threshold",
              "type": "uint8"
            },
            {
              "indexed": false,
              "internalType": "uint64",
              "name": "encodedConfigVersion",
              "type": "uint64"
            },
            {
              "indexed": false,
              "internalType": "bytes",
              "name": "encoded",
              "type": "bytes"
            }
          ],
          "name": "ConfigSet",
          "type": "event"
        },
        {
          "anonymous": false,
          "inputs": [
            {
              "indexed": true,
              "internalType": "uint256",
              "name": "roundId",
              "type": "uint256"
            },
            {
              "indexed": true,
              "internalType": "address",
              "name": "startedBy",
              "type": "address"
            },
            {
              "indexed": false,
              "internalType": "uint256",
              "name": "startedAt",
              "type": "uint256"
            }
          ],
          "name": "NewRound",
          "type": "event"
        },
        {
          "anonymous": false,
          "inputs": [
            {
              "indexed": true,
              "internalType": "uint32",
              "name": "aggregatorRoundId",
              "type": "uint32"
            },
            {
              "indexed": false,
              "internalType": "int192",
              "name": "answer",
              "type": "int192"
            },
            {
              "indexed": false,
              "internalType": "address",
              "name": "transmitter",
              "type": "address"
            },
            {
              "indexed": false,
              "internalType": "int192[]",
              "name": "observations",
              "type": "int192[]"
            },
            {
              "indexed": false,
              "internalType": "bytes",
              "name": "observers",
              "type": "bytes"
            },
            {
              "indexed": false,
              "internalType": "bytes32",
              "name": "rawReportContext",
              "type": "bytes32"
            }
          ],
          "name": "NewTransmission",
          "type": "event"
        },
        {
          "anonymous": false,
          "inputs": [
            {
              "indexed": false,
              "internalType": "address",
              "name": "transmitter",
              "type": "address"
            },
            {
              "indexed": false,
              "internalType": "address",
              "name": "payee",
              "type": "address"
            },
            {
              "indexed": false,
              "internalType": "uint256",
              "name": "amount",
              "type": "uint256"
            }
          ],
          "name": "OraclePaid",
          "type": "event"
        },
        {
          "anonymous": false,
          "inputs": [
            {
              "indexed": true,
              "internalType": "address",
              "name": "from",
              "type": "address"
            },
            {
              "indexed": true,
              "internalType": "address",
              "name": "to",
              "type": "address"
            }
          ],
          "name": "OwnershipTransferRequested",
          "type": "event"
        },
        {
          "anonymous": false,
          "inputs": [
            {
              "indexed": true,
              "internalType": "address",
              "name": "from",
              "type": "address"
            },
            {
              "indexed": true,
              "internalType": "address",
              "name": "to",
              "type": "address"
            }
          ],
          "name": "OwnershipTransferred",
          "type": "event"
        },
        {
          "anonymous": false,
          "inputs": [
            {
              "indexed": true,
              "internalType": "address",
              "name": "transmitter",
              "type": "address"
            },
            {
              "indexed": true,
              "internalType": "address",
              "name": "current",
              "type": "address"
            },
            {
              "indexed": true,
              "internalType": "address",
              "name": "proposed",
              "type": "address"
            }
          ],
          "name": "PayeeshipTransferRequested",
          "type": "event"
        },
        {
          "anonymous": false,
          "inputs": [
            {
              "indexed": true,
              "internalType": "address",
              "name": "transmitter",
              "type": "address"
            },
            {
              "indexed": true,
              "internalType": "address",
              "name": "previous",
              "type": "address"
            },
            {
              "indexed": true,
              "internalType": "address",
              "name": "current",
              "type": "address"
            }
          ],
          "name": "PayeeshipTransferred",
          "type": "event"
        },
        {
          "anonymous": false,
          "inputs": [
            {
              "indexed": false,
              "internalType": "address",
              "name": "user",
              "type": "address"
            }
          ],
          "name": "RemovedAccess",
          "type": "event"
        },
        {
          "anonymous": false,
          "inputs": [
            {
              "indexed": false,
              "internalType": "contract AccessControllerInterface",
              "name": "old",
              "type": "address"
            },
            {
              "indexed": false,
              "internalType": "contract AccessControllerInterface",
              "name": "current",
              "type": "address"
            }
          ],
          "name": "RequesterAccessControllerSet",
          "type": "event"
        },
        {
          "anonymous": false,
          "inputs": [
            {
              "indexed": true,
              "internalType": "address",
              "name": "requester",
              "type": "address"
            },
            {
              "indexed": false,
              "internalType": "bytes16",
              "name": "configDigest",
              "type": "bytes16"
            },
            {
              "indexed": false,
              "internalType": "uint32",
              "name": "epoch",
              "type": "uint32"
            },
            {
              "indexed": false,
              "internalType": "uint8",
              "name": "round",
              "type": "uint8"
            }
          ],
          "name": "RoundRequested",
          "type": "event"
        },
        {
          "anonymous": false,
          "inputs": [
            {
              "indexed": true,
              "internalType": "address",
              "name": "previous",
              "type": "address"
            },
            {
              "indexed": true,
              "internalType": "address",
              "name": "current",
              "type": "address"
            }
          ],
          "name": "ValidatorUpdated",
          "type": "event"
        },
        {
          "inputs": [],
          "name": "LINK",
          "outputs": [
            {
              "internalType": "contract LinkTokenInterface",
              "name": "",
              "type": "address"
            }
          ],
          "stateMutability": "view",
          "type": "function"
        },
        {
          "inputs": [],
          "name": "acceptOwnership",
          "outputs": [],
          "stateMutability": "nonpayable",
          "type": "function"
        },
        {
          "inputs": [
            {
              "internalType": "address",
              "name": "_transmitter",
              "type": "address"
            }
          ],
          "name": "acceptPayeeship",
          "outputs": [],
          "stateMutability": "nonpayable",
          "type": "function"
        },
        {
          "inputs": [
            {
              "internalType": "address",
              "name": "_user",
              "type": "address"
            }
          ],
          "name": "addAccess",
          "outputs": [],
          "stateMutability": "nonpayable",
          "type": "function"
        },
        {
          "inputs": [],
          "name": "billingAccessController",
          "outputs": [
            {
              "internalType": "contract AccessControllerInterface",
              "name": "",
              "type": "address"
            }
          ],
          "stateMutability": "view",
          "type": "function"
        },
        {
          "inputs": [],
          "name": "checkEnabled",
          "outputs": [
            {
              "internalType": "bool",
              "name": "",
              "type": "bool"
            }
          ],
          "stateMutability": "view",
          "type": "function"
        },
        {
          "inputs": [],
          "name": "decimals",
          "outputs": [
            {
              "internalType": "uint8",
              "name": "",
              "type": "uint8"
            }
          ],
          "stateMutability": "view",
          "type": "function"
        },
        {
          "inputs": [],
          "name": "description",
          "outputs": [
            {
              "internalType": "string",
              "name": "",
              "type": "string"
            }
          ],
          "stateMutability": "view",
          "type": "function"
        },
        {
          "inputs": [],
          "name": "disableAccessCheck",
          "outputs": [],
          "stateMutability": "nonpayable",
          "type": "function"
        },
        {
          "inputs": [],
          "name": "enableAccessCheck",
          "outputs": [],
          "stateMutability": "nonpayable",
          "type": "function"
        },
        {
          "inputs": [
            {
              "internalType": "uint256",
              "name": "_roundId",
              "type": "uint256"
            }
          ],
          "name": "getAnswer",
          "outputs": [
            {
              "internalType": "int256",
              "name": "",
              "type": "int256"
            }
          ],
          "stateMutability": "view",
          "type": "function"
        },
        {
          "inputs": [],
          "name": "getBilling",
          "outputs": [
            {
              "internalType": "uint32",
              "name": "maximumGasPrice",
              "type": "uint32"
            },
            {
              "internalType": "uint32",
              "name": "reasonableGasPrice",
              "type": "uint32"
            },
            {
              "internalType": "uint32",
              "name": "microLinkPerEth",
              "type": "uint32"
            },
            {
              "internalType": "uint32",
              "name": "linkGweiPerObservation",
              "type": "uint32"
            },
            {
              "internalType": "uint32",
              "name": "linkGweiPerTransmission",
              "type": "uint32"
            }
          ],
          "stateMutability": "view",
          "type": "function"
        },
        {
          "inputs": [
            {
              "internalType": "uint80",
              "name": "_roundId",
              "type": "uint80"
            }
          ],
          "name": "getRoundData",
          "outputs": [
            {
              "internalType": "uint80",
              "name": "roundId",
              "type": "uint80"
            },
            {
              "internalType": "int256",
              "name": "answer",
              "type": "int256"
            },
            {
              "internalType": "uint256",
              "name": "startedAt",
              "type": "uint256"
            },
            {
              "internalType": "uint256",
              "name": "updatedAt",
              "type": "uint256"
            },
            {
              "internalType": "uint80",
              "name": "answeredInRound",
              "type": "uint80"
            }
          ],
          "stateMutability": "view",
          "type": "function"
        },
        {
          "inputs": [
            {
              "internalType": "uint256",
              "name": "_roundId",
              "type": "uint256"
            }
          ],
          "name": "getTimestamp",
          "outputs": [
            {
              "internalType": "uint256",
              "name": "",
              "type": "uint256"
            }
          ],
          "stateMutability": "view",
          "type": "function"
        },
        {
          "inputs": [
            {
              "internalType": "address",
              "name": "_user",
              "type": "address"
            },
            {
              "internalType": "bytes",
              "name": "_calldata",
              "type": "bytes"
            }
          ],
          "name": "hasAccess",
          "outputs": [
            {
              "internalType": "bool",
              "name": "",
              "type": "bool"
            }
          ],
          "stateMutability": "view",
          "type": "function"
        },
        {
          "inputs": [],
          "name": "latestAnswer",
          "outputs": [
            {
              "internalType": "int256",
              "name": "",
              "type": "int256"
            }
          ],
          "stateMutability": "view",
          "type": "function"
        },
        {
          "inputs": [],
          "name": "latestConfigDetails",
          "outputs": [
            {
              "internalType": "uint32",
              "name": "configCount",
              "type": "uint32"
            },
            {
              "internalType": "uint32",
              "name": "blockNumber",
              "type": "uint32"
            },
            {
              "internalType": "bytes16",
              "name": "configDigest",
              "type": "bytes16"
            }
          ],
          "stateMutability": "view",
          "type": "function"
        },
        {
          "inputs": [],
          "name": "latestRound",
          "outputs": [
            {
              "internalType": "uint256",
              "name": "",
              "type": "uint256"
            }
          ],
          "stateMutability": "view",
          "type": "function"
        },
        {
          "inputs": [],
          "name": "latestRoundData",
          "outputs": [
            {
              "internalType": "uint80",
              "name": "roundId",
              "type": "uint80"
            },
            {
              "internalType": "int256",
              "name": "answer",
              "type": "int256"
            },
            {
              "internalType": "uint256",
              "name": "startedAt",
              "type": "uint256"
            },
            {
              "internalType": "uint256",
              "name": "updatedAt",
              "type": "uint256"
            },
            {
              "internalType": "uint80",
              "name": "answeredInRound",
              "type": "uint80"
            }
          ],
          "stateMutability": "view",
          "type": "function"
        },
        {
          "inputs": [],
          "name": "latestTimestamp",
          "outputs": [
            {
              "internalType": "uint256",
              "name": "",
              "type": "uint256"
            }
          ],
          "stateMutability": "view",
          "type": "function"
        },
        {
          "inputs": [],
          "name": "latestTransmissionDetails",
          "outputs": [
            {
              "internalType": "bytes16",
              "name": "configDigest",
              "type": "bytes16"
            },
            {
              "internalType": "uint32",
              "name": "epoch",
              "type": "uint32"
            },
            {
              "internalType": "uint8",
              "name": "round",
              "type": "uint8"
            },
            {
              "internalType": "int192",
              "name": "latestAnswer",
              "type": "int192"
            },
            {
              "internalType": "uint64",
              "name": "latestTimestamp",
              "type": "uint64"
            }
          ],
          "stateMutability": "view",
          "type": "function"
        },
        {
          "inputs": [],
          "name": "linkAvailableForPayment",
          "outputs": [
            {
              "internalType": "int256",
              "name": "availableBalance",
              "type": "int256"
            }
          ],
          "stateMutability": "view",
          "type": "function"
        },
        {
          "inputs": [],
          "name": "maxAnswer",
          "outputs": [
            {
              "internalType": "int192",
              "name": "",
              "type": "int192"
            }
          ],
          "stateMutability": "view",
          "type": "function"
        },
        {
          "inputs": [],
          "name": "minAnswer",
          "outputs": [
            {
              "internalType": "int192",
              "name": "",
              "type": "int192"
            }
          ],
          "stateMutability": "view",
          "type": "function"
        },
        {
          "inputs": [
            {
              "internalType": "address",
              "name": "_signerOrTransmitter",
              "type": "address"
            }
          ],
          "name": "oracleObservationCount",
          "outputs": [
            {
              "internalType": "uint16",
              "name": "",
              "type": "uint16"
            }
          ],
          "stateMutability": "view",
          "type": "function"
        },
        {
          "inputs": [
            {
              "internalType": "address",
              "name": "_transmitter",
              "type": "address"
            }
          ],
          "name": "owedPayment",
          "outputs": [
            {
              "internalType": "uint256",
              "name": "",
              "type": "uint256"
            }
          ],
          "stateMutability": "view",
          "type": "function"
        },
        {
          "inputs": [],
          "name": "owner",
          "outputs": [
            {
              "internalType": "address payable",
              "name": "",
              "type": "address"
            }
          ],
          "stateMutability": "view",
          "type": "function"
        },
        {
          "inputs": [
            {
              "internalType": "address",
              "name": "_user",
              "type": "address"
            }
          ],
          "name": "removeAccess",
          "outputs": [],
          "stateMutability": "nonpayable",
          "type": "function"
        },
        {
          "inputs": [],
          "name": "requestNewRound",
          "outputs": [
            {
              "internalType": "uint80",
              "name": "",
              "type": "uint80"
            }
          ],
          "stateMutability": "nonpayable",
          "type": "function"
        },
        {
          "inputs": [],
          "name": "requesterAccessController",
          "outputs": [
            {
              "internalType": "contract AccessControllerInterface",
              "name": "",
              "type": "address"
            }
          ],
          "stateMutability": "view",
          "type": "function"
        },
        {
          "inputs": [
            {
              "internalType": "uint32",
              "name": "_maximumGasPrice",
              "type": "uint32"
            },
            {
              "internalType": "uint32",
              "name": "_reasonableGasPrice",
              "type": "uint32"
            },
            {
              "internalType": "uint32",
              "name": "_microLinkPerEth",
              "type": "uint32"
            },
            {
              "internalType": "uint32",
              "name": "_linkGweiPerObservation",
              "type": "uint32"
            },
            {
              "internalType": "uint32",
              "name": "_linkGweiPerTransmission",
              "type": "uint32"
            }
          ],
          "name": "setBilling",
          "outputs": [],
          "stateMutability": "nonpayable",
          "type": "function"
        },
        {
          "inputs": [
            {
              "internalType": "contract AccessControllerInterface",
              "name": "_billingAccessController",
              "type": "address"
            }
          ],
          "name": "setBillingAccessController",
          "outputs": [],
          "stateMutability": "nonpayable",
          "type": "function"
        },
        {
          "inputs": [
            {
              "internalType": "address[]",
              "name": "_signers",
              "type": "address[]"
            },
            {
              "internalType": "address[]",
              "name": "_transmitters",
              "type": "address[]"
            },
            {
              "internalType": "uint8",
              "name": "_threshold",
              "type": "uint8"
            },
            {
              "internalType": "uint64",
              "name": "_encodedConfigVersion",
              "type": "uint64"
            },
            {
              "internalType": "bytes",
              "name": "_encoded",
              "type": "bytes"
            }
          ],
          "name": "setConfig",
          "outputs": [],
          "stateMutability": "nonpayable",
          "type": "function"
        },
        {
          "inputs": [
            {
              "internalType": "address[]",
              "name": "_transmitters",
              "type": "address[]"
            },
            {
              "internalType": "address[]",
              "name": "_payees",
              "type": "address[]"
            }
          ],
          "name": "setPayees",
          "outputs": [],
          "stateMutability": "nonpayable",
          "type": "function"
        },
        {
          "inputs": [
            {
              "internalType": "contract AccessControllerInterface",
              "name": "_requesterAccessController",
              "type": "address"
            }
          ],
          "name": "setRequesterAccessController",
          "outputs": [],
          "stateMutability": "nonpayable",
          "type": "function"
        },
        {
          "inputs": [
            {
              "internalType": "address",
              "name": "_newValidator",
              "type": "address"
            }
          ],
          "name": "setValidator",
          "outputs": [],
          "stateMutability": "nonpayable",
          "type": "function"
        },
        {
          "inputs": [
            {
              "internalType": "address",
              "name": "_to",
              "type": "address"
            }
          ],
          "name": "transferOwnership",
          "outputs": [],
          "stateMutability": "nonpayable",
          "type": "function"
        },
        {
          "inputs": [
            {
              "internalType": "address",
              "name": "_transmitter",
              "type": "address"
            },
            {
              "internalType": "address",
              "name": "_proposed",
              "type": "address"
            }
          ],
          "name": "transferPayeeship",
          "outputs": [],
          "stateMutability": "nonpayable",
          "type": "function"
        },
        {
          "inputs": [
            {
              "internalType": "bytes",
              "name": "_report",
              "type": "bytes"
            },
            {
              "internalType": "bytes32[]",
              "name": "_rs",
              "type": "bytes32[]"
            },
            {
              "internalType": "bytes32[]",
              "name": "_ss",
              "type": "bytes32[]"
            },
            {
              "internalType": "bytes32",
              "name": "_rawVs",
              "type": "bytes32"
            }
          ],
          "name": "transmit",
          "outputs": [],
          "stateMutability": "nonpayable",
          "type": "function"
        },
        {
          "inputs": [],
          "name": "transmitters",
          "outputs": [
            {
              "internalType": "address[]",
              "name": "",
              "type": "address[]"
            }
          ],
          "stateMutability": "view",
          "type": "function"
        },
        {
          "inputs": [],
          "name": "validator",
          "outputs": [
            {
              "internalType": "contract AggregatorValidatorInterface",
              "name": "",
              "type": "address"
            }
          ],
          "stateMutability": "view",
          "type": "function"
        },
        {
          "inputs": [],
          "name": "version",
          "outputs": [
            {
              "internalType": "uint256",
              "name": "",
              "type": "uint256"
            }
          ],
          "stateMutability": "view",
          "type": "function"
        },
        {
          "inputs": [
            {
              "internalType": "address",
              "name": "_recipient",
              "type": "address"
            },
            {
              "internalType": "uint256",
              "name": "_amount",
              "type": "uint256"
            }
          ],
          "name": "withdrawFunds",
          "outputs": [],
          "stateMutability": "nonpayable",
          "type": "function"
        },
        {
          "inputs": [
            {
              "internalType": "address",
              "name": "_transmitter",
              "type": "address"
            }
          ],
          "name": "withdrawPayment",
          "outputs": [],
          "stateMutability": "nonpayable",
          "type": "function"
        }
      ],
      "evm": {
        "bytecode": {
          "linkReferences": {},
          "object": "6101006040523480156200001257600080fd5b50604051620058b0380380620058b083398181016040526101a08110156200003957600080fd5b815160208301516040808501516060860151608087015160a088015160c089015160e08a01516101008b01516101208c01516101408d01516101608e01516101808f0180519b519d9f9c9e9a9d999c989b979a96999598949793969295919491939282019284640100000000821115620000b257600080fd5b908301906020820185811115620000c857600080fd5b8251640100000000811182820188101715620000e357600080fd5b82525081516020918201929091019080838360005b8381101562000112578181015183820152602001620000f8565b50505050905090810190601f168015620001405780820380516001836020036101000a031916815260200191505b506040525050600080546001600160a01b03191633179055508c8c8c8c8c8c8c8c8c8c8c8c8c8c8c8c8c8c8c896200017c8787878787620002da565b6200018781620003cc565b6001600160601b0319606083901b16608052620001a362000602565b620001ad62000602565b60005b601f8160ff161015620001fd576001838260ff16601f8110620001cf57fe5b61ffff909216602092909202015260018260ff8316601f8110620001ef57fe5b6020020152600101620001b0565b506200020d600483601f62000621565b506200021d600882601f620006be565b505050505060f887901b7fff000000000000000000000000000000000000000000000000000000000000001660e05250508351620002669350602e9250602085019150620006ef565b50620002728362000445565b6200027d876200051d565b8560170b60a08160170b60401b815250508460170b60c08160170b60401b81525050505050505050505050505050506001602f60006101000a81548160ff0219169083151502179055505050505050505050505050505062000788565b6040805160a0808201835263ffffffff88811680845288821660208086018290528984168688018190528985166060808901829052958a1660809889018190526002805463ffffffff1916871763ffffffff60201b191664010000000087021763ffffffff60401b19166801000000000000000085021763ffffffff60601b19166c0100000000000000000000000084021763ffffffff60801b1916600160801b830217905589519586529285019390935283880152928201529283015291517fd0d9486a2c673e2a4b57fc82e4c8a556b3e2b82dd5db07e2c04a920ca0f469b6929181900390910190a15050505050565b6003546001600160a01b0390811690821681146200044157600380546001600160a01b0319166001600160a01b03848116918217909255604080519284168352602083019190915280517f793cb73064f3c8cde7e187ae515511e6e56d1ee89bf08b82fa60fb70f8d489129281900390910190a15b5050565b6000546001600160a01b03163314620004a5576040805162461bcd60e51b815260206004820152601660248201527f4f6e6c792063616c6c61626c65206279206f776e657200000000000000000000604482015290519081900360640190fd5b602d546001600160a01b0390811690821681146200044157602d80546001600160a01b0319166001600160a01b03848116918217909255604080519284168352602083019190915280517f27b89aede8b560578baaa25ee5ce3852c5eecad1e114b941bbd89e1eb4bae6349281900390910190a15050565b6000546001600160a01b031633146200057d576040805162461bcd60e51b815260206004820152601660248201527f4f6e6c792063616c6c61626c65206279206f776e657200000000000000000000604482015290519081900360640190fd5b602c546001600160a01b0368010000000000000000909104811690821681146200044157602c8054600160401b600160e01b031916680100000000000000006001600160a01b0385811691820292909217909255604051908316907fcfac5dc75b8d9a7e074162f59d9adcd33da59f0fe8dfb21580db298fc0fdad0d90600090a35050565b604051806103e00160405280601f906020820280368337509192915050565b600283019183908215620006ac5791602002820160005b838211156200067a57835183826101000a81548161ffff021916908361ffff160217905550926020019260020160208160010104928301926001030262000638565b8015620006aa5782816101000a81549061ffff02191690556002016020816001010492830192600103026200067a565b505b50620006ba92915062000771565b5090565b82601f8101928215620006ac579160200282015b82811115620006ac578251825591602001919060010190620006d2565b828054600181600116156101000203166002900490600052602060002090601f016020900481019282620007275760008555620006ac565b82601f106200074257805160ff1916838001178555620006ac565b82800160010185558215620006ac5791820182811115620006ac578251825591602001919060010190620006d2565b5b80821115620006ba576000815560010162000772565b60805160601c60a05160401c60c05160401c60e05160f81c6150c3620007ed60003980610fc952508061191352806133e8525080610f4352806133bb525080610f1f528061279a528061288a52806137b15280613da5528061452152506150c36000f3fe608060405234801561001057600080fd5b50600436106102f45760003560e01c80638ac28d5a11610191578063bd824706116100e3578063e4902f8211610097578063f2fde38b11610071578063f2fde38b14610c18578063fbffd2c114610c3e578063feaf968c14610c64576102f4565b8063e4902f8214610b52578063e5fe457714610b8f578063eb5dcd6c14610bea576102f4565b8063c9807539116100c8578063c980753914610a2e578063d09dc33914610b42578063dc7f012414610b4a576102f4565b8063bd824706146109bd578063c107532914610a02576102f4565b80639c849b3011610145578063b121e1471161011f578063b121e1471461095d578063b5ab58dc14610983578063b633620c146109a0576102f4565b80639c849b301461084f5780639e3ceeab14610911578063a118f24914610937576102f4565b806398e5b12a1161017657806398e5b12a146107ad578063996e8298146107d45780639a6fc8f5146107dc576102f4565b80638ac28d5a1461077f5780638da5cb5b146107a5576102f4565b8063668a0f021161024a57806379ba5097116101fe57806381ff7048116101d857806381ff70481461070f5780638205bf6a146107515780638823da6c14610759576102f4565b806379ba5097146106a75780638038e4a1146106af57806381411834146106b7576102f4565b806370da2f671161022f57806370da2f671461061a57806370efdf2d146106225780637284e4161461062a576102f4565b8063668a0f02146105485780636b14daf814610550576102f4565b806329937268116102ac57806350d25bcd1161028657806350d25bcd1461040b57806354fd4d5014610413578063585aa7de1461041b576102f4565b806329937268146103a4578063313ce567146103e55780633a5381b514610403576102f4565b80631327d3d8116102dd5780631327d3d81461033b5780631b6b6d231461036157806322adbc7814610385576102f4565b80630a756983146102f95780630eafb25b14610303575b600080fd5b610301610c6c565b005b6103296004803603602081101561031957600080fd5b50356001600160a01b0316610d05565b60408051918252519081900360200190f35b6103016004803603602081101561035157600080fd5b50356001600160a01b0316610e35565b610369610f1d565b604080516001600160a01b039092168252519081900360200190f35b61038d610f41565b6040805160179290920b8252519081900360200190f35b6103ac610f65565b6040805163ffffffff96871681529486166020860152928516848401529084166060840152909216608082015290519081900360a00190f35b6103ed610fc7565b6040805160ff9092168252519081900360200190f35b610369610feb565b610329611001565b61032961108e565b610301600480360360a081101561043157600080fd5b81019060208101813564010000000081111561044c57600080fd5b82018360208201111561045e57600080fd5b8035906020019184602083028401116401000000008311171561048057600080fd5b91939092909160208101903564010000000081111561049e57600080fd5b8201836020820111156104b057600080fd5b803590602001918460208302840111640100000000831117156104d257600080fd5b9193909260ff8335169267ffffffffffffffff60208201351692919060608101906040013564010000000081111561050957600080fd5b82018360208201111561051b57600080fd5b8035906020019184600183028401116401000000008311171561053d57600080fd5b509092509050611093565b610329611861565b6106066004803603604081101561056657600080fd5b6001600160a01b03823516919081019060408101602082013564010000000081111561059157600080fd5b8201836020820111156105a357600080fd5b803590602001918460018302840111640100000000831117156105c557600080fd5b91908080601f0160208091040260200160405190810160405280939291908181526020018383808284376000920191909152509295506118e9945050505050565b604080519115158252519081900360200190f35b61038d611911565b610369611935565b610632611944565b6040805160208082528351818301528351919283929083019185019080838360005b8381101561066c578181015183820152602001610654565b50505050905090810190601f1680156106995780820380516001836020036101000a031916815260200191505b509250505060405180910390f35b6103016119cc565b610301611a82565b6106bf611b1c565b60408051602080825283518183015283519192839290830191858101910280838360005b838110156106fb5781810151838201526020016106e3565b505050509050019250505060405180910390f35b610717611b7e565b6040805163ffffffff94851681529290931660208301526fffffffffffffffffffffffffffffffff19168183015290519081900360600190f35b610329611b9f565b6103016004803603602081101561076f57600080fd5b50356001600160a01b0316611c27565b6103016004803603602081101561079557600080fd5b50356001600160a01b0316611cf9565b610369611d70565b6107b5611d7f565b6040805169ffffffffffffffffffff9092168252519081900360200190f35b610369611f5b565b610805600480360360208110156107f257600080fd5b503569ffffffffffffffffffff16611f6a565b604051808669ffffffffffffffffffff1681526020018581526020018481526020018381526020018269ffffffffffffffffffff1681526020019550505050505060405180910390f35b6103016004803603604081101561086557600080fd5b81019060208101813564010000000081111561088057600080fd5b82018360208201111561089257600080fd5b803590602001918460208302840111640100000000831117156108b457600080fd5b9193909290916020810190356401000000008111156108d257600080fd5b8201836020820111156108e457600080fd5b8035906020019184602083028401116401000000008311171561090657600080fd5b50909250905061200b565b6103016004803603602081101561092757600080fd5b50356001600160a01b0316612225565b6103016004803603602081101561094d57600080fd5b50356001600160a01b03166122f4565b6103016004803603602081101561097357600080fd5b50356001600160a01b0316612355565b6103296004803603602081101561099957600080fd5b5035612436565b610329600480360360208110156109b657600080fd5b50356124bf565b610301600480360360a08110156109d357600080fd5b5063ffffffff813581169160208101358216916040820135811691606081013582169160809091013516612548565b61030160048036036040811015610a1857600080fd5b506001600160a01b038135169060200135612677565b61030160048036036080811015610a4457600080fd5b810190602081018135640100000000811115610a5f57600080fd5b820183602082011115610a7157600080fd5b80359060200191846001830284011164010000000083111715610a9357600080fd5b919390929091602081019035640100000000811115610ab157600080fd5b820183602082011115610ac357600080fd5b80359060200191846020830284011164010000000083111715610ae557600080fd5b919390929091602081019035640100000000811115610b0357600080fd5b820183602082011115610b1557600080fd5b80359060200191846020830284011164010000000083111715610b3757600080fd5b919350915035612982565b6103296137ac565b61060661385d565b610b7860048036036020811015610b6857600080fd5b50356001600160a01b0316613866565b6040805161ffff9092168252519081900360200190f35b610b97613913565b604080516fffffffffffffffffffffffffffffffff19909616865263ffffffff909416602086015260ff9092168484015260170b606084015267ffffffffffffffff166080830152519081900360a00190f35b61030160048036036040811015610c0057600080fd5b506001600160a01b03813581169160200135166139cd565b61030160048036036020811015610c2e57600080fd5b50356001600160a01b0316613b11565b61030160048036036020811015610c5457600080fd5b50356001600160a01b0316613bba565b610805613c1b565b6000546001600160a01b03163314610cc4576040805162461bcd60e51b815260206004820152601660248201527527b7363c9031b0b63630b1363290313c9037bbb732b960511b604482015290519081900360640190fd5b602f5460ff1615610d0357602f805460ff191690556040517f3be8a977a014527b50ae38adda80b56911c267328965c98ddc385d248f53963890600090a15b565b6001600160a01b03811660009081526027602090815260408083208151808301909252805460ff808216845285948401916101009004166002811115610d4757fe5b6002811115610d5257fe5b9052509050600081602001516002811115610d6957fe5b1415610d79576000915050610e30565b6040805160a08101825260025463ffffffff8082168352640100000000820481166020840152600160401b8204811693830193909352600160601b8104831660608301819052600160801b90910490921660808201528251909160009160019060049060ff16601f8110610de957fe5b601091828204019190066002029054906101000a900461ffff160361ffff1602633b9aca0002905060016008846000015160ff16601f8110610e2757fe5b01540301925050505b919050565b6000546001600160a01b03163314610e8d576040805162461bcd60e51b815260206004820152601660248201527527b7363c9031b0b63630b1363290313c9037bbb732b960511b604482015290519081900360640190fd5b602c546001600160a01b03600160401b90910481169082168114610f1957602c80547fffffffff0000000000000000000000000000000000000000ffffffffffffffff16600160401b6001600160a01b0385811691820292909217909255604051908316907fcfac5dc75b8d9a7e074162f59d9adcd33da59f0fe8dfb21580db298fc0fdad0d90600090a35b5050565b7f000000000000000000000000000000000000000000000000000000000000000081565b7f000000000000000000000000000000000000000000000000000000000000000081565b6040805160a08101825260025463ffffffff8082168084526401000000008304821660208501819052600160401b84048316958501869052600160601b8404831660608601819052600160801b90940490921660809094018490529490939290565b7f000000000000000000000000000000000000000000000000000000000000000081565b602c54600160401b90046001600160a01b031690565b6000611044336000368080601f0160208091040260200160405190810160405280939291908181526020018383808284376000920191909152506118e992505050565b611081576040805162461bcd60e51b81526020600482015260096024820152684e6f2061636365737360b81b604482015290519081900360640190fd5b611089613cba565b905090565b600481565b868560ff8616601f8311156110ef576040805162461bcd60e51b815260206004820152601060248201527f746f6f206d616e79207369676e65727300000000000000000000000000000000604482015290519081900360640190fd5b60008111611144576040805162461bcd60e51b815260206004820152601a60248201527f7468726573686f6c64206d75737420626520706f736974697665000000000000604482015290519081900360640190fd5b8183146111825760405162461bcd60e51b815260040180806020018281038252602481526020018061506a6024913960400191505060405180910390fd5b8060030283116111d9576040805162461bcd60e51b815260206004820181905260248201527f6661756c74792d6f7261636c65207468726573686f6c6420746f6f2068696768604482015290519081900360640190fd5b6000546001600160a01b03163314611231576040805162461bcd60e51b815260206004820152601660248201527527b7363c9031b0b63630b1363290313c9037bbb732b960511b604482015290519081900360640190fd5b6028541561132e57602880546000198101916000918390811061125057fe5b6000918252602082200154602980546001600160a01b039092169350908490811061127757fe5b6000918252602090912001546001600160a01b0316905061129781613ce3565b6001600160a01b03808316600090815260276020526040808220805461ffff19908116909155928416825290208054909116905560288054806112d657fe5b600082815260209020810160001990810180546001600160a01b0319169055019055602980548061130357fe5b600082815260209020810160001990810180546001600160a01b031916905501905550611231915050565b60005b8a811015611696576000602760008e8e8581811061134b57fe5b602090810292909201356001600160a01b031683525081019190915260400160002054610100900460ff16600281111561138157fe5b146113d3576040805162461bcd60e51b815260206004820152601760248201527f7265706561746564207369676e65722061646472657373000000000000000000604482015290519081900360640190fd5b6040805180820190915260ff8216815260016020820152602760008e8e858181106113fa57fe5b602090810292909201356001600160a01b0316835250818101929092526040016000208251815460ff191660ff90911617808255918301519091829061ff00191661010083600281111561144a57fe5b02179055506000915060069050818c8c8581811061146457fe5b6001600160a01b03602091820293909301358316845283019390935260409091016000205416919091141590506114e2576040805162461bcd60e51b815260206004820152601160248201527f7061796565206d75737420626520736574000000000000000000000000000000604482015290519081900360640190fd5b6000602760008c8c858181106114f457fe5b602090810292909201356001600160a01b031683525081019190915260400160002054610100900460ff16600281111561152a57fe5b1461157c576040805162461bcd60e51b815260206004820152601c60248201527f7265706561746564207472616e736d6974746572206164647265737300000000604482015290519081900360640190fd5b6040805180820190915260ff8216815260026020820152602760008c8c858181106115a357fe5b602090810292909201356001600160a01b0316835250818101929092526040016000208251815460ff191660ff90911617808255918301519091829061ff0019166101008360028111156115f357fe5b021790555090505060288c8c8381811061160957fe5b835460018101855560009485526020948590200180546001600160a01b0319166001600160a01b03959092029390930135939093169290921790555060298a8a8381811061165357fe5b835460018181018655600095865260209586902090910180546001600160a01b0319166001600160a01b0396909302949094013594909416179091555001611331565b50602a805460ff8916600160a81b0260ff60a81b19909116179055602c80544363ffffffff90811664010000000090810267ffffffff0000000019841617808316600101831663ffffffff1990911617938490559091048116911661170330828f8f8f8f8f8f8f8f613f02565b602a60000160006101000a8154816fffffffffffffffffffffffffffffffff021916908360801c02179055506000602a60000160106101000a81548164ffffffffff021916908364ffffffffff1602179055507f25d719d88a4512dd76c7442b910a83360845505894eb444ef299409e180f8fb982828f8f8f8f8f8f8f8f604051808b63ffffffff1681526020018a67ffffffffffffffff16815260200180602001806020018760ff1681526020018667ffffffffffffffff1681526020018060200184810384528c8c82818152602001925060200280828437600083820152601f01601f191690910185810384528a8152602090810191508b908b0280828437600083820152601f01601f191690910185810383528681526020019050868680828437600083820152604051601f909101601f19169092018290039f50909d5050505050505050505050505050a150505050505050505050505050565b60006118a4336000368080601f0160208091040260200160405190810160405280939291908181526020018383808284376000920191909152506118e992505050565b6118e1576040805162461bcd60e51b81526020600482015260096024820152684e6f2061636365737360b81b604482015290519081900360640190fd5b611089614006565b60006118f58383614019565b8061190857506001600160a01b03831632145b90505b92915050565b7f000000000000000000000000000000000000000000000000000000000000000081565b602d546001600160a01b031690565b6060611987336000368080601f0160208091040260200160405190810160405280939291908181526020018383808284376000920191909152506118e992505050565b6119c4576040805162461bcd60e51b81526020600482015260096024820152684e6f2061636365737360b81b604482015290519081900360640190fd5b611089614049565b6001546001600160a01b03163314611a2b576040805162461bcd60e51b815260206004820152601660248201527f4d7573742062652070726f706f736564206f776e657200000000000000000000604482015290519081900360640190fd5b60008054336001600160a01b0319808316821784556001805490911690556040516001600160a01b0390921692909183917f8be0079c531659141344cd1fd0a4f28419497f9722a3daafe3b4186f6b6457e091a350565b6000546001600160a01b03163314611ada576040805162461bcd60e51b815260206004820152601660248201527527b7363c9031b0b63630b1363290313c9037bbb732b960511b604482015290519081900360640190fd5b602f5460ff16610d0357602f805460ff191660011790556040517faebf329500988c6488a0074e5a0a9ff304561fc5c6fc877aeb1d59c8282c348090600090a1565b60606029805480602002602001604051908101604052809291908181526020018280548015611b7457602002820191906000526020600020905b81546001600160a01b03168152600190910190602001808311611b56575b5050505050905090565b602c54602a5463ffffffff808316926401000000009004169060801b909192565b6000611be2336000368080601f0160208091040260200160405190810160405280939291908181526020018383808284376000920191909152506118e992505050565b611c1f576040805162461bcd60e51b81526020600482015260096024820152684e6f2061636365737360b81b604482015290519081900360640190fd5b6110896140d6565b6000546001600160a01b03163314611c7f576040805162461bcd60e51b815260206004820152601660248201527527b7363c9031b0b63630b1363290313c9037bbb732b960511b604482015290519081900360640190fd5b6001600160a01b03811660009081526030602052604090205460ff1615611cf6576001600160a01b038116600081815260306020908152604091829020805460ff19169055815192835290517f3d68a6fce901d20453d1a7aa06bf3950302a735948037deb182a8db66df2a0d19281900390910190a15b50565b6001600160a01b03818116600090815260066020526040902054163314611d67576040805162461bcd60e51b815260206004820152601760248201527f4f6e6c792070617965652063616e207769746864726177000000000000000000604482015290519081900360640190fd5b611cf681613ce3565b6000546001600160a01b031681565b600080546001600160a01b0316331480611e425750602d5460408051630d629b5f60e31b815233600482018181526024830193845236604484018190526001600160a01b0390951694636b14daf894929360009391929190606401848480828437600083820152604051601f909101601f1916909201965060209550909350505081840390508186803b158015611e1557600080fd5b505afa158015611e29573d6000803e3d6000fd5b505050506040513d6020811015611e3f57600080fd5b50515b611e93576040805162461bcd60e51b815260206004820152601d60248201527f4f6e6c79206f776e6572267265717565737465722063616e2063616c6c000000604482015290519081900360640190fd5b6040805160808082018352602a549081901b6fffffffffffffffffffffffffffffffff1916808352600160801b820464ffffffffff8116602080860191909152600160a81b840460ff90811686880152600160b01b90940463ffffffff9081166060808801919091528751948552600884901c909116918401919091529216818501529251919233927f3ea16a923ff4b1df6526e854c9e3a995c43385d70e73359e10623c74f0b52037929181900390910190a2806060015160010163ffffffff1691505090565b6003546001600160a01b031690565b6000806000806000611fb3336000368080601f0160208091040260200160405190810160405280939291908181526020018383808284376000920191909152506118e992505050565b611ff0576040805162461bcd60e51b81526020600482015260096024820152684e6f2061636365737360b81b604482015290519081900360640190fd5b611ff986614109565b939a9299509097509550909350915050565b6000546001600160a01b03163314612063576040805162461bcd60e51b815260206004820152601660248201527527b7363c9031b0b63630b1363290313c9037bbb732b960511b604482015290519081900360640190fd5b8281146120b7576040805162461bcd60e51b815260206004820181905260248201527f7472616e736d6974746572732e73697a6520213d207061796565732e73697a65604482015290519081900360640190fd5b60005b8381101561221e5760008585838181106120d057fe5b905060200201356001600160a01b0316905060008484848181106120f057fe5b6001600160a01b03858116600090815260066020908152604090912054920293909301358316935090911690508015808061213c5750826001600160a01b0316826001600160a01b0316145b61218d576040805162461bcd60e51b815260206004820152601160248201527f706179656520616c726561647920736574000000000000000000000000000000604482015290519081900360640190fd5b6001600160a01b03848116600090815260066020526040902080546001600160a01b0319168583169081179091559083161461220e57826001600160a01b0316826001600160a01b0316856001600160a01b03167f78af32efdcad432315431e9b03d27e6cd98fb79c405fdc5af7c1714d9c0f75b360405160405180910390a45b5050600190920191506120ba9050565b5050505050565b6000546001600160a01b0316331461227d576040805162461bcd60e51b815260206004820152601660248201527527b7363c9031b0b63630b1363290313c9037bbb732b960511b604482015290519081900360640190fd5b602d546001600160a01b039081169082168114610f1957602d80546001600160a01b0319166001600160a01b03848116918217909255604080519284168352602083019190915280517f27b89aede8b560578baaa25ee5ce3852c5eecad1e114b941bbd89e1eb4bae6349281900390910190a15050565b6000546001600160a01b0316331461234c576040805162461bcd60e51b815260206004820152601660248201527527b7363c9031b0b63630b1363290313c9037bbb732b960511b604482015290519081900360640190fd5b611cf68161423f565b6001600160a01b038181166000908152600760205260409020541633146123c3576040805162461bcd60e51b815260206004820152601f60248201527f6f6e6c792070726f706f736564207061796565732063616e2061636365707400604482015290519081900360640190fd5b6001600160a01b0381811660008181526006602090815260408083208054336001600160a01b031980831682179093556007909452828520805490921690915590519416939092849290917f78af32efdcad432315431e9b03d27e6cd98fb79c405fdc5af7c1714d9c0f75b39190a45050565b6000612479336000368080601f0160208091040260200160405190810160405280939291908181526020018383808284376000920191909152506118e992505050565b6124b6576040805162461bcd60e51b81526020600482015260096024820152684e6f2061636365737360b81b604482015290519081900360640190fd5b61190b826142ba565b6000612502336000368080601f0160208091040260200160405190810160405280939291908181526020018383808284376000920191909152506118e992505050565b61253f576040805162461bcd60e51b81526020600482015260096024820152684e6f2061636365737360b81b604482015290519081900360640190fd5b61190b826142f0565b6003546000546001600160a01b039182169116331480612609575060408051630d629b5f60e31b815233600482018181526024830193845236604484018190526001600160a01b03861694636b14daf8946000939190606401848480828437600083820152604051601f909101601f1916909201965060209550909350505081840390508186803b1580156125dc57600080fd5b505afa1580156125f0573d6000803e3d6000fd5b505050506040513d602081101561260657600080fd5b50515b61265a576040805162461bcd60e51b815260206004820181905260248201527f4f6e6c79206f776e65722662696c6c696e6741646d696e2063616e2063616c6c604482015290519081900360640190fd5b612662614330565b61266f86868686866146cf565b505050505050565b6000546001600160a01b0316331480612739575060035460408051630d629b5f60e31b815233600482018181526024830193845236604484018190526001600160a01b0390951694636b14daf894929360009391929190606401848480828437600083820152604051601f909101601f1916909201965060209550909350505081840390508186803b15801561270c57600080fd5b505afa158015612720573d6000803e3d6000fd5b505050506040513d602081101561273657600080fd5b50515b61278a576040805162461bcd60e51b815260206004820181905260248201527f4f6e6c79206f776e65722662696c6c696e6741646d696e2063616e2063616c6c604482015290519081900360640190fd5b60006127946147e9565b905060007f00000000000000000000000000000000000000000000000000000000000000006001600160a01b03166370a08231306040518263ffffffff1660e01b815260040180826001600160a01b0316815260200191505060206040518083038186803b15801561280557600080fd5b505afa158015612819573d6000803e3d6000fd5b505050506040513d602081101561282f57600080fd5b5051905081811015612888576040805162461bcd60e51b815260206004820152601460248201527f696e73756666696369656e742062616c616e6365000000000000000000000000604482015290519081900360640190fd5b7f00000000000000000000000000000000000000000000000000000000000000006001600160a01b031663a9059cbb856128c48585038761499e565b6040518363ffffffff1660e01b815260040180836001600160a01b0316815260200182815260200192505050602060405180830381600087803b15801561290a57600080fd5b505af115801561291e573d6000803e3d6000fd5b505050506040513d602081101561293457600080fd5b505161297c576040805162461bcd60e51b8152602060048201526012602482015271696e73756666696369656e742066756e647360701b604482015290519081900360640190fd5b50505050565b60005a90506129958888888888886149b5565b36146129e8576040805162461bcd60e51b815260206004820152601960248201527f7472616e736d6974206d65737361676520746f6f206c6f6e6700000000000000604482015290519081900360640190fd5b6129f0614eff565b6040805160808082018352602a549081901b6fffffffffffffffffffffffffffffffff19168252600160801b810464ffffffffff166020830152600160a81b810460ff1692820192909252600160b01b90910463ffffffff166060808301919091529082526000908a908a90811015612a6857600080fd5b813591602081013591810190606081016040820135640100000000811115612a8f57600080fd5b820183602082011115612aa157600080fd5b80359060200191846020830284011164010000000083111715612ac357600080fd5b91908080602002602001604051908101604052809392919081815260200183836020028082843760009201919091525050505060408801525050506080840182905283515190925060589190911b906fffffffffffffffffffffffffffffffff19808316911614612b7b576040805162461bcd60e51b815260206004820152601560248201527f636f6e666967446967657374206d69736d617463680000000000000000000000604482015290519081900360640190fd5b608083015183516020015164ffffffffff808316911610612be3576040805162461bcd60e51b815260206004820152600c60248201527f7374616c65207265706f72740000000000000000000000000000000000000000604482015290519081900360640190fd5b83516040015160ff168911612c3f576040805162461bcd60e51b815260206004820152601560248201527f6e6f7420656e6f756768207369676e6174757265730000000000000000000000604482015290519081900360640190fd5b601f891115612c95576040805162461bcd60e51b815260206004820152601360248201527f746f6f206d616e79207369676e61747572657300000000000000000000000000604482015290519081900360640190fd5b868914612ce9576040805162461bcd60e51b815260206004820152601e60248201527f7369676e617475726573206f7574206f6620726567697374726174696f6e0000604482015290519081900360640190fd5b601f8460400151511115612d44576040805162461bcd60e51b815260206004820152601e60248201527f6e756d206f62736572766174696f6e73206f7574206f6620626f756e64730000604482015290519081900360640190fd5b83600001516040015160020260ff1684604001515111612dab576040805162461bcd60e51b815260206004820152601e60248201527f746f6f206665772076616c75657320746f207472757374206d656469616e0000604482015290519081900360640190fd5b8867ffffffffffffffff81118015612dc257600080fd5b506040519080825280601f01601f191660200182016040528015612ded576020820181803683370190505b50606085015260005b60ff81168a1115612e5e57868160ff1660208110612e1057fe5b1a60f81b85606001518260ff1681518110612e2757fe5b60200101907effffffffffffffffffffffffffffffffffffffffffffffffffffffffffffff1916908160001a905350600101612df6565b5083604001515167ffffffffffffffff81118015612e7b57600080fd5b506040519080825280601f01601f191660200182016040528015612ea6576020820181803683370190505b506020850152612eb4614f33565b60005b8560400151518160ff161015612fba576000858260ff1660208110612ed857fe5b1a90508281601f8110612ee757fe5b602002015115612f3e576040805162461bcd60e51b815260206004820152601760248201527f6f6273657276657220696e646578207265706561746564000000000000000000604482015290519081900360640190fd5b6001838260ff16601f8110612f4f57fe5b91151560209283029190910152869060ff8416908110612f6b57fe5b1a60f81b87602001518360ff1681518110612f8257fe5b60200101907effffffffffffffffffffffffffffffffffffffffffffffffffffffffffffff1916908160001a90535050600101612eb7565b503360009081526027602090815260408083208151808301909252805460ff80821684529293919291840191610100909104166002811115612ff857fe5b600281111561300357fe5b905250905060028160200151600281111561301a57fe5b14801561304e57506029816000015160ff168154811061303657fe5b6000918252602090912001546001600160a01b031633145b61309f576040805162461bcd60e51b815260206004820152601860248201527f756e617574686f72697a6564207472616e736d69747465720000000000000000604482015290519081900360640190fd5b5050835164ffffffffff90911660209091015250506040516000908a908a9080838380828437604051920182900390912094506130e09350614f3392505050565b6130e8614f52565b60005b898110156132e15760006001858760600151848151811061310857fe5b60209101015160f81c601b018e8e8681811061312057fe5b905060200201358d8d8781811061313357fe5b9050602002013560405160008152602001604052604051808581526020018460ff1681526020018381526020018281526020019450505050506020604051602081039080840390855afa15801561318e573d6000803e3d6000fd5b505060408051601f198101516001600160a01b03811660009081526027602090815290849020838501909452835460ff808216855292965092945084019161010090041660028111156131dd57fe5b60028111156131e857fe5b90525092506001836020015160028111156131ff57fe5b14613251576040805162461bcd60e51b815260206004820152601e60248201527f61646472657373206e6f7420617574686f72697a656420746f207369676e0000604482015290519081900360640190fd5b8251849060ff16601f811061326257fe5b6020020151156132b9576040805162461bcd60e51b815260206004820152601460248201527f6e6f6e2d756e69717565207369676e6174757265000000000000000000000000604482015290519081900360640190fd5b600184846000015160ff16601f81106132ce57fe5b91151560209092020152506001016130eb565b5050505060005b6001826040015151038110156133925760008260400151826001018151811061330d57fe5b602002602001015160170b8360400151838151811061332857fe5b602002602001015160170b1315905080613389576040805162461bcd60e51b815260206004820152601760248201527f6f62736572766174696f6e73206e6f7420736f72746564000000000000000000604482015290519081900360640190fd5b506001016132e8565b506040810151805160009190600281049081106133ab57fe5b602002602001015190508060170b7f000000000000000000000000000000000000000000000000000000000000000060170b1315801561341157507f000000000000000000000000000000000000000000000000000000000000000060170b8160170b13155b613462576040805162461bcd60e51b815260206004820152601e60248201527f6d656469616e206973206f7574206f66206d696e2d6d61782072616e67650000604482015290519081900360640190fd5b81516060908101805163ffffffff60019091018116909152604080518082018252601785810b80835267ffffffffffffffff42811660208086019182528a5189015188166000908152602b8252878120965187549351909416600160c01b029390950b77ffffffffffffffffffffffffffffffffffffffffffffffff9081167fffffffffffffffff0000000000000000000000000000000000000000000000009093169290921790911691909117909355875186015184890151848a01516080808c015188519586523386890181905291860181905260a0988601898152845199870199909952835194909916997ff6a97944f31ea060dfde0566e4167c1a1082551e64b60ecb14d599a9d023d451998c999298949793969095909492939185019260c086019289820192909102908190849084905b838110156135b0578181015183820152602001613598565b50505050905001838103825285818151815260200191508051906020019080838360005b838110156135ec5781810151838201526020016135d4565b50505050905090810190601f1680156136195780820380516001836020036101000a031916815260200191505b5097505050505050505060405180910390a281516060015160408051428152905160009263ffffffff16917f0109fc6f55cf40689f02fbaad7af7fe7bbac8a3d2186600afc7d3e10cac60271919081900360200190a381600001516060015163ffffffff168160170b7f0559884fd3a460db3073b7fc896cc77986f16e378210ded43186175bf646fc5f426040518082815260200191505060405180910390a36136ce8260000151606001518260170b6149cd565b5080518051602a8054602084015160408501516060909501516fffffffffffffffffffffffffffffffff1990921660809490941c939093177fffffffffffffffffffffff0000000000ffffffffffffffffffffffffffffffff16600160801b64ffffffffff909416939093029290921760ff60a81b1916600160a81b60ff90941693909302929092177fffffffffffff00000000ffffffffffffffffffffffffffffffffffffffffffff16600160b01b63ffffffff9283160217909155821061379357fe5b6137a1828260200151614abb565b505050505050505050565b6000807f00000000000000000000000000000000000000000000000000000000000000006001600160a01b03166370a08231306040518263ffffffff1660e01b815260040180826001600160a01b0316815260200191505060206040518083038186803b15801561381c57600080fd5b505afa158015613830573d6000803e3d6000fd5b505050506040513d602081101561384657600080fd5b5051905060006138546147e9565b90910391505090565b602f5460ff1681565b6001600160a01b03811660009081526027602090815260408083208151808301909252805460ff8082168452859484019161010090041660028111156138a857fe5b60028111156138b357fe5b90525090506000816020015160028111156138ca57fe5b14156138da576000915050610e30565b60016004826000015160ff16601f81106138f057fe5b601091828204019190066002029054906101000a900461ffff1603915050919050565b60008080808033321461396d576040805162461bcd60e51b815260206004820152601460248201527f4f6e6c792063616c6c61626c6520627920454f41000000000000000000000000604482015290519081900360640190fd5b5050602a5463ffffffff600160b01b820481166000908152602b6020526040902054608083901b96600160801b909304600881901c909216955064ffffffffff9091169350601781900b9250600160c01b900467ffffffffffffffff1690565b6001600160a01b03828116600090815260066020526040902054163314613a3b576040805162461bcd60e51b815260206004820152601d60248201527f6f6e6c792063757272656e742070617965652063616e20757064617465000000604482015290519081900360640190fd5b336001600160a01b0382161415613a99576040805162461bcd60e51b815260206004820152601760248201527f63616e6e6f74207472616e7366657220746f2073656c66000000000000000000604482015290519081900360640190fd5b6001600160a01b03808316600090815260076020526040902080548383166001600160a01b031982168117909255909116908114613b0c576040516001600160a01b038084169133918616907f84f7c7c80bb8ed2279b4aab5f61cd05e6374073d38f46d7f32de8c30e9e3836790600090a45b505050565b6000546001600160a01b03163314613b69576040805162461bcd60e51b815260206004820152601660248201527527b7363c9031b0b63630b1363290313c9037bbb732b960511b604482015290519081900360640190fd5b600180546001600160a01b0319166001600160a01b0383811691821790925560008054604051929316917fed8889f560326eb138920d842192f0eb3dd22b4f139c87a2c57538e05bae12789190a350565b6000546001600160a01b03163314613c12576040805162461bcd60e51b815260206004820152601660248201527527b7363c9031b0b63630b1363290313c9037bbb732b960511b604482015290519081900360640190fd5b611cf681614ced565b6000806000806000613c64336000368080601f0160208091040260200160405190810160405280939291908181526020018383808284376000920191909152506118e992505050565b613ca1576040805162461bcd60e51b81526020600482015260096024820152684e6f2061636365737360b81b604482015290519081900360640190fd5b613ca9614d64565b945094509450945094509091929394565b602a54600160b01b900463ffffffff166000908152602b6020526040902054601790810b900b90565b6001600160a01b03811660009081526027602090815260408083208151808301909252805460ff80821684529293919291840191610100909104166002811115613d2957fe5b6002811115613d3457fe5b90525090506000613d4483610d05565b90508015613b0c576001600160a01b0380841660009081526006602090815260408083205481517fa9059cbb0000000000000000000000000000000000000000000000000000000081529085166004820181905260248201879052915191947f0000000000000000000000000000000000000000000000000000000000000000169363a9059cbb9360448084019491939192918390030190829087803b158015613ded57600080fd5b505af1158015613e01573d6000803e3d6000fd5b505050506040513d6020811015613e1757600080fd5b5051613e5f576040805162461bcd60e51b8152602060048201526012602482015271696e73756666696369656e742066756e647360701b604482015290519081900360640190fd5b60016004846000015160ff16601f8110613e7557fe5b601091828204019190066002026101000a81548161ffff021916908361ffff16021790555060016008846000015160ff16601f8110613eb057fe5b0155604080516001600160a01b0380871682528316602082015280820184905290517fe8ec50e5150ae28ae37e493ff389ffab7ffaec2dc4dccfca03f12a3de29d12b29181900360600190a150505050565b60008a8a8a8a8a8a8a8a8a8a604051602001808b6001600160a01b031681526020018a67ffffffffffffffff16815260200180602001806020018760ff1681526020018667ffffffffffffffff1681526020018060200184810384528c8c82818152602001925060200280828437600083820152601f01601f191690910185810384528a8152602090810191508b908b0280828437600083820152601f01601f191690910185810383528681526020019050868680828437600081840152601f19601f8201169050808301925050509d50505050505050505050505050506040516020818303038152906040528051906020012090509a9950505050505050505050565b602a54600160b01b900463ffffffff1690565b6001600160a01b03821660009081526030602052604081205460ff1680611908575050602f5460ff161592915050565b602e8054604080516020601f6002600019610100600188161502019095169490940493840181900481028201810190925282815260609390929091830182828015611b745780601f106140aa57610100808354040283529160200191611b74565b820191906000526020600020905b8154815290600101906020018083116140b857509395945050505050565b602a54600160b01b900463ffffffff166000908152602b6020526040902054600160c01b900467ffffffffffffffff1690565b600080600080600063ffffffff8669ffffffffffffffffffff1611156040518060400160405280600f81526020017f4e6f20646174612070726573656e740000000000000000000000000000000000815250906141e45760405162461bcd60e51b81526004018080602001828103825283818151815260200191508051906020019080838360005b838110156141a9578181015183820152602001614191565b50505050905090810190601f1680156141d65780820380516001836020036101000a031916815260200191505b509250505060405180910390fd5b5050505063ffffffff83166000908152602b6020908152604091829020825180840190935254601781810b810b810b808552600160c01b90920467ffffffffffffffff1693909201839052949594900b939092508291508490565b6001600160a01b03811660009081526030602052604090205460ff16611cf6576001600160a01b038116600081815260306020908152604091829020805460ff19166001179055815192835290517f87286ad1f399c8e82bf0c4ef4fcdc570ea2e1e92176e5c848b6413545b885db49281900390910190a150565b600063ffffffff8211156142d057506000610e30565b5063ffffffff166000908152602b6020526040902054601790810b900b90565b600063ffffffff82111561430657506000610e30565b5063ffffffff166000908152602b6020526040902054600160c01b900467ffffffffffffffff1690565b6040805160a08101825260025463ffffffff8082168352640100000000820481166020840152600160401b8204811683850152600160601b820481166060840152600160801b90910416608082015281516103e0810192839052909160009190600490601f908285855b82829054906101000a900461ffff1661ffff168152602001906002019060208260010104928301926001038202915080841161439a575050604080516103e0810191829052959650600095945060089350601f9250905082845b8154815260200190600101908083116143f457505050505090506000602980548060200260200160405190810160405280929190818152602001828054801561446657602002820191906000526020600020905b81546001600160a01b03168152600190910190602001808311614448575b5050505050905060005b81518110156146b357600060018483601f811061448957fe5b6020020151039050600060018684601f81106144a157fe5b60200201510361ffff169050600082886060015163ffffffff168302633b9aca000201905060008111156146a8576000600660008787815181106144e157fe5b60200260200101516001600160a01b03166001600160a01b0316815260200190815260200160002060009054906101000a90046001600160a01b031690507f00000000000000000000000000000000000000000000000000000000000000006001600160a01b031663a9059cbb82846040518363ffffffff1660e01b815260040180836001600160a01b0316815260200182815260200192505050602060405180830381600087803b15801561459657600080fd5b505af11580156145aa573d6000803e3d6000fd5b505050506040513d60208110156145c057600080fd5b5051614608576040805162461bcd60e51b8152602060048201526012602482015271696e73756666696369656e742066756e647360701b604482015290519081900360640190fd5b60018886601f811061461657fe5b61ffff909216602092909202015260018786601f811061463257fe5b602002015285517fe8ec50e5150ae28ae37e493ff389ffab7ffaec2dc4dccfca03f12a3de29d12b29087908790811061466757fe5b6020026020010151828460405180846001600160a01b03168152602001836001600160a01b03168152602001828152602001935050505060405180910390a1505b505050600101614470565b506146c1600484601f614f69565b5061221e600883601f614fff565b6040805160a0808201835263ffffffff88811680845288821660208086018290528984168688018190528985166060808901829052958a1660809889018190526002805463ffffffff1916871767ffffffff0000000019166401000000008702176bffffffff00000000000000001916600160401b8502177fffffffffffffffffffffffffffffffff00000000ffffffffffffffffffffffff16600160601b8402177fffffffffffffffffffffffff00000000ffffffffffffffffffffffffffffffff16600160801b830217905589519586529285019390935283880152928201529283015291517fd0d9486a2c673e2a4b57fc82e4c8a556b3e2b82dd5db07e2c04a920ca0f469b6929181900390910190a15050505050565b604080516103e0810191829052600091829190600490601f908285855b82829054906101000a900461ffff1661ffff16815260200190600201906020826001010492830192600103820291508084116148065790505050505050905060005b601f8110156148765760018282601f811061485f57fe5b60200201510361ffff169290920191600101614848565b506040805160a08101825260025463ffffffff808216835264010000000082048116602080850191909152600160401b8304821684860152600160601b8304821660608501819052600160801b90930490911660808401526029805485518184028101840190965280865296909202633b9aca000295929360009390929183018282801561492d57602002820191906000526020600020905b81546001600160a01b0316815260019091019060200180831161490f575b5050604080516103e0810191829052949550600094935060089250601f915082845b81548152602001906001019080831161494f575050505050905060005b82518110156149965760018282601f811061498357fe5b602002015103959095019460010161496c565b505050505090565b6000818310156149af57508161190b565b50919050565b602083810286019082020160e4019695505050505050565b602c54600160401b90046001600160a01b0316806149eb5750610f19565b600019830163ffffffff8181166000818152602b602090815260408083205481517fbeed9b510000000000000000000000000000000000000000000000000000000081526004810195909552601790810b900b60248501819052948916604485015260648401889052516001600160a01b0387169363beed9b5193620186a09360848084019491939192918390030190829088803b158015614a8c57600080fd5b5087f193505050508015614ab257506040513d6020811015614aad57600080fd5b505160015b61266f5761221e565b3360009081526027602090815260408083208151808301909252805460ff80821684529293919291840191610100909104166002811115614af857fe5b6002811115614b0357fe5b9052506040805160a08101825260025463ffffffff8082168352640100000000820481166020840152600160401b8204811683850152600160601b820481166060840152600160801b90910416608082015281516103e081019283905292935091614bb891859190600490601f90826000855b82829054906101000a900461ffff1661ffff1681526020019060020190602082600101049283019260010382029150808411614b765790505050505050614dc0565b614bc690600490601f614f69565b50600282602001516002811115614bd957fe5b14614c2b576040805162461bcd60e51b815260206004820181905260248201527f73656e7420627920756e64657369676e61746564207472616e736d6974746572604482015290519081900360640190fd5b6000614c52633b9aca003a04836020015163ffffffff16846000015163ffffffff16614e35565b90506010360260005a90506000614c718863ffffffff16858585614e5b565b6fffffffffffffffffffffffffffffffff1690506000620f4240866040015163ffffffff16830281614c9f57fe5b049050856080015163ffffffff16633b9aca0002816008896000015160ff16601f8110614cc857fe5b015401016008886000015160ff16601f8110614ce057fe5b0155505050505050505050565b6003546001600160a01b039081169082168114610f1957600380546001600160a01b0319166001600160a01b03848116918217909255604080519284168352602083019190915280517f793cb73064f3c8cde7e187ae515511e6e56d1ee89bf08b82fa60fb70f8d489129281900390910190a15050565b602a54600160b01b900463ffffffff166000818152602b6020908152604091829020825180840190935254601781810b810b810b808552600160c01b90920467ffffffffffffffff1693909201839052929392900b9181908490565b614dc8614f33565b60005b8351811015614e2d576000848281518110614de257fe5b016020015160f81c9050614e078482601f8110614dfb57fe5b60200201516001614ee7565b848260ff16601f8110614e1657fe5b61ffff909216602092909202015250600101614dcb565b509092915050565b60008383811015614e4857600285850304015b614e52818461499e565b95945050505050565b600081851015614eb2576040805162461bcd60e51b815260206004820181905260248201527f6761734c6566742063616e6e6f742065786365656420696e697469616c476173604482015290519081900360640190fd5b818503830161179301633b9aca00858202026fffffffffffffffffffffffffffffffff8110614edd57fe5b9695505050505050565b60006119088261ffff168461ffff160161ffff61499e565b6040518060a00160405280614f1261502d565b81526060602082018190526040820181905280820152600060809091015290565b604051806103e00160405280601f906020820280368337509192915050565b604080518082019091526000808252602082015290565b600283019183908215614fef5791602002820160005b83821115614fbf57835183826101000a81548161ffff021916908361ffff1602179055509260200192600201602081600101049283019260010302614f7f565b8015614fed5782816101000a81549061ffff0219169055600201602081600101049283019260010302614fbf565b505b50614ffb929150615054565b5090565b82601f8101928215614fef579160200282015b82811115614fef578251825591602001919060010190615012565b60408051608081018252600080825260208201819052918101829052606081019190915290565b5b80821115614ffb576000815560010161505556fe6f7261636c6520616464726573736573206f7574206f6620726567697374726174696f6ea2646970667358221220e33d3c44c2b4195cab79e4a4ea4264f88deff67833216ad0c91b614f76bc7e5e64736f6c63430007060033",
          "opcodes": "PUSH2 0x100 PUSH1 0x40 MSTORE CALLVALUE DUP1 ISZERO PUSH3 0x12 JUMPI PUSH1 0x0 DUP1 REVERT JUMPDEST POP PUSH1 0x40 MLOAD PUSH3 0x58B0 CODESIZE SUB DUP1 PUSH3 0x58B0 DUP4 CODECOPY DUP2 DUP2 ADD PUSH1 0x40 MSTORE PUSH2 0x1A0 DUP2 LT ISZERO PUSH3 0x39 JUMPI PUSH1 0x0 DUP1 REVERT JUMPDEST DUP2 MLOAD PUSH1 0x20 DUP4 ADD MLOAD PUSH1 0x40 DUP1 DUP6 ADD MLOAD PUSH1 0x60 DUP7 ADD MLOAD PUSH1 0x80 DUP8 ADD MLOAD PUSH1 0xA0 DUP9 ADD MLOAD PUSH1 0xC0 DUP10 ADD MLOAD PUSH1 0xE0 DUP11 ADD MLOAD PUSH2 0x100 DUP12 ADD MLOAD PUSH2 0x120 DUP13 ADD MLOAD PUSH2 0x140 DUP14 ADD MLOAD PUSH2 0x160 DUP15 ADD MLOAD PUSH2 0x180 DUP16 ADD DUP1 MLOAD SWAP12 MLOAD SWAP14 SWAP16 SWAP13 SWAP15 SWAP11 SWAP14 SWAP10 SWAP13 SWAP9 SWAP12 SWAP8 SWAP11 SWAP7 SWAP10 SWAP6 SWAP9 SWAP5 SWAP8 SWAP4 SWAP7 SWAP3 SWAP6 SWAP2 SWAP5 SWAP2 SWAP4 SWAP3 DUP3 ADD SWAP3 DUP5 PUSH5 0x100000000 DUP3 GT ISZERO PUSH3 0xB2 JUMPI PUSH1 0x0 DUP1 REVERT JUMPDEST SWAP1 DUP4 ADD SWAP1 PUSH1 0x20 DUP3 ADD DUP6 DUP2 GT ISZERO PUSH3 0xC8 JUMPI PUSH1 0x0 DUP1 REVERT JUMPDEST DUP3 MLOAD PUSH5 0x100000000 DUP2 GT DUP3 DUP3 ADD DUP9 LT OR ISZERO PUSH3 0xE3 JUMPI PUSH1 0x0 DUP1 REVERT JUMPDEST DUP3 MSTORE POP DUP2 MLOAD PUSH1 0x20 SWAP2 DUP3 ADD SWAP3 SWAP1 SWAP2 ADD SWAP1 DUP1 DUP4 DUP4 PUSH1 0x0 JUMPDEST DUP4 DUP2 LT ISZERO PUSH3 0x112 JUMPI DUP2 DUP2 ADD MLOAD DUP4 DUP3 ADD MSTORE PUSH1 0x20 ADD PUSH3 0xF8 JUMP JUMPDEST POP POP POP POP SWAP1 POP SWAP1 DUP2 ADD SWAP1 PUSH1 0x1F AND DUP1 ISZERO PUSH3 0x140 JUMPI DUP1 DUP3 SUB DUP1 MLOAD PUSH1 0x1 DUP4 PUSH1 0x20 SUB PUSH2 0x100 EXP SUB NOT AND DUP2 MSTORE PUSH1 0x20 ADD SWAP2 POP JUMPDEST POP PUSH1 0x40 MSTORE POP POP PUSH1 0x0 DUP1 SLOAD PUSH1 0x1 PUSH1 0x1 PUSH1 0xA0 SHL SUB NOT AND CALLER OR SWAP1 SSTORE POP DUP13 DUP13 DUP13 DUP13 DUP13 DUP13 DUP13 DUP13 DUP13 DUP13 DUP13 DUP13 DUP13 DUP13 DUP13 DUP13 DUP13 DUP13 DUP13 DUP10 PUSH3 0x17C DUP8 DUP8 DUP8 DUP8 DUP8 PUSH3 0x2DA JUMP JUMPDEST PUSH3 0x187 DUP2 PUSH3 0x3CC JUMP JUMPDEST PUSH1 0x1 PUSH1 0x1 PUSH1 0x60 SHL SUB NOT PUSH1 0x60 DUP4 SWAP1 SHL AND PUSH1 0x80 MSTORE PUSH3 0x1A3 PUSH3 0x602 JUMP JUMPDEST PUSH3 0x1AD PUSH3 0x602 JUMP JUMPDEST PUSH1 0x0 JUMPDEST PUSH1 0x1F DUP2 PUSH1 0xFF AND LT ISZERO PUSH3 0x1FD JUMPI PUSH1 0x1 DUP4 DUP3 PUSH1 0xFF AND PUSH1 0x1F DUP2 LT PUSH3 0x1CF JUMPI INVALID JUMPDEST PUSH2 0xFFFF SWAP1 SWAP3 AND PUSH1 0x20 SWAP3 SWAP1 SWAP3 MUL ADD MSTORE PUSH1 0x1 DUP3 PUSH1 0xFF DUP4 AND PUSH1 0x1F DUP2 LT PUSH3 0x1EF JUMPI INVALID JUMPDEST PUSH1 0x20 MUL ADD MSTORE PUSH1 0x1 ADD PUSH3 0x1B0 JUMP JUMPDEST POP PUSH3 0x20D PUSH1 0x4 DUP4 PUSH1 0x1F PUSH3 0x621 JUMP JUMPDEST POP PUSH3 0x21D PUSH1 0x8 DUP3 PUSH1 0x1F PUSH3 0x6BE JUMP JUMPDEST POP POP POP POP POP PUSH1 0xF8 DUP8 SWAP1 SHL PUSH32 0xFF00000000000000000000000000000000000000000000000000000000000000 AND PUSH1 0xE0 MSTORE POP POP DUP4 MLOAD PUSH3 0x266 SWAP4 POP PUSH1 0x2E SWAP3 POP PUSH1 0x20 DUP6 ADD SWAP2 POP PUSH3 0x6EF JUMP JUMPDEST POP PUSH3 0x272 DUP4 PUSH3 0x445 JUMP JUMPDEST PUSH3 0x27D DUP8 PUSH3 0x51D JUMP JUMPDEST DUP6 PUSH1 0x17 SIGNEXTEND PUSH1 0xA0 DUP2 PUSH1 0x17 SIGNEXTEND PUSH1 0x40 SHL DUP2 MSTORE POP POP DUP5 PUSH1 0x17 SIGNEXTEND PUSH1 0xC0 DUP2 PUSH1 0x17 SIGNEXTEND PUSH1 0x40 SHL DUP2 MSTORE POP POP POP POP POP POP POP POP POP POP POP POP POP POP POP PUSH1 0x1 PUSH1 0x2F PUSH1 0x0 PUSH2 0x100 EXP DUP2 SLOAD DUP2 PUSH1 0xFF MUL NOT AND SWAP1 DUP4 ISZERO ISZERO MUL OR SWAP1 SSTORE POP POP POP POP POP POP POP POP POP POP POP POP POP POP PUSH3 0x788 JUMP JUMPDEST PUSH1 0x40 DUP1 MLOAD PUSH1 0xA0 DUP1 DUP3 ADD DUP4 MSTORE PUSH4 0xFFFFFFFF DUP9 DUP2 AND DUP1 DUP5 MSTORE DUP9 DUP3 AND PUSH1 0x20 DUP1 DUP7 ADD DUP3 SWAP1 MSTORE DUP10 DUP5 AND DUP7 DUP9 ADD DUP2 SWAP1 MSTORE DUP10 DUP6 AND PUSH1 0x60 DUP1 DUP10 ADD DUP3 SWAP1 MSTORE SWAP6 DUP11 AND PUSH1 0x80 SWAP9 DUP10 ADD DUP2 SWAP1 MSTORE PUSH1 0x2 DUP1 SLOAD PUSH4 0xFFFFFFFF NOT AND DUP8 OR PUSH4 0xFFFFFFFF PUSH1 0x20 SHL NOT AND PUSH5 0x100000000 DUP8 MUL OR PUSH4 0xFFFFFFFF PUSH1 0x40 SHL NOT AND PUSH9 0x10000000000000000 DUP6 MUL OR PUSH4 0xFFFFFFFF PUSH1 0x60 SHL NOT AND PUSH13 0x1000000000000000000000000 DUP5 MUL OR PUSH4 0xFFFFFFFF PUSH1 0x80 SHL NOT AND PUSH1 0x1 PUSH1 0x80 SHL DUP4 MUL OR SWAP1 SSTORE DUP10 MLOAD SWAP6 DUP7 MSTORE SWAP3 DUP6 ADD SWAP4 SWAP1 SWAP4 MSTORE DUP4 DUP9 ADD MSTORE SWAP3 DUP3 ADD MSTORE SWAP3 DUP4 ADD MSTORE SWAP2 MLOAD PUSH32 0xD0D9486A2C673E2A4B57FC82E4C8A556B3E2B82DD5DB07E2C04A920CA0F469B6 SWAP3 SWAP2 DUP2 SWAP1 SUB SWAP1 SWAP2 ADD SWAP1 LOG1 POP POP POP POP POP JUMP JUMPDEST PUSH1 0x3 SLOAD PUSH1 0x1 PUSH1 0x1 PUSH1 0xA0 SHL SUB SWAP1 DUP2 AND SWAP1 DUP3 AND DUP2 EQ PUSH3 0x441 JUMPI PUSH1 0x3 DUP1 SLOAD PUSH1 0x1 PUSH1 0x1 PUSH1 0xA0 SHL SUB NOT AND PUSH1 0x1 PUSH1 0x1 PUSH1 0xA0 SHL SUB DUP5 DUP2 AND SWAP2 DUP3 OR SWAP1 SWAP3 SSTORE PUSH1 0x40 DUP1 MLOAD SWAP3 DUP5 AND DUP4 MSTORE PUSH1 0x20 DUP4 ADD SWAP2 SWAP1 SWAP2 MSTORE DUP1 MLOAD PUSH32 0x793CB73064F3C8CDE7E187AE515511E6E56D1EE89BF08B82FA60FB70F8D48912 SWAP3 DUP2 SWAP1 SUB SWAP1 SWAP2 ADD SWAP1 LOG1 JUMPDEST POP POP JUMP JUMPDEST PUSH1 0x0 SLOAD PUSH1 0x1 PUSH1 0x1 PUSH1 0xA0 SHL SUB AND CALLER EQ PUSH3 0x4A5 JUMPI PUSH1 0x40 DUP1 MLOAD PUSH3 0x461BCD PUSH1 0xE5 SHL DUP2 MSTORE PUSH1 0x20 PUSH1 0x4 DUP3 ADD MSTORE PUSH1 0x16 PUSH1 0x24 DUP3 ADD MSTORE PUSH32 0x4F6E6C792063616C6C61626C65206279206F776E657200000000000000000000 PUSH1 0x44 DUP3 ADD MSTORE SWAP1 MLOAD SWAP1 DUP2 SWAP1 SUB PUSH1 0x64 ADD SWAP1 REVERT JUMPDEST PUSH1 0x2D SLOAD PUSH1 0x1 PUSH1 0x1 PUSH1 0xA0 SHL SUB SWAP1 DUP2 AND SWAP1 DUP3 AND DUP2 EQ PUSH3 0x441 JUMPI PUSH1 0x2D DUP1 SLOAD PUSH1 0x1 PUSH1 0x1 PUSH1 0xA0 SHL SUB NOT AND PUSH1 0x1 PUSH1 0x1 PUSH1 0xA0 SHL SUB DUP5 DUP2 AND SWAP2 DUP3 OR SWAP1 SWAP3 SSTORE PUSH1 0x40 DUP1 MLOAD SWAP3 DUP5 AND DUP4 MSTORE PUSH1 0x20 DUP4 ADD SWAP2 SWAP1 SWAP2 MSTORE DUP1 MLOAD PUSH32 0x27B89AEDE8B560578BAAA25EE5CE3852C5EECAD1E114B941BBD89E1EB4BAE634 SWAP3 DUP2 SWAP1 SUB SWAP1 SWAP2 ADD SWAP1 LOG1 POP POP JUMP JUMPDEST PUSH1 0x0 SLOAD PUSH1 0x1 PUSH1 0x1 PUSH1 0xA0 SHL SUB AND CALLER EQ PUSH3 0x57D JUMPI PUSH1 0x40 DUP1 MLOAD PUSH3 0x461BCD PUSH1 0xE5 SHL DUP2 MSTORE PUSH1 0x20 PUSH1 0x4 DUP3 ADD MSTORE PUSH1 0x16 PUSH1 0x24 DUP3 ADD MSTORE PUSH32 0x4F6E6C792063616C6C61626C65206279206F776E657200000000000000000000 PUSH1 0x44 DUP3 ADD MSTORE SWAP1 MLOAD SWAP1 DUP2 SWAP1 SUB PUSH1 0x64 ADD SWAP1 REVERT JUMPDEST PUSH1 0x2C SLOAD PUSH1 0x1 PUSH1 0x1 PUSH1 0xA0 SHL SUB PUSH9 0x10000000000000000 SWAP1 SWAP2 DIV DUP2 AND SWAP1 DUP3 AND DUP2 EQ PUSH3 0x441 JUMPI PUSH1 0x2C DUP1 SLOAD PUSH1 0x1 PUSH1 0x40 SHL PUSH1 0x1 PUSH1 0xE0 SHL SUB NOT AND PUSH9 0x10000000000000000 PUSH1 0x1 PUSH1 0x1 PUSH1 0xA0 SHL SUB DUP6 DUP2 AND SWAP2 DUP3 MUL SWAP3 SWAP1 SWAP3 OR SWAP1 SWAP3 SSTORE PUSH1 0x40 MLOAD SWAP1 DUP4 AND SWAP1 PUSH32 0xCFAC5DC75B8D9A7E074162F59D9ADCD33DA59F0FE8DFB21580DB298FC0FDAD0D SWAP1 PUSH1 0x0 SWAP1 LOG3 POP POP JUMP JUMPDEST PUSH1 0x40 MLOAD DUP1 PUSH2 0x3E0 ADD PUSH1 0x40 MSTORE DUP1 PUSH1 0x1F SWAP1 PUSH1 0x20 DUP3 MUL DUP1 CALLDATASIZE DUP4 CALLDATACOPY POP SWAP2 SWAP3 SWAP2 POP POP JUMP JUMPDEST PUSH1 0x2 DUP4 ADD SWAP2 DUP4 SWAP1 DUP3 ISZERO PUSH3 0x6AC JUMPI SWAP2 PUSH1 0x20 MUL DUP3 ADD PUSH1 0x0 JUMPDEST DUP4 DUP3 GT ISZERO PUSH3 0x67A JUMPI DUP4 MLOAD DUP4 DUP3 PUSH2 0x100 EXP DUP2 SLOAD DUP2 PUSH2 0xFFFF MUL NOT AND SWAP1 DUP4 PUSH2 0xFFFF AND MUL OR SWAP1 SSTORE POP SWAP3 PUSH1 0x20 ADD SWAP3 PUSH1 0x2 ADD PUSH1 0x20 DUP2 PUSH1 0x1 ADD DIV SWAP3 DUP4 ADD SWAP3 PUSH1 0x1 SUB MUL PUSH3 0x638 JUMP JUMPDEST DUP1 ISZERO PUSH3 0x6AA JUMPI DUP3 DUP2 PUSH2 0x100 EXP DUP2 SLOAD SWAP1 PUSH2 0xFFFF MUL NOT AND SWAP1 SSTORE PUSH1 0x2 ADD PUSH1 0x20 DUP2 PUSH1 0x1 ADD DIV SWAP3 DUP4 ADD SWAP3 PUSH1 0x1 SUB MUL PUSH3 0x67A JUMP JUMPDEST POP JUMPDEST POP PUSH3 0x6BA SWAP3 SWAP2 POP PUSH3 0x771 JUMP JUMPDEST POP SWAP1 JUMP JUMPDEST DUP3 PUSH1 0x1F DUP2 ADD SWAP3 DUP3 ISZERO PUSH3 0x6AC JUMPI SWAP2 PUSH1 0x20 MUL DUP3 ADD JUMPDEST DUP3 DUP2 GT ISZERO PUSH3 0x6AC JUMPI DUP3 MLOAD DUP3 SSTORE SWAP2 PUSH1 0x20 ADD SWAP2 SWAP1 PUSH1 0x1 ADD SWAP1 PUSH3 0x6D2 JUMP JUMPDEST DUP3 DUP1 SLOAD PUSH1 0x1 DUP2 PUSH1 0x1 AND ISZERO PUSH2 0x100 MUL SUB AND PUSH1 0x2 SWAP1 DIV SWAP1 PUSH1 0x0 MSTORE PUSH1 0x20 PUSH1 0x0 KECCAK256 SWAP1 PUSH1 0x1F ADD PUSH1 0x20 SWAP1 DIV DUP2 ADD SWAP3 DUP3 PUSH3 0x727 JUMPI PUSH1 0x0 DUP6 SSTORE PUSH3 0x6AC JUMP JUMPDEST DUP3 PUSH1 0x1F LT PUSH3 0x742 JUMPI DUP1 MLOAD PUSH1 0xFF NOT AND DUP4 DUP1 ADD OR DUP6 SSTORE PUSH3 0x6AC JUMP JUMPDEST DUP3 DUP1 ADD PUSH1 0x1 ADD DUP6 SSTORE DUP3 ISZERO PUSH3 0x6AC JUMPI SWAP2 DUP3 ADD DUP3 DUP2 GT ISZERO PUSH3 0x6AC JUMPI DUP3 MLOAD DUP3 SSTORE SWAP2 PUSH1 0x20 ADD SWAP2 SWAP1 PUSH1 0x1 ADD SWAP1 PUSH3 0x6D2 JUMP JUMPDEST JUMPDEST DUP1 DUP3 GT ISZERO PUSH3 0x6BA JUMPI PUSH1 0x0 DUP2 SSTORE PUSH1 0x1 ADD PUSH3 0x772 JUMP JUMPDEST PUSH1 0x80 MLOAD PUSH1 0x60 SHR PUSH1 0xA0 MLOAD PUSH1 0x40 SHR PUSH1 0xC0 MLOAD PUSH1 0x40 SHR PUSH1 0xE0 MLOAD PUSH1 0xF8 SHR PUSH2 0x50C3 PUSH3 0x7ED PUSH1 0x0 CODECOPY DUP1 PUSH2 0xFC9 MSTORE POP DUP1 PUSH2 0x1913 MSTORE DUP1 PUSH2 0x33E8 MSTORE POP DUP1 PUSH2 0xF43 MSTORE DUP1 PUSH2 0x33BB MSTORE POP DUP1 PUSH2 0xF1F MSTORE DUP1 PUSH2 0x279A MSTORE DUP1 PUSH2 0x288A MSTORE DUP1 PUSH2 0x37B1 MSTORE DUP1 PUSH2 0x3DA5 MSTORE DUP1 PUSH2 0x4521 MSTORE POP PUSH2 0x50C3 PUSH1 0x0 RETURN INVALID PUSH1 0x80 PUSH1 0x40 MSTORE CALLVALUE DUP1 ISZERO PUSH2 0x10 JUMPI PUSH1 0x0 DUP1 REVERT JUMPDEST POP PUSH1 0x4 CALLDATASIZE LT PUSH2 0x2F4 JUMPI PUSH1 0x0 CALLDATALOAD PUSH1 0xE0 SHR DUP1 PUSH4 0x8AC28D5A GT PUSH2 0x191 JUMPI DUP1 PUSH4 0xBD824706 GT PUSH2 0xE3 JUMPI DUP1 PUSH4 0xE4902F82 GT PUSH2 0x97 JUMPI DUP1 PUSH4 0xF2FDE38B GT PUSH2 0x71 JUMPI DUP1 PUSH4 0xF2FDE38B EQ PUSH2 0xC18 JUMPI DUP1 PUSH4 0xFBFFD2C1 EQ PUSH2 0xC3E JUMPI DUP1 PUSH4 0xFEAF968C EQ PUSH2 0xC64 JUMPI PUSH2 0x2F4 JUMP JUMPDEST DUP1 PUSH4 0xE4902F82 EQ PUSH2 0xB52 JUMPI DUP1 PUSH4 0xE5FE4577 EQ PUSH2 0xB8F JUMPI DUP1 PUSH4 0xEB5DCD6C EQ PUSH2 0xBEA JUMPI PUSH2 0x2F4 JUMP JUMPDEST DUP1 PUSH4 0xC9807539 GT PUSH2 0xC8 JUMPI DUP1 PUSH4 0xC9807539 EQ PUSH2 0xA2E JUMPI DUP1 PUSH4 0xD09DC339 EQ PUSH2 0xB42 JUMPI DUP1 PUSH4 0xDC7F0124 EQ PUSH2 0xB4A JUMPI PUSH2 0x2F4 JUMP JUMPDEST DUP1 PUSH4 0xBD824706 EQ PUSH2 0x9BD JUMPI DUP1 PUSH4 0xC1075329 EQ PUSH2 0xA02 JUMPI PUSH2 0x2F4 JUMP JUMPDEST DUP1 PUSH4 0x9C849B30 GT PUSH2 0x145 JUMPI DUP1 PUSH4 0xB121E147 GT PUSH2 0x11F JUMPI DUP1 PUSH4 0xB121E147 EQ PUSH2 0x95D JUMPI DUP1 PUSH4 0xB5AB58DC EQ PUSH2 0x983 JUMPI DUP1 PUSH4 0xB633620C EQ PUSH2 0x9A0 JUMPI PUSH2 0x2F4 JUMP JUMPDEST DUP1 PUSH4 0x9C849B30 EQ PUSH2 0x84F JUMPI DUP1 PUSH4 0x9E3CEEAB EQ PUSH2 0x911 JUMPI DUP1 PUSH4 0xA118F249 EQ PUSH2 0x937 JUMPI PUSH2 0x2F4 JUMP JUMPDEST DUP1 PUSH4 0x98E5B12A GT PUSH2 0x176 JUMPI DUP1 PUSH4 0x98E5B12A EQ PUSH2 0x7AD JUMPI DUP1 PUSH4 0x996E8298 EQ PUSH2 0x7D4 JUMPI DUP1 PUSH4 0x9A6FC8F5 EQ PUSH2 0x7DC JUMPI PUSH2 0x2F4 JUMP JUMPDEST DUP1 PUSH4 0x8AC28D5A EQ PUSH2 0x77F JUMPI DUP1 PUSH4 0x8DA5CB5B EQ PUSH2 0x7A5 JUMPI PUSH2 0x2F4 JUMP JUMPDEST DUP1 PUSH4 0x668A0F02 GT PUSH2 0x24A JUMPI DUP1 PUSH4 0x79BA5097 GT PUSH2 0x1FE JUMPI DUP1 PUSH4 0x81FF7048 GT PUSH2 0x1D8 JUMPI DUP1 PUSH4 0x81FF7048 EQ PUSH2 0x70F JUMPI DUP1 PUSH4 0x8205BF6A EQ PUSH2 0x751 JUMPI DUP1 PUSH4 0x8823DA6C EQ PUSH2 0x759 JUMPI PUSH2 0x2F4 JUMP JUMPDEST DUP1 PUSH4 0x79BA5097 EQ PUSH2 0x6A7 JUMPI DUP1 PUSH4 0x8038E4A1 EQ PUSH2 0x6AF JUMPI DUP1 PUSH4 0x81411834 EQ PUSH2 0x6B7 JUMPI PUSH2 0x2F4 JUMP JUMPDEST DUP1 PUSH4 0x70DA2F67 GT PUSH2 0x22F JUMPI DUP1 PUSH4 0x70DA2F67 EQ PUSH2 0x61A JUMPI DUP1 PUSH4 0x70EFDF2D EQ PUSH2 0x622 JUMPI DUP1 PUSH4 0x7284E416 EQ PUSH2 0x62A JUMPI PUSH2 0x2F4 JUMP JUMPDEST DUP1 PUSH4 0x668A0F02 EQ PUSH2 0x548 JUMPI DUP1 PUSH4 0x6B14DAF8 EQ PUSH2 0x550 JUMPI PUSH2 0x2F4 JUMP JUMPDEST DUP1 PUSH4 0x29937268 GT PUSH2 0x2AC JUMPI DUP1 PUSH4 0x50D25BCD GT PUSH2 0x286 JUMPI DUP1 PUSH4 0x50D25BCD EQ PUSH2 0x40B JUMPI DUP1 PUSH4 0x54FD4D50 EQ PUSH2 0x413 JUMPI DUP1 PUSH4 0x585AA7DE EQ PUSH2 0x41B JUMPI PUSH2 0x2F4 JUMP JUMPDEST DUP1 PUSH4 0x29937268 EQ PUSH2 0x3A4 JUMPI DUP1 PUSH4 0x313CE567 EQ PUSH2 0x3E5 JUMPI DUP1 PUSH4 0x3A5381B5 EQ PUSH2 0x403 JUMPI PUSH2 0x2F4 JUMP JUMPDEST DUP1 PUSH4 0x1327D3D8 GT PUSH2 0x2DD JUMPI DUP1 PUSH4 0x1327D3D8 EQ PUSH2 0x33B JUMPI DUP1 PUSH4 0x1B6B6D23 EQ PUSH2 0x361 JUMPI DUP1 PUSH4 0x22ADBC78 EQ PUSH2 0x385 JUMPI PUSH2 0x2F4 JUMP JUMPDEST DUP1 PUSH4 0xA756983 EQ PUSH2 0x2F9 JUMPI DUP1 PUSH4 0xEAFB25B EQ PUSH2 0x303 JUMPI JUMPDEST PUSH1 0x0 DUP1 REVERT JUMPDEST PUSH2 0x301 PUSH2 0xC6C JUMP JUMPDEST STOP JUMPDEST PUSH2 0x329 PUSH1 0x4 DUP1 CALLDATASIZE SUB PUSH1 0x20 DUP2 LT ISZERO PUSH2 0x319 JUMPI PUSH1 0x0 DUP1 REVERT JUMPDEST POP CALLDATALOAD PUSH1 0x1 PUSH1 0x1 PUSH1 0xA0 SHL SUB AND PUSH2 0xD05 JUMP JUMPDEST PUSH1 0x40 DUP1 MLOAD SWAP2 DUP3 MSTORE MLOAD SWAP1 DUP2 SWAP1 SUB PUSH1 0x20 ADD SWAP1 RETURN JUMPDEST PUSH2 0x301 PUSH1 0x4 DUP1 CALLDATASIZE SUB PUSH1 0x20 DUP2 LT ISZERO PUSH2 0x351 JUMPI PUSH1 0x0 DUP1 REVERT JUMPDEST POP CALLDATALOAD PUSH1 0x1 PUSH1 0x1 PUSH1 0xA0 SHL SUB AND PUSH2 0xE35 JUMP JUMPDEST PUSH2 0x369 PUSH2 0xF1D JUMP JUMPDEST PUSH1 0x40 DUP1 MLOAD PUSH1 0x1 PUSH1 0x1 PUSH1 0xA0 SHL SUB SWAP1 SWAP3 AND DUP3 MSTORE MLOAD SWAP1 DUP2 SWAP1 SUB PUSH1 0x20 ADD SWAP1 RETURN JUMPDEST PUSH2 0x38D PUSH2 0xF41 JUMP JUMPDEST PUSH1 0x40 DUP1 MLOAD PUSH1 0x17 SWAP3 SWAP1 SWAP3 SIGNEXTEND DUP3 MSTORE MLOAD SWAP1 DUP2 SWAP1 SUB PUSH1 0x20 ADD SWAP1 RETURN JUMPDEST PUSH2 0x3AC PUSH2 0xF65 JUMP JUMPDEST PUSH1 0x40 DUP1 MLOAD PUSH4 0xFFFFFFFF SWAP7 DUP8 AND DUP2 MSTORE SWAP5 DUP7 AND PUSH1 0x20 DUP7 ADD MSTORE SWAP3 DUP6 AND DUP5 DUP5 ADD MSTORE SWAP1 DUP5 AND PUSH1 0x60 DUP5 ADD MSTORE SWAP1 SWAP3 AND PUSH1 0x80 DUP3 ADD MSTORE SWAP1 MLOAD SWAP1 DUP2 SWAP1 SUB PUSH1 0xA0 ADD SWAP1 RETURN JUMPDEST PUSH2 0x3ED PUSH2 0xFC7 JUMP JUMPDEST PUSH1 0x40 DUP1 MLOAD PUSH1 0xFF SWAP1 SWAP3 AND DUP3 MSTORE MLOAD SWAP1 DUP2 SWAP1 SUB PUSH1 0x20 ADD SWAP1 RETURN JUMPDEST PUSH2 0x369 PUSH2 0xFEB JUMP JUMPDEST PUSH2 0x329 PUSH2 0x1001 JUMP JUMPDEST PUSH2 0x329 PUSH2 0x108E JUMP JUMPDEST PUSH2 0x301 PUSH1 0x4 DUP1 CALLDATASIZE SUB PUSH1 0xA0 DUP2 LT ISZERO PUSH2 0x431 JUMPI PUSH1 0x0 DUP1 REVERT JUMPDEST DUP2 ADD SWAP1 PUSH1 0x20 DUP2 ADD DUP2 CALLDATALOAD PUSH5 0x100000000 DUP2 GT ISZERO PUSH2 0x44C JUMPI PUSH1 0x0 DUP1 REVERT JUMPDEST DUP3 ADD DUP4 PUSH1 0x20 DUP3 ADD GT ISZERO PUSH2 0x45E JUMPI PUSH1 0x0 DUP1 REVERT JUMPDEST DUP1 CALLDATALOAD SWAP1 PUSH1 0x20 ADD SWAP2 DUP5 PUSH1 0x20 DUP4 MUL DUP5 ADD GT PUSH5 0x100000000 DUP4 GT OR ISZERO PUSH2 0x480 JUMPI PUSH1 0x0 DUP1 REVERT JUMPDEST SWAP2 SWAP4 SWAP1 SWAP3 SWAP1 SWAP2 PUSH1 0x20 DUP2 ADD SWAP1 CALLDATALOAD PUSH5 0x100000000 DUP2 GT ISZERO PUSH2 0x49E JUMPI PUSH1 0x0 DUP1 REVERT JUMPDEST DUP3 ADD DUP4 PUSH1 0x20 DUP3 ADD GT ISZERO PUSH2 0x4B0 JUMPI PUSH1 0x0 DUP1 REVERT JUMPDEST DUP1 CALLDATALOAD SWAP1 PUSH1 0x20 ADD SWAP2 DUP5 PUSH1 0x20 DUP4 MUL DUP5 ADD GT PUSH5 0x100000000 DUP4 GT OR ISZERO PUSH2 0x4D2 JUMPI PUSH1 0x0 DUP1 REVERT JUMPDEST SWAP2 SWAP4 SWAP1 SWAP3 PUSH1 0xFF DUP4 CALLDATALOAD AND SWAP3 PUSH8 0xFFFFFFFFFFFFFFFF PUSH1 0x20 DUP3 ADD CALLDATALOAD AND SWAP3 SWAP2 SWAP1 PUSH1 0x60 DUP2 ADD SWAP1 PUSH1 0x40 ADD CALLDATALOAD PUSH5 0x100000000 DUP2 GT ISZERO PUSH2 0x509 JUMPI PUSH1 0x0 DUP1 REVERT JUMPDEST DUP3 ADD DUP4 PUSH1 0x20 DUP3 ADD GT ISZERO PUSH2 0x51B JUMPI PUSH1 0x0 DUP1 REVERT JUMPDEST DUP1 CALLDATALOAD SWAP1 PUSH1 0x20 ADD SWAP2 DUP5 PUSH1 0x1 DUP4 MUL DUP5 ADD GT PUSH5 0x100000000 DUP4 GT OR ISZERO PUSH2 0x53D JUMPI PUSH1 0x0 DUP1 REVERT JUMPDEST POP SWAP1 SWAP3 POP SWAP1 POP PUSH2 0x1093 JUMP JUMPDEST PUSH2 0x329 PUSH2 0x1861 JUMP JUMPDEST PUSH2 0x606 PUSH1 0x4 DUP1 CALLDATASIZE SUB PUSH1 0x40 DUP2 LT ISZERO PUSH2 0x566 JUMPI PUSH1 0x0 DUP1 REVERT JUMPDEST PUSH1 0x1 PUSH1 0x1 PUSH1 0xA0 SHL SUB DUP3 CALLDATALOAD AND SWAP2 SWAP1 DUP2 ADD SWAP1 PUSH1 0x40 DUP2 ADD PUSH1 0x20 DUP3 ADD CALLDATALOAD PUSH5 0x100000000 DUP2 GT ISZERO PUSH2 0x591 JUMPI PUSH1 0x0 DUP1 REVERT JUMPDEST DUP3 ADD DUP4 PUSH1 0x20 DUP3 ADD GT ISZERO PUSH2 0x5A3 JUMPI PUSH1 0x0 DUP1 REVERT JUMPDEST DUP1 CALLDATALOAD SWAP1 PUSH1 0x20 ADD SWAP2 DUP5 PUSH1 0x1 DUP4 MUL DUP5 ADD GT PUSH5 0x100000000 DUP4 GT OR ISZERO PUSH2 0x5C5 JUMPI PUSH1 0x0 DUP1 REVERT JUMPDEST SWAP2 SWAP1 DUP1 DUP1 PUSH1 0x1F ADD PUSH1 0x20 DUP1 SWAP2 DIV MUL PUSH1 0x20 ADD PUSH1 0x40 MLOAD SWAP1 DUP2 ADD PUSH1 0x40 MSTORE DUP1 SWAP4 SWAP3 SWAP2 SWAP1 DUP2 DUP2 MSTORE PUSH1 0x20 ADD DUP4 DUP4 DUP1 DUP3 DUP5 CALLDATACOPY PUSH1 0x0 SWAP3 ADD SWAP2 SWAP1 SWAP2 MSTORE POP SWAP3 SWAP6 POP PUSH2 0x18E9 SWAP5 POP POP POP POP POP JUMP JUMPDEST PUSH1 0x40 DUP1 MLOAD SWAP2 ISZERO ISZERO DUP3 MSTORE MLOAD SWAP1 DUP2 SWAP1 SUB PUSH1 0x20 ADD SWAP1 RETURN JUMPDEST PUSH2 0x38D PUSH2 0x1911 JUMP JUMPDEST PUSH2 0x369 PUSH2 0x1935 JUMP JUMPDEST PUSH2 0x632 PUSH2 0x1944 JUMP JUMPDEST PUSH1 0x40 DUP1 MLOAD PUSH1 0x20 DUP1 DUP3 MSTORE DUP4 MLOAD DUP2 DUP4 ADD MSTORE DUP4 MLOAD SWAP2 SWAP3 DUP4 SWAP3 SWAP1 DUP4 ADD SWAP2 DUP6 ADD SWAP1 DUP1 DUP4 DUP4 PUSH1 0x0 JUMPDEST DUP4 DUP2 LT ISZERO PUSH2 0x66C JUMPI DUP2 DUP2 ADD MLOAD DUP4 DUP3 ADD MSTORE PUSH1 0x20 ADD PUSH2 0x654 JUMP JUMPDEST POP POP POP POP SWAP1 POP SWAP1 DUP2 ADD SWAP1 PUSH1 0x1F AND DUP1 ISZERO PUSH2 0x699 JUMPI DUP1 DUP3 SUB DUP1 MLOAD PUSH1 0x1 DUP4 PUSH1 0x20 SUB PUSH2 0x100 EXP SUB NOT AND DUP2 MSTORE PUSH1 0x20 ADD SWAP2 POP JUMPDEST POP SWAP3 POP POP POP PUSH1 0x40 MLOAD DUP1 SWAP2 SUB SWAP1 RETURN JUMPDEST PUSH2 0x301 PUSH2 0x19CC JUMP JUMPDEST PUSH2 0x301 PUSH2 0x1A82 JUMP JUMPDEST PUSH2 0x6BF PUSH2 0x1B1C JUMP JUMPDEST PUSH1 0x40 DUP1 MLOAD PUSH1 0x20 DUP1 DUP3 MSTORE DUP4 MLOAD DUP2 DUP4 ADD MSTORE DUP4 MLOAD SWAP2 SWAP3 DUP4 SWAP3 SWAP1 DUP4 ADD SWAP2 DUP6 DUP2 ADD SWAP2 MUL DUP1 DUP4 DUP4 PUSH1 0x0 JUMPDEST DUP4 DUP2 LT ISZERO PUSH2 0x6FB JUMPI DUP2 DUP2 ADD MLOAD DUP4 DUP3 ADD MSTORE PUSH1 0x20 ADD PUSH2 0x6E3 JUMP JUMPDEST POP POP POP POP SWAP1 POP ADD SWAP3 POP POP POP PUSH1 0x40 MLOAD DUP1 SWAP2 SUB SWAP1 RETURN JUMPDEST PUSH2 0x717 PUSH2 0x1B7E JUMP JUMPDEST PUSH1 0x40 DUP1 MLOAD PUSH4 0xFFFFFFFF SWAP5 DUP6 AND DUP2 MSTORE SWAP3 SWAP1 SWAP4 AND PUSH1 0x20 DUP4 ADD MSTORE PUSH16 0xFFFFFFFFFFFFFFFFFFFFFFFFFFFFFFFF NOT AND DUP2 DUP4 ADD MSTORE SWAP1 MLOAD SWAP1 DUP2 SWAP1 SUB PUSH1 0x60 ADD SWAP1 RETURN JUMPDEST PUSH2 0x329 PUSH2 0x1B9F JUMP JUMPDEST PUSH2 0x301 PUSH1 0x4 DUP1 CALLDATASIZE SUB PUSH1 0x20 DUP2 LT ISZERO PUSH2 0x76F JUMPI PUSH1 0x0 DUP1 REVERT JUMPDEST POP CALLDATALOAD PUSH1 0x1 PUSH1 0x1 PUSH1 0xA0 SHL SUB AND PUSH2 0x1C27 JUMP JUMPDEST PUSH2 0x301 PUSH1 0x4 DUP1 CALLDATASIZE SUB PUSH1 0x20 DUP2 LT ISZERO PUSH2 0x795 JUMPI PUSH1 0x0 DUP1 REVERT JUMPDEST POP CALLDATALOAD PUSH1 0x1 PUSH1 0x1 PUSH1 0xA0 SHL SUB AND PUSH2 0x1CF9 JUMP JUMPDEST PUSH2 0x369 PUSH2 0x1D70 JUMP JUMPDEST PUSH2 0x7B5 PUSH2 0x1D7F JUMP JUMPDEST PUSH1 0x40 DUP1 MLOAD PUSH10 0xFFFFFFFFFFFFFFFFFFFF SWAP1 SWAP3 AND DUP3 MSTORE MLOAD SWAP1 DUP2 SWAP1 SUB PUSH1 0x20 ADD SWAP1 RETURN JUMPDEST PUSH2 0x369 PUSH2 0x1F5B JUMP JUMPDEST PUSH2 0x805 PUSH1 0x4 DUP1 CALLDATASIZE SUB PUSH1 0x20 DUP2 LT ISZERO PUSH2 0x7F2 JUMPI PUSH1 0x0 DUP1 REVERT JUMPDEST POP CALLDATALOAD PUSH10 0xFFFFFFFFFFFFFFFFFFFF AND PUSH2 0x1F6A JUMP JUMPDEST PUSH1 0x40 MLOAD DUP1 DUP7 PUSH10 0xFFFFFFFFFFFFFFFFFFFF AND DUP2 MSTORE PUSH1 0x20 ADD DUP6 DUP2 MSTORE PUSH1 0x20 ADD DUP5 DUP2 MSTORE PUSH1 0x20 ADD DUP4 DUP2 MSTORE PUSH1 0x20 ADD DUP3 PUSH10 0xFFFFFFFFFFFFFFFFFFFF AND DUP2 MSTORE PUSH1 0x20 ADD SWAP6 POP POP POP POP POP POP PUSH1 0x40 MLOAD DUP1 SWAP2 SUB SWAP1 RETURN JUMPDEST PUSH2 0x301 PUSH1 0x4 DUP1 CALLDATASIZE SUB PUSH1 0x40 DUP2 LT ISZERO PUSH2 0x865 JUMPI PUSH1 0x0 DUP1 REVERT JUMPDEST DUP2 ADD SWAP1 PUSH1 0x20 DUP2 ADD DUP2 CALLDATALOAD PUSH5 0x100000000 DUP2 GT ISZERO PUSH2 0x880 JUMPI PUSH1 0x0 DUP1 REVERT JUMPDEST DUP3 ADD DUP4 PUSH1 0x20 DUP3 ADD GT ISZERO PUSH2 0x892 JUMPI PUSH1 0x0 DUP1 REVERT JUMPDEST DUP1 CALLDATALOAD SWAP1 PUSH1 0x20 ADD SWAP2 DUP5 PUSH1 0x20 DUP4 MUL DUP5 ADD GT PUSH5 0x100000000 DUP4 GT OR ISZERO PUSH2 0x8B4 JUMPI PUSH1 0x0 DUP1 REVERT JUMPDEST SWAP2 SWAP4 SWAP1 SWAP3 SWAP1 SWAP2 PUSH1 0x20 DUP2 ADD SWAP1 CALLDATALOAD PUSH5 0x100000000 DUP2 GT ISZERO PUSH2 0x8D2 JUMPI PUSH1 0x0 DUP1 REVERT JUMPDEST DUP3 ADD DUP4 PUSH1 0x20 DUP3 ADD GT ISZERO PUSH2 0x8E4 JUMPI PUSH1 0x0 DUP1 REVERT JUMPDEST DUP1 CALLDATALOAD SWAP1 PUSH1 0x20 ADD SWAP2 DUP5 PUSH1 0x20 DUP4 MUL DUP5 ADD GT PUSH5 0x100000000 DUP4 GT OR ISZERO PUSH2 0x906 JUMPI PUSH1 0x0 DUP1 REVERT JUMPDEST POP SWAP1 SWAP3 POP SWAP1 POP PUSH2 0x200B JUMP JUMPDEST PUSH2 0x301 PUSH1 0x4 DUP1 CALLDATASIZE SUB PUSH1 0x20 DUP2 LT ISZERO PUSH2 0x927 JUMPI PUSH1 0x0 DUP1 REVERT JUMPDEST POP CALLDATALOAD PUSH1 0x1 PUSH1 0x1 PUSH1 0xA0 SHL SUB AND PUSH2 0x2225 JUMP JUMPDEST PUSH2 0x301 PUSH1 0x4 DUP1 CALLDATASIZE SUB PUSH1 0x20 DUP2 LT ISZERO PUSH2 0x94D JUMPI PUSH1 0x0 DUP1 REVERT JUMPDEST POP CALLDATALOAD PUSH1 0x1 PUSH1 0x1 PUSH1 0xA0 SHL SUB AND PUSH2 0x22F4 JUMP JUMPDEST PUSH2 0x301 PUSH1 0x4 DUP1 CALLDATASIZE SUB PUSH1 0x20 DUP2 LT ISZERO PUSH2 0x973 JUMPI PUSH1 0x0 DUP1 REVERT JUMPDEST POP CALLDATALOAD PUSH1 0x1 PUSH1 0x1 PUSH1 0xA0 SHL SUB AND PUSH2 0x2355 JUMP JUMPDEST PUSH2 0x329 PUSH1 0x4 DUP1 CALLDATASIZE SUB PUSH1 0x20 DUP2 LT ISZERO PUSH2 0x999 JUMPI PUSH1 0x0 DUP1 REVERT JUMPDEST POP CALLDATALOAD PUSH2 0x2436 JUMP JUMPDEST PUSH2 0x329 PUSH1 0x4 DUP1 CALLDATASIZE SUB PUSH1 0x20 DUP2 LT ISZERO PUSH2 0x9B6 JUMPI PUSH1 0x0 DUP1 REVERT JUMPDEST POP CALLDATALOAD PUSH2 0x24BF JUMP JUMPDEST PUSH2 0x301 PUSH1 0x4 DUP1 CALLDATASIZE SUB PUSH1 0xA0 DUP2 LT ISZERO PUSH2 0x9D3 JUMPI PUSH1 0x0 DUP1 REVERT JUMPDEST POP PUSH4 0xFFFFFFFF DUP2 CALLDATALOAD DUP2 AND SWAP2 PUSH1 0x20 DUP2 ADD CALLDATALOAD DUP3 AND SWAP2 PUSH1 0x40 DUP3 ADD CALLDATALOAD DUP2 AND SWAP2 PUSH1 0x60 DUP2 ADD CALLDATALOAD DUP3 AND SWAP2 PUSH1 0x80 SWAP1 SWAP2 ADD CALLDATALOAD AND PUSH2 0x2548 JUMP JUMPDEST PUSH2 0x301 PUSH1 0x4 DUP1 CALLDATASIZE SUB PUSH1 0x40 DUP2 LT ISZERO PUSH2 0xA18 JUMPI PUSH1 0x0 DUP1 REVERT JUMPDEST POP PUSH1 0x1 PUSH1 0x1 PUSH1 0xA0 SHL SUB DUP2 CALLDATALOAD AND SWAP1 PUSH1 0x20 ADD CALLDATALOAD PUSH2 0x2677 JUMP JUMPDEST PUSH2 0x301 PUSH1 0x4 DUP1 CALLDATASIZE SUB PUSH1 0x80 DUP2 LT ISZERO PUSH2 0xA44 JUMPI PUSH1 0x0 DUP1 REVERT JUMPDEST DUP2 ADD SWAP1 PUSH1 0x20 DUP2 ADD DUP2 CALLDATALOAD PUSH5 0x100000000 DUP2 GT ISZERO PUSH2 0xA5F JUMPI PUSH1 0x0 DUP1 REVERT JUMPDEST DUP3 ADD DUP4 PUSH1 0x20 DUP3 ADD GT ISZERO PUSH2 0xA71 JUMPI PUSH1 0x0 DUP1 REVERT JUMPDEST DUP1 CALLDATALOAD SWAP1 PUSH1 0x20 ADD SWAP2 DUP5 PUSH1 0x1 DUP4 MUL DUP5 ADD GT PUSH5 0x100000000 DUP4 GT OR ISZERO PUSH2 0xA93 JUMPI PUSH1 0x0 DUP1 REVERT JUMPDEST SWAP2 SWAP4 SWAP1 SWAP3 SWAP1 SWAP2 PUSH1 0x20 DUP2 ADD SWAP1 CALLDATALOAD PUSH5 0x100000000 DUP2 GT ISZERO PUSH2 0xAB1 JUMPI PUSH1 0x0 DUP1 REVERT JUMPDEST DUP3 ADD DUP4 PUSH1 0x20 DUP3 ADD GT ISZERO PUSH2 0xAC3 JUMPI PUSH1 0x0 DUP1 REVERT JUMPDEST DUP1 CALLDATALOAD SWAP1 PUSH1 0x20 ADD SWAP2 DUP5 PUSH1 0x20 DUP4 MUL DUP5 ADD GT PUSH5 0x100000000 DUP4 GT OR ISZERO PUSH2 0xAE5 JUMPI PUSH1 0x0 DUP1 REVERT JUMPDEST SWAP2 SWAP4 SWAP1 SWAP3 SWAP1 SWAP2 PUSH1 0x20 DUP2 ADD SWAP1 CALLDATALOAD PUSH5 0x100000000 DUP2 GT ISZERO PUSH2 0xB03 JUMPI PUSH1 0x0 DUP1 REVERT JUMPDEST DUP3 ADD DUP4 PUSH1 0x20 DUP3 ADD GT ISZERO PUSH2 0xB15 JUMPI PUSH1 0x0 DUP1 REVERT JUMPDEST DUP1 CALLDATALOAD SWAP1 PUSH1 0x20 ADD SWAP2 DUP5 PUSH1 0x20 DUP4 MUL DUP5 ADD GT PUSH5 0x100000000 DUP4 GT OR ISZERO PUSH2 0xB37 JUMPI PUSH1 0x0 DUP1 REVERT JUMPDEST SWAP2 SWAP4 POP SWAP2 POP CALLDATALOAD PUSH2 0x2982 JUMP JUMPDEST PUSH2 0x329 PUSH2 0x37AC JUMP JUMPDEST PUSH2 0x606 PUSH2 0x385D JUMP JUMPDEST PUSH2 0xB78 PUSH1 0x4 DUP1 CALLDATASIZE SUB PUSH1 0x20 DUP2 LT ISZERO PUSH2 0xB68 JUMPI PUSH1 0x0 DUP1 REVERT JUMPDEST POP CALLDATALOAD PUSH1 0x1 PUSH1 0x1 PUSH1 0xA0 SHL SUB AND PUSH2 0x3866 JUMP JUMPDEST PUSH1 0x40 DUP1 MLOAD PUSH2 0xFFFF SWAP1 SWAP3 AND DUP3 MSTORE MLOAD SWAP1 DUP2 SWAP1 SUB PUSH1 0x20 ADD SWAP1 RETURN JUMPDEST PUSH2 0xB97 PUSH2 0x3913 JUMP JUMPDEST PUSH1 0x40 DUP1 MLOAD PUSH16 0xFFFFFFFFFFFFFFFFFFFFFFFFFFFFFFFF NOT SWAP1 SWAP7 AND DUP7 MSTORE PUSH4 0xFFFFFFFF SWAP1 SWAP5 AND PUSH1 0x20 DUP7 ADD MSTORE PUSH1 0xFF SWAP1 SWAP3 AND DUP5 DUP5 ADD MSTORE PUSH1 0x17 SIGNEXTEND PUSH1 0x60 DUP5 ADD MSTORE PUSH8 0xFFFFFFFFFFFFFFFF AND PUSH1 0x80 DUP4 ADD MSTORE MLOAD SWAP1 DUP2 SWAP1 SUB PUSH1 0xA0 ADD SWAP1 RETURN JUMPDEST PUSH2 0x301 PUSH1 0x4 DUP1 CALLDATASIZE SUB PUSH1 0x40 DUP2 LT ISZERO PUSH2 0xC00 JUMPI PUSH1 0x0 DUP1 REVERT JUMPDEST POP PUSH1 0x1 PUSH1 0x1 PUSH1 0xA0 SHL SUB DUP2 CALLDATALOAD DUP2 AND SWAP2 PUSH1 0x20 ADD CALLDATALOAD AND PUSH2 0x39CD JUMP JUMPDEST PUSH2 0x301 PUSH1 0x4 DUP1 CALLDATASIZE SUB PUSH1 0x20 DUP2 LT ISZERO PUSH2 0xC2E JUMPI PUSH1 0x0 DUP1 REVERT JUMPDEST POP CALLDATALOAD PUSH1 0x1 PUSH1 0x1 PUSH1 0xA0 SHL SUB AND PUSH2 0x3B11 JUMP JUMPDEST PUSH2 0x301 PUSH1 0x4 DUP1 CALLDATASIZE SUB PUSH1 0x20 DUP2 LT ISZERO PUSH2 0xC54 JUMPI PUSH1 0x0 DUP1 REVERT JUMPDEST POP CALLDATALOAD PUSH1 0x1 PUSH1 0x1 PUSH1 0xA0 SHL SUB AND PUSH2 0x3BBA JUMP JUMPDEST PUSH2 0x805 PUSH2 0x3C1B JUMP JUMPDEST PUSH1 0x0 SLOAD PUSH1 0x1 PUSH1 0x1 PUSH1 0xA0 SHL SUB AND CALLER EQ PUSH2 0xCC4 JUMPI PUSH1 0x40 DUP1 MLOAD PUSH3 0x461BCD PUSH1 0xE5 SHL DUP2 MSTORE PUSH1 0x20 PUSH1 0x4 DUP3 ADD MSTORE PUSH1 0x16 PUSH1 0x24 DUP3 ADD MSTORE PUSH22 0x27B7363C9031B0B63630B1363290313C9037BBB732B9 PUSH1 0x51 SHL PUSH1 0x44 DUP3 ADD MSTORE SWAP1 MLOAD SWAP1 DUP2 SWAP1 SUB PUSH1 0x64 ADD SWAP1 REVERT JUMPDEST PUSH1 0x2F SLOAD PUSH1 0xFF AND ISZERO PUSH2 0xD03 JUMPI PUSH1 0x2F DUP1 SLOAD PUSH1 0xFF NOT AND SWAP1 SSTORE PUSH1 0x40 MLOAD PUSH32 0x3BE8A977A014527B50AE38ADDA80B56911C267328965C98DDC385D248F539638 SWAP1 PUSH1 0x0 SWAP1 LOG1 JUMPDEST JUMP JUMPDEST PUSH1 0x1 PUSH1 0x1 PUSH1 0xA0 SHL SUB DUP2 AND PUSH1 0x0 SWAP1 DUP2 MSTORE PUSH1 0x27 PUSH1 0x20 SWAP1 DUP2 MSTORE PUSH1 0x40 DUP1 DUP4 KECCAK256 DUP2 MLOAD DUP1 DUP4 ADD SWAP1 SWAP3 MSTORE DUP1 SLOAD PUSH1 0xFF DUP1 DUP3 AND DUP5 MSTORE DUP6 SWAP5 DUP5 ADD SWAP2 PUSH2 0x100 SWAP1 DIV AND PUSH1 0x2 DUP2 GT ISZERO PUSH2 0xD47 JUMPI INVALID JUMPDEST PUSH1 0x2 DUP2 GT ISZERO PUSH2 0xD52 JUMPI INVALID JUMPDEST SWAP1 MSTORE POP SWAP1 POP PUSH1 0x0 DUP2 PUSH1 0x20 ADD MLOAD PUSH1 0x2 DUP2 GT ISZERO PUSH2 0xD69 JUMPI INVALID JUMPDEST EQ ISZERO PUSH2 0xD79 JUMPI PUSH1 0x0 SWAP2 POP POP PUSH2 0xE30 JUMP JUMPDEST PUSH1 0x40 DUP1 MLOAD PUSH1 0xA0 DUP2 ADD DUP3 MSTORE PUSH1 0x2 SLOAD PUSH4 0xFFFFFFFF DUP1 DUP3 AND DUP4 MSTORE PUSH5 0x100000000 DUP3 DIV DUP2 AND PUSH1 0x20 DUP5 ADD MSTORE PUSH1 0x1 PUSH1 0x40 SHL DUP3 DIV DUP2 AND SWAP4 DUP4 ADD SWAP4 SWAP1 SWAP4 MSTORE PUSH1 0x1 PUSH1 0x60 SHL DUP2 DIV DUP4 AND PUSH1 0x60 DUP4 ADD DUP2 SWAP1 MSTORE PUSH1 0x1 PUSH1 0x80 SHL SWAP1 SWAP2 DIV SWAP1 SWAP3 AND PUSH1 0x80 DUP3 ADD MSTORE DUP3 MLOAD SWAP1 SWAP2 PUSH1 0x0 SWAP2 PUSH1 0x1 SWAP1 PUSH1 0x4 SWAP1 PUSH1 0xFF AND PUSH1 0x1F DUP2 LT PUSH2 0xDE9 JUMPI INVALID JUMPDEST PUSH1 0x10 SWAP2 DUP3 DUP3 DIV ADD SWAP2 SWAP1 MOD PUSH1 0x2 MUL SWAP1 SLOAD SWAP1 PUSH2 0x100 EXP SWAP1 DIV PUSH2 0xFFFF AND SUB PUSH2 0xFFFF AND MUL PUSH4 0x3B9ACA00 MUL SWAP1 POP PUSH1 0x1 PUSH1 0x8 DUP5 PUSH1 0x0 ADD MLOAD PUSH1 0xFF AND PUSH1 0x1F DUP2 LT PUSH2 0xE27 JUMPI INVALID JUMPDEST ADD SLOAD SUB ADD SWAP3 POP POP POP JUMPDEST SWAP2 SWAP1 POP JUMP JUMPDEST PUSH1 0x0 SLOAD PUSH1 0x1 PUSH1 0x1 PUSH1 0xA0 SHL SUB AND CALLER EQ PUSH2 0xE8D JUMPI PUSH1 0x40 DUP1 MLOAD PUSH3 0x461BCD PUSH1 0xE5 SHL DUP2 MSTORE PUSH1 0x20 PUSH1 0x4 DUP3 ADD MSTORE PUSH1 0x16 PUSH1 0x24 DUP3 ADD MSTORE PUSH22 0x27B7363C9031B0B63630B1363290313C9037BBB732B9 PUSH1 0x51 SHL PUSH1 0x44 DUP3 ADD MSTORE SWAP1 MLOAD SWAP1 DUP2 SWAP1 SUB PUSH1 0x64 ADD SWAP1 REVERT JUMPDEST PUSH1 0x2C SLOAD PUSH1 0x1 PUSH1 0x1 PUSH1 0xA0 SHL SUB PUSH1 0x1 PUSH1 0x40 SHL SWAP1 SWAP2 DIV DUP2 AND SWAP1 DUP3 AND DUP2 EQ PUSH2 0xF19 JUMPI PUSH1 0x2C DUP1 SLOAD PUSH32 0xFFFFFFFF0000000000000000000000000000000000000000FFFFFFFFFFFFFFFF AND PUSH1 0x1 PUSH1 0x40 SHL PUSH1 0x1 PUSH1 0x1 PUSH1 0xA0 SHL SUB DUP6 DUP2 AND SWAP2 DUP3 MUL SWAP3 SWAP1 SWAP3 OR SWAP1 SWAP3 SSTORE PUSH1 0x40 MLOAD SWAP1 DUP4 AND SWAP1 PUSH32 0xCFAC5DC75B8D9A7E074162F59D9ADCD33DA59F0FE8DFB21580DB298FC0FDAD0D SWAP1 PUSH1 0x0 SWAP1 LOG3 JUMPDEST POP POP JUMP JUMPDEST PUSH32 0x0 DUP2 JUMP JUMPDEST PUSH32 0x0 DUP2 JUMP JUMPDEST PUSH1 0x40 DUP1 MLOAD PUSH1 0xA0 DUP2 ADD DUP3 MSTORE PUSH1 0x2 SLOAD PUSH4 0xFFFFFFFF DUP1 DUP3 AND DUP1 DUP5 MSTORE PUSH5 0x100000000 DUP4 DIV DUP3 AND PUSH1 0x20 DUP6 ADD DUP2 SWAP1 MSTORE PUSH1 0x1 PUSH1 0x40 SHL DUP5 DIV DUP4 AND SWAP6 DUP6 ADD DUP7 SWAP1 MSTORE PUSH1 0x1 PUSH1 0x60 SHL DUP5 DIV DUP4 AND PUSH1 0x60 DUP7 ADD DUP2 SWAP1 MSTORE PUSH1 0x1 PUSH1 0x80 SHL SWAP1 SWAP5 DIV SWAP1 SWAP3 AND PUSH1 0x80 SWAP1 SWAP5 ADD DUP5 SWAP1 MSTORE SWAP5 SWAP1 SWAP4 SWAP3 SWAP1 JUMP JUMPDEST PUSH32 0x0 DUP2 JUMP JUMPDEST PUSH1 0x2C SLOAD PUSH1 0x1 PUSH1 0x40 SHL SWAP1 DIV PUSH1 0x1 PUSH1 0x1 PUSH1 0xA0 SHL SUB AND SWAP1 JUMP JUMPDEST PUSH1 0x0 PUSH2 0x1044 CALLER PUSH1 0x0 CALLDATASIZE DUP1 DUP1 PUSH1 0x1F ADD PUSH1 0x20 DUP1 SWAP2 DIV MUL PUSH1 0x20 ADD PUSH1 0x40 MLOAD SWAP1 DUP2 ADD PUSH1 0x40 MSTORE DUP1 SWAP4 SWAP3 SWAP2 SWAP1 DUP2 DUP2 MSTORE PUSH1 0x20 ADD DUP4 DUP4 DUP1 DUP3 DUP5 CALLDATACOPY PUSH1 0x0 SWAP3 ADD SWAP2 SWAP1 SWAP2 MSTORE POP PUSH2 0x18E9 SWAP3 POP POP POP JUMP JUMPDEST PUSH2 0x1081 JUMPI PUSH1 0x40 DUP1 MLOAD PUSH3 0x461BCD PUSH1 0xE5 SHL DUP2 MSTORE PUSH1 0x20 PUSH1 0x4 DUP3 ADD MSTORE PUSH1 0x9 PUSH1 0x24 DUP3 ADD MSTORE PUSH9 0x4E6F20616363657373 PUSH1 0xB8 SHL PUSH1 0x44 DUP3 ADD MSTORE SWAP1 MLOAD SWAP1 DUP2 SWAP1 SUB PUSH1 0x64 ADD SWAP1 REVERT JUMPDEST PUSH2 0x1089 PUSH2 0x3CBA JUMP JUMPDEST SWAP1 POP SWAP1 JUMP JUMPDEST PUSH1 0x4 DUP2 JUMP JUMPDEST DUP7 DUP6 PUSH1 0xFF DUP7 AND PUSH1 0x1F DUP4 GT ISZERO PUSH2 0x10EF JUMPI PUSH1 0x40 DUP1 MLOAD PUSH3 0x461BCD PUSH1 0xE5 SHL DUP2 MSTORE PUSH1 0x20 PUSH1 0x4 DUP3 ADD MSTORE PUSH1 0x10 PUSH1 0x24 DUP3 ADD MSTORE PUSH32 0x746F6F206D616E79207369676E65727300000000000000000000000000000000 PUSH1 0x44 DUP3 ADD MSTORE SWAP1 MLOAD SWAP1 DUP2 SWAP1 SUB PUSH1 0x64 ADD SWAP1 REVERT JUMPDEST PUSH1 0x0 DUP2 GT PUSH2 0x1144 JUMPI PUSH1 0x40 DUP1 MLOAD PUSH3 0x461BCD PUSH1 0xE5 SHL DUP2 MSTORE PUSH1 0x20 PUSH1 0x4 DUP3 ADD MSTORE PUSH1 0x1A PUSH1 0x24 DUP3 ADD MSTORE PUSH32 0x7468726573686F6C64206D75737420626520706F736974697665000000000000 PUSH1 0x44 DUP3 ADD MSTORE SWAP1 MLOAD SWAP1 DUP2 SWAP1 SUB PUSH1 0x64 ADD SWAP1 REVERT JUMPDEST DUP2 DUP4 EQ PUSH2 0x1182 JUMPI PUSH1 0x40 MLOAD PUSH3 0x461BCD PUSH1 0xE5 SHL DUP2 MSTORE PUSH1 0x4 ADD DUP1 DUP1 PUSH1 0x20 ADD DUP3 DUP2 SUB DUP3 MSTORE PUSH1 0x24 DUP2 MSTORE PUSH1 0x20 ADD DUP1 PUSH2 0x506A PUSH1 0x24 SWAP2 CODECOPY PUSH1 0x40 ADD SWAP2 POP POP PUSH1 0x40 MLOAD DUP1 SWAP2 SUB SWAP1 REVERT JUMPDEST DUP1 PUSH1 0x3 MUL DUP4 GT PUSH2 0x11D9 JUMPI PUSH1 0x40 DUP1 MLOAD PUSH3 0x461BCD PUSH1 0xE5 SHL DUP2 MSTORE PUSH1 0x20 PUSH1 0x4 DUP3 ADD DUP2 SWAP1 MSTORE PUSH1 0x24 DUP3 ADD MSTORE PUSH32 0x6661756C74792D6F7261636C65207468726573686F6C6420746F6F2068696768 PUSH1 0x44 DUP3 ADD MSTORE SWAP1 MLOAD SWAP1 DUP2 SWAP1 SUB PUSH1 0x64 ADD SWAP1 REVERT JUMPDEST PUSH1 0x0 SLOAD PUSH1 0x1 PUSH1 0x1 PUSH1 0xA0 SHL SUB AND CALLER EQ PUSH2 0x1231 JUMPI PUSH1 0x40 DUP1 MLOAD PUSH3 0x461BCD PUSH1 0xE5 SHL DUP2 MSTORE PUSH1 0x20 PUSH1 0x4 DUP3 ADD MSTORE PUSH1 0x16 PUSH1 0x24 DUP3 ADD MSTORE PUSH22 0x27B7363C9031B0B63630B1363290313C9037BBB732B9 PUSH1 0x51 SHL PUSH1 0x44 DUP3 ADD MSTORE SWAP1 MLOAD SWAP1 DUP2 SWAP1 SUB PUSH1 0x64 ADD SWAP1 REVERT JUMPDEST PUSH1 0x28 SLOAD ISZERO PUSH2 0x132E JUMPI PUSH1 0x28 DUP1 SLOAD PUSH1 0x0 NOT DUP2 ADD SWAP2 PUSH1 0x0 SWAP2 DUP4 SWAP1 DUP2 LT PUSH2 0x1250 JUMPI INVALID JUMPDEST PUSH1 0x0 SWAP2 DUP3 MSTORE PUSH1 0x20 DUP3 KECCAK256 ADD SLOAD PUSH1 0x29 DUP1 SLOAD PUSH1 0x1 PUSH1 0x1 PUSH1 0xA0 SHL SUB SWAP1 SWAP3 AND SWAP4 POP SWAP1 DUP5 SWAP1 DUP2 LT PUSH2 0x1277 JUMPI INVALID JUMPDEST PUSH1 0x0 SWAP2 DUP3 MSTORE PUSH1 0x20 SWAP1 SWAP2 KECCAK256 ADD SLOAD PUSH1 0x1 PUSH1 0x1 PUSH1 0xA0 SHL SUB AND SWAP1 POP PUSH2 0x1297 DUP2 PUSH2 0x3CE3 JUMP JUMPDEST PUSH1 0x1 PUSH1 0x1 PUSH1 0xA0 SHL SUB DUP1 DUP4 AND PUSH1 0x0 SWAP1 DUP2 MSTORE PUSH1 0x27 PUSH1 0x20 MSTORE PUSH1 0x40 DUP1 DUP3 KECCAK256 DUP1 SLOAD PUSH2 0xFFFF NOT SWAP1 DUP2 AND SWAP1 SWAP2 SSTORE SWAP3 DUP5 AND DUP3 MSTORE SWAP1 KECCAK256 DUP1 SLOAD SWAP1 SWAP2 AND SWAP1 SSTORE PUSH1 0x28 DUP1 SLOAD DUP1 PUSH2 0x12D6 JUMPI INVALID JUMPDEST PUSH1 0x0 DUP3 DUP2 MSTORE PUSH1 0x20 SWAP1 KECCAK256 DUP2 ADD PUSH1 0x0 NOT SWAP1 DUP2 ADD DUP1 SLOAD PUSH1 0x1 PUSH1 0x1 PUSH1 0xA0 SHL SUB NOT AND SWAP1 SSTORE ADD SWAP1 SSTORE PUSH1 0x29 DUP1 SLOAD DUP1 PUSH2 0x1303 JUMPI INVALID JUMPDEST PUSH1 0x0 DUP3 DUP2 MSTORE PUSH1 0x20 SWAP1 KECCAK256 DUP2 ADD PUSH1 0x0 NOT SWAP1 DUP2 ADD DUP1 SLOAD PUSH1 0x1 PUSH1 0x1 PUSH1 0xA0 SHL SUB NOT AND SWAP1 SSTORE ADD SWAP1 SSTORE POP PUSH2 0x1231 SWAP2 POP POP JUMP JUMPDEST PUSH1 0x0 JUMPDEST DUP11 DUP2 LT ISZERO PUSH2 0x1696 JUMPI PUSH1 0x0 PUSH1 0x27 PUSH1 0x0 DUP15 DUP15 DUP6 DUP2 DUP2 LT PUSH2 0x134B JUMPI INVALID JUMPDEST PUSH1 0x20 SWAP1 DUP2 MUL SWAP3 SWAP1 SWAP3 ADD CALLDATALOAD PUSH1 0x1 PUSH1 0x1 PUSH1 0xA0 SHL SUB AND DUP4 MSTORE POP DUP2 ADD SWAP2 SWAP1 SWAP2 MSTORE PUSH1 0x40 ADD PUSH1 0x0 KECCAK256 SLOAD PUSH2 0x100 SWAP1 DIV PUSH1 0xFF AND PUSH1 0x2 DUP2 GT ISZERO PUSH2 0x1381 JUMPI INVALID JUMPDEST EQ PUSH2 0x13D3 JUMPI PUSH1 0x40 DUP1 MLOAD PUSH3 0x461BCD PUSH1 0xE5 SHL DUP2 MSTORE PUSH1 0x20 PUSH1 0x4 DUP3 ADD MSTORE PUSH1 0x17 PUSH1 0x24 DUP3 ADD MSTORE PUSH32 0x7265706561746564207369676E65722061646472657373000000000000000000 PUSH1 0x44 DUP3 ADD MSTORE SWAP1 MLOAD SWAP1 DUP2 SWAP1 SUB PUSH1 0x64 ADD SWAP1 REVERT JUMPDEST PUSH1 0x40 DUP1 MLOAD DUP1 DUP3 ADD SWAP1 SWAP2 MSTORE PUSH1 0xFF DUP3 AND DUP2 MSTORE PUSH1 0x1 PUSH1 0x20 DUP3 ADD MSTORE PUSH1 0x27 PUSH1 0x0 DUP15 DUP15 DUP6 DUP2 DUP2 LT PUSH2 0x13FA JUMPI INVALID JUMPDEST PUSH1 0x20 SWAP1 DUP2 MUL SWAP3 SWAP1 SWAP3 ADD CALLDATALOAD PUSH1 0x1 PUSH1 0x1 PUSH1 0xA0 SHL SUB AND DUP4 MSTORE POP DUP2 DUP2 ADD SWAP3 SWAP1 SWAP3 MSTORE PUSH1 0x40 ADD PUSH1 0x0 KECCAK256 DUP3 MLOAD DUP2 SLOAD PUSH1 0xFF NOT AND PUSH1 0xFF SWAP1 SWAP2 AND OR DUP1 DUP3 SSTORE SWAP2 DUP4 ADD MLOAD SWAP1 SWAP2 DUP3 SWAP1 PUSH2 0xFF00 NOT AND PUSH2 0x100 DUP4 PUSH1 0x2 DUP2 GT ISZERO PUSH2 0x144A JUMPI INVALID JUMPDEST MUL OR SWAP1 SSTORE POP PUSH1 0x0 SWAP2 POP PUSH1 0x6 SWAP1 POP DUP2 DUP13 DUP13 DUP6 DUP2 DUP2 LT PUSH2 0x1464 JUMPI INVALID JUMPDEST PUSH1 0x1 PUSH1 0x1 PUSH1 0xA0 SHL SUB PUSH1 0x20 SWAP2 DUP3 MUL SWAP4 SWAP1 SWAP4 ADD CALLDATALOAD DUP4 AND DUP5 MSTORE DUP4 ADD SWAP4 SWAP1 SWAP4 MSTORE PUSH1 0x40 SWAP1 SWAP2 ADD PUSH1 0x0 KECCAK256 SLOAD AND SWAP2 SWAP1 SWAP2 EQ ISZERO SWAP1 POP PUSH2 0x14E2 JUMPI PUSH1 0x40 DUP1 MLOAD PUSH3 0x461BCD PUSH1 0xE5 SHL DUP2 MSTORE PUSH1 0x20 PUSH1 0x4 DUP3 ADD MSTORE PUSH1 0x11 PUSH1 0x24 DUP3 ADD MSTORE PUSH32 0x7061796565206D75737420626520736574000000000000000000000000000000 PUSH1 0x44 DUP3 ADD MSTORE SWAP1 MLOAD SWAP1 DUP2 SWAP1 SUB PUSH1 0x64 ADD SWAP1 REVERT JUMPDEST PUSH1 0x0 PUSH1 0x27 PUSH1 0x0 DUP13 DUP13 DUP6 DUP2 DUP2 LT PUSH2 0x14F4 JUMPI INVALID JUMPDEST PUSH1 0x20 SWAP1 DUP2 MUL SWAP3 SWAP1 SWAP3 ADD CALLDATALOAD PUSH1 0x1 PUSH1 0x1 PUSH1 0xA0 SHL SUB AND DUP4 MSTORE POP DUP2 ADD SWAP2 SWAP1 SWAP2 MSTORE PUSH1 0x40 ADD PUSH1 0x0 KECCAK256 SLOAD PUSH2 0x100 SWAP1 DIV PUSH1 0xFF AND PUSH1 0x2 DUP2 GT ISZERO PUSH2 0x152A JUMPI INVALID JUMPDEST EQ PUSH2 0x157C JUMPI PUSH1 0x40 DUP1 MLOAD PUSH3 0x461BCD PUSH1 0xE5 SHL DUP2 MSTORE PUSH1 0x20 PUSH1 0x4 DUP3 ADD MSTORE PUSH1 0x1C PUSH1 0x24 DUP3 ADD MSTORE PUSH32 0x7265706561746564207472616E736D6974746572206164647265737300000000 PUSH1 0x44 DUP3 ADD MSTORE SWAP1 MLOAD SWAP1 DUP2 SWAP1 SUB PUSH1 0x64 ADD SWAP1 REVERT JUMPDEST PUSH1 0x40 DUP1 MLOAD DUP1 DUP3 ADD SWAP1 SWAP2 MSTORE PUSH1 0xFF DUP3 AND DUP2 MSTORE PUSH1 0x2 PUSH1 0x20 DUP3 ADD MSTORE PUSH1 0x27 PUSH1 0x0 DUP13 DUP13 DUP6 DUP2 DUP2 LT PUSH2 0x15A3 JUMPI INVALID JUMPDEST PUSH1 0x20 SWAP1 DUP2 MUL SWAP3 SWAP1 SWAP3 ADD CALLDATALOAD PUSH1 0x1 PUSH1 0x1 PUSH1 0xA0 SHL SUB AND DUP4 MSTORE POP DUP2 DUP2 ADD SWAP3 SWAP1 SWAP3 MSTORE PUSH1 0x40 ADD PUSH1 0x0 KECCAK256 DUP3 MLOAD DUP2 SLOAD PUSH1 0xFF NOT AND PUSH1 0xFF SWAP1 SWAP2 AND OR DUP1 DUP3 SSTORE SWAP2 DUP4 ADD MLOAD SWAP1 SWAP2 DUP3 SWAP1 PUSH2 0xFF00 NOT AND PUSH2 0x100 DUP4 PUSH1 0x2 DUP2 GT ISZERO PUSH2 0x15F3 JUMPI INVALID JUMPDEST MUL OR SWAP1 SSTORE POP SWAP1 POP POP PUSH1 0x28 DUP13 DUP13 DUP4 DUP2 DUP2 LT PUSH2 0x1609 JUMPI INVALID JUMPDEST DUP4 SLOAD PUSH1 0x1 DUP2 ADD DUP6 SSTORE PUSH1 0x0 SWAP5 DUP6 MSTORE PUSH1 0x20 SWAP5 DUP6 SWAP1 KECCAK256 ADD DUP1 SLOAD PUSH1 0x1 PUSH1 0x1 PUSH1 0xA0 SHL SUB NOT AND PUSH1 0x1 PUSH1 0x1 PUSH1 0xA0 SHL SUB SWAP6 SWAP1 SWAP3 MUL SWAP4 SWAP1 SWAP4 ADD CALLDATALOAD SWAP4 SWAP1 SWAP4 AND SWAP3 SWAP1 SWAP3 OR SWAP1 SSTORE POP PUSH1 0x29 DUP11 DUP11 DUP4 DUP2 DUP2 LT PUSH2 0x1653 JUMPI INVALID JUMPDEST DUP4 SLOAD PUSH1 0x1 DUP2 DUP2 ADD DUP7 SSTORE PUSH1 0x0 SWAP6 DUP7 MSTORE PUSH1 0x20 SWAP6 DUP7 SWAP1 KECCAK256 SWAP1 SWAP2 ADD DUP1 SLOAD PUSH1 0x1 PUSH1 0x1 PUSH1 0xA0 SHL SUB NOT AND PUSH1 0x1 PUSH1 0x1 PUSH1 0xA0 SHL SUB SWAP7 SWAP1 SWAP4 MUL SWAP5 SWAP1 SWAP5 ADD CALLDATALOAD SWAP5 SWAP1 SWAP5 AND OR SWAP1 SWAP2 SSTORE POP ADD PUSH2 0x1331 JUMP JUMPDEST POP PUSH1 0x2A DUP1 SLOAD PUSH1 0xFF DUP10 AND PUSH1 0x1 PUSH1 0xA8 SHL MUL PUSH1 0xFF PUSH1 0xA8 SHL NOT SWAP1 SWAP2 AND OR SWAP1 SSTORE PUSH1 0x2C DUP1 SLOAD NUMBER PUSH4 0xFFFFFFFF SWAP1 DUP2 AND PUSH5 0x100000000 SWAP1 DUP2 MUL PUSH8 0xFFFFFFFF00000000 NOT DUP5 AND OR DUP1 DUP4 AND PUSH1 0x1 ADD DUP4 AND PUSH4 0xFFFFFFFF NOT SWAP1 SWAP2 AND OR SWAP4 DUP5 SWAP1 SSTORE SWAP1 SWAP2 DIV DUP2 AND SWAP2 AND PUSH2 0x1703 ADDRESS DUP3 DUP16 DUP16 DUP16 DUP16 DUP16 DUP16 DUP16 DUP16 PUSH2 0x3F02 JUMP JUMPDEST PUSH1 0x2A PUSH1 0x0 ADD PUSH1 0x0 PUSH2 0x100 EXP DUP2 SLOAD DUP2 PUSH16 0xFFFFFFFFFFFFFFFFFFFFFFFFFFFFFFFF MUL NOT AND SWAP1 DUP4 PUSH1 0x80 SHR MUL OR SWAP1 SSTORE POP PUSH1 0x0 PUSH1 0x2A PUSH1 0x0 ADD PUSH1 0x10 PUSH2 0x100 EXP DUP2 SLOAD DUP2 PUSH5 0xFFFFFFFFFF MUL NOT AND SWAP1 DUP4 PUSH5 0xFFFFFFFFFF AND MUL OR SWAP1 SSTORE POP PUSH32 0x25D719D88A4512DD76C7442B910A83360845505894EB444EF299409E180F8FB9 DUP3 DUP3 DUP16 DUP16 DUP16 DUP16 DUP16 DUP16 DUP16 DUP16 PUSH1 0x40 MLOAD DUP1 DUP12 PUSH4 0xFFFFFFFF AND DUP2 MSTORE PUSH1 0x20 ADD DUP11 PUSH8 0xFFFFFFFFFFFFFFFF AND DUP2 MSTORE PUSH1 0x20 ADD DUP1 PUSH1 0x20 ADD DUP1 PUSH1 0x20 ADD DUP8 PUSH1 0xFF AND DUP2 MSTORE PUSH1 0x20 ADD DUP7 PUSH8 0xFFFFFFFFFFFFFFFF AND DUP2 MSTORE PUSH1 0x20 ADD DUP1 PUSH1 0x20 ADD DUP5 DUP2 SUB DUP5 MSTORE DUP13 DUP13 DUP3 DUP2 DUP2 MSTORE PUSH1 0x20 ADD SWAP3 POP PUSH1 0x20 MUL DUP1 DUP3 DUP5 CALLDATACOPY PUSH1 0x0 DUP4 DUP3 ADD MSTORE PUSH1 0x1F ADD PUSH1 0x1F NOT AND SWAP1 SWAP2 ADD DUP6 DUP2 SUB DUP5 MSTORE DUP11 DUP2 MSTORE PUSH1 0x20 SWAP1 DUP2 ADD SWAP2 POP DUP12 SWAP1 DUP12 MUL DUP1 DUP3 DUP5 CALLDATACOPY PUSH1 0x0 DUP4 DUP3 ADD MSTORE PUSH1 0x1F ADD PUSH1 0x1F NOT AND SWAP1 SWAP2 ADD DUP6 DUP2 SUB DUP4 MSTORE DUP7 DUP2 MSTORE PUSH1 0x20 ADD SWAP1 POP DUP7 DUP7 DUP1 DUP3 DUP5 CALLDATACOPY PUSH1 0x0 DUP4 DUP3 ADD MSTORE PUSH1 0x40 MLOAD PUSH1 0x1F SWAP1 SWAP2 ADD PUSH1 0x1F NOT AND SWAP1 SWAP3 ADD DUP3 SWAP1 SUB SWAP16 POP SWAP1 SWAP14 POP POP POP POP POP POP POP POP POP POP POP POP POP POP LOG1 POP POP POP POP POP POP POP POP POP POP POP POP POP JUMP JUMPDEST PUSH1 0x0 PUSH2 0x18A4 CALLER PUSH1 0x0 CALLDATASIZE DUP1 DUP1 PUSH1 0x1F ADD PUSH1 0x20 DUP1 SWAP2 DIV MUL PUSH1 0x20 ADD PUSH1 0x40 MLOAD SWAP1 DUP2 ADD PUSH1 0x40 MSTORE DUP1 SWAP4 SWAP3 SWAP2 SWAP1 DUP2 DUP2 MSTORE PUSH1 0x20 ADD DUP4 DUP4 DUP1 DUP3 DUP5 CALLDATACOPY PUSH1 0x0 SWAP3 ADD SWAP2 SWAP1 SWAP2 MSTORE POP PUSH2 0x18E9 SWAP3 POP POP POP JUMP JUMPDEST PUSH2 0x18E1 JUMPI PUSH1 0x40 DUP1 MLOAD PUSH3 0x461BCD PUSH1 0xE5 SHL DUP2 MSTORE PUSH1 0x20 PUSH1 0x4 DUP3 ADD MSTORE PUSH1 0x9 PUSH1 0x24 DUP3 ADD MSTORE PUSH9 0x4E6F20616363657373 PUSH1 0xB8 SHL PUSH1 0x44 DUP3 ADD MSTORE SWAP1 MLOAD SWAP1 DUP2 SWAP1 SUB PUSH1 0x64 ADD SWAP1 REVERT JUMPDEST PUSH2 0x1089 PUSH2 0x4006 JUMP JUMPDEST PUSH1 0x0 PUSH2 0x18F5 DUP4 DUP4 PUSH2 0x4019 JUMP JUMPDEST DUP1 PUSH2 0x1908 JUMPI POP PUSH1 0x1 PUSH1 0x1 PUSH1 0xA0 SHL SUB DUP4 AND ORIGIN EQ JUMPDEST SWAP1 POP JUMPDEST SWAP3 SWAP2 POP POP JUMP JUMPDEST PUSH32 0x0 DUP2 JUMP JUMPDEST PUSH1 0x2D SLOAD PUSH1 0x1 PUSH1 0x1 PUSH1 0xA0 SHL SUB AND SWAP1 JUMP JUMPDEST PUSH1 0x60 PUSH2 0x1987 CALLER PUSH1 0x0 CALLDATASIZE DUP1 DUP1 PUSH1 0x1F ADD PUSH1 0x20 DUP1 SWAP2 DIV MUL PUSH1 0x20 ADD PUSH1 0x40 MLOAD SWAP1 DUP2 ADD PUSH1 0x40 MSTORE DUP1 SWAP4 SWAP3 SWAP2 SWAP1 DUP2 DUP2 MSTORE PUSH1 0x20 ADD DUP4 DUP4 DUP1 DUP3 DUP5 CALLDATACOPY PUSH1 0x0 SWAP3 ADD SWAP2 SWAP1 SWAP2 MSTORE POP PUSH2 0x18E9 SWAP3 POP POP POP JUMP JUMPDEST PUSH2 0x19C4 JUMPI PUSH1 0x40 DUP1 MLOAD PUSH3 0x461BCD PUSH1 0xE5 SHL DUP2 MSTORE PUSH1 0x20 PUSH1 0x4 DUP3 ADD MSTORE PUSH1 0x9 PUSH1 0x24 DUP3 ADD MSTORE PUSH9 0x4E6F20616363657373 PUSH1 0xB8 SHL PUSH1 0x44 DUP3 ADD MSTORE SWAP1 MLOAD SWAP1 DUP2 SWAP1 SUB PUSH1 0x64 ADD SWAP1 REVERT JUMPDEST PUSH2 0x1089 PUSH2 0x4049 JUMP JUMPDEST PUSH1 0x1 SLOAD PUSH1 0x1 PUSH1 0x1 PUSH1 0xA0 SHL SUB AND CALLER EQ PUSH2 0x1A2B JUMPI PUSH1 0x40 DUP1 MLOAD PUSH3 0x461BCD PUSH1 0xE5 SHL DUP2 MSTORE PUSH1 0x20 PUSH1 0x4 DUP3 ADD MSTORE PUSH1 0x16 PUSH1 0x24 DUP3 ADD MSTORE PUSH32 0x4D7573742062652070726F706F736564206F776E657200000000000000000000 PUSH1 0x44 DUP3 ADD MSTORE SWAP1 MLOAD SWAP1 DUP2 SWAP1 SUB PUSH1 0x64 ADD SWAP1 REVERT JUMPDEST PUSH1 0x0 DUP1 SLOAD CALLER PUSH1 0x1 PUSH1 0x1 PUSH1 0xA0 SHL SUB NOT DUP1 DUP4 AND DUP3 OR DUP5 SSTORE PUSH1 0x1 DUP1 SLOAD SWAP1 SWAP2 AND SWAP1 SSTORE PUSH1 0x40 MLOAD PUSH1 0x1 PUSH1 0x1 PUSH1 0xA0 SHL SUB SWAP1 SWAP3 AND SWAP3 SWAP1 SWAP2 DUP4 SWAP2 PUSH32 0x8BE0079C531659141344CD1FD0A4F28419497F9722A3DAAFE3B4186F6B6457E0 SWAP2 LOG3 POP JUMP JUMPDEST PUSH1 0x0 SLOAD PUSH1 0x1 PUSH1 0x1 PUSH1 0xA0 SHL SUB AND CALLER EQ PUSH2 0x1ADA JUMPI PUSH1 0x40 DUP1 MLOAD PUSH3 0x461BCD PUSH1 0xE5 SHL DUP2 MSTORE PUSH1 0x20 PUSH1 0x4 DUP3 ADD MSTORE PUSH1 0x16 PUSH1 0x24 DUP3 ADD MSTORE PUSH22 0x27B7363C9031B0B63630B1363290313C9037BBB732B9 PUSH1 0x51 SHL PUSH1 0x44 DUP3 ADD MSTORE SWAP1 MLOAD SWAP1 DUP2 SWAP1 SUB PUSH1 0x64 ADD SWAP1 REVERT JUMPDEST PUSH1 0x2F SLOAD PUSH1 0xFF AND PUSH2 0xD03 JUMPI PUSH1 0x2F DUP1 SLOAD PUSH1 0xFF NOT AND PUSH1 0x1 OR SWAP1 SSTORE PUSH1 0x40 MLOAD PUSH32 0xAEBF329500988C6488A0074E5A0A9FF304561FC5C6FC877AEB1D59C8282C3480 SWAP1 PUSH1 0x0 SWAP1 LOG1 JUMP JUMPDEST PUSH1 0x60 PUSH1 0x29 DUP1 SLOAD DUP1 PUSH1 0x20 MUL PUSH1 0x20 ADD PUSH1 0x40 MLOAD SWAP1 DUP2 ADD PUSH1 0x40 MSTORE DUP1 SWAP3 SWAP2 SWAP1 DUP2 DUP2 MSTORE PUSH1 0x20 ADD DUP3 DUP1 SLOAD DUP1 ISZERO PUSH2 0x1B74 JUMPI PUSH1 0x20 MUL DUP3 ADD SWAP2 SWAP1 PUSH1 0x0 MSTORE PUSH1 0x20 PUSH1 0x0 KECCAK256 SWAP1 JUMPDEST DUP2 SLOAD PUSH1 0x1 PUSH1 0x1 PUSH1 0xA0 SHL SUB AND DUP2 MSTORE PUSH1 0x1 SWAP1 SWAP2 ADD SWAP1 PUSH1 0x20 ADD DUP1 DUP4 GT PUSH2 0x1B56 JUMPI JUMPDEST POP POP POP POP POP SWAP1 POP SWAP1 JUMP JUMPDEST PUSH1 0x2C SLOAD PUSH1 0x2A SLOAD PUSH4 0xFFFFFFFF DUP1 DUP4 AND SWAP3 PUSH5 0x100000000 SWAP1 DIV AND SWAP1 PUSH1 0x80 SHL SWAP1 SWAP2 SWAP3 JUMP JUMPDEST PUSH1 0x0 PUSH2 0x1BE2 CALLER PUSH1 0x0 CALLDATASIZE DUP1 DUP1 PUSH1 0x1F ADD PUSH1 0x20 DUP1 SWAP2 DIV MUL PUSH1 0x20 ADD PUSH1 0x40 MLOAD SWAP1 DUP2 ADD PUSH1 0x40 MSTORE DUP1 SWAP4 SWAP3 SWAP2 SWAP1 DUP2 DUP2 MSTORE PUSH1 0x20 ADD DUP4 DUP4 DUP1 DUP3 DUP5 CALLDATACOPY PUSH1 0x0 SWAP3 ADD SWAP2 SWAP1 SWAP2 MSTORE POP PUSH2 0x18E9 SWAP3 POP POP POP JUMP JUMPDEST PUSH2 0x1C1F JUMPI PUSH1 0x40 DUP1 MLOAD PUSH3 0x461BCD PUSH1 0xE5 SHL DUP2 MSTORE PUSH1 0x20 PUSH1 0x4 DUP3 ADD MSTORE PUSH1 0x9 PUSH1 0x24 DUP3 ADD MSTORE PUSH9 0x4E6F20616363657373 PUSH1 0xB8 SHL PUSH1 0x44 DUP3 ADD MSTORE SWAP1 MLOAD SWAP1 DUP2 SWAP1 SUB PUSH1 0x64 ADD SWAP1 REVERT JUMPDEST PUSH2 0x1089 PUSH2 0x40D6 JUMP JUMPDEST PUSH1 0x0 SLOAD PUSH1 0x1 PUSH1 0x1 PUSH1 0xA0 SHL SUB AND CALLER EQ PUSH2 0x1C7F JUMPI PUSH1 0x40 DUP1 MLOAD PUSH3 0x461BCD PUSH1 0xE5 SHL DUP2 MSTORE PUSH1 0x20 PUSH1 0x4 DUP3 ADD MSTORE PUSH1 0x16 PUSH1 0x24 DUP3 ADD MSTORE PUSH22 0x27B7363C9031B0B63630B1363290313C9037BBB732B9 PUSH1 0x51 SHL PUSH1 0x44 DUP3 ADD MSTORE SWAP1 MLOAD SWAP1 DUP2 SWAP1 SUB PUSH1 0x64 ADD SWAP1 REVERT JUMPDEST PUSH1 0x1 PUSH1 0x1 PUSH1 0xA0 SHL SUB DUP2 AND PUSH1 0x0 SWAP1 DUP2 MSTORE PUSH1 0x30 PUSH1 0x20 MSTORE PUSH1 0x40 SWAP1 KECCAK256 SLOAD PUSH1 0xFF AND ISZERO PUSH2 0x1CF6 JUMPI PUSH1 0x1 PUSH1 0x1 PUSH1 0xA0 SHL SUB DUP2 AND PUSH1 0x0 DUP2 DUP2 MSTORE PUSH1 0x30 PUSH1 0x20 SWAP1 DUP2 MSTORE PUSH1 0x40 SWAP2 DUP3 SWAP1 KECCAK256 DUP1 SLOAD PUSH1 0xFF NOT AND SWAP1 SSTORE DUP2 MLOAD SWAP3 DUP4 MSTORE SWAP1 MLOAD PUSH32 0x3D68A6FCE901D20453D1A7AA06BF3950302A735948037DEB182A8DB66DF2A0D1 SWAP3 DUP2 SWAP1 SUB SWAP1 SWAP2 ADD SWAP1 LOG1 JUMPDEST POP JUMP JUMPDEST PUSH1 0x1 PUSH1 0x1 PUSH1 0xA0 SHL SUB DUP2 DUP2 AND PUSH1 0x0 SWAP1 DUP2 MSTORE PUSH1 0x6 PUSH1 0x20 MSTORE PUSH1 0x40 SWAP1 KECCAK256 SLOAD AND CALLER EQ PUSH2 0x1D67 JUMPI PUSH1 0x40 DUP1 MLOAD PUSH3 0x461BCD PUSH1 0xE5 SHL DUP2 MSTORE PUSH1 0x20 PUSH1 0x4 DUP3 ADD MSTORE PUSH1 0x17 PUSH1 0x24 DUP3 ADD MSTORE PUSH32 0x4F6E6C792070617965652063616E207769746864726177000000000000000000 PUSH1 0x44 DUP3 ADD MSTORE SWAP1 MLOAD SWAP1 DUP2 SWAP1 SUB PUSH1 0x64 ADD SWAP1 REVERT JUMPDEST PUSH2 0x1CF6 DUP2 PUSH2 0x3CE3 JUMP JUMPDEST PUSH1 0x0 SLOAD PUSH1 0x1 PUSH1 0x1 PUSH1 0xA0 SHL SUB AND DUP2 JUMP JUMPDEST PUSH1 0x0 DUP1 SLOAD PUSH1 0x1 PUSH1 0x1 PUSH1 0xA0 SHL SUB AND CALLER EQ DUP1 PUSH2 0x1E42 JUMPI POP PUSH1 0x2D SLOAD PUSH1 0x40 DUP1 MLOAD PUSH4 0xD629B5F PUSH1 0xE3 SHL DUP2 MSTORE CALLER PUSH1 0x4 DUP3 ADD DUP2 DUP2 MSTORE PUSH1 0x24 DUP4 ADD SWAP4 DUP5 MSTORE CALLDATASIZE PUSH1 0x44 DUP5 ADD DUP2 SWAP1 MSTORE PUSH1 0x1 PUSH1 0x1 PUSH1 0xA0 SHL SUB SWAP1 SWAP6 AND SWAP5 PUSH4 0x6B14DAF8 SWAP5 SWAP3 SWAP4 PUSH1 0x0 SWAP4 SWAP2 SWAP3 SWAP2 SWAP1 PUSH1 0x64 ADD DUP5 DUP5 DUP1 DUP3 DUP5 CALLDATACOPY PUSH1 0x0 DUP4 DUP3 ADD MSTORE PUSH1 0x40 MLOAD PUSH1 0x1F SWAP1 SWAP2 ADD PUSH1 0x1F NOT AND SWAP1 SWAP3 ADD SWAP7 POP PUSH1 0x20 SWAP6 POP SWAP1 SWAP4 POP POP POP DUP2 DUP5 SUB SWAP1 POP DUP2 DUP7 DUP1 EXTCODESIZE ISZERO DUP1 ISZERO PUSH2 0x1E15 JUMPI PUSH1 0x0 DUP1 REVERT JUMPDEST POP GAS STATICCALL ISZERO DUP1 ISZERO PUSH2 0x1E29 JUMPI RETURNDATASIZE PUSH1 0x0 DUP1 RETURNDATACOPY RETURNDATASIZE PUSH1 0x0 REVERT JUMPDEST POP POP POP POP PUSH1 0x40 MLOAD RETURNDATASIZE PUSH1 0x20 DUP2 LT ISZERO PUSH2 0x1E3F JUMPI PUSH1 0x0 DUP1 REVERT JUMPDEST POP MLOAD JUMPDEST PUSH2 0x1E93 JUMPI PUSH1 0x40 DUP1 MLOAD PUSH3 0x461BCD PUSH1 0xE5 SHL DUP2 MSTORE PUSH1 0x20 PUSH1 0x4 DUP3 ADD MSTORE PUSH1 0x1D PUSH1 0x24 DUP3 ADD MSTORE PUSH32 0x4F6E6C79206F776E6572267265717565737465722063616E2063616C6C000000 PUSH1 0x44 DUP3 ADD MSTORE SWAP1 MLOAD SWAP1 DUP2 SWAP1 SUB PUSH1 0x64 ADD SWAP1 REVERT JUMPDEST PUSH1 0x40 DUP1 MLOAD PUSH1 0x80 DUP1 DUP3 ADD DUP4 MSTORE PUSH1 0x2A SLOAD SWAP1 DUP2 SWAP1 SHL PUSH16 0xFFFFFFFFFFFFFFFFFFFFFFFFFFFFFFFF NOT AND DUP1 DUP4 MSTORE PUSH1 0x1 PUSH1 0x80 SHL DUP3 DIV PUSH5 0xFFFFFFFFFF DUP2 AND PUSH1 0x20 DUP1 DUP7 ADD SWAP2 SWAP1 SWAP2 MSTORE PUSH1 0x1 PUSH1 0xA8 SHL DUP5 DIV PUSH1 0xFF SWAP1 DUP2 AND DUP7 DUP9 ADD MSTORE PUSH1 0x1 PUSH1 0xB0 SHL SWAP1 SWAP5 DIV PUSH4 0xFFFFFFFF SWAP1 DUP2 AND PUSH1 0x60 DUP1 DUP9 ADD SWAP2 SWAP1 SWAP2 MSTORE DUP8 MLOAD SWAP5 DUP6 MSTORE PUSH1 0x8 DUP5 SWAP1 SHR SWAP1 SWAP2 AND SWAP2 DUP5 ADD SWAP2 SWAP1 SWAP2 MSTORE SWAP3 AND DUP2 DUP6 ADD MSTORE SWAP3 MLOAD SWAP2 SWAP3 CALLER SWAP3 PUSH32 0x3EA16A923FF4B1DF6526E854C9E3A995C43385D70E73359E10623C74F0B52037 SWAP3 SWAP2 DUP2 SWAP1 SUB SWAP1 SWAP2 ADD SWAP1 LOG2 DUP1 PUSH1 0x60 ADD MLOAD PUSH1 0x1 ADD PUSH4 0xFFFFFFFF AND SWAP2 POP POP SWAP1 JUMP JUMPDEST PUSH1 0x3 SLOAD PUSH1 0x1 PUSH1 0x1 PUSH1 0xA0 SHL SUB AND SWAP1 JUMP JUMPDEST PUSH1 0x0 DUP1 PUSH1 0x0 DUP1 PUSH1 0x0 PUSH2 0x1FB3 CALLER PUSH1 0x0 CALLDATASIZE DUP1 DUP1 PUSH1 0x1F ADD PUSH1 0x20 DUP1 SWAP2 DIV MUL PUSH1 0x20 ADD PUSH1 0x40 MLOAD SWAP1 DUP2 ADD PUSH1 0x40 MSTORE DUP1 SWAP4 SWAP3 SWAP2 SWAP1 DUP2 DUP2 MSTORE PUSH1 0x20 ADD DUP4 DUP4 DUP1 DUP3 DUP5 CALLDATACOPY PUSH1 0x0 SWAP3 ADD SWAP2 SWAP1 SWAP2 MSTORE POP PUSH2 0x18E9 SWAP3 POP POP POP JUMP JUMPDEST PUSH2 0x1FF0 JUMPI PUSH1 0x40 DUP1 MLOAD PUSH3 0x461BCD PUSH1 0xE5 SHL DUP2 MSTORE PUSH1 0x20 PUSH1 0x4 DUP3 ADD MSTORE PUSH1 0x9 PUSH1 0x24 DUP3 ADD MSTORE PUSH9 0x4E6F20616363657373 PUSH1 0xB8 SHL PUSH1 0x44 DUP3 ADD MSTORE SWAP1 MLOAD SWAP1 DUP2 SWAP1 SUB PUSH1 0x64 ADD SWAP1 REVERT JUMPDEST PUSH2 0x1FF9 DUP7 PUSH2 0x4109 JUMP JUMPDEST SWAP4 SWAP11 SWAP3 SWAP10 POP SWAP1 SWAP8 POP SWAP6 POP SWAP1 SWAP4 POP SWAP2 POP POP JUMP JUMPDEST PUSH1 0x0 SLOAD PUSH1 0x1 PUSH1 0x1 PUSH1 0xA0 SHL SUB AND CALLER EQ PUSH2 0x2063 JUMPI PUSH1 0x40 DUP1 MLOAD PUSH3 0x461BCD PUSH1 0xE5 SHL DUP2 MSTORE PUSH1 0x20 PUSH1 0x4 DUP3 ADD MSTORE PUSH1 0x16 PUSH1 0x24 DUP3 ADD MSTORE PUSH22 0x27B7363C9031B0B63630B1363290313C9037BBB732B9 PUSH1 0x51 SHL PUSH1 0x44 DUP3 ADD MSTORE SWAP1 MLOAD SWAP1 DUP2 SWAP1 SUB PUSH1 0x64 ADD SWAP1 REVERT JUMPDEST DUP3 DUP2 EQ PUSH2 0x20B7 JUMPI PUSH1 0x40 DUP1 MLOAD PUSH3 0x461BCD PUSH1 0xE5 SHL DUP2 MSTORE PUSH1 0x20 PUSH1 0x4 DUP3 ADD DUP2 SWAP1 MSTORE PUSH1 0x24 DUP3 ADD MSTORE PUSH32 0x7472616E736D6974746572732E73697A6520213D207061796565732E73697A65 PUSH1 0x44 DUP3 ADD MSTORE SWAP1 MLOAD SWAP1 DUP2 SWAP1 SUB PUSH1 0x64 ADD SWAP1 REVERT JUMPDEST PUSH1 0x0 JUMPDEST DUP4 DUP2 LT ISZERO PUSH2 0x221E JUMPI PUSH1 0x0 DUP6 DUP6 DUP4 DUP2 DUP2 LT PUSH2 0x20D0 JUMPI INVALID JUMPDEST SWAP1 POP PUSH1 0x20 MUL ADD CALLDATALOAD PUSH1 0x1 PUSH1 0x1 PUSH1 0xA0 SHL SUB AND SWAP1 POP PUSH1 0x0 DUP5 DUP5 DUP5 DUP2 DUP2 LT PUSH2 0x20F0 JUMPI INVALID JUMPDEST PUSH1 0x1 PUSH1 0x1 PUSH1 0xA0 SHL SUB DUP6 DUP2 AND PUSH1 0x0 SWAP1 DUP2 MSTORE PUSH1 0x6 PUSH1 0x20 SWAP1 DUP2 MSTORE PUSH1 0x40 SWAP1 SWAP2 KECCAK256 SLOAD SWAP3 MUL SWAP4 SWAP1 SWAP4 ADD CALLDATALOAD DUP4 AND SWAP4 POP SWAP1 SWAP2 AND SWAP1 POP DUP1 ISZERO DUP1 DUP1 PUSH2 0x213C JUMPI POP DUP3 PUSH1 0x1 PUSH1 0x1 PUSH1 0xA0 SHL SUB AND DUP3 PUSH1 0x1 PUSH1 0x1 PUSH1 0xA0 SHL SUB AND EQ JUMPDEST PUSH2 0x218D JUMPI PUSH1 0x40 DUP1 MLOAD PUSH3 0x461BCD PUSH1 0xE5 SHL DUP2 MSTORE PUSH1 0x20 PUSH1 0x4 DUP3 ADD MSTORE PUSH1 0x11 PUSH1 0x24 DUP3 ADD MSTORE PUSH32 0x706179656520616C726561647920736574000000000000000000000000000000 PUSH1 0x44 DUP3 ADD MSTORE SWAP1 MLOAD SWAP1 DUP2 SWAP1 SUB PUSH1 0x64 ADD SWAP1 REVERT JUMPDEST PUSH1 0x1 PUSH1 0x1 PUSH1 0xA0 SHL SUB DUP5 DUP2 AND PUSH1 0x0 SWAP1 DUP2 MSTORE PUSH1 0x6 PUSH1 0x20 MSTORE PUSH1 0x40 SWAP1 KECCAK256 DUP1 SLOAD PUSH1 0x1 PUSH1 0x1 PUSH1 0xA0 SHL SUB NOT AND DUP6 DUP4 AND SWAP1 DUP2 OR SWAP1 SWAP2 SSTORE SWAP1 DUP4 AND EQ PUSH2 0x220E JUMPI DUP3 PUSH1 0x1 PUSH1 0x1 PUSH1 0xA0 SHL SUB AND DUP3 PUSH1 0x1 PUSH1 0x1 PUSH1 0xA0 SHL SUB AND DUP6 PUSH1 0x1 PUSH1 0x1 PUSH1 0xA0 SHL SUB AND PUSH32 0x78AF32EFDCAD432315431E9B03D27E6CD98FB79C405FDC5AF7C1714D9C0F75B3 PUSH1 0x40 MLOAD PUSH1 0x40 MLOAD DUP1 SWAP2 SUB SWAP1 LOG4 JUMPDEST POP POP PUSH1 0x1 SWAP1 SWAP3 ADD SWAP2 POP PUSH2 0x20BA SWAP1 POP JUMP JUMPDEST POP POP POP POP POP JUMP JUMPDEST PUSH1 0x0 SLOAD PUSH1 0x1 PUSH1 0x1 PUSH1 0xA0 SHL SUB AND CALLER EQ PUSH2 0x227D JUMPI PUSH1 0x40 DUP1 MLOAD PUSH3 0x461BCD PUSH1 0xE5 SHL DUP2 MSTORE PUSH1 0x20 PUSH1 0x4 DUP3 ADD MSTORE PUSH1 0x16 PUSH1 0x24 DUP3 ADD MSTORE PUSH22 0x27B7363C9031B0B63630B1363290313C9037BBB732B9 PUSH1 0x51 SHL PUSH1 0x44 DUP3 ADD MSTORE SWAP1 MLOAD SWAP1 DUP2 SWAP1 SUB PUSH1 0x64 ADD SWAP1 REVERT JUMPDEST PUSH1 0x2D SLOAD PUSH1 0x1 PUSH1 0x1 PUSH1 0xA0 SHL SUB SWAP1 DUP2 AND SWAP1 DUP3 AND DUP2 EQ PUSH2 0xF19 JUMPI PUSH1 0x2D DUP1 SLOAD PUSH1 0x1 PUSH1 0x1 PUSH1 0xA0 SHL SUB NOT AND PUSH1 0x1 PUSH1 0x1 PUSH1 0xA0 SHL SUB DUP5 DUP2 AND SWAP2 DUP3 OR SWAP1 SWAP3 SSTORE PUSH1 0x40 DUP1 MLOAD SWAP3 DUP5 AND DUP4 MSTORE PUSH1 0x20 DUP4 ADD SWAP2 SWAP1 SWAP2 MSTORE DUP1 MLOAD PUSH32 0x27B89AEDE8B560578BAAA25EE5CE3852C5EECAD1E114B941BBD89E1EB4BAE634 SWAP3 DUP2 SWAP1 SUB SWAP1 SWAP2 ADD SWAP1 LOG1 POP POP JUMP JUMPDEST PUSH1 0x0 SLOAD PUSH1 0x1 PUSH1 0x1 PUSH1 0xA0 SHL SUB AND CALLER EQ PUSH2 0x234C JUMPI PUSH1 0x40 DUP1 MLOAD PUSH3 0x461BCD PUSH1 0xE5 SHL DUP2 MSTORE PUSH1 0x20 PUSH1 0x4 DUP3 ADD MSTORE PUSH1 0x16 PUSH1 0x24 DUP3 ADD MSTORE PUSH22 0x27B7363C9031B0B63630B1363290313C9037BBB732B9 PUSH1 0x51 SHL PUSH1 0x44 DUP3 ADD MSTORE SWAP1 MLOAD SWAP1 DUP2 SWAP1 SUB PUSH1 0x64 ADD SWAP1 REVERT JUMPDEST PUSH2 0x1CF6 DUP2 PUSH2 0x423F JUMP JUMPDEST PUSH1 0x1 PUSH1 0x1 PUSH1 0xA0 SHL SUB DUP2 DUP2 AND PUSH1 0x0 SWAP1 DUP2 MSTORE PUSH1 0x7 PUSH1 0x20 MSTORE PUSH1 0x40 SWAP1 KECCAK256 SLOAD AND CALLER EQ PUSH2 0x23C3 JUMPI PUSH1 0x40 DUP1 MLOAD PUSH3 0x461BCD PUSH1 0xE5 SHL DUP2 MSTORE PUSH1 0x20 PUSH1 0x4 DUP3 ADD MSTORE PUSH1 0x1F PUSH1 0x24 DUP3 ADD MSTORE PUSH32 0x6F6E6C792070726F706F736564207061796565732063616E2061636365707400 PUSH1 0x44 DUP3 ADD MSTORE SWAP1 MLOAD SWAP1 DUP2 SWAP1 SUB PUSH1 0x64 ADD SWAP1 REVERT JUMPDEST PUSH1 0x1 PUSH1 0x1 PUSH1 0xA0 SHL SUB DUP2 DUP2 AND PUSH1 0x0 DUP2 DUP2 MSTORE PUSH1 0x6 PUSH1 0x20 SWAP1 DUP2 MSTORE PUSH1 0x40 DUP1 DUP4 KECCAK256 DUP1 SLOAD CALLER PUSH1 0x1 PUSH1 0x1 PUSH1 0xA0 SHL SUB NOT DUP1 DUP4 AND DUP3 OR SWAP1 SWAP4 SSTORE PUSH1 0x7 SWAP1 SWAP5 MSTORE DUP3 DUP6 KECCAK256 DUP1 SLOAD SWAP1 SWAP3 AND SWAP1 SWAP2 SSTORE SWAP1 MLOAD SWAP5 AND SWAP4 SWAP1 SWAP3 DUP5 SWAP3 SWAP1 SWAP2 PUSH32 0x78AF32EFDCAD432315431E9B03D27E6CD98FB79C405FDC5AF7C1714D9C0F75B3 SWAP2 SWAP1 LOG4 POP POP JUMP JUMPDEST PUSH1 0x0 PUSH2 0x2479 CALLER PUSH1 0x0 CALLDATASIZE DUP1 DUP1 PUSH1 0x1F ADD PUSH1 0x20 DUP1 SWAP2 DIV MUL PUSH1 0x20 ADD PUSH1 0x40 MLOAD SWAP1 DUP2 ADD PUSH1 0x40 MSTORE DUP1 SWAP4 SWAP3 SWAP2 SWAP1 DUP2 DUP2 MSTORE PUSH1 0x20 ADD DUP4 DUP4 DUP1 DUP3 DUP5 CALLDATACOPY PUSH1 0x0 SWAP3 ADD SWAP2 SWAP1 SWAP2 MSTORE POP PUSH2 0x18E9 SWAP3 POP POP POP JUMP JUMPDEST PUSH2 0x24B6 JUMPI PUSH1 0x40 DUP1 MLOAD PUSH3 0x461BCD PUSH1 0xE5 SHL DUP2 MSTORE PUSH1 0x20 PUSH1 0x4 DUP3 ADD MSTORE PUSH1 0x9 PUSH1 0x24 DUP3 ADD MSTORE PUSH9 0x4E6F20616363657373 PUSH1 0xB8 SHL PUSH1 0x44 DUP3 ADD MSTORE SWAP1 MLOAD SWAP1 DUP2 SWAP1 SUB PUSH1 0x64 ADD SWAP1 REVERT JUMPDEST PUSH2 0x190B DUP3 PUSH2 0x42BA JUMP JUMPDEST PUSH1 0x0 PUSH2 0x2502 CALLER PUSH1 0x0 CALLDATASIZE DUP1 DUP1 PUSH1 0x1F ADD PUSH1 0x20 DUP1 SWAP2 DIV MUL PUSH1 0x20 ADD PUSH1 0x40 MLOAD SWAP1 DUP2 ADD PUSH1 0x40 MSTORE DUP1 SWAP4 SWAP3 SWAP2 SWAP1 DUP2 DUP2 MSTORE PUSH1 0x20 ADD DUP4 DUP4 DUP1 DUP3 DUP5 CALLDATACOPY PUSH1 0x0 SWAP3 ADD SWAP2 SWAP1 SWAP2 MSTORE POP PUSH2 0x18E9 SWAP3 POP POP POP JUMP JUMPDEST PUSH2 0x253F JUMPI PUSH1 0x40 DUP1 MLOAD PUSH3 0x461BCD PUSH1 0xE5 SHL DUP2 MSTORE PUSH1 0x20 PUSH1 0x4 DUP3 ADD MSTORE PUSH1 0x9 PUSH1 0x24 DUP3 ADD MSTORE PUSH9 0x4E6F20616363657373 PUSH1 0xB8 SHL PUSH1 0x44 DUP3 ADD MSTORE SWAP1 MLOAD SWAP1 DUP2 SWAP1 SUB PUSH1 0x64 ADD SWAP1 REVERT JUMPDEST PUSH2 0x190B DUP3 PUSH2 0x42F0 JUMP JUMPDEST PUSH1 0x3 SLOAD PUSH1 0x0 SLOAD PUSH1 0x1 PUSH1 0x1 PUSH1 0xA0 SHL SUB SWAP2 DUP3 AND SWAP2 AND CALLER EQ DUP1 PUSH2 0x2609 JUMPI POP PUSH1 0x40 DUP1 MLOAD PUSH4 0xD629B5F PUSH1 0xE3 SHL DUP2 MSTORE CALLER PUSH1 0x4 DUP3 ADD DUP2 DUP2 MSTORE PUSH1 0x24 DUP4 ADD SWAP4 DUP5 MSTORE CALLDATASIZE PUSH1 0x44 DUP5 ADD DUP2 SWAP1 MSTORE PUSH1 0x1 PUSH1 0x1 PUSH1 0xA0 SHL SUB DUP7 AND SWAP5 PUSH4 0x6B14DAF8 SWAP5 PUSH1 0x0 SWAP4 SWAP2 SWAP1 PUSH1 0x64 ADD DUP5 DUP5 DUP1 DUP3 DUP5 CALLDATACOPY PUSH1 0x0 DUP4 DUP3 ADD MSTORE PUSH1 0x40 MLOAD PUSH1 0x1F SWAP1 SWAP2 ADD PUSH1 0x1F NOT AND SWAP1 SWAP3 ADD SWAP7 POP PUSH1 0x20 SWAP6 POP SWAP1 SWAP4 POP POP POP DUP2 DUP5 SUB SWAP1 POP DUP2 DUP7 DUP1 EXTCODESIZE ISZERO DUP1 ISZERO PUSH2 0x25DC JUMPI PUSH1 0x0 DUP1 REVERT JUMPDEST POP GAS STATICCALL ISZERO DUP1 ISZERO PUSH2 0x25F0 JUMPI RETURNDATASIZE PUSH1 0x0 DUP1 RETURNDATACOPY RETURNDATASIZE PUSH1 0x0 REVERT JUMPDEST POP POP POP POP PUSH1 0x40 MLOAD RETURNDATASIZE PUSH1 0x20 DUP2 LT ISZERO PUSH2 0x2606 JUMPI PUSH1 0x0 DUP1 REVERT JUMPDEST POP MLOAD JUMPDEST PUSH2 0x265A JUMPI PUSH1 0x40 DUP1 MLOAD PUSH3 0x461BCD PUSH1 0xE5 SHL DUP2 MSTORE PUSH1 0x20 PUSH1 0x4 DUP3 ADD DUP2 SWAP1 MSTORE PUSH1 0x24 DUP3 ADD MSTORE PUSH32 0x4F6E6C79206F776E65722662696C6C696E6741646D696E2063616E2063616C6C PUSH1 0x44 DUP3 ADD MSTORE SWAP1 MLOAD SWAP1 DUP2 SWAP1 SUB PUSH1 0x64 ADD SWAP1 REVERT JUMPDEST PUSH2 0x2662 PUSH2 0x4330 JUMP JUMPDEST PUSH2 0x266F DUP7 DUP7 DUP7 DUP7 DUP7 PUSH2 0x46CF JUMP JUMPDEST POP POP POP POP POP POP JUMP JUMPDEST PUSH1 0x0 SLOAD PUSH1 0x1 PUSH1 0x1 PUSH1 0xA0 SHL SUB AND CALLER EQ DUP1 PUSH2 0x2739 JUMPI POP PUSH1 0x3 SLOAD PUSH1 0x40 DUP1 MLOAD PUSH4 0xD629B5F PUSH1 0xE3 SHL DUP2 MSTORE CALLER PUSH1 0x4 DUP3 ADD DUP2 DUP2 MSTORE PUSH1 0x24 DUP4 ADD SWAP4 DUP5 MSTORE CALLDATASIZE PUSH1 0x44 DUP5 ADD DUP2 SWAP1 MSTORE PUSH1 0x1 PUSH1 0x1 PUSH1 0xA0 SHL SUB SWAP1 SWAP6 AND SWAP5 PUSH4 0x6B14DAF8 SWAP5 SWAP3 SWAP4 PUSH1 0x0 SWAP4 SWAP2 SWAP3 SWAP2 SWAP1 PUSH1 0x64 ADD DUP5 DUP5 DUP1 DUP3 DUP5 CALLDATACOPY PUSH1 0x0 DUP4 DUP3 ADD MSTORE PUSH1 0x40 MLOAD PUSH1 0x1F SWAP1 SWAP2 ADD PUSH1 0x1F NOT AND SWAP1 SWAP3 ADD SWAP7 POP PUSH1 0x20 SWAP6 POP SWAP1 SWAP4 POP POP POP DUP2 DUP5 SUB SWAP1 POP DUP2 DUP7 DUP1 EXTCODESIZE ISZERO DUP1 ISZERO PUSH2 0x270C JUMPI PUSH1 0x0 DUP1 REVERT JUMPDEST POP GAS STATICCALL ISZERO DUP1 ISZERO PUSH2 0x2720 JUMPI RETURNDATASIZE PUSH1 0x0 DUP1 RETURNDATACOPY RETURNDATASIZE PUSH1 0x0 REVERT JUMPDEST POP POP POP POP PUSH1 0x40 MLOAD RETURNDATASIZE PUSH1 0x20 DUP2 LT ISZERO PUSH2 0x2736 JUMPI PUSH1 0x0 DUP1 REVERT JUMPDEST POP MLOAD JUMPDEST PUSH2 0x278A JUMPI PUSH1 0x40 DUP1 MLOAD PUSH3 0x461BCD PUSH1 0xE5 SHL DUP2 MSTORE PUSH1 0x20 PUSH1 0x4 DUP3 ADD DUP2 SWAP1 MSTORE PUSH1 0x24 DUP3 ADD MSTORE PUSH32 0x4F6E6C79206F776E65722662696C6C696E6741646D696E2063616E2063616C6C PUSH1 0x44 DUP3 ADD MSTORE SWAP1 MLOAD SWAP1 DUP2 SWAP1 SUB PUSH1 0x64 ADD SWAP1 REVERT JUMPDEST PUSH1 0x0 PUSH2 0x2794 PUSH2 0x47E9 JUMP JUMPDEST SWAP1 POP PUSH1 0x0 PUSH32 0x0 PUSH1 0x1 PUSH1 0x1 PUSH1 0xA0 SHL SUB AND PUSH4 0x70A08231 ADDRESS PUSH1 0x40 MLOAD DUP3 PUSH4 0xFFFFFFFF AND PUSH1 0xE0 SHL DUP2 MSTORE PUSH1 0x4 ADD DUP1 DUP3 PUSH1 0x1 PUSH1 0x1 PUSH1 0xA0 SHL SUB AND DUP2 MSTORE PUSH1 0x20 ADD SWAP2 POP POP PUSH1 0x20 PUSH1 0x40 MLOAD DUP1 DUP4 SUB DUP2 DUP7 DUP1 EXTCODESIZE ISZERO DUP1 ISZERO PUSH2 0x2805 JUMPI PUSH1 0x0 DUP1 REVERT JUMPDEST POP GAS STATICCALL ISZERO DUP1 ISZERO PUSH2 0x2819 JUMPI RETURNDATASIZE PUSH1 0x0 DUP1 RETURNDATACOPY RETURNDATASIZE PUSH1 0x0 REVERT JUMPDEST POP POP POP POP PUSH1 0x40 MLOAD RETURNDATASIZE PUSH1 0x20 DUP2 LT ISZERO PUSH2 0x282F JUMPI PUSH1 0x0 DUP1 REVERT JUMPDEST POP MLOAD SWAP1 POP DUP2 DUP2 LT ISZERO PUSH2 0x2888 JUMPI PUSH1 0x40 DUP1 MLOAD PUSH3 0x461BCD PUSH1 0xE5 SHL DUP2 MSTORE PUSH1 0x20 PUSH1 0x4 DUP3 ADD MSTORE PUSH1 0x14 PUSH1 0x24 DUP3 ADD MSTORE PUSH32 0x696E73756666696369656E742062616C616E6365000000000000000000000000 PUSH1 0x44 DUP3 ADD MSTORE SWAP1 MLOAD SWAP1 DUP2 SWAP1 SUB PUSH1 0x64 ADD SWAP1 REVERT JUMPDEST PUSH32 0x0 PUSH1 0x1 PUSH1 0x1 PUSH1 0xA0 SHL SUB AND PUSH4 0xA9059CBB DUP6 PUSH2 0x28C4 DUP6 DUP6 SUB DUP8 PUSH2 0x499E JUMP JUMPDEST PUSH1 0x40 MLOAD DUP4 PUSH4 0xFFFFFFFF AND PUSH1 0xE0 SHL DUP2 MSTORE PUSH1 0x4 ADD DUP1 DUP4 PUSH1 0x1 PUSH1 0x1 PUSH1 0xA0 SHL SUB AND DUP2 MSTORE PUSH1 0x20 ADD DUP3 DUP2 MSTORE PUSH1 0x20 ADD SWAP3 POP POP POP PUSH1 0x20 PUSH1 0x40 MLOAD DUP1 DUP4 SUB DUP2 PUSH1 0x0 DUP8 DUP1 EXTCODESIZE ISZERO DUP1 ISZERO PUSH2 0x290A JUMPI PUSH1 0x0 DUP1 REVERT JUMPDEST POP GAS CALL ISZERO DUP1 ISZERO PUSH2 0x291E JUMPI RETURNDATASIZE PUSH1 0x0 DUP1 RETURNDATACOPY RETURNDATASIZE PUSH1 0x0 REVERT JUMPDEST POP POP POP POP PUSH1 0x40 MLOAD RETURNDATASIZE PUSH1 0x20 DUP2 LT ISZERO PUSH2 0x2934 JUMPI PUSH1 0x0 DUP1 REVERT JUMPDEST POP MLOAD PUSH2 0x297C JUMPI PUSH1 0x40 DUP1 MLOAD PUSH3 0x461BCD PUSH1 0xE5 SHL DUP2 MSTORE PUSH1 0x20 PUSH1 0x4 DUP3 ADD MSTORE PUSH1 0x12 PUSH1 0x24 DUP3 ADD MSTORE PUSH18 0x696E73756666696369656E742066756E6473 PUSH1 0x70 SHL PUSH1 0x44 DUP3 ADD MSTORE SWAP1 MLOAD SWAP1 DUP2 SWAP1 SUB PUSH1 0x64 ADD SWAP1 REVERT JUMPDEST POP POP POP POP JUMP JUMPDEST PUSH1 0x0 GAS SWAP1 POP PUSH2 0x2995 DUP9 DUP9 DUP9 DUP9 DUP9 DUP9 PUSH2 0x49B5 JUMP JUMPDEST CALLDATASIZE EQ PUSH2 0x29E8 JUMPI PUSH1 0x40 DUP1 MLOAD PUSH3 0x461BCD PUSH1 0xE5 SHL DUP2 MSTORE PUSH1 0x20 PUSH1 0x4 DUP3 ADD MSTORE PUSH1 0x19 PUSH1 0x24 DUP3 ADD MSTORE PUSH32 0x7472616E736D6974206D65737361676520746F6F206C6F6E6700000000000000 PUSH1 0x44 DUP3 ADD MSTORE SWAP1 MLOAD SWAP1 DUP2 SWAP1 SUB PUSH1 0x64 ADD SWAP1 REVERT JUMPDEST PUSH2 0x29F0 PUSH2 0x4EFF JUMP JUMPDEST PUSH1 0x40 DUP1 MLOAD PUSH1 0x80 DUP1 DUP3 ADD DUP4 MSTORE PUSH1 0x2A SLOAD SWAP1 DUP2 SWAP1 SHL PUSH16 0xFFFFFFFFFFFFFFFFFFFFFFFFFFFFFFFF NOT AND DUP3 MSTORE PUSH1 0x1 PUSH1 0x80 SHL DUP2 DIV PUSH5 0xFFFFFFFFFF AND PUSH1 0x20 DUP4 ADD MSTORE PUSH1 0x1 PUSH1 0xA8 SHL DUP2 DIV PUSH1 0xFF AND SWAP3 DUP3 ADD SWAP3 SWAP1 SWAP3 MSTORE PUSH1 0x1 PUSH1 0xB0 SHL SWAP1 SWAP2 DIV PUSH4 0xFFFFFFFF AND PUSH1 0x60 DUP1 DUP4 ADD SWAP2 SWAP1 SWAP2 MSTORE SWAP1 DUP3 MSTORE PUSH1 0x0 SWAP1 DUP11 SWAP1 DUP11 SWAP1 DUP2 LT ISZERO PUSH2 0x2A68 JUMPI PUSH1 0x0 DUP1 REVERT JUMPDEST DUP2 CALLDATALOAD SWAP2 PUSH1 0x20 DUP2 ADD CALLDATALOAD SWAP2 DUP2 ADD SWAP1 PUSH1 0x60 DUP2 ADD PUSH1 0x40 DUP3 ADD CALLDATALOAD PUSH5 0x100000000 DUP2 GT ISZERO PUSH2 0x2A8F JUMPI PUSH1 0x0 DUP1 REVERT JUMPDEST DUP3 ADD DUP4 PUSH1 0x20 DUP3 ADD GT ISZERO PUSH2 0x2AA1 JUMPI PUSH1 0x0 DUP1 REVERT JUMPDEST DUP1 CALLDATALOAD SWAP1 PUSH1 0x20 ADD SWAP2 DUP5 PUSH1 0x20 DUP4 MUL DUP5 ADD GT PUSH5 0x100000000 DUP4 GT OR ISZERO PUSH2 0x2AC3 JUMPI PUSH1 0x0 DUP1 REVERT JUMPDEST SWAP2 SWAP1 DUP1 DUP1 PUSH1 0x20 MUL PUSH1 0x20 ADD PUSH1 0x40 MLOAD SWAP1 DUP2 ADD PUSH1 0x40 MSTORE DUP1 SWAP4 SWAP3 SWAP2 SWAP1 DUP2 DUP2 MSTORE PUSH1 0x20 ADD DUP4 DUP4 PUSH1 0x20 MUL DUP1 DUP3 DUP5 CALLDATACOPY PUSH1 0x0 SWAP3 ADD SWAP2 SWAP1 SWAP2 MSTORE POP POP POP POP PUSH1 0x40 DUP9 ADD MSTORE POP POP POP PUSH1 0x80 DUP5 ADD DUP3 SWAP1 MSTORE DUP4 MLOAD MLOAD SWAP1 SWAP3 POP PUSH1 0x58 SWAP2 SWAP1 SWAP2 SHL SWAP1 PUSH16 0xFFFFFFFFFFFFFFFFFFFFFFFFFFFFFFFF NOT DUP1 DUP4 AND SWAP2 AND EQ PUSH2 0x2B7B JUMPI PUSH1 0x40 DUP1 MLOAD PUSH3 0x461BCD PUSH1 0xE5 SHL DUP2 MSTORE PUSH1 0x20 PUSH1 0x4 DUP3 ADD MSTORE PUSH1 0x15 PUSH1 0x24 DUP3 ADD MSTORE PUSH32 0x636F6E666967446967657374206D69736D617463680000000000000000000000 PUSH1 0x44 DUP3 ADD MSTORE SWAP1 MLOAD SWAP1 DUP2 SWAP1 SUB PUSH1 0x64 ADD SWAP1 REVERT JUMPDEST PUSH1 0x80 DUP4 ADD MLOAD DUP4 MLOAD PUSH1 0x20 ADD MLOAD PUSH5 0xFFFFFFFFFF DUP1 DUP4 AND SWAP2 AND LT PUSH2 0x2BE3 JUMPI PUSH1 0x40 DUP1 MLOAD PUSH3 0x461BCD PUSH1 0xE5 SHL DUP2 MSTORE PUSH1 0x20 PUSH1 0x4 DUP3 ADD MSTORE PUSH1 0xC PUSH1 0x24 DUP3 ADD MSTORE PUSH32 0x7374616C65207265706F72740000000000000000000000000000000000000000 PUSH1 0x44 DUP3 ADD MSTORE SWAP1 MLOAD SWAP1 DUP2 SWAP1 SUB PUSH1 0x64 ADD SWAP1 REVERT JUMPDEST DUP4 MLOAD PUSH1 0x40 ADD MLOAD PUSH1 0xFF AND DUP10 GT PUSH2 0x2C3F JUMPI PUSH1 0x40 DUP1 MLOAD PUSH3 0x461BCD PUSH1 0xE5 SHL DUP2 MSTORE PUSH1 0x20 PUSH1 0x4 DUP3 ADD MSTORE PUSH1 0x15 PUSH1 0x24 DUP3 ADD MSTORE PUSH32 0x6E6F7420656E6F756768207369676E6174757265730000000000000000000000 PUSH1 0x44 DUP3 ADD MSTORE SWAP1 MLOAD SWAP1 DUP2 SWAP1 SUB PUSH1 0x64 ADD SWAP1 REVERT JUMPDEST PUSH1 0x1F DUP10 GT ISZERO PUSH2 0x2C95 JUMPI PUSH1 0x40 DUP1 MLOAD PUSH3 0x461BCD PUSH1 0xE5 SHL DUP2 MSTORE PUSH1 0x20 PUSH1 0x4 DUP3 ADD MSTORE PUSH1 0x13 PUSH1 0x24 DUP3 ADD MSTORE PUSH32 0x746F6F206D616E79207369676E61747572657300000000000000000000000000 PUSH1 0x44 DUP3 ADD MSTORE SWAP1 MLOAD SWAP1 DUP2 SWAP1 SUB PUSH1 0x64 ADD SWAP1 REVERT JUMPDEST DUP7 DUP10 EQ PUSH2 0x2CE9 JUMPI PUSH1 0x40 DUP1 MLOAD PUSH3 0x461BCD PUSH1 0xE5 SHL DUP2 MSTORE PUSH1 0x20 PUSH1 0x4 DUP3 ADD MSTORE PUSH1 0x1E PUSH1 0x24 DUP3 ADD MSTORE PUSH32 0x7369676E617475726573206F7574206F6620726567697374726174696F6E0000 PUSH1 0x44 DUP3 ADD MSTORE SWAP1 MLOAD SWAP1 DUP2 SWAP1 SUB PUSH1 0x64 ADD SWAP1 REVERT JUMPDEST PUSH1 0x1F DUP5 PUSH1 0x40 ADD MLOAD MLOAD GT ISZERO PUSH2 0x2D44 JUMPI PUSH1 0x40 DUP1 MLOAD PUSH3 0x461BCD PUSH1 0xE5 SHL DUP2 MSTORE PUSH1 0x20 PUSH1 0x4 DUP3 ADD MSTORE PUSH1 0x1E PUSH1 0x24 DUP3 ADD MSTORE PUSH32 0x6E756D206F62736572766174696F6E73206F7574206F6620626F756E64730000 PUSH1 0x44 DUP3 ADD MSTORE SWAP1 MLOAD SWAP1 DUP2 SWAP1 SUB PUSH1 0x64 ADD SWAP1 REVERT JUMPDEST DUP4 PUSH1 0x0 ADD MLOAD PUSH1 0x40 ADD MLOAD PUSH1 0x2 MUL PUSH1 0xFF AND DUP5 PUSH1 0x40 ADD MLOAD MLOAD GT PUSH2 0x2DAB JUMPI PUSH1 0x40 DUP1 MLOAD PUSH3 0x461BCD PUSH1 0xE5 SHL DUP2 MSTORE PUSH1 0x20 PUSH1 0x4 DUP3 ADD MSTORE PUSH1 0x1E PUSH1 0x24 DUP3 ADD MSTORE PUSH32 0x746F6F206665772076616C75657320746F207472757374206D656469616E0000 PUSH1 0x44 DUP3 ADD MSTORE SWAP1 MLOAD SWAP1 DUP2 SWAP1 SUB PUSH1 0x64 ADD SWAP1 REVERT JUMPDEST DUP9 PUSH8 0xFFFFFFFFFFFFFFFF DUP2 GT DUP1 ISZERO PUSH2 0x2DC2 JUMPI PUSH1 0x0 DUP1 REVERT JUMPDEST POP PUSH1 0x40 MLOAD SWAP1 DUP1 DUP3 MSTORE DUP1 PUSH1 0x1F ADD PUSH1 0x1F NOT AND PUSH1 0x20 ADD DUP3 ADD PUSH1 0x40 MSTORE DUP1 ISZERO PUSH2 0x2DED JUMPI PUSH1 0x20 DUP3 ADD DUP2 DUP1 CALLDATASIZE DUP4 CALLDATACOPY ADD SWAP1 POP JUMPDEST POP PUSH1 0x60 DUP6 ADD MSTORE PUSH1 0x0 JUMPDEST PUSH1 0xFF DUP2 AND DUP11 GT ISZERO PUSH2 0x2E5E JUMPI DUP7 DUP2 PUSH1 0xFF AND PUSH1 0x20 DUP2 LT PUSH2 0x2E10 JUMPI INVALID JUMPDEST BYTE PUSH1 0xF8 SHL DUP6 PUSH1 0x60 ADD MLOAD DUP3 PUSH1 0xFF AND DUP2 MLOAD DUP2 LT PUSH2 0x2E27 JUMPI INVALID JUMPDEST PUSH1 0x20 ADD ADD SWAP1 PUSH31 0xFFFFFFFFFFFFFFFFFFFFFFFFFFFFFFFFFFFFFFFFFFFFFFFFFFFFFFFFFFFFFF NOT AND SWAP1 DUP2 PUSH1 0x0 BYTE SWAP1 MSTORE8 POP PUSH1 0x1 ADD PUSH2 0x2DF6 JUMP JUMPDEST POP DUP4 PUSH1 0x40 ADD MLOAD MLOAD PUSH8 0xFFFFFFFFFFFFFFFF DUP2 GT DUP1 ISZERO PUSH2 0x2E7B JUMPI PUSH1 0x0 DUP1 REVERT JUMPDEST POP PUSH1 0x40 MLOAD SWAP1 DUP1 DUP3 MSTORE DUP1 PUSH1 0x1F ADD PUSH1 0x1F NOT AND PUSH1 0x20 ADD DUP3 ADD PUSH1 0x40 MSTORE DUP1 ISZERO PUSH2 0x2EA6 JUMPI PUSH1 0x20 DUP3 ADD DUP2 DUP1 CALLDATASIZE DUP4 CALLDATACOPY ADD SWAP1 POP JUMPDEST POP PUSH1 0x20 DUP6 ADD MSTORE PUSH2 0x2EB4 PUSH2 0x4F33 JUMP JUMPDEST PUSH1 0x0 JUMPDEST DUP6 PUSH1 0x40 ADD MLOAD MLOAD DUP2 PUSH1 0xFF AND LT ISZERO PUSH2 0x2FBA JUMPI PUSH1 0x0 DUP6 DUP3 PUSH1 0xFF AND PUSH1 0x20 DUP2 LT PUSH2 0x2ED8 JUMPI INVALID JUMPDEST BYTE SWAP1 POP DUP3 DUP2 PUSH1 0x1F DUP2 LT PUSH2 0x2EE7 JUMPI INVALID JUMPDEST PUSH1 0x20 MUL ADD MLOAD ISZERO PUSH2 0x2F3E JUMPI PUSH1 0x40 DUP1 MLOAD PUSH3 0x461BCD PUSH1 0xE5 SHL DUP2 MSTORE PUSH1 0x20 PUSH1 0x4 DUP3 ADD MSTORE PUSH1 0x17 PUSH1 0x24 DUP3 ADD MSTORE PUSH32 0x6F6273657276657220696E646578207265706561746564000000000000000000 PUSH1 0x44 DUP3 ADD MSTORE SWAP1 MLOAD SWAP1 DUP2 SWAP1 SUB PUSH1 0x64 ADD SWAP1 REVERT JUMPDEST PUSH1 0x1 DUP4 DUP3 PUSH1 0xFF AND PUSH1 0x1F DUP2 LT PUSH2 0x2F4F JUMPI INVALID JUMPDEST SWAP2 ISZERO ISZERO PUSH1 0x20 SWAP3 DUP4 MUL SWAP2 SWAP1 SWAP2 ADD MSTORE DUP7 SWAP1 PUSH1 0xFF DUP5 AND SWAP1 DUP2 LT PUSH2 0x2F6B JUMPI INVALID JUMPDEST BYTE PUSH1 0xF8 SHL DUP8 PUSH1 0x20 ADD MLOAD DUP4 PUSH1 0xFF AND DUP2 MLOAD DUP2 LT PUSH2 0x2F82 JUMPI INVALID JUMPDEST PUSH1 0x20 ADD ADD SWAP1 PUSH31 0xFFFFFFFFFFFFFFFFFFFFFFFFFFFFFFFFFFFFFFFFFFFFFFFFFFFFFFFFFFFFFF NOT AND SWAP1 DUP2 PUSH1 0x0 BYTE SWAP1 MSTORE8 POP POP PUSH1 0x1 ADD PUSH2 0x2EB7 JUMP JUMPDEST POP CALLER PUSH1 0x0 SWAP1 DUP2 MSTORE PUSH1 0x27 PUSH1 0x20 SWAP1 DUP2 MSTORE PUSH1 0x40 DUP1 DUP4 KECCAK256 DUP2 MLOAD DUP1 DUP4 ADD SWAP1 SWAP3 MSTORE DUP1 SLOAD PUSH1 0xFF DUP1 DUP3 AND DUP5 MSTORE SWAP3 SWAP4 SWAP2 SWAP3 SWAP2 DUP5 ADD SWAP2 PUSH2 0x100 SWAP1 SWAP2 DIV AND PUSH1 0x2 DUP2 GT ISZERO PUSH2 0x2FF8 JUMPI INVALID JUMPDEST PUSH1 0x2 DUP2 GT ISZERO PUSH2 0x3003 JUMPI INVALID JUMPDEST SWAP1 MSTORE POP SWAP1 POP PUSH1 0x2 DUP2 PUSH1 0x20 ADD MLOAD PUSH1 0x2 DUP2 GT ISZERO PUSH2 0x301A JUMPI INVALID JUMPDEST EQ DUP1 ISZERO PUSH2 0x304E JUMPI POP PUSH1 0x29 DUP2 PUSH1 0x0 ADD MLOAD PUSH1 0xFF AND DUP2 SLOAD DUP2 LT PUSH2 0x3036 JUMPI INVALID JUMPDEST PUSH1 0x0 SWAP2 DUP3 MSTORE PUSH1 0x20 SWAP1 SWAP2 KECCAK256 ADD SLOAD PUSH1 0x1 PUSH1 0x1 PUSH1 0xA0 SHL SUB AND CALLER EQ JUMPDEST PUSH2 0x309F JUMPI PUSH1 0x40 DUP1 MLOAD PUSH3 0x461BCD PUSH1 0xE5 SHL DUP2 MSTORE PUSH1 0x20 PUSH1 0x4 DUP3 ADD MSTORE PUSH1 0x18 PUSH1 0x24 DUP3 ADD MSTORE PUSH32 0x756E617574686F72697A6564207472616E736D69747465720000000000000000 PUSH1 0x44 DUP3 ADD MSTORE SWAP1 MLOAD SWAP1 DUP2 SWAP1 SUB PUSH1 0x64 ADD SWAP1 REVERT JUMPDEST POP POP DUP4 MLOAD PUSH5 0xFFFFFFFFFF SWAP1 SWAP2 AND PUSH1 0x20 SWAP1 SWAP2 ADD MSTORE POP POP PUSH1 0x40 MLOAD PUSH1 0x0 SWAP1 DUP11 SWAP1 DUP11 SWAP1 DUP1 DUP4 DUP4 DUP1 DUP3 DUP5 CALLDATACOPY PUSH1 0x40 MLOAD SWAP3 ADD DUP3 SWAP1 SUB SWAP1 SWAP2 KECCAK256 SWAP5 POP PUSH2 0x30E0 SWAP4 POP PUSH2 0x4F33 SWAP3 POP POP POP JUMP JUMPDEST PUSH2 0x30E8 PUSH2 0x4F52 JUMP JUMPDEST PUSH1 0x0 JUMPDEST DUP10 DUP2 LT ISZERO PUSH2 0x32E1 JUMPI PUSH1 0x0 PUSH1 0x1 DUP6 DUP8 PUSH1 0x60 ADD MLOAD DUP5 DUP2 MLOAD DUP2 LT PUSH2 0x3108 JUMPI INVALID JUMPDEST PUSH1 0x20 SWAP2 ADD ADD MLOAD PUSH1 0xF8 SHR PUSH1 0x1B ADD DUP15 DUP15 DUP7 DUP2 DUP2 LT PUSH2 0x3120 JUMPI INVALID JUMPDEST SWAP1 POP PUSH1 0x20 MUL ADD CALLDATALOAD DUP14 DUP14 DUP8 DUP2 DUP2 LT PUSH2 0x3133 JUMPI INVALID JUMPDEST SWAP1 POP PUSH1 0x20 MUL ADD CALLDATALOAD PUSH1 0x40 MLOAD PUSH1 0x0 DUP2 MSTORE PUSH1 0x20 ADD PUSH1 0x40 MSTORE PUSH1 0x40 MLOAD DUP1 DUP6 DUP2 MSTORE PUSH1 0x20 ADD DUP5 PUSH1 0xFF AND DUP2 MSTORE PUSH1 0x20 ADD DUP4 DUP2 MSTORE PUSH1 0x20 ADD DUP3 DUP2 MSTORE PUSH1 0x20 ADD SWAP5 POP POP POP POP POP PUSH1 0x20 PUSH1 0x40 MLOAD PUSH1 0x20 DUP2 SUB SWAP1 DUP1 DUP5 SUB SWAP1 DUP6 GAS STATICCALL ISZERO DUP1 ISZERO PUSH2 0x318E JUMPI RETURNDATASIZE PUSH1 0x0 DUP1 RETURNDATACOPY RETURNDATASIZE PUSH1 0x0 REVERT JUMPDEST POP POP PUSH1 0x40 DUP1 MLOAD PUSH1 0x1F NOT DUP2 ADD MLOAD PUSH1 0x1 PUSH1 0x1 PUSH1 0xA0 SHL SUB DUP2 AND PUSH1 0x0 SWAP1 DUP2 MSTORE PUSH1 0x27 PUSH1 0x20 SWAP1 DUP2 MSTORE SWAP1 DUP5 SWAP1 KECCAK256 DUP4 DUP6 ADD SWAP1 SWAP5 MSTORE DUP4 SLOAD PUSH1 0xFF DUP1 DUP3 AND DUP6 MSTORE SWAP3 SWAP7 POP SWAP3 SWAP5 POP DUP5 ADD SWAP2 PUSH2 0x100 SWAP1 DIV AND PUSH1 0x2 DUP2 GT ISZERO PUSH2 0x31DD JUMPI INVALID JUMPDEST PUSH1 0x2 DUP2 GT ISZERO PUSH2 0x31E8 JUMPI INVALID JUMPDEST SWAP1 MSTORE POP SWAP3 POP PUSH1 0x1 DUP4 PUSH1 0x20 ADD MLOAD PUSH1 0x2 DUP2 GT ISZERO PUSH2 0x31FF JUMPI INVALID JUMPDEST EQ PUSH2 0x3251 JUMPI PUSH1 0x40 DUP1 MLOAD PUSH3 0x461BCD PUSH1 0xE5 SHL DUP2 MSTORE PUSH1 0x20 PUSH1 0x4 DUP3 ADD MSTORE PUSH1 0x1E PUSH1 0x24 DUP3 ADD MSTORE PUSH32 0x61646472657373206E6F7420617574686F72697A656420746F207369676E0000 PUSH1 0x44 DUP3 ADD MSTORE SWAP1 MLOAD SWAP1 DUP2 SWAP1 SUB PUSH1 0x64 ADD SWAP1 REVERT JUMPDEST DUP3 MLOAD DUP5 SWAP1 PUSH1 0xFF AND PUSH1 0x1F DUP2 LT PUSH2 0x3262 JUMPI INVALID JUMPDEST PUSH1 0x20 MUL ADD MLOAD ISZERO PUSH2 0x32B9 JUMPI PUSH1 0x40 DUP1 MLOAD PUSH3 0x461BCD PUSH1 0xE5 SHL DUP2 MSTORE PUSH1 0x20 PUSH1 0x4 DUP3 ADD MSTORE PUSH1 0x14 PUSH1 0x24 DUP3 ADD MSTORE PUSH32 0x6E6F6E2D756E69717565207369676E6174757265000000000000000000000000 PUSH1 0x44 DUP3 ADD MSTORE SWAP1 MLOAD SWAP1 DUP2 SWAP1 SUB PUSH1 0x64 ADD SWAP1 REVERT JUMPDEST PUSH1 0x1 DUP5 DUP5 PUSH1 0x0 ADD MLOAD PUSH1 0xFF AND PUSH1 0x1F DUP2 LT PUSH2 0x32CE JUMPI INVALID JUMPDEST SWAP2 ISZERO ISZERO PUSH1 0x20 SWAP1 SWAP3 MUL ADD MSTORE POP PUSH1 0x1 ADD PUSH2 0x30EB JUMP JUMPDEST POP POP POP POP PUSH1 0x0 JUMPDEST PUSH1 0x1 DUP3 PUSH1 0x40 ADD MLOAD MLOAD SUB DUP2 LT ISZERO PUSH2 0x3392 JUMPI PUSH1 0x0 DUP3 PUSH1 0x40 ADD MLOAD DUP3 PUSH1 0x1 ADD DUP2 MLOAD DUP2 LT PUSH2 0x330D JUMPI INVALID JUMPDEST PUSH1 0x20 MUL PUSH1 0x20 ADD ADD MLOAD PUSH1 0x17 SIGNEXTEND DUP4 PUSH1 0x40 ADD MLOAD DUP4 DUP2 MLOAD DUP2 LT PUSH2 0x3328 JUMPI INVALID JUMPDEST PUSH1 0x20 MUL PUSH1 0x20 ADD ADD MLOAD PUSH1 0x17 SIGNEXTEND SGT ISZERO SWAP1 POP DUP1 PUSH2 0x3389 JUMPI PUSH1 0x40 DUP1 MLOAD PUSH3 0x461BCD PUSH1 0xE5 SHL DUP2 MSTORE PUSH1 0x20 PUSH1 0x4 DUP3 ADD MSTORE PUSH1 0x17 PUSH1 0x24 DUP3 ADD MSTORE PUSH32 0x6F62736572766174696F6E73206E6F7420736F72746564000000000000000000 PUSH1 0x44 DUP3 ADD MSTORE SWAP1 MLOAD SWAP1 DUP2 SWAP1 SUB PUSH1 0x64 ADD SWAP1 REVERT JUMPDEST POP PUSH1 0x1 ADD PUSH2 0x32E8 JUMP JUMPDEST POP PUSH1 0x40 DUP2 ADD MLOAD DUP1 MLOAD PUSH1 0x0 SWAP2 SWAP1 PUSH1 0x2 DUP2 DIV SWAP1 DUP2 LT PUSH2 0x33AB JUMPI INVALID JUMPDEST PUSH1 0x20 MUL PUSH1 0x20 ADD ADD MLOAD SWAP1 POP DUP1 PUSH1 0x17 SIGNEXTEND PUSH32 0x0 PUSH1 0x17 SIGNEXTEND SGT ISZERO DUP1 ISZERO PUSH2 0x3411 JUMPI POP PUSH32 0x0 PUSH1 0x17 SIGNEXTEND DUP2 PUSH1 0x17 SIGNEXTEND SGT ISZERO JUMPDEST PUSH2 0x3462 JUMPI PUSH1 0x40 DUP1 MLOAD PUSH3 0x461BCD PUSH1 0xE5 SHL DUP2 MSTORE PUSH1 0x20 PUSH1 0x4 DUP3 ADD MSTORE PUSH1 0x1E PUSH1 0x24 DUP3 ADD MSTORE PUSH32 0x6D656469616E206973206F7574206F66206D696E2D6D61782072616E67650000 PUSH1 0x44 DUP3 ADD MSTORE SWAP1 MLOAD SWAP1 DUP2 SWAP1 SUB PUSH1 0x64 ADD SWAP1 REVERT JUMPDEST DUP2 MLOAD PUSH1 0x60 SWAP1 DUP2 ADD DUP1 MLOAD PUSH4 0xFFFFFFFF PUSH1 0x1 SWAP1 SWAP2 ADD DUP2 AND SWAP1 SWAP2 MSTORE PUSH1 0x40 DUP1 MLOAD DUP1 DUP3 ADD DUP3 MSTORE PUSH1 0x17 DUP6 DUP2 SIGNEXTEND DUP1 DUP4 MSTORE PUSH8 0xFFFFFFFFFFFFFFFF TIMESTAMP DUP2 AND PUSH1 0x20 DUP1 DUP7 ADD SWAP2 DUP3 MSTORE DUP11 MLOAD DUP10 ADD MLOAD DUP9 AND PUSH1 0x0 SWAP1 DUP2 MSTORE PUSH1 0x2B DUP3 MSTORE DUP8 DUP2 KECCAK256 SWAP7 MLOAD DUP8 SLOAD SWAP4 MLOAD SWAP1 SWAP5 AND PUSH1 0x1 PUSH1 0xC0 SHL MUL SWAP4 SWAP1 SWAP6 SIGNEXTEND PUSH24 0xFFFFFFFFFFFFFFFFFFFFFFFFFFFFFFFFFFFFFFFFFFFFFFFF SWAP1 DUP2 AND PUSH32 0xFFFFFFFFFFFFFFFF000000000000000000000000000000000000000000000000 SWAP1 SWAP4 AND SWAP3 SWAP1 SWAP3 OR SWAP1 SWAP2 AND SWAP2 SWAP1 SWAP2 OR SWAP1 SWAP4 SSTORE DUP8 MLOAD DUP7 ADD MLOAD DUP5 DUP10 ADD MLOAD DUP5 DUP11 ADD MLOAD PUSH1 0x80 DUP1 DUP13 ADD MLOAD DUP9 MLOAD SWAP6 DUP7 MSTORE CALLER DUP7 DUP10 ADD DUP2 SWAP1 MSTORE SWAP2 DUP7 ADD DUP2 SWAP1 MSTORE PUSH1 0xA0 SWAP9 DUP7 ADD DUP10 DUP2 MSTORE DUP5 MLOAD SWAP10 DUP8 ADD SWAP10 SWAP1 SWAP10 MSTORE DUP4 MLOAD SWAP5 SWAP1 SWAP10 AND SWAP10 PUSH32 0xF6A97944F31EA060DFDE0566E4167C1A1082551E64B60ECB14D599A9D023D451 SWAP10 DUP13 SWAP10 SWAP3 SWAP9 SWAP5 SWAP8 SWAP4 SWAP7 SWAP1 SWAP6 SWAP1 SWAP5 SWAP3 SWAP4 SWAP2 DUP6 ADD SWAP3 PUSH1 0xC0 DUP7 ADD SWAP3 DUP10 DUP3 ADD SWAP3 SWAP1 SWAP2 MUL SWAP1 DUP2 SWAP1 DUP5 SWAP1 DUP5 SWAP1 JUMPDEST DUP4 DUP2 LT ISZERO PUSH2 0x35B0 JUMPI DUP2 DUP2 ADD MLOAD DUP4 DUP3 ADD MSTORE PUSH1 0x20 ADD PUSH2 0x3598 JUMP JUMPDEST POP POP POP POP SWAP1 POP ADD DUP4 DUP2 SUB DUP3 MSTORE DUP6 DUP2 DUP2 MLOAD DUP2 MSTORE PUSH1 0x20 ADD SWAP2 POP DUP1 MLOAD SWAP1 PUSH1 0x20 ADD SWAP1 DUP1 DUP4 DUP4 PUSH1 0x0 JUMPDEST DUP4 DUP2 LT ISZERO PUSH2 0x35EC JUMPI DUP2 DUP2 ADD MLOAD DUP4 DUP3 ADD MSTORE PUSH1 0x20 ADD PUSH2 0x35D4 JUMP JUMPDEST POP POP POP POP SWAP1 POP SWAP1 DUP2 ADD SWAP1 PUSH1 0x1F AND DUP1 ISZERO PUSH2 0x3619 JUMPI DUP1 DUP3 SUB DUP1 MLOAD PUSH1 0x1 DUP4 PUSH1 0x20 SUB PUSH2 0x100 EXP SUB NOT AND DUP2 MSTORE PUSH1 0x20 ADD SWAP2 POP JUMPDEST POP SWAP8 POP POP POP POP POP POP POP POP PUSH1 0x40 MLOAD DUP1 SWAP2 SUB SWAP1 LOG2 DUP2 MLOAD PUSH1 0x60 ADD MLOAD PUSH1 0x40 DUP1 MLOAD TIMESTAMP DUP2 MSTORE SWAP1 MLOAD PUSH1 0x0 SWAP3 PUSH4 0xFFFFFFFF AND SWAP2 PUSH32 0x109FC6F55CF40689F02FBAAD7AF7FE7BBAC8A3D2186600AFC7D3E10CAC60271 SWAP2 SWAP1 DUP2 SWAP1 SUB PUSH1 0x20 ADD SWAP1 LOG3 DUP2 PUSH1 0x0 ADD MLOAD PUSH1 0x60 ADD MLOAD PUSH4 0xFFFFFFFF AND DUP2 PUSH1 0x17 SIGNEXTEND PUSH32 0x559884FD3A460DB3073B7FC896CC77986F16E378210DED43186175BF646FC5F TIMESTAMP PUSH1 0x40 MLOAD DUP1 DUP3 DUP2 MSTORE PUSH1 0x20 ADD SWAP2 POP POP PUSH1 0x40 MLOAD DUP1 SWAP2 SUB SWAP1 LOG3 PUSH2 0x36CE DUP3 PUSH1 0x0 ADD MLOAD PUSH1 0x60 ADD MLOAD DUP3 PUSH1 0x17 SIGNEXTEND PUSH2 0x49CD JUMP JUMPDEST POP DUP1 MLOAD DUP1 MLOAD PUSH1 0x2A DUP1 SLOAD PUSH1 0x20 DUP5 ADD MLOAD PUSH1 0x40 DUP6 ADD MLOAD PUSH1 0x60 SWAP1 SWAP6 ADD MLOAD PUSH16 0xFFFFFFFFFFFFFFFFFFFFFFFFFFFFFFFF NOT SWAP1 SWAP3 AND PUSH1 0x80 SWAP5 SWAP1 SWAP5 SHR SWAP4 SWAP1 SWAP4 OR PUSH32 0xFFFFFFFFFFFFFFFFFFFFFF0000000000FFFFFFFFFFFFFFFFFFFFFFFFFFFFFFFF AND PUSH1 0x1 PUSH1 0x80 SHL PUSH5 0xFFFFFFFFFF SWAP1 SWAP5 AND SWAP4 SWAP1 SWAP4 MUL SWAP3 SWAP1 SWAP3 OR PUSH1 0xFF PUSH1 0xA8 SHL NOT AND PUSH1 0x1 PUSH1 0xA8 SHL PUSH1 0xFF SWAP1 SWAP5 AND SWAP4 SWAP1 SWAP4 MUL SWAP3 SWAP1 SWAP3 OR PUSH32 0xFFFFFFFFFFFF00000000FFFFFFFFFFFFFFFFFFFFFFFFFFFFFFFFFFFFFFFFFFFF AND PUSH1 0x1 PUSH1 0xB0 SHL PUSH4 0xFFFFFFFF SWAP3 DUP4 AND MUL OR SWAP1 SWAP2 SSTORE DUP3 LT PUSH2 0x3793 JUMPI INVALID JUMPDEST PUSH2 0x37A1 DUP3 DUP3 PUSH1 0x20 ADD MLOAD PUSH2 0x4ABB JUMP JUMPDEST POP POP POP POP POP POP POP POP POP JUMP JUMPDEST PUSH1 0x0 DUP1 PUSH32 0x0 PUSH1 0x1 PUSH1 0x1 PUSH1 0xA0 SHL SUB AND PUSH4 0x70A08231 ADDRESS PUSH1 0x40 MLOAD DUP3 PUSH4 0xFFFFFFFF AND PUSH1 0xE0 SHL DUP2 MSTORE PUSH1 0x4 ADD DUP1 DUP3 PUSH1 0x1 PUSH1 0x1 PUSH1 0xA0 SHL SUB AND DUP2 MSTORE PUSH1 0x20 ADD SWAP2 POP POP PUSH1 0x20 PUSH1 0x40 MLOAD DUP1 DUP4 SUB DUP2 DUP7 DUP1 EXTCODESIZE ISZERO DUP1 ISZERO PUSH2 0x381C JUMPI PUSH1 0x0 DUP1 REVERT JUMPDEST POP GAS STATICCALL ISZERO DUP1 ISZERO PUSH2 0x3830 JUMPI RETURNDATASIZE PUSH1 0x0 DUP1 RETURNDATACOPY RETURNDATASIZE PUSH1 0x0 REVERT JUMPDEST POP POP POP POP PUSH1 0x40 MLOAD RETURNDATASIZE PUSH1 0x20 DUP2 LT ISZERO PUSH2 0x3846 JUMPI PUSH1 0x0 DUP1 REVERT JUMPDEST POP MLOAD SWAP1 POP PUSH1 0x0 PUSH2 0x3854 PUSH2 0x47E9 JUMP JUMPDEST SWAP1 SWAP2 SUB SWAP2 POP POP SWAP1 JUMP JUMPDEST PUSH1 0x2F SLOAD PUSH1 0xFF AND DUP2 JUMP JUMPDEST PUSH1 0x1 PUSH1 0x1 PUSH1 0xA0 SHL SUB DUP2 AND PUSH1 0x0 SWAP1 DUP2 MSTORE PUSH1 0x27 PUSH1 0x20 SWAP1 DUP2 MSTORE PUSH1 0x40 DUP1 DUP4 KECCAK256 DUP2 MLOAD DUP1 DUP4 ADD SWAP1 SWAP3 MSTORE DUP1 SLOAD PUSH1 0xFF DUP1 DUP3 AND DUP5 MSTORE DUP6 SWAP5 DUP5 ADD SWAP2 PUSH2 0x100 SWAP1 DIV AND PUSH1 0x2 DUP2 GT ISZERO PUSH2 0x38A8 JUMPI INVALID JUMPDEST PUSH1 0x2 DUP2 GT ISZERO PUSH2 0x38B3 JUMPI INVALID JUMPDEST SWAP1 MSTORE POP SWAP1 POP PUSH1 0x0 DUP2 PUSH1 0x20 ADD MLOAD PUSH1 0x2 DUP2 GT ISZERO PUSH2 0x38CA JUMPI INVALID JUMPDEST EQ ISZERO PUSH2 0x38DA JUMPI PUSH1 0x0 SWAP2 POP POP PUSH2 0xE30 JUMP JUMPDEST PUSH1 0x1 PUSH1 0x4 DUP3 PUSH1 0x0 ADD MLOAD PUSH1 0xFF AND PUSH1 0x1F DUP2 LT PUSH2 0x38F0 JUMPI INVALID JUMPDEST PUSH1 0x10 SWAP2 DUP3 DUP3 DIV ADD SWAP2 SWAP1 MOD PUSH1 0x2 MUL SWAP1 SLOAD SWAP1 PUSH2 0x100 EXP SWAP1 DIV PUSH2 0xFFFF AND SUB SWAP2 POP POP SWAP2 SWAP1 POP JUMP JUMPDEST PUSH1 0x0 DUP1 DUP1 DUP1 DUP1 CALLER ORIGIN EQ PUSH2 0x396D JUMPI PUSH1 0x40 DUP1 MLOAD PUSH3 0x461BCD PUSH1 0xE5 SHL DUP2 MSTORE PUSH1 0x20 PUSH1 0x4 DUP3 ADD MSTORE PUSH1 0x14 PUSH1 0x24 DUP3 ADD MSTORE PUSH32 0x4F6E6C792063616C6C61626C6520627920454F41000000000000000000000000 PUSH1 0x44 DUP3 ADD MSTORE SWAP1 MLOAD SWAP1 DUP2 SWAP1 SUB PUSH1 0x64 ADD SWAP1 REVERT JUMPDEST POP POP PUSH1 0x2A SLOAD PUSH4 0xFFFFFFFF PUSH1 0x1 PUSH1 0xB0 SHL DUP3 DIV DUP2 AND PUSH1 0x0 SWAP1 DUP2 MSTORE PUSH1 0x2B PUSH1 0x20 MSTORE PUSH1 0x40 SWAP1 KECCAK256 SLOAD PUSH1 0x80 DUP4 SWAP1 SHL SWAP7 PUSH1 0x1 PUSH1 0x80 SHL SWAP1 SWAP4 DIV PUSH1 0x8 DUP2 SWAP1 SHR SWAP1 SWAP3 AND SWAP6 POP PUSH5 0xFFFFFFFFFF SWAP1 SWAP2 AND SWAP4 POP PUSH1 0x17 DUP2 SWAP1 SIGNEXTEND SWAP3 POP PUSH1 0x1 PUSH1 0xC0 SHL SWAP1 DIV PUSH8 0xFFFFFFFFFFFFFFFF AND SWAP1 JUMP JUMPDEST PUSH1 0x1 PUSH1 0x1 PUSH1 0xA0 SHL SUB DUP3 DUP2 AND PUSH1 0x0 SWAP1 DUP2 MSTORE PUSH1 0x6 PUSH1 0x20 MSTORE PUSH1 0x40 SWAP1 KECCAK256 SLOAD AND CALLER EQ PUSH2 0x3A3B JUMPI PUSH1 0x40 DUP1 MLOAD PUSH3 0x461BCD PUSH1 0xE5 SHL DUP2 MSTORE PUSH1 0x20 PUSH1 0x4 DUP3 ADD MSTORE PUSH1 0x1D PUSH1 0x24 DUP3 ADD MSTORE PUSH32 0x6F6E6C792063757272656E742070617965652063616E20757064617465000000 PUSH1 0x44 DUP3 ADD MSTORE SWAP1 MLOAD SWAP1 DUP2 SWAP1 SUB PUSH1 0x64 ADD SWAP1 REVERT JUMPDEST CALLER PUSH1 0x1 PUSH1 0x1 PUSH1 0xA0 SHL SUB DUP3 AND EQ ISZERO PUSH2 0x3A99 JUMPI PUSH1 0x40 DUP1 MLOAD PUSH3 0x461BCD PUSH1 0xE5 SHL DUP2 MSTORE PUSH1 0x20 PUSH1 0x4 DUP3 ADD MSTORE PUSH1 0x17 PUSH1 0x24 DUP3 ADD MSTORE PUSH32 0x63616E6E6F74207472616E7366657220746F2073656C66000000000000000000 PUSH1 0x44 DUP3 ADD MSTORE SWAP1 MLOAD SWAP1 DUP2 SWAP1 SUB PUSH1 0x64 ADD SWAP1 REVERT JUMPDEST PUSH1 0x1 PUSH1 0x1 PUSH1 0xA0 SHL SUB DUP1 DUP4 AND PUSH1 0x0 SWAP1 DUP2 MSTORE PUSH1 0x7 PUSH1 0x20 MSTORE PUSH1 0x40 SWAP1 KECCAK256 DUP1 SLOAD DUP4 DUP4 AND PUSH1 0x1 PUSH1 0x1 PUSH1 0xA0 SHL SUB NOT DUP3 AND DUP2 OR SWAP1 SWAP3 SSTORE SWAP1 SWAP2 AND SWAP1 DUP2 EQ PUSH2 0x3B0C JUMPI PUSH1 0x40 MLOAD PUSH1 0x1 PUSH1 0x1 PUSH1 0xA0 SHL SUB DUP1 DUP5 AND SWAP2 CALLER SWAP2 DUP7 AND SWAP1 PUSH32 0x84F7C7C80BB8ED2279B4AAB5F61CD05E6374073D38F46D7F32DE8C30E9E38367 SWAP1 PUSH1 0x0 SWAP1 LOG4 JUMPDEST POP POP POP JUMP JUMPDEST PUSH1 0x0 SLOAD PUSH1 0x1 PUSH1 0x1 PUSH1 0xA0 SHL SUB AND CALLER EQ PUSH2 0x3B69 JUMPI PUSH1 0x40 DUP1 MLOAD PUSH3 0x461BCD PUSH1 0xE5 SHL DUP2 MSTORE PUSH1 0x20 PUSH1 0x4 DUP3 ADD MSTORE PUSH1 0x16 PUSH1 0x24 DUP3 ADD MSTORE PUSH22 0x27B7363C9031B0B63630B1363290313C9037BBB732B9 PUSH1 0x51 SHL PUSH1 0x44 DUP3 ADD MSTORE SWAP1 MLOAD SWAP1 DUP2 SWAP1 SUB PUSH1 0x64 ADD SWAP1 REVERT JUMPDEST PUSH1 0x1 DUP1 SLOAD PUSH1 0x1 PUSH1 0x1 PUSH1 0xA0 SHL SUB NOT AND PUSH1 0x1 PUSH1 0x1 PUSH1 0xA0 SHL SUB DUP4 DUP2 AND SWAP2 DUP3 OR SWAP1 SWAP3 SSTORE PUSH1 0x0 DUP1 SLOAD PUSH1 0x40 MLOAD SWAP3 SWAP4 AND SWAP2 PUSH32 0xED8889F560326EB138920D842192F0EB3DD22B4F139C87A2C57538E05BAE1278 SWAP2 SWAP1 LOG3 POP JUMP JUMPDEST PUSH1 0x0 SLOAD PUSH1 0x1 PUSH1 0x1 PUSH1 0xA0 SHL SUB AND CALLER EQ PUSH2 0x3C12 JUMPI PUSH1 0x40 DUP1 MLOAD PUSH3 0x461BCD PUSH1 0xE5 SHL DUP2 MSTORE PUSH1 0x20 PUSH1 0x4 DUP3 ADD MSTORE PUSH1 0x16 PUSH1 0x24 DUP3 ADD MSTORE PUSH22 0x27B7363C9031B0B63630B1363290313C9037BBB732B9 PUSH1 0x51 SHL PUSH1 0x44 DUP3 ADD MSTORE SWAP1 MLOAD SWAP1 DUP2 SWAP1 SUB PUSH1 0x64 ADD SWAP1 REVERT JUMPDEST PUSH2 0x1CF6 DUP2 PUSH2 0x4CED JUMP JUMPDEST PUSH1 0x0 DUP1 PUSH1 0x0 DUP1 PUSH1 0x0 PUSH2 0x3C64 CALLER PUSH1 0x0 CALLDATASIZE DUP1 DUP1 PUSH1 0x1F ADD PUSH1 0x20 DUP1 SWAP2 DIV MUL PUSH1 0x20 ADD PUSH1 0x40 MLOAD SWAP1 DUP2 ADD PUSH1 0x40 MSTORE DUP1 SWAP4 SWAP3 SWAP2 SWAP1 DUP2 DUP2 MSTORE PUSH1 0x20 ADD DUP4 DUP4 DUP1 DUP3 DUP5 CALLDATACOPY PUSH1 0x0 SWAP3 ADD SWAP2 SWAP1 SWAP2 MSTORE POP PUSH2 0x18E9 SWAP3 POP POP POP JUMP JUMPDEST PUSH2 0x3CA1 JUMPI PUSH1 0x40 DUP1 MLOAD PUSH3 0x461BCD PUSH1 0xE5 SHL DUP2 MSTORE PUSH1 0x20 PUSH1 0x4 DUP3 ADD MSTORE PUSH1 0x9 PUSH1 0x24 DUP3 ADD MSTORE PUSH9 0x4E6F20616363657373 PUSH1 0xB8 SHL PUSH1 0x44 DUP3 ADD MSTORE SWAP1 MLOAD SWAP1 DUP2 SWAP1 SUB PUSH1 0x64 ADD SWAP1 REVERT JUMPDEST PUSH2 0x3CA9 PUSH2 0x4D64 JUMP JUMPDEST SWAP5 POP SWAP5 POP SWAP5 POP SWAP5 POP SWAP5 POP SWAP1 SWAP2 SWAP3 SWAP4 SWAP5 JUMP JUMPDEST PUSH1 0x2A SLOAD PUSH1 0x1 PUSH1 0xB0 SHL SWAP1 DIV PUSH4 0xFFFFFFFF AND PUSH1 0x0 SWAP1 DUP2 MSTORE PUSH1 0x2B PUSH1 0x20 MSTORE PUSH1 0x40 SWAP1 KECCAK256 SLOAD PUSH1 0x17 SWAP1 DUP2 SIGNEXTEND SWAP1 SIGNEXTEND SWAP1 JUMP JUMPDEST PUSH1 0x1 PUSH1 0x1 PUSH1 0xA0 SHL SUB DUP2 AND PUSH1 0x0 SWAP1 DUP2 MSTORE PUSH1 0x27 PUSH1 0x20 SWAP1 DUP2 MSTORE PUSH1 0x40 DUP1 DUP4 KECCAK256 DUP2 MLOAD DUP1 DUP4 ADD SWAP1 SWAP3 MSTORE DUP1 SLOAD PUSH1 0xFF DUP1 DUP3 AND DUP5 MSTORE SWAP3 SWAP4 SWAP2 SWAP3 SWAP2 DUP5 ADD SWAP2 PUSH2 0x100 SWAP1 SWAP2 DIV AND PUSH1 0x2 DUP2 GT ISZERO PUSH2 0x3D29 JUMPI INVALID JUMPDEST PUSH1 0x2 DUP2 GT ISZERO PUSH2 0x3D34 JUMPI INVALID JUMPDEST SWAP1 MSTORE POP SWAP1 POP PUSH1 0x0 PUSH2 0x3D44 DUP4 PUSH2 0xD05 JUMP JUMPDEST SWAP1 POP DUP1 ISZERO PUSH2 0x3B0C JUMPI PUSH1 0x1 PUSH1 0x1 PUSH1 0xA0 SHL SUB DUP1 DUP5 AND PUSH1 0x0 SWAP1 DUP2 MSTORE PUSH1 0x6 PUSH1 0x20 SWAP1 DUP2 MSTORE PUSH1 0x40 DUP1 DUP4 KECCAK256 SLOAD DUP2 MLOAD PUSH32 0xA9059CBB00000000000000000000000000000000000000000000000000000000 DUP2 MSTORE SWAP1 DUP6 AND PUSH1 0x4 DUP3 ADD DUP2 SWAP1 MSTORE PUSH1 0x24 DUP3 ADD DUP8 SWAP1 MSTORE SWAP2 MLOAD SWAP2 SWAP5 PUSH32 0x0 AND SWAP4 PUSH4 0xA9059CBB SWAP4 PUSH1 0x44 DUP1 DUP5 ADD SWAP5 SWAP2 SWAP4 SWAP2 SWAP3 SWAP2 DUP4 SWAP1 SUB ADD SWAP1 DUP3 SWAP1 DUP8 DUP1 EXTCODESIZE ISZERO DUP1 ISZERO PUSH2 0x3DED JUMPI PUSH1 0x0 DUP1 REVERT JUMPDEST POP GAS CALL ISZERO DUP1 ISZERO PUSH2 0x3E01 JUMPI RETURNDATASIZE PUSH1 0x0 DUP1 RETURNDATACOPY RETURNDATASIZE PUSH1 0x0 REVERT JUMPDEST POP POP POP POP PUSH1 0x40 MLOAD RETURNDATASIZE PUSH1 0x20 DUP2 LT ISZERO PUSH2 0x3E17 JUMPI PUSH1 0x0 DUP1 REVERT JUMPDEST POP MLOAD PUSH2 0x3E5F JUMPI PUSH1 0x40 DUP1 MLOAD PUSH3 0x461BCD PUSH1 0xE5 SHL DUP2 MSTORE PUSH1 0x20 PUSH1 0x4 DUP3 ADD MSTORE PUSH1 0x12 PUSH1 0x24 DUP3 ADD MSTORE PUSH18 0x696E73756666696369656E742066756E6473 PUSH1 0x70 SHL PUSH1 0x44 DUP3 ADD MSTORE SWAP1 MLOAD SWAP1 DUP2 SWAP1 SUB PUSH1 0x64 ADD SWAP1 REVERT JUMPDEST PUSH1 0x1 PUSH1 0x4 DUP5 PUSH1 0x0 ADD MLOAD PUSH1 0xFF AND PUSH1 0x1F DUP2 LT PUSH2 0x3E75 JUMPI INVALID JUMPDEST PUSH1 0x10 SWAP2 DUP3 DUP3 DIV ADD SWAP2 SWAP1 MOD PUSH1 0x2 MUL PUSH2 0x100 EXP DUP2 SLOAD DUP2 PUSH2 0xFFFF MUL NOT AND SWAP1 DUP4 PUSH2 0xFFFF AND MUL OR SWAP1 SSTORE POP PUSH1 0x1 PUSH1 0x8 DUP5 PUSH1 0x0 ADD MLOAD PUSH1 0xFF AND PUSH1 0x1F DUP2 LT PUSH2 0x3EB0 JUMPI INVALID JUMPDEST ADD SSTORE PUSH1 0x40 DUP1 MLOAD PUSH1 0x1 PUSH1 0x1 PUSH1 0xA0 SHL SUB DUP1 DUP8 AND DUP3 MSTORE DUP4 AND PUSH1 0x20 DUP3 ADD MSTORE DUP1 DUP3 ADD DUP5 SWAP1 MSTORE SWAP1 MLOAD PUSH32 0xE8EC50E5150AE28AE37E493FF389FFAB7FFAEC2DC4DCCFCA03F12A3DE29D12B2 SWAP2 DUP2 SWAP1 SUB PUSH1 0x60 ADD SWAP1 LOG1 POP POP POP POP JUMP JUMPDEST PUSH1 0x0 DUP11 DUP11 DUP11 DUP11 DUP11 DUP11 DUP11 DUP11 DUP11 DUP11 PUSH1 0x40 MLOAD PUSH1 0x20 ADD DUP1 DUP12 PUSH1 0x1 PUSH1 0x1 PUSH1 0xA0 SHL SUB AND DUP2 MSTORE PUSH1 0x20 ADD DUP11 PUSH8 0xFFFFFFFFFFFFFFFF AND DUP2 MSTORE PUSH1 0x20 ADD DUP1 PUSH1 0x20 ADD DUP1 PUSH1 0x20 ADD DUP8 PUSH1 0xFF AND DUP2 MSTORE PUSH1 0x20 ADD DUP7 PUSH8 0xFFFFFFFFFFFFFFFF AND DUP2 MSTORE PUSH1 0x20 ADD DUP1 PUSH1 0x20 ADD DUP5 DUP2 SUB DUP5 MSTORE DUP13 DUP13 DUP3 DUP2 DUP2 MSTORE PUSH1 0x20 ADD SWAP3 POP PUSH1 0x20 MUL DUP1 DUP3 DUP5 CALLDATACOPY PUSH1 0x0 DUP4 DUP3 ADD MSTORE PUSH1 0x1F ADD PUSH1 0x1F NOT AND SWAP1 SWAP2 ADD DUP6 DUP2 SUB DUP5 MSTORE DUP11 DUP2 MSTORE PUSH1 0x20 SWAP1 DUP2 ADD SWAP2 POP DUP12 SWAP1 DUP12 MUL DUP1 DUP3 DUP5 CALLDATACOPY PUSH1 0x0 DUP4 DUP3 ADD MSTORE PUSH1 0x1F ADD PUSH1 0x1F NOT AND SWAP1 SWAP2 ADD DUP6 DUP2 SUB DUP4 MSTORE DUP7 DUP2 MSTORE PUSH1 0x20 ADD SWAP1 POP DUP7 DUP7 DUP1 DUP3 DUP5 CALLDATACOPY PUSH1 0x0 DUP2 DUP5 ADD MSTORE PUSH1 0x1F NOT PUSH1 0x1F DUP3 ADD AND SWAP1 POP DUP1 DUP4 ADD SWAP3 POP POP POP SWAP14 POP POP POP POP POP POP POP POP POP POP POP POP POP POP PUSH1 0x40 MLOAD PUSH1 0x20 DUP2 DUP4 SUB SUB DUP2 MSTORE SWAP1 PUSH1 0x40 MSTORE DUP1 MLOAD SWAP1 PUSH1 0x20 ADD KECCAK256 SWAP1 POP SWAP11 SWAP10 POP POP POP POP POP POP POP POP POP POP JUMP JUMPDEST PUSH1 0x2A SLOAD PUSH1 0x1 PUSH1 0xB0 SHL SWAP1 DIV PUSH4 0xFFFFFFFF AND SWAP1 JUMP JUMPDEST PUSH1 0x1 PUSH1 0x1 PUSH1 0xA0 SHL SUB DUP3 AND PUSH1 0x0 SWAP1 DUP2 MSTORE PUSH1 0x30 PUSH1 0x20 MSTORE PUSH1 0x40 DUP2 KECCAK256 SLOAD PUSH1 0xFF AND DUP1 PUSH2 0x1908 JUMPI POP POP PUSH1 0x2F SLOAD PUSH1 0xFF AND ISZERO SWAP3 SWAP2 POP POP JUMP JUMPDEST PUSH1 0x2E DUP1 SLOAD PUSH1 0x40 DUP1 MLOAD PUSH1 0x20 PUSH1 0x1F PUSH1 0x2 PUSH1 0x0 NOT PUSH2 0x100 PUSH1 0x1 DUP9 AND ISZERO MUL ADD SWAP1 SWAP6 AND SWAP5 SWAP1 SWAP5 DIV SWAP4 DUP5 ADD DUP2 SWAP1 DIV DUP2 MUL DUP3 ADD DUP2 ADD SWAP1 SWAP3 MSTORE DUP3 DUP2 MSTORE PUSH1 0x60 SWAP4 SWAP1 SWAP3 SWAP1 SWAP2 DUP4 ADD DUP3 DUP3 DUP1 ISZERO PUSH2 0x1B74 JUMPI DUP1 PUSH1 0x1F LT PUSH2 0x40AA JUMPI PUSH2 0x100 DUP1 DUP4 SLOAD DIV MUL DUP4 MSTORE SWAP2 PUSH1 0x20 ADD SWAP2 PUSH2 0x1B74 JUMP JUMPDEST DUP3 ADD SWAP2 SWAP1 PUSH1 0x0 MSTORE PUSH1 0x20 PUSH1 0x0 KECCAK256 SWAP1 JUMPDEST DUP2 SLOAD DUP2 MSTORE SWAP1 PUSH1 0x1 ADD SWAP1 PUSH1 0x20 ADD DUP1 DUP4 GT PUSH2 0x40B8 JUMPI POP SWAP4 SWAP6 SWAP5 POP POP POP POP POP JUMP JUMPDEST PUSH1 0x2A SLOAD PUSH1 0x1 PUSH1 0xB0 SHL SWAP1 DIV PUSH4 0xFFFFFFFF AND PUSH1 0x0 SWAP1 DUP2 MSTORE PUSH1 0x2B PUSH1 0x20 MSTORE PUSH1 0x40 SWAP1 KECCAK256 SLOAD PUSH1 0x1 PUSH1 0xC0 SHL SWAP1 DIV PUSH8 0xFFFFFFFFFFFFFFFF AND SWAP1 JUMP JUMPDEST PUSH1 0x0 DUP1 PUSH1 0x0 DUP1 PUSH1 0x0 PUSH4 0xFFFFFFFF DUP7 PUSH10 0xFFFFFFFFFFFFFFFFFFFF AND GT ISZERO PUSH1 0x40 MLOAD DUP1 PUSH1 0x40 ADD PUSH1 0x40 MSTORE DUP1 PUSH1 0xF DUP2 MSTORE PUSH1 0x20 ADD PUSH32 0x4E6F20646174612070726573656E740000000000000000000000000000000000 DUP2 MSTORE POP SWAP1 PUSH2 0x41E4 JUMPI PUSH1 0x40 MLOAD PUSH3 0x461BCD PUSH1 0xE5 SHL DUP2 MSTORE PUSH1 0x4 ADD DUP1 DUP1 PUSH1 0x20 ADD DUP3 DUP2 SUB DUP3 MSTORE DUP4 DUP2 DUP2 MLOAD DUP2 MSTORE PUSH1 0x20 ADD SWAP2 POP DUP1 MLOAD SWAP1 PUSH1 0x20 ADD SWAP1 DUP1 DUP4 DUP4 PUSH1 0x0 JUMPDEST DUP4 DUP2 LT ISZERO PUSH2 0x41A9 JUMPI DUP2 DUP2 ADD MLOAD DUP4 DUP3 ADD MSTORE PUSH1 0x20 ADD PUSH2 0x4191 JUMP JUMPDEST POP POP POP POP SWAP1 POP SWAP1 DUP2 ADD SWAP1 PUSH1 0x1F AND DUP1 ISZERO PUSH2 0x41D6 JUMPI DUP1 DUP3 SUB DUP1 MLOAD PUSH1 0x1 DUP4 PUSH1 0x20 SUB PUSH2 0x100 EXP SUB NOT AND DUP2 MSTORE PUSH1 0x20 ADD SWAP2 POP JUMPDEST POP SWAP3 POP POP POP PUSH1 0x40 MLOAD DUP1 SWAP2 SUB SWAP1 REVERT JUMPDEST POP POP POP POP PUSH4 0xFFFFFFFF DUP4 AND PUSH1 0x0 SWAP1 DUP2 MSTORE PUSH1 0x2B PUSH1 0x20 SWAP1 DUP2 MSTORE PUSH1 0x40 SWAP2 DUP3 SWAP1 KECCAK256 DUP3 MLOAD DUP1 DUP5 ADD SWAP1 SWAP4 MSTORE SLOAD PUSH1 0x17 DUP2 DUP2 SIGNEXTEND DUP2 SIGNEXTEND DUP2 SIGNEXTEND DUP1 DUP6 MSTORE PUSH1 0x1 PUSH1 0xC0 SHL SWAP1 SWAP3 DIV PUSH8 0xFFFFFFFFFFFFFFFF AND SWAP4 SWAP1 SWAP3 ADD DUP4 SWAP1 MSTORE SWAP5 SWAP6 SWAP5 SWAP1 SIGNEXTEND SWAP4 SWAP1 SWAP3 POP DUP3 SWAP2 POP DUP5 SWAP1 JUMP JUMPDEST PUSH1 0x1 PUSH1 0x1 PUSH1 0xA0 SHL SUB DUP2 AND PUSH1 0x0 SWAP1 DUP2 MSTORE PUSH1 0x30 PUSH1 0x20 MSTORE PUSH1 0x40 SWAP1 KECCAK256 SLOAD PUSH1 0xFF AND PUSH2 0x1CF6 JUMPI PUSH1 0x1 PUSH1 0x1 PUSH1 0xA0 SHL SUB DUP2 AND PUSH1 0x0 DUP2 DUP2 MSTORE PUSH1 0x30 PUSH1 0x20 SWAP1 DUP2 MSTORE PUSH1 0x40 SWAP2 DUP3 SWAP1 KECCAK256 DUP1 SLOAD PUSH1 0xFF NOT AND PUSH1 0x1 OR SWAP1 SSTORE DUP2 MLOAD SWAP3 DUP4 MSTORE SWAP1 MLOAD PUSH32 0x87286AD1F399C8E82BF0C4EF4FCDC570EA2E1E92176E5C848B6413545B885DB4 SWAP3 DUP2 SWAP1 SUB SWAP1 SWAP2 ADD SWAP1 LOG1 POP JUMP JUMPDEST PUSH1 0x0 PUSH4 0xFFFFFFFF DUP3 GT ISZERO PUSH2 0x42D0 JUMPI POP PUSH1 0x0 PUSH2 0xE30 JUMP JUMPDEST POP PUSH4 0xFFFFFFFF AND PUSH1 0x0 SWAP1 DUP2 MSTORE PUSH1 0x2B PUSH1 0x20 MSTORE PUSH1 0x40 SWAP1 KECCAK256 SLOAD PUSH1 0x17 SWAP1 DUP2 SIGNEXTEND SWAP1 SIGNEXTEND SWAP1 JUMP JUMPDEST PUSH1 0x0 PUSH4 0xFFFFFFFF DUP3 GT ISZERO PUSH2 0x4306 JUMPI POP PUSH1 0x0 PUSH2 0xE30 JUMP JUMPDEST POP PUSH4 0xFFFFFFFF AND PUSH1 0x0 SWAP1 DUP2 MSTORE PUSH1 0x2B PUSH1 0x20 MSTORE PUSH1 0x40 SWAP1 KECCAK256 SLOAD PUSH1 0x1 PUSH1 0xC0 SHL SWAP1 DIV PUSH8 0xFFFFFFFFFFFFFFFF AND SWAP1 JUMP JUMPDEST PUSH1 0x40 DUP1 MLOAD PUSH1 0xA0 DUP2 ADD DUP3 MSTORE PUSH1 0x2 SLOAD PUSH4 0xFFFFFFFF DUP1 DUP3 AND DUP4 MSTORE PUSH5 0x100000000 DUP3 DIV DUP2 AND PUSH1 0x20 DUP5 ADD MSTORE PUSH1 0x1 PUSH1 0x40 SHL DUP3 DIV DUP2 AND DUP4 DUP6 ADD MSTORE PUSH1 0x1 PUSH1 0x60 SHL DUP3 DIV DUP2 AND PUSH1 0x60 DUP5 ADD MSTORE PUSH1 0x1 PUSH1 0x80 SHL SWAP1 SWAP2 DIV AND PUSH1 0x80 DUP3 ADD MSTORE DUP2 MLOAD PUSH2 0x3E0 DUP2 ADD SWAP3 DUP4 SWAP1 MSTORE SWAP1 SWAP2 PUSH1 0x0 SWAP2 SWAP1 PUSH1 0x4 SWAP1 PUSH1 0x1F SWAP1 DUP3 DUP6 DUP6 JUMPDEST DUP3 DUP3 SWAP1 SLOAD SWAP1 PUSH2 0x100 EXP SWAP1 DIV PUSH2 0xFFFF AND PUSH2 0xFFFF AND DUP2 MSTORE PUSH1 0x20 ADD SWAP1 PUSH1 0x2 ADD SWAP1 PUSH1 0x20 DUP3 PUSH1 0x1 ADD DIV SWAP3 DUP4 ADD SWAP3 PUSH1 0x1 SUB DUP3 MUL SWAP2 POP DUP1 DUP5 GT PUSH2 0x439A JUMPI POP POP PUSH1 0x40 DUP1 MLOAD PUSH2 0x3E0 DUP2 ADD SWAP2 DUP3 SWAP1 MSTORE SWAP6 SWAP7 POP PUSH1 0x0 SWAP6 SWAP5 POP PUSH1 0x8 SWAP4 POP PUSH1 0x1F SWAP3 POP SWAP1 POP DUP3 DUP5 JUMPDEST DUP2 SLOAD DUP2 MSTORE PUSH1 0x20 ADD SWAP1 PUSH1 0x1 ADD SWAP1 DUP1 DUP4 GT PUSH2 0x43F4 JUMPI POP POP POP POP POP SWAP1 POP PUSH1 0x0 PUSH1 0x29 DUP1 SLOAD DUP1 PUSH1 0x20 MUL PUSH1 0x20 ADD PUSH1 0x40 MLOAD SWAP1 DUP2 ADD PUSH1 0x40 MSTORE DUP1 SWAP3 SWAP2 SWAP1 DUP2 DUP2 MSTORE PUSH1 0x20 ADD DUP3 DUP1 SLOAD DUP1 ISZERO PUSH2 0x4466 JUMPI PUSH1 0x20 MUL DUP3 ADD SWAP2 SWAP1 PUSH1 0x0 MSTORE PUSH1 0x20 PUSH1 0x0 KECCAK256 SWAP1 JUMPDEST DUP2 SLOAD PUSH1 0x1 PUSH1 0x1 PUSH1 0xA0 SHL SUB AND DUP2 MSTORE PUSH1 0x1 SWAP1 SWAP2 ADD SWAP1 PUSH1 0x20 ADD DUP1 DUP4 GT PUSH2 0x4448 JUMPI JUMPDEST POP POP POP POP POP SWAP1 POP PUSH1 0x0 JUMPDEST DUP2 MLOAD DUP2 LT ISZERO PUSH2 0x46B3 JUMPI PUSH1 0x0 PUSH1 0x1 DUP5 DUP4 PUSH1 0x1F DUP2 LT PUSH2 0x4489 JUMPI INVALID JUMPDEST PUSH1 0x20 MUL ADD MLOAD SUB SWAP1 POP PUSH1 0x0 PUSH1 0x1 DUP7 DUP5 PUSH1 0x1F DUP2 LT PUSH2 0x44A1 JUMPI INVALID JUMPDEST PUSH1 0x20 MUL ADD MLOAD SUB PUSH2 0xFFFF AND SWAP1 POP PUSH1 0x0 DUP3 DUP9 PUSH1 0x60 ADD MLOAD PUSH4 0xFFFFFFFF AND DUP4 MUL PUSH4 0x3B9ACA00 MUL ADD SWAP1 POP PUSH1 0x0 DUP2 GT ISZERO PUSH2 0x46A8 JUMPI PUSH1 0x0 PUSH1 0x6 PUSH1 0x0 DUP8 DUP8 DUP2 MLOAD DUP2 LT PUSH2 0x44E1 JUMPI INVALID JUMPDEST PUSH1 0x20 MUL PUSH1 0x20 ADD ADD MLOAD PUSH1 0x1 PUSH1 0x1 PUSH1 0xA0 SHL SUB AND PUSH1 0x1 PUSH1 0x1 PUSH1 0xA0 SHL SUB AND DUP2 MSTORE PUSH1 0x20 ADD SWAP1 DUP2 MSTORE PUSH1 0x20 ADD PUSH1 0x0 KECCAK256 PUSH1 0x0 SWAP1 SLOAD SWAP1 PUSH2 0x100 EXP SWAP1 DIV PUSH1 0x1 PUSH1 0x1 PUSH1 0xA0 SHL SUB AND SWAP1 POP PUSH32 0x0 PUSH1 0x1 PUSH1 0x1 PUSH1 0xA0 SHL SUB AND PUSH4 0xA9059CBB DUP3 DUP5 PUSH1 0x40 MLOAD DUP4 PUSH4 0xFFFFFFFF AND PUSH1 0xE0 SHL DUP2 MSTORE PUSH1 0x4 ADD DUP1 DUP4 PUSH1 0x1 PUSH1 0x1 PUSH1 0xA0 SHL SUB AND DUP2 MSTORE PUSH1 0x20 ADD DUP3 DUP2 MSTORE PUSH1 0x20 ADD SWAP3 POP POP POP PUSH1 0x20 PUSH1 0x40 MLOAD DUP1 DUP4 SUB DUP2 PUSH1 0x0 DUP8 DUP1 EXTCODESIZE ISZERO DUP1 ISZERO PUSH2 0x4596 JUMPI PUSH1 0x0 DUP1 REVERT JUMPDEST POP GAS CALL ISZERO DUP1 ISZERO PUSH2 0x45AA JUMPI RETURNDATASIZE PUSH1 0x0 DUP1 RETURNDATACOPY RETURNDATASIZE PUSH1 0x0 REVERT JUMPDEST POP POP POP POP PUSH1 0x40 MLOAD RETURNDATASIZE PUSH1 0x20 DUP2 LT ISZERO PUSH2 0x45C0 JUMPI PUSH1 0x0 DUP1 REVERT JUMPDEST POP MLOAD PUSH2 0x4608 JUMPI PUSH1 0x40 DUP1 MLOAD PUSH3 0x461BCD PUSH1 0xE5 SHL DUP2 MSTORE PUSH1 0x20 PUSH1 0x4 DUP3 ADD MSTORE PUSH1 0x12 PUSH1 0x24 DUP3 ADD MSTORE PUSH18 0x696E73756666696369656E742066756E6473 PUSH1 0x70 SHL PUSH1 0x44 DUP3 ADD MSTORE SWAP1 MLOAD SWAP1 DUP2 SWAP1 SUB PUSH1 0x64 ADD SWAP1 REVERT JUMPDEST PUSH1 0x1 DUP9 DUP7 PUSH1 0x1F DUP2 LT PUSH2 0x4616 JUMPI INVALID JUMPDEST PUSH2 0xFFFF SWAP1 SWAP3 AND PUSH1 0x20 SWAP3 SWAP1 SWAP3 MUL ADD MSTORE PUSH1 0x1 DUP8 DUP7 PUSH1 0x1F DUP2 LT PUSH2 0x4632 JUMPI INVALID JUMPDEST PUSH1 0x20 MUL ADD MSTORE DUP6 MLOAD PUSH32 0xE8EC50E5150AE28AE37E493FF389FFAB7FFAEC2DC4DCCFCA03F12A3DE29D12B2 SWAP1 DUP8 SWAP1 DUP8 SWAP1 DUP2 LT PUSH2 0x4667 JUMPI INVALID JUMPDEST PUSH1 0x20 MUL PUSH1 0x20 ADD ADD MLOAD DUP3 DUP5 PUSH1 0x40 MLOAD DUP1 DUP5 PUSH1 0x1 PUSH1 0x1 PUSH1 0xA0 SHL SUB AND DUP2 MSTORE PUSH1 0x20 ADD DUP4 PUSH1 0x1 PUSH1 0x1 PUSH1 0xA0 SHL SUB AND DUP2 MSTORE PUSH1 0x20 ADD DUP3 DUP2 MSTORE PUSH1 0x20 ADD SWAP4 POP POP POP POP PUSH1 0x40 MLOAD DUP1 SWAP2 SUB SWAP1 LOG1 POP JUMPDEST POP POP POP PUSH1 0x1 ADD PUSH2 0x4470 JUMP JUMPDEST POP PUSH2 0x46C1 PUSH1 0x4 DUP5 PUSH1 0x1F PUSH2 0x4F69 JUMP JUMPDEST POP PUSH2 0x221E PUSH1 0x8 DUP4 PUSH1 0x1F PUSH2 0x4FFF JUMP JUMPDEST PUSH1 0x40 DUP1 MLOAD PUSH1 0xA0 DUP1 DUP3 ADD DUP4 MSTORE PUSH4 0xFFFFFFFF DUP9 DUP2 AND DUP1 DUP5 MSTORE DUP9 DUP3 AND PUSH1 0x20 DUP1 DUP7 ADD DUP3 SWAP1 MSTORE DUP10 DUP5 AND DUP7 DUP9 ADD DUP2 SWAP1 MSTORE DUP10 DUP6 AND PUSH1 0x60 DUP1 DUP10 ADD DUP3 SWAP1 MSTORE SWAP6 DUP11 AND PUSH1 0x80 SWAP9 DUP10 ADD DUP2 SWAP1 MSTORE PUSH1 0x2 DUP1 SLOAD PUSH4 0xFFFFFFFF NOT AND DUP8 OR PUSH8 0xFFFFFFFF00000000 NOT AND PUSH5 0x100000000 DUP8 MUL OR PUSH12 0xFFFFFFFF0000000000000000 NOT AND PUSH1 0x1 PUSH1 0x40 SHL DUP6 MUL OR PUSH32 0xFFFFFFFFFFFFFFFFFFFFFFFFFFFFFFFF00000000FFFFFFFFFFFFFFFFFFFFFFFF AND PUSH1 0x1 PUSH1 0x60 SHL DUP5 MUL OR PUSH32 0xFFFFFFFFFFFFFFFFFFFFFFFF00000000FFFFFFFFFFFFFFFFFFFFFFFFFFFFFFFF AND PUSH1 0x1 PUSH1 0x80 SHL DUP4 MUL OR SWAP1 SSTORE DUP10 MLOAD SWAP6 DUP7 MSTORE SWAP3 DUP6 ADD SWAP4 SWAP1 SWAP4 MSTORE DUP4 DUP9 ADD MSTORE SWAP3 DUP3 ADD MSTORE SWAP3 DUP4 ADD MSTORE SWAP2 MLOAD PUSH32 0xD0D9486A2C673E2A4B57FC82E4C8A556B3E2B82DD5DB07E2C04A920CA0F469B6 SWAP3 SWAP2 DUP2 SWAP1 SUB SWAP1 SWAP2 ADD SWAP1 LOG1 POP POP POP POP POP JUMP JUMPDEST PUSH1 0x40 DUP1 MLOAD PUSH2 0x3E0 DUP2 ADD SWAP2 DUP3 SWAP1 MSTORE PUSH1 0x0 SWAP2 DUP3 SWAP2 SWAP1 PUSH1 0x4 SWAP1 PUSH1 0x1F SWAP1 DUP3 DUP6 DUP6 JUMPDEST DUP3 DUP3 SWAP1 SLOAD SWAP1 PUSH2 0x100 EXP SWAP1 DIV PUSH2 0xFFFF AND PUSH2 0xFFFF AND DUP2 MSTORE PUSH1 0x20 ADD SWAP1 PUSH1 0x2 ADD SWAP1 PUSH1 0x20 DUP3 PUSH1 0x1 ADD DIV SWAP3 DUP4 ADD SWAP3 PUSH1 0x1 SUB DUP3 MUL SWAP2 POP DUP1 DUP5 GT PUSH2 0x4806 JUMPI SWAP1 POP POP POP POP POP POP SWAP1 POP PUSH1 0x0 JUMPDEST PUSH1 0x1F DUP2 LT ISZERO PUSH2 0x4876 JUMPI PUSH1 0x1 DUP3 DUP3 PUSH1 0x1F DUP2 LT PUSH2 0x485F JUMPI INVALID JUMPDEST PUSH1 0x20 MUL ADD MLOAD SUB PUSH2 0xFFFF AND SWAP3 SWAP1 SWAP3 ADD SWAP2 PUSH1 0x1 ADD PUSH2 0x4848 JUMP JUMPDEST POP PUSH1 0x40 DUP1 MLOAD PUSH1 0xA0 DUP2 ADD DUP3 MSTORE PUSH1 0x2 SLOAD PUSH4 0xFFFFFFFF DUP1 DUP3 AND DUP4 MSTORE PUSH5 0x100000000 DUP3 DIV DUP2 AND PUSH1 0x20 DUP1 DUP6 ADD SWAP2 SWAP1 SWAP2 MSTORE PUSH1 0x1 PUSH1 0x40 SHL DUP4 DIV DUP3 AND DUP5 DUP7 ADD MSTORE PUSH1 0x1 PUSH1 0x60 SHL DUP4 DIV DUP3 AND PUSH1 0x60 DUP6 ADD DUP2 SWAP1 MSTORE PUSH1 0x1 PUSH1 0x80 SHL SWAP1 SWAP4 DIV SWAP1 SWAP2 AND PUSH1 0x80 DUP5 ADD MSTORE PUSH1 0x29 DUP1 SLOAD DUP6 MLOAD DUP2 DUP5 MUL DUP2 ADD DUP5 ADD SWAP1 SWAP7 MSTORE DUP1 DUP7 MSTORE SWAP7 SWAP1 SWAP3 MUL PUSH4 0x3B9ACA00 MUL SWAP6 SWAP3 SWAP4 PUSH1 0x0 SWAP4 SWAP1 SWAP3 SWAP2 DUP4 ADD DUP3 DUP3 DUP1 ISZERO PUSH2 0x492D JUMPI PUSH1 0x20 MUL DUP3 ADD SWAP2 SWAP1 PUSH1 0x0 MSTORE PUSH1 0x20 PUSH1 0x0 KECCAK256 SWAP1 JUMPDEST DUP2 SLOAD PUSH1 0x1 PUSH1 0x1 PUSH1 0xA0 SHL SUB AND DUP2 MSTORE PUSH1 0x1 SWAP1 SWAP2 ADD SWAP1 PUSH1 0x20 ADD DUP1 DUP4 GT PUSH2 0x490F JUMPI JUMPDEST POP POP PUSH1 0x40 DUP1 MLOAD PUSH2 0x3E0 DUP2 ADD SWAP2 DUP3 SWAP1 MSTORE SWAP5 SWAP6 POP PUSH1 0x0 SWAP5 SWAP4 POP PUSH1 0x8 SWAP3 POP PUSH1 0x1F SWAP2 POP DUP3 DUP5 JUMPDEST DUP2 SLOAD DUP2 MSTORE PUSH1 0x20 ADD SWAP1 PUSH1 0x1 ADD SWAP1 DUP1 DUP4 GT PUSH2 0x494F JUMPI POP POP POP POP POP SWAP1 POP PUSH1 0x0 JUMPDEST DUP3 MLOAD DUP2 LT ISZERO PUSH2 0x4996 JUMPI PUSH1 0x1 DUP3 DUP3 PUSH1 0x1F DUP2 LT PUSH2 0x4983 JUMPI INVALID JUMPDEST PUSH1 0x20 MUL ADD MLOAD SUB SWAP6 SWAP1 SWAP6 ADD SWAP5 PUSH1 0x1 ADD PUSH2 0x496C JUMP JUMPDEST POP POP POP POP POP SWAP1 JUMP JUMPDEST PUSH1 0x0 DUP2 DUP4 LT ISZERO PUSH2 0x49AF JUMPI POP DUP2 PUSH2 0x190B JUMP JUMPDEST POP SWAP2 SWAP1 POP JUMP JUMPDEST PUSH1 0x20 DUP4 DUP2 MUL DUP7 ADD SWAP1 DUP3 MUL ADD PUSH1 0xE4 ADD SWAP7 SWAP6 POP POP POP POP POP POP JUMP JUMPDEST PUSH1 0x2C SLOAD PUSH1 0x1 PUSH1 0x40 SHL SWAP1 DIV PUSH1 0x1 PUSH1 0x1 PUSH1 0xA0 SHL SUB AND DUP1 PUSH2 0x49EB JUMPI POP PUSH2 0xF19 JUMP JUMPDEST PUSH1 0x0 NOT DUP4 ADD PUSH4 0xFFFFFFFF DUP2 DUP2 AND PUSH1 0x0 DUP2 DUP2 MSTORE PUSH1 0x2B PUSH1 0x20 SWAP1 DUP2 MSTORE PUSH1 0x40 DUP1 DUP4 KECCAK256 SLOAD DUP2 MLOAD PUSH32 0xBEED9B5100000000000000000000000000000000000000000000000000000000 DUP2 MSTORE PUSH1 0x4 DUP2 ADD SWAP6 SWAP1 SWAP6 MSTORE PUSH1 0x17 SWAP1 DUP2 SIGNEXTEND SWAP1 SIGNEXTEND PUSH1 0x24 DUP6 ADD DUP2 SWAP1 MSTORE SWAP5 DUP10 AND PUSH1 0x44 DUP6 ADD MSTORE PUSH1 0x64 DUP5 ADD DUP9 SWAP1 MSTORE MLOAD PUSH1 0x1 PUSH1 0x1 PUSH1 0xA0 SHL SUB DUP8 AND SWAP4 PUSH4 0xBEED9B51 SWAP4 PUSH3 0x186A0 SWAP4 PUSH1 0x84 DUP1 DUP5 ADD SWAP5 SWAP2 SWAP4 SWAP2 SWAP3 SWAP2 DUP4 SWAP1 SUB ADD SWAP1 DUP3 SWAP1 DUP9 DUP1 EXTCODESIZE ISZERO DUP1 ISZERO PUSH2 0x4A8C JUMPI PUSH1 0x0 DUP1 REVERT JUMPDEST POP DUP8 CALL SWAP4 POP POP POP POP DUP1 ISZERO PUSH2 0x4AB2 JUMPI POP PUSH1 0x40 MLOAD RETURNDATASIZE PUSH1 0x20 DUP2 LT ISZERO PUSH2 0x4AAD JUMPI PUSH1 0x0 DUP1 REVERT JUMPDEST POP MLOAD PUSH1 0x1 JUMPDEST PUSH2 0x266F JUMPI PUSH2 0x221E JUMP JUMPDEST CALLER PUSH1 0x0 SWAP1 DUP2 MSTORE PUSH1 0x27 PUSH1 0x20 SWAP1 DUP2 MSTORE PUSH1 0x40 DUP1 DUP4 KECCAK256 DUP2 MLOAD DUP1 DUP4 ADD SWAP1 SWAP3 MSTORE DUP1 SLOAD PUSH1 0xFF DUP1 DUP3 AND DUP5 MSTORE SWAP3 SWAP4 SWAP2 SWAP3 SWAP2 DUP5 ADD SWAP2 PUSH2 0x100 SWAP1 SWAP2 DIV AND PUSH1 0x2 DUP2 GT ISZERO PUSH2 0x4AF8 JUMPI INVALID JUMPDEST PUSH1 0x2 DUP2 GT ISZERO PUSH2 0x4B03 JUMPI INVALID JUMPDEST SWAP1 MSTORE POP PUSH1 0x40 DUP1 MLOAD PUSH1 0xA0 DUP2 ADD DUP3 MSTORE PUSH1 0x2 SLOAD PUSH4 0xFFFFFFFF DUP1 DUP3 AND DUP4 MSTORE PUSH5 0x100000000 DUP3 DIV DUP2 AND PUSH1 0x20 DUP5 ADD MSTORE PUSH1 0x1 PUSH1 0x40 SHL DUP3 DIV DUP2 AND DUP4 DUP6 ADD MSTORE PUSH1 0x1 PUSH1 0x60 SHL DUP3 DIV DUP2 AND PUSH1 0x60 DUP5 ADD MSTORE PUSH1 0x1 PUSH1 0x80 SHL SWAP1 SWAP2 DIV AND PUSH1 0x80 DUP3 ADD MSTORE DUP2 MLOAD PUSH2 0x3E0 DUP2 ADD SWAP3 DUP4 SWAP1 MSTORE SWAP3 SWAP4 POP SWAP2 PUSH2 0x4BB8 SWAP2 DUP6 SWAP2 SWAP1 PUSH1 0x4 SWAP1 PUSH1 0x1F SWAP1 DUP3 PUSH1 0x0 DUP6 JUMPDEST DUP3 DUP3 SWAP1 SLOAD SWAP1 PUSH2 0x100 EXP SWAP1 DIV PUSH2 0xFFFF AND PUSH2 0xFFFF AND DUP2 MSTORE PUSH1 0x20 ADD SWAP1 PUSH1 0x2 ADD SWAP1 PUSH1 0x20 DUP3 PUSH1 0x1 ADD DIV SWAP3 DUP4 ADD SWAP3 PUSH1 0x1 SUB DUP3 MUL SWAP2 POP DUP1 DUP5 GT PUSH2 0x4B76 JUMPI SWAP1 POP POP POP POP POP POP PUSH2 0x4DC0 JUMP JUMPDEST PUSH2 0x4BC6 SWAP1 PUSH1 0x4 SWAP1 PUSH1 0x1F PUSH2 0x4F69 JUMP JUMPDEST POP PUSH1 0x2 DUP3 PUSH1 0x20 ADD MLOAD PUSH1 0x2 DUP2 GT ISZERO PUSH2 0x4BD9 JUMPI INVALID JUMPDEST EQ PUSH2 0x4C2B JUMPI PUSH1 0x40 DUP1 MLOAD PUSH3 0x461BCD PUSH1 0xE5 SHL DUP2 MSTORE PUSH1 0x20 PUSH1 0x4 DUP3 ADD DUP2 SWAP1 MSTORE PUSH1 0x24 DUP3 ADD MSTORE PUSH32 0x73656E7420627920756E64657369676E61746564207472616E736D6974746572 PUSH1 0x44 DUP3 ADD MSTORE SWAP1 MLOAD SWAP1 DUP2 SWAP1 SUB PUSH1 0x64 ADD SWAP1 REVERT JUMPDEST PUSH1 0x0 PUSH2 0x4C52 PUSH4 0x3B9ACA00 GASPRICE DIV DUP4 PUSH1 0x20 ADD MLOAD PUSH4 0xFFFFFFFF AND DUP5 PUSH1 0x0 ADD MLOAD PUSH4 0xFFFFFFFF AND PUSH2 0x4E35 JUMP JUMPDEST SWAP1 POP PUSH1 0x10 CALLDATASIZE MUL PUSH1 0x0 GAS SWAP1 POP PUSH1 0x0 PUSH2 0x4C71 DUP9 PUSH4 0xFFFFFFFF AND DUP6 DUP6 DUP6 PUSH2 0x4E5B JUMP JUMPDEST PUSH16 0xFFFFFFFFFFFFFFFFFFFFFFFFFFFFFFFF AND SWAP1 POP PUSH1 0x0 PUSH3 0xF4240 DUP7 PUSH1 0x40 ADD MLOAD PUSH4 0xFFFFFFFF AND DUP4 MUL DUP2 PUSH2 0x4C9F JUMPI INVALID JUMPDEST DIV SWAP1 POP DUP6 PUSH1 0x80 ADD MLOAD PUSH4 0xFFFFFFFF AND PUSH4 0x3B9ACA00 MUL DUP2 PUSH1 0x8 DUP10 PUSH1 0x0 ADD MLOAD PUSH1 0xFF AND PUSH1 0x1F DUP2 LT PUSH2 0x4CC8 JUMPI INVALID JUMPDEST ADD SLOAD ADD ADD PUSH1 0x8 DUP9 PUSH1 0x0 ADD MLOAD PUSH1 0xFF AND PUSH1 0x1F DUP2 LT PUSH2 0x4CE0 JUMPI INVALID JUMPDEST ADD SSTORE POP POP POP POP POP POP POP POP POP JUMP JUMPDEST PUSH1 0x3 SLOAD PUSH1 0x1 PUSH1 0x1 PUSH1 0xA0 SHL SUB SWAP1 DUP2 AND SWAP1 DUP3 AND DUP2 EQ PUSH2 0xF19 JUMPI PUSH1 0x3 DUP1 SLOAD PUSH1 0x1 PUSH1 0x1 PUSH1 0xA0 SHL SUB NOT AND PUSH1 0x1 PUSH1 0x1 PUSH1 0xA0 SHL SUB DUP5 DUP2 AND SWAP2 DUP3 OR SWAP1 SWAP3 SSTORE PUSH1 0x40 DUP1 MLOAD SWAP3 DUP5 AND DUP4 MSTORE PUSH1 0x20 DUP4 ADD SWAP2 SWAP1 SWAP2 MSTORE DUP1 MLOAD PUSH32 0x793CB73064F3C8CDE7E187AE515511E6E56D1EE89BF08B82FA60FB70F8D48912 SWAP3 DUP2 SWAP1 SUB SWAP1 SWAP2 ADD SWAP1 LOG1 POP POP JUMP JUMPDEST PUSH1 0x2A SLOAD PUSH1 0x1 PUSH1 0xB0 SHL SWAP1 DIV PUSH4 0xFFFFFFFF AND PUSH1 0x0 DUP2 DUP2 MSTORE PUSH1 0x2B PUSH1 0x20 SWAP1 DUP2 MSTORE PUSH1 0x40 SWAP2 DUP3 SWAP1 KECCAK256 DUP3 MLOAD DUP1 DUP5 ADD SWAP1 SWAP4 MSTORE SLOAD PUSH1 0x17 DUP2 DUP2 SIGNEXTEND DUP2 SIGNEXTEND DUP2 SIGNEXTEND DUP1 DUP6 MSTORE PUSH1 0x1 PUSH1 0xC0 SHL SWAP1 SWAP3 DIV PUSH8 0xFFFFFFFFFFFFFFFF AND SWAP4 SWAP1 SWAP3 ADD DUP4 SWAP1 MSTORE SWAP3 SWAP4 SWAP3 SWAP1 SIGNEXTEND SWAP2 DUP2 SWAP1 DUP5 SWAP1 JUMP JUMPDEST PUSH2 0x4DC8 PUSH2 0x4F33 JUMP JUMPDEST PUSH1 0x0 JUMPDEST DUP4 MLOAD DUP2 LT ISZERO PUSH2 0x4E2D JUMPI PUSH1 0x0 DUP5 DUP3 DUP2 MLOAD DUP2 LT PUSH2 0x4DE2 JUMPI INVALID JUMPDEST ADD PUSH1 0x20 ADD MLOAD PUSH1 0xF8 SHR SWAP1 POP PUSH2 0x4E07 DUP5 DUP3 PUSH1 0x1F DUP2 LT PUSH2 0x4DFB JUMPI INVALID JUMPDEST PUSH1 0x20 MUL ADD MLOAD PUSH1 0x1 PUSH2 0x4EE7 JUMP JUMPDEST DUP5 DUP3 PUSH1 0xFF AND PUSH1 0x1F DUP2 LT PUSH2 0x4E16 JUMPI INVALID JUMPDEST PUSH2 0xFFFF SWAP1 SWAP3 AND PUSH1 0x20 SWAP3 SWAP1 SWAP3 MUL ADD MSTORE POP PUSH1 0x1 ADD PUSH2 0x4DCB JUMP JUMPDEST POP SWAP1 SWAP3 SWAP2 POP POP JUMP JUMPDEST PUSH1 0x0 DUP4 DUP4 DUP2 LT ISZERO PUSH2 0x4E48 JUMPI PUSH1 0x2 DUP6 DUP6 SUB DIV ADD JUMPDEST PUSH2 0x4E52 DUP2 DUP5 PUSH2 0x499E JUMP JUMPDEST SWAP6 SWAP5 POP POP POP POP POP JUMP JUMPDEST PUSH1 0x0 DUP2 DUP6 LT ISZERO PUSH2 0x4EB2 JUMPI PUSH1 0x40 DUP1 MLOAD PUSH3 0x461BCD PUSH1 0xE5 SHL DUP2 MSTORE PUSH1 0x20 PUSH1 0x4 DUP3 ADD DUP2 SWAP1 MSTORE PUSH1 0x24 DUP3 ADD MSTORE PUSH32 0x6761734C6566742063616E6E6F742065786365656420696E697469616C476173 PUSH1 0x44 DUP3 ADD MSTORE SWAP1 MLOAD SWAP1 DUP2 SWAP1 SUB PUSH1 0x64 ADD SWAP1 REVERT JUMPDEST DUP2 DUP6 SUB DUP4 ADD PUSH2 0x1793 ADD PUSH4 0x3B9ACA00 DUP6 DUP3 MUL MUL PUSH16 0xFFFFFFFFFFFFFFFFFFFFFFFFFFFFFFFF DUP2 LT PUSH2 0x4EDD JUMPI INVALID JUMPDEST SWAP7 SWAP6 POP POP POP POP POP POP JUMP JUMPDEST PUSH1 0x0 PUSH2 0x1908 DUP3 PUSH2 0xFFFF AND DUP5 PUSH2 0xFFFF AND ADD PUSH2 0xFFFF PUSH2 0x499E JUMP JUMPDEST PUSH1 0x40 MLOAD DUP1 PUSH1 0xA0 ADD PUSH1 0x40 MSTORE DUP1 PUSH2 0x4F12 PUSH2 0x502D JUMP JUMPDEST DUP2 MSTORE PUSH1 0x60 PUSH1 0x20 DUP3 ADD DUP2 SWAP1 MSTORE PUSH1 0x40 DUP3 ADD DUP2 SWAP1 MSTORE DUP1 DUP3 ADD MSTORE PUSH1 0x0 PUSH1 0x80 SWAP1 SWAP2 ADD MSTORE SWAP1 JUMP JUMPDEST PUSH1 0x40 MLOAD DUP1 PUSH2 0x3E0 ADD PUSH1 0x40 MSTORE DUP1 PUSH1 0x1F SWAP1 PUSH1 0x20 DUP3 MUL DUP1 CALLDATASIZE DUP4 CALLDATACOPY POP SWAP2 SWAP3 SWAP2 POP POP JUMP JUMPDEST PUSH1 0x40 DUP1 MLOAD DUP1 DUP3 ADD SWAP1 SWAP2 MSTORE PUSH1 0x0 DUP1 DUP3 MSTORE PUSH1 0x20 DUP3 ADD MSTORE SWAP1 JUMP JUMPDEST PUSH1 0x2 DUP4 ADD SWAP2 DUP4 SWAP1 DUP3 ISZERO PUSH2 0x4FEF JUMPI SWAP2 PUSH1 0x20 MUL DUP3 ADD PUSH1 0x0 JUMPDEST DUP4 DUP3 GT ISZERO PUSH2 0x4FBF JUMPI DUP4 MLOAD DUP4 DUP3 PUSH2 0x100 EXP DUP2 SLOAD DUP2 PUSH2 0xFFFF MUL NOT AND SWAP1 DUP4 PUSH2 0xFFFF AND MUL OR SWAP1 SSTORE POP SWAP3 PUSH1 0x20 ADD SWAP3 PUSH1 0x2 ADD PUSH1 0x20 DUP2 PUSH1 0x1 ADD DIV SWAP3 DUP4 ADD SWAP3 PUSH1 0x1 SUB MUL PUSH2 0x4F7F JUMP JUMPDEST DUP1 ISZERO PUSH2 0x4FED JUMPI DUP3 DUP2 PUSH2 0x100 EXP DUP2 SLOAD SWAP1 PUSH2 0xFFFF MUL NOT AND SWAP1 SSTORE PUSH1 0x2 ADD PUSH1 0x20 DUP2 PUSH1 0x1 ADD DIV SWAP3 DUP4 ADD SWAP3 PUSH1 0x1 SUB MUL PUSH2 0x4FBF JUMP JUMPDEST POP JUMPDEST POP PUSH2 0x4FFB SWAP3 SWAP2 POP PUSH2 0x5054 JUMP JUMPDEST POP SWAP1 JUMP JUMPDEST DUP3 PUSH1 0x1F DUP2 ADD SWAP3 DUP3 ISZERO PUSH2 0x4FEF JUMPI SWAP2 PUSH1 0x20 MUL DUP3 ADD JUMPDEST DUP3 DUP2 GT ISZERO PUSH2 0x4FEF JUMPI DUP3 MLOAD DUP3 SSTORE SWAP2 PUSH1 0x20 ADD SWAP2 SWAP1 PUSH1 0x1 ADD SWAP1 PUSH2 0x5012 JUMP JUMPDEST PUSH1 0x40 DUP1 MLOAD PUSH1 0x80 DUP2 ADD DUP3 MSTORE PUSH1 0x0 DUP1 DUP3 MSTORE PUSH1 0x20 DUP3 ADD DUP2 SWAP1 MSTORE SWAP2 DUP2 ADD DUP3 SWAP1 MSTORE PUSH1 0x60 DUP2 ADD SWAP2 SWAP1 SWAP2 MSTORE SWAP1 JUMP JUMPDEST JUMPDEST DUP1 DUP3 GT ISZERO PUSH2 0x4FFB JUMPI PUSH1 0x0 DUP2 SSTORE PUSH1 0x1 ADD PUSH2 0x5055 JUMP INVALID PUSH16 0x7261636C652061646472657373657320 PUSH16 0x7574206F662072656769737472617469 PUSH16 0x6EA2646970667358221220E33D3C44C2 0xB4 NOT 0x5C 0xAB PUSH26 0xE4A4EA4264F88DEFF67833216AD0C91B614F76BC7E5E64736F6C PUSH4 0x43000706 STOP CALLER "
        },
        "methodIdentifiers": {
          "LINK()": "1b6b6d23",
          "acceptOwnership()": "79ba5097",
          "acceptPayeeship(address)": "b121e147",
          "addAccess(address)": "a118f249",
          "billingAccessController()": "996e8298",
          "checkEnabled()": "dc7f0124",
          "decimals()": "313ce567",
          "description()": "7284e416",
          "disableAccessCheck()": "0a756983",
          "enableAccessCheck()": "8038e4a1",
          "getAnswer(uint256)": "b5ab58dc",
          "getBilling()": "29937268",
          "getRoundData(uint80)": "9a6fc8f5",
          "getTimestamp(uint256)": "b633620c",
          "hasAccess(address,bytes)": "6b14daf8",
          "latestAnswer()": "50d25bcd",
          "latestConfigDetails()": "81ff7048",
          "latestRound()": "668a0f02",
          "latestRoundData()": "feaf968c",
          "latestTimestamp()": "8205bf6a",
          "latestTransmissionDetails()": "e5fe4577",
          "linkAvailableForPayment()": "d09dc339",
          "maxAnswer()": "70da2f67",
          "minAnswer()": "22adbc78",
          "oracleObservationCount(address)": "e4902f82",
          "owedPayment(address)": "0eafb25b",
          "owner()": "8da5cb5b",
          "removeAccess(address)": "8823da6c",
          "requestNewRound()": "98e5b12a",
          "requesterAccessController()": "70efdf2d",
          "setBilling(uint32,uint32,uint32,uint32,uint32)": "bd824706",
          "setBillingAccessController(address)": "fbffd2c1",
          "setConfig(address[],address[],uint8,uint64,bytes)": "585aa7de",
          "setPayees(address[],address[])": "9c849b30",
          "setRequesterAccessController(address)": "9e3ceeab",
          "setValidator(address)": "1327d3d8",
          "transferOwnership(address)": "f2fde38b",
          "transferPayeeship(address,address)": "eb5dcd6c",
          "transmit(bytes,bytes32[],bytes32[],bytes32)": "c9807539",
          "transmitters()": "81411834",
          "validator()": "3a5381b5",
          "version()": "54fd4d50",
          "withdrawFunds(address,uint256)": "c1075329",
          "withdrawPayment(address)": "8ac28d5a"
        }
      }
    }
  }
}