{
  "_format": "hh-sol-artifact-1",
  "contractName": "ExposedOffchainAggregator",
  "sourceName": "contracts/aggregatorEthUsd/ExposedOffchainAggregator.sol",
  "abi": [
    {
      "inputs": [],
      "stateMutability": "nonpayable",
      "type": "constructor"
    },
    {
      "anonymous": false,
      "inputs": [
        {
          "indexed": true,
          "internalType": "int256",
          "name": "current",
          "type": "int256"
        },
        {
          "indexed": true,
          "internalType": "uint256",
          "name": "roundId",
          "type": "uint256"
        },
        {
          "indexed": false,
          "internalType": "uint256",
          "name": "updatedAt",
          "type": "uint256"
        }
      ],
      "name": "AnswerUpdated",
      "type": "event"
    },
    {
      "anonymous": false,
      "inputs": [
        {
          "indexed": false,
          "internalType": "contract AccessControllerInterface",
          "name": "old",
          "type": "address"
        },
        {
          "indexed": false,
          "internalType": "contract AccessControllerInterface",
          "name": "current",
          "type": "address"
        }
      ],
      "name": "BillingAccessControllerSet",
      "type": "event"
    },
    {
      "anonymous": false,
      "inputs": [
        {
          "indexed": false,
          "internalType": "uint32",
          "name": "maximumGasPrice",
          "type": "uint32"
        },
        {
          "indexed": false,
          "internalType": "uint32",
          "name": "reasonableGasPrice",
          "type": "uint32"
        },
        {
          "indexed": false,
          "internalType": "uint32",
          "name": "microLinkPerEth",
          "type": "uint32"
        },
        {
          "indexed": false,
          "internalType": "uint32",
          "name": "linkGweiPerObservation",
          "type": "uint32"
        },
        {
          "indexed": false,
          "internalType": "uint32",
          "name": "linkGweiPerTransmission",
          "type": "uint32"
        }
      ],
      "name": "BillingSet",
      "type": "event"
    },
    {
      "anonymous": false,
      "inputs": [
        {
          "indexed": false,
          "internalType": "uint32",
          "name": "previousConfigBlockNumber",
          "type": "uint32"
        },
        {
          "indexed": false,
          "internalType": "uint64",
          "name": "configCount",
          "type": "uint64"
        },
        {
          "indexed": false,
          "internalType": "address[]",
          "name": "signers",
          "type": "address[]"
        },
        {
          "indexed": false,
          "internalType": "address[]",
          "name": "transmitters",
          "type": "address[]"
        },
        {
          "indexed": false,
          "internalType": "uint8",
          "name": "threshold",
          "type": "uint8"
        },
        {
          "indexed": false,
          "internalType": "uint64",
          "name": "encodedConfigVersion",
          "type": "uint64"
        },
        {
          "indexed": false,
          "internalType": "bytes",
          "name": "encoded",
          "type": "bytes"
        }
      ],
      "name": "ConfigSet",
      "type": "event"
    },
    {
      "anonymous": false,
      "inputs": [
        {
          "indexed": true,
          "internalType": "uint256",
          "name": "roundId",
          "type": "uint256"
        },
        {
          "indexed": true,
          "internalType": "address",
          "name": "startedBy",
          "type": "address"
        },
        {
          "indexed": false,
          "internalType": "uint256",
          "name": "startedAt",
          "type": "uint256"
        }
      ],
      "name": "NewRound",
      "type": "event"
    },
    {
      "anonymous": false,
      "inputs": [
        {
          "indexed": true,
          "internalType": "uint32",
          "name": "aggregatorRoundId",
          "type": "uint32"
        },
        {
          "indexed": false,
          "internalType": "int192",
          "name": "answer",
          "type": "int192"
        },
        {
          "indexed": false,
          "internalType": "address",
          "name": "transmitter",
          "type": "address"
        },
        {
          "indexed": false,
          "internalType": "int192[]",
          "name": "observations",
          "type": "int192[]"
        },
        {
          "indexed": false,
          "internalType": "bytes",
          "name": "observers",
          "type": "bytes"
        },
        {
          "indexed": false,
          "internalType": "bytes32",
          "name": "rawReportContext",
          "type": "bytes32"
        }
      ],
      "name": "NewTransmission",
      "type": "event"
    },
    {
      "anonymous": false,
      "inputs": [
        {
          "indexed": false,
          "internalType": "address",
          "name": "transmitter",
          "type": "address"
        },
        {
          "indexed": false,
          "internalType": "address",
          "name": "payee",
          "type": "address"
        },
        {
          "indexed": false,
          "internalType": "uint256",
          "name": "amount",
          "type": "uint256"
        }
      ],
      "name": "OraclePaid",
      "type": "event"
    },
    {
      "anonymous": false,
      "inputs": [
        {
          "indexed": true,
          "internalType": "address",
          "name": "from",
          "type": "address"
        },
        {
          "indexed": true,
          "internalType": "address",
          "name": "to",
          "type": "address"
        }
      ],
      "name": "OwnershipTransferRequested",
      "type": "event"
    },
    {
      "anonymous": false,
      "inputs": [
        {
          "indexed": true,
          "internalType": "address",
          "name": "from",
          "type": "address"
        },
        {
          "indexed": true,
          "internalType": "address",
          "name": "to",
          "type": "address"
        }
      ],
      "name": "OwnershipTransferred",
      "type": "event"
    },
    {
      "anonymous": false,
      "inputs": [
        {
          "indexed": true,
          "internalType": "address",
          "name": "transmitter",
          "type": "address"
        },
        {
          "indexed": true,
          "internalType": "address",
          "name": "current",
          "type": "address"
        },
        {
          "indexed": true,
          "internalType": "address",
          "name": "proposed",
          "type": "address"
        }
      ],
      "name": "PayeeshipTransferRequested",
      "type": "event"
    },
    {
      "anonymous": false,
      "inputs": [
        {
          "indexed": true,
          "internalType": "address",
          "name": "transmitter",
          "type": "address"
        },
        {
          "indexed": true,
          "internalType": "address",
          "name": "previous",
          "type": "address"
        },
        {
          "indexed": true,
          "internalType": "address",
          "name": "current",
          "type": "address"
        }
      ],
      "name": "PayeeshipTransferred",
      "type": "event"
    },
    {
      "anonymous": false,
      "inputs": [
        {
          "indexed": false,
          "internalType": "contract AccessControllerInterface",
          "name": "old",
          "type": "address"
        },
        {
          "indexed": false,
          "internalType": "contract AccessControllerInterface",
          "name": "current",
          "type": "address"
        }
      ],
      "name": "RequesterAccessControllerSet",
      "type": "event"
    },
    {
      "anonymous": false,
      "inputs": [
        {
          "indexed": true,
          "internalType": "address",
          "name": "requester",
          "type": "address"
        },
        {
          "indexed": false,
          "internalType": "bytes16",
          "name": "configDigest",
          "type": "bytes16"
        },
        {
          "indexed": false,
          "internalType": "uint32",
          "name": "epoch",
          "type": "uint32"
        },
        {
          "indexed": false,
          "internalType": "uint8",
          "name": "round",
          "type": "uint8"
        }
      ],
      "name": "RoundRequested",
      "type": "event"
    },
    {
      "anonymous": false,
      "inputs": [
        {
          "indexed": true,
          "internalType": "contract AggregatorValidatorInterface",
          "name": "previousValidator",
          "type": "address"
        },
        {
          "indexed": false,
          "internalType": "uint32",
          "name": "previousGasLimit",
          "type": "uint32"
        },
        {
          "indexed": true,
          "internalType": "contract AggregatorValidatorInterface",
          "name": "currentValidator",
          "type": "address"
        },
        {
          "indexed": false,
          "internalType": "uint32",
          "name": "currentGasLimit",
          "type": "uint32"
        }
      ],
      "name": "ValidatorConfigSet",
      "type": "event"
    },
    {
      "inputs": [],
      "name": "LINK",
      "outputs": [
        {
          "internalType": "contract LinkTokenInterface",
          "name": "",
          "type": "address"
        }
      ],
      "stateMutability": "view",
      "type": "function"
    },
    {
      "inputs": [],
      "name": "acceptOwnership",
      "outputs": [],
      "stateMutability": "nonpayable",
      "type": "function"
    },
    {
      "inputs": [
        {
          "internalType": "address",
          "name": "_transmitter",
          "type": "address"
        }
      ],
      "name": "acceptPayeeship",
      "outputs": [],
      "stateMutability": "nonpayable",
      "type": "function"
    },
    {
      "inputs": [],
      "name": "billingAccessController",
      "outputs": [
        {
          "internalType": "contract AccessControllerInterface",
          "name": "",
          "type": "address"
        }
      ],
      "stateMutability": "view",
      "type": "function"
    },
    {
      "inputs": [],
      "name": "decimals",
      "outputs": [
        {
          "internalType": "uint8",
          "name": "",
          "type": "uint8"
        }
      ],
      "stateMutability": "view",
      "type": "function"
    },
    {
      "inputs": [],
      "name": "description",
      "outputs": [
        {
          "internalType": "string",
          "name": "",
          "type": "string"
        }
      ],
      "stateMutability": "view",
      "type": "function"
    },
    {
      "inputs": [
        {
          "internalType": "address",
          "name": "_contractAddress",
          "type": "address"
        },
        {
          "internalType": "uint64",
          "name": "_configCount",
          "type": "uint64"
        },
        {
          "internalType": "address[]",
          "name": "_signers",
          "type": "address[]"
        },
        {
          "internalType": "address[]",
          "name": "_transmitters",
          "type": "address[]"
        },
        {
          "internalType": "uint8",
          "name": "_threshold",
          "type": "uint8"
        },
        {
          "internalType": "uint64",
          "name": "_encodedConfigVersion",
          "type": "uint64"
        },
        {
          "internalType": "bytes",
          "name": "_encodedConfig",
          "type": "bytes"
        }
      ],
      "name": "exposedConfigDigestFromConfigData",
      "outputs": [
        {
          "internalType": "bytes16",
          "name": "",
          "type": "bytes16"
        }
      ],
      "stateMutability": "pure",
      "type": "function"
    },
    {
      "inputs": [
        {
          "internalType": "uint256",
          "name": "_roundId",
          "type": "uint256"
        }
      ],
      "name": "getAnswer",
      "outputs": [
        {
          "internalType": "int256",
          "name": "",
          "type": "int256"
        }
      ],
      "stateMutability": "view",
      "type": "function"
    },
    {
      "inputs": [],
      "name": "getBilling",
      "outputs": [
        {
          "internalType": "uint32",
          "name": "maximumGasPrice",
          "type": "uint32"
        },
        {
          "internalType": "uint32",
          "name": "reasonableGasPrice",
          "type": "uint32"
        },
        {
          "internalType": "uint32",
          "name": "microLinkPerEth",
          "type": "uint32"
        },
        {
          "internalType": "uint32",
          "name": "linkGweiPerObservation",
          "type": "uint32"
        },
        {
          "internalType": "uint32",
          "name": "linkGweiPerTransmission",
          "type": "uint32"
        }
      ],
      "stateMutability": "view",
      "type": "function"
    },
    {
      "inputs": [
        {
          "internalType": "uint80",
          "name": "_roundId",
          "type": "uint80"
        }
      ],
      "name": "getRoundData",
      "outputs": [
        {
          "internalType": "uint80",
          "name": "roundId",
          "type": "uint80"
        },
        {
          "internalType": "int256",
          "name": "answer",
          "type": "int256"
        },
        {
          "internalType": "uint256",
          "name": "startedAt",
          "type": "uint256"
        },
        {
          "internalType": "uint256",
          "name": "updatedAt",
          "type": "uint256"
        },
        {
          "internalType": "uint80",
          "name": "answeredInRound",
          "type": "uint80"
        }
      ],
      "stateMutability": "view",
      "type": "function"
    },
    {
      "inputs": [
        {
          "internalType": "uint256",
          "name": "_roundId",
          "type": "uint256"
        }
      ],
      "name": "getTimestamp",
      "outputs": [
        {
          "internalType": "uint256",
          "name": "",
          "type": "uint256"
        }
      ],
      "stateMutability": "view",
      "type": "function"
    },
    {
      "inputs": [],
      "name": "latestAnswer",
      "outputs": [
        {
          "internalType": "int256",
          "name": "",
          "type": "int256"
        }
      ],
      "stateMutability": "view",
      "type": "function"
    },
    {
      "inputs": [],
      "name": "latestConfigDetails",
      "outputs": [
        {
          "internalType": "uint32",
          "name": "configCount",
          "type": "uint32"
        },
        {
          "internalType": "uint32",
          "name": "blockNumber",
          "type": "uint32"
        },
        {
          "internalType": "bytes16",
          "name": "configDigest",
          "type": "bytes16"
        }
      ],
      "stateMutability": "view",
      "type": "function"
    },
    {
      "inputs": [],
      "name": "latestRound",
      "outputs": [
        {
          "internalType": "uint256",
          "name": "",
          "type": "uint256"
        }
      ],
      "stateMutability": "view",
      "type": "function"
    },
    {
      "inputs": [],
      "name": "latestRoundData",
      "outputs": [
        {
          "internalType": "uint80",
          "name": "roundId",
          "type": "uint80"
        },
        {
          "internalType": "int256",
          "name": "answer",
          "type": "int256"
        },
        {
          "internalType": "uint256",
          "name": "startedAt",
          "type": "uint256"
        },
        {
          "internalType": "uint256",
          "name": "updatedAt",
          "type": "uint256"
        },
        {
          "internalType": "uint80",
          "name": "answeredInRound",
          "type": "uint80"
        }
      ],
      "stateMutability": "view",
      "type": "function"
    },
    {
      "inputs": [],
      "name": "latestTimestamp",
      "outputs": [
        {
          "internalType": "uint256",
          "name": "",
          "type": "uint256"
        }
      ],
      "stateMutability": "view",
      "type": "function"
    },
    {
      "inputs": [],
      "name": "latestTransmissionDetails",
      "outputs": [
        {
          "internalType": "bytes16",
          "name": "configDigest",
          "type": "bytes16"
        },
        {
          "internalType": "uint32",
          "name": "epoch",
          "type": "uint32"
        },
        {
          "internalType": "uint8",
          "name": "round",
          "type": "uint8"
        },
        {
          "internalType": "int192",
          "name": "latestAnswer",
          "type": "int192"
        },
        {
          "internalType": "uint64",
          "name": "latestTimestamp",
          "type": "uint64"
        }
      ],
      "stateMutability": "view",
      "type": "function"
    },
    {
      "inputs": [],
      "name": "linkAvailableForPayment",
      "outputs": [
        {
          "internalType": "int256",
          "name": "availableBalance",
          "type": "int256"
        }
      ],
      "stateMutability": "view",
      "type": "function"
    },
    {
      "inputs": [],
      "name": "maxAnswer",
      "outputs": [
        {
          "internalType": "int192",
          "name": "",
          "type": "int192"
        }
      ],
      "stateMutability": "view",
      "type": "function"
    },
    {
      "inputs": [],
      "name": "minAnswer",
      "outputs": [
        {
          "internalType": "int192",
          "name": "",
          "type": "int192"
        }
      ],
      "stateMutability": "view",
      "type": "function"
    },
    {
      "inputs": [
        {
          "internalType": "address",
          "name": "_signerOrTransmitter",
          "type": "address"
        }
      ],
      "name": "oracleObservationCount",
      "outputs": [
        {
          "internalType": "uint16",
          "name": "",
          "type": "uint16"
        }
      ],
      "stateMutability": "view",
      "type": "function"
    },
    {
      "inputs": [
        {
          "internalType": "address",
          "name": "_transmitter",
          "type": "address"
        }
      ],
      "name": "owedPayment",
      "outputs": [
        {
          "internalType": "uint256",
          "name": "",
          "type": "uint256"
        }
      ],
      "stateMutability": "view",
      "type": "function"
    },
    {
      "inputs": [],
      "name": "owner",
      "outputs": [
        {
          "internalType": "address payable",
          "name": "",
          "type": "address"
        }
      ],
      "stateMutability": "view",
      "type": "function"
    },
    {
      "inputs": [],
      "name": "requestNewRound",
      "outputs": [
        {
          "internalType": "uint80",
          "name": "",
          "type": "uint80"
        }
      ],
      "stateMutability": "nonpayable",
      "type": "function"
    },
    {
      "inputs": [],
      "name": "requesterAccessController",
      "outputs": [
        {
          "internalType": "contract AccessControllerInterface",
          "name": "",
          "type": "address"
        }
      ],
      "stateMutability": "view",
      "type": "function"
    },
    {
      "inputs": [
        {
          "internalType": "uint32",
          "name": "_maximumGasPrice",
          "type": "uint32"
        },
        {
          "internalType": "uint32",
          "name": "_reasonableGasPrice",
          "type": "uint32"
        },
        {
          "internalType": "uint32",
          "name": "_microLinkPerEth",
          "type": "uint32"
        },
        {
          "internalType": "uint32",
          "name": "_linkGweiPerObservation",
          "type": "uint32"
        },
        {
          "internalType": "uint32",
          "name": "_linkGweiPerTransmission",
          "type": "uint32"
        }
      ],
      "name": "setBilling",
      "outputs": [],
      "stateMutability": "nonpayable",
      "type": "function"
    },
    {
      "inputs": [
        {
          "internalType": "contract AccessControllerInterface",
          "name": "_billingAccessController",
          "type": "address"
        }
      ],
      "name": "setBillingAccessController",
      "outputs": [],
      "stateMutability": "nonpayable",
      "type": "function"
    },
    {
      "inputs": [
        {
          "internalType": "address[]",
          "name": "_signers",
          "type": "address[]"
        },
        {
          "internalType": "address[]",
          "name": "_transmitters",
          "type": "address[]"
        },
        {
          "internalType": "uint8",
          "name": "_threshold",
          "type": "uint8"
        },
        {
          "internalType": "uint64",
          "name": "_encodedConfigVersion",
          "type": "uint64"
        },
        {
          "internalType": "bytes",
          "name": "_encoded",
          "type": "bytes"
        }
      ],
      "name": "setConfig",
      "outputs": [],
      "stateMutability": "nonpayable",
      "type": "function"
    },
    {
      "inputs": [
        {
          "internalType": "address[]",
          "name": "_transmitters",
          "type": "address[]"
        },
        {
          "internalType": "address[]",
          "name": "_payees",
          "type": "address[]"
        }
      ],
      "name": "setPayees",
      "outputs": [],
      "stateMutability": "nonpayable",
      "type": "function"
    },
    {
      "inputs": [
        {
          "internalType": "contract AccessControllerInterface",
          "name": "_requesterAccessController",
          "type": "address"
        }
      ],
      "name": "setRequesterAccessController",
      "outputs": [],
      "stateMutability": "nonpayable",
      "type": "function"
    },
    {
      "inputs": [
        {
          "internalType": "contract AggregatorValidatorInterface",
          "name": "_newValidator",
          "type": "address"
        },
        {
          "internalType": "uint32",
          "name": "_newGasLimit",
          "type": "uint32"
        }
      ],
      "name": "setValidatorConfig",
      "outputs": [],
      "stateMutability": "nonpayable",
      "type": "function"
    },
    {
      "inputs": [
        {
          "internalType": "address",
          "name": "_to",
          "type": "address"
        }
      ],
      "name": "transferOwnership",
      "outputs": [],
      "stateMutability": "nonpayable",
      "type": "function"
    },
    {
      "inputs": [
        {
          "internalType": "address",
          "name": "_transmitter",
          "type": "address"
        },
        {
          "internalType": "address",
          "name": "_proposed",
          "type": "address"
        }
      ],
      "name": "transferPayeeship",
      "outputs": [],
      "stateMutability": "nonpayable",
      "type": "function"
    },
    {
      "inputs": [
        {
          "internalType": "bytes",
          "name": "_report",
          "type": "bytes"
        },
        {
          "internalType": "bytes32[]",
          "name": "_rs",
          "type": "bytes32[]"
        },
        {
          "internalType": "bytes32[]",
          "name": "_ss",
          "type": "bytes32[]"
        },
        {
          "internalType": "bytes32",
          "name": "_rawVs",
          "type": "bytes32"
        }
      ],
      "name": "transmit",
      "outputs": [],
      "stateMutability": "nonpayable",
      "type": "function"
    },
    {
      "inputs": [],
      "name": "transmitters",
      "outputs": [
        {
          "internalType": "address[]",
          "name": "",
          "type": "address[]"
        }
      ],
      "stateMutability": "view",
      "type": "function"
    },
    {
      "inputs": [],
      "name": "typeAndVersion",
      "outputs": [
        {
          "internalType": "string",
          "name": "",
          "type": "string"
        }
      ],
      "stateMutability": "pure",
      "type": "function"
    },
    {
      "inputs": [],
      "name": "validatorConfig",
      "outputs": [
        {
          "internalType": "contract AggregatorValidatorInterface",
          "name": "validator",
          "type": "address"
        },
        {
          "internalType": "uint32",
          "name": "gasLimit",
          "type": "uint32"
        }
      ],
      "stateMutability": "view",
      "type": "function"
    },
    {
      "inputs": [],
      "name": "version",
      "outputs": [
        {
          "internalType": "uint256",
          "name": "",
          "type": "uint256"
        }
      ],
      "stateMutability": "view",
      "type": "function"
    },
    {
      "inputs": [
        {
          "internalType": "address",
          "name": "_recipient",
          "type": "address"
        },
        {
          "internalType": "uint256",
          "name": "_amount",
          "type": "uint256"
        }
      ],
      "name": "withdrawFunds",
      "outputs": [],
      "stateMutability": "nonpayable",
      "type": "function"
    },
    {
      "inputs": [
        {
          "internalType": "address",
          "name": "_transmitter",
          "type": "address"
        }
      ],
      "name": "withdrawPayment",
      "outputs": [],
      "stateMutability": "nonpayable",
      "type": "function"
    }
  ],
  "bytecode": "0x6101006040523480156200001257600080fd5b506040805160208101909152600080825280546001600160a01b03191633178155908190819081908190819081908190819081908190818080808080806200005e81808080806200018c565b62000069816200027e565b6001600160601b0319606083901b166080526200008562000515565b6200008f62000515565b60005b601f8160ff161015620000df576001838260ff16601f8110620000b157fe5b61ffff909216602092909202015260018260ff8316601f8110620000d157fe5b602002015260010162000092565b50620000ef600483601f62000534565b50620000ff600882601f620005d1565b505050505060f887901b7fff000000000000000000000000000000000000000000000000000000000000001660e05250508351620001489350602f925060208501915062000602565b506200015483620002f7565b62000161600080620003cf565b50505050601791820b820b604090811b60a05290820b90910b901b60c052506200069b945050505050565b6040805160a0808201835263ffffffff88811680845288821660208086018290528984168688018190528985166060808901829052958a1660809889018190526002805463ffffffff1916871763ffffffff60201b191664010000000087021763ffffffff60401b19166801000000000000000085021763ffffffff60601b19166c0100000000000000000000000084021763ffffffff60801b1916600160801b830217905589519586529285019390935283880152928201529283015291517fd0d9486a2c673e2a4b57fc82e4c8a556b3e2b82dd5db07e2c04a920ca0f469b6929181900390910190a15050505050565b6003546001600160a01b039081169082168114620002f357600380546001600160a01b0319166001600160a01b03848116918217909255604080519284168352602083019190915280517f793cb73064f3c8cde7e187ae515511e6e56d1ee89bf08b82fa60fb70f8d489129281900390910190a15b5050565b6000546001600160a01b0316331462000357576040805162461bcd60e51b815260206004820152601660248201527f4f6e6c792063616c6c61626c65206279206f776e657200000000000000000000604482015290519081900360640190fd5b602e546001600160a01b039081169082168114620002f357602e80546001600160a01b0319166001600160a01b03848116918217909255604080519284168352602083019190915280517f27b89aede8b560578baaa25ee5ce3852c5eecad1e114b941bbd89e1eb4bae6349281900390910190a15050565b6000546001600160a01b031633146200042f576040805162461bcd60e51b815260206004820152601660248201527f4f6e6c792063616c6c61626c65206279206f776e657200000000000000000000604482015290519081900360640190fd5b60408051808201909152602d546001600160a01b03808216808452600160a01b90920463ffffffff16602084015284161415806200047d57508163ffffffff16816020015163ffffffff1614155b1562000510576040805180820182526001600160a01b0385811680835263ffffffff8681166020948501819052602d80546001600160a01b031916841763ffffffff60a01b1916600160a01b8302179055865187860151875193168352948201528451919493909216927fb04e3a37abe9c0fcdfebdeae019a8e2b12ddf53f5d55ffb0caccc1bedaca1541928290030190a35b505050565b604051806103e00160405280601f906020820280368337509192915050565b600283019183908215620005bf5791602002820160005b838211156200058d57835183826101000a81548161ffff021916908361ffff16021790555092602001926002016020816001010492830192600103026200054b565b8015620005bd5782816101000a81549061ffff02191690556002016020816001010492830192600103026200058d565b505b50620005cd92915062000684565b5090565b82601f8101928215620005bf579160200282015b82811115620005bf578251825591602001919060010190620005e5565b828054600181600116156101000203166002900490600052602060002090601f0160209004810192826200063a5760008555620005bf565b82601f106200065557805160ff1916838001178555620005bf565b82800160010185558215620005bf5791820182811115620005bf578251825591602001919060010190620005e5565b5b80821115620005cd576000815560010162000685565b60805160601c60a05160401c60c05160401c60e05160f81c614a386200070060003980610eaa5250806116ff5280612fd1525080610e205280612fa4525080610dfc5280612397528061248752806133915280613b675280613eb95250614a386000f3fe608060405234801561001057600080fd5b50600436106102c85760003560e01c80638e0566de1161017b578063c1075329116100d8578063eb4571631161008c578063f2fde38b11610071578063f2fde38b14610c3b578063fbffd2c114610c61578063feaf968c14610c87576102c8565b8063eb45716314610bdb578063eb5dcd6c14610c0d576102c8565b8063d09dc339116100bd578063d09dc33914610b44578063e4902f8214610b4c578063e5fe457714610b89576102c8565b8063c107532914610a0a578063c980753914610a36576102c8565b80639e3ceeab1161012f578063b5ab58dc11610114578063b5ab58dc1461098b578063b633620c146109a8578063bd824706146109c5576102c8565b80639e3ceeab1461093f578063b121e14714610965576102c8565b8063996e829811610160578063996e8298146108065780639a6fc8f51461080e5780639c849b3014610881576102c8565b80638e0566de146107af57806398e5b12a146107df576102c8565b8063668a0f021161022957806381411834116101dd5780638205bf6a116101c25780638205bf6a146107795780638ac28d5a146107815780638da5cb5b146107a7576102c8565b806381411834146106e857806381ff704814610740576102c8565b806370efdf2d1161020e57806370efdf2d146106d05780637284e416146106d857806379ba5097146106e0576102c8565b8063668a0f02146106c057806370da2f67146106c8576102c8565b8063313ce5671161028057806350d25bcd1161026557806350d25bcd1461058757806354fd4d501461058f578063585aa7de14610597576102c8565b8063313ce567146104065780634428ef6c14610424576102c8565b80631b6b6d23116102b15780631b6b6d231461038257806322adbc78146103a657806329937268146103c5576102c8565b80630eafb25b146102cd578063181f5a7714610305575b600080fd5b6102f3600480360360208110156102e357600080fd5b50356001600160a01b0316610c8f565b60408051918252519081900360200190f35b61030d610dc3565b6040805160208082528351818301528351919283929083019185019080838360005b8381101561034757818101518382015260200161032f565b50505050905090810190601f1680156103745780820380516001836020036101000a031916815260200191505b509250505060405180910390f35b61038a610dfa565b604080516001600160a01b039092168252519081900360200190f35b6103ae610e1e565b6040805160179290920b8252519081900360200190f35b6103cd610e42565b6040805163ffffffff96871681529486166020860152928516848401529084166060840152909216608082015290519081900360a00190f35b61040e610ea8565b6040805160ff9092168252519081900360200190f35b61056a600480360360e081101561043a57600080fd5b6001600160a01b038235169167ffffffffffffffff60208201351691810190606081016040820135600160201b81111561047357600080fd5b82018360208201111561048557600080fd5b803590602001918460208302840111600160201b831117156104a657600080fd5b919390929091602081019035600160201b8111156104c357600080fd5b8201836020820111156104d557600080fd5b803590602001918460208302840111600160201b831117156104f657600080fd5b9193909260ff8335169267ffffffffffffffff602082013516929190606081019060400135600160201b81111561052c57600080fd5b82018360208201111561053e57600080fd5b803590602001918460018302840111600160201b8311171561055f57600080fd5b509092509050610ecc565b604080516001600160801b03199092168252519081900360200190f35b6102f3610eef565b6102f3610f18565b6106be600480360360a08110156105ad57600080fd5b810190602081018135600160201b8111156105c757600080fd5b8201836020820111156105d957600080fd5b803590602001918460208302840111600160201b831117156105fa57600080fd5b919390929091602081019035600160201b81111561061757600080fd5b82018360208201111561062957600080fd5b803590602001918460208302840111600160201b8311171561064a57600080fd5b9193909260ff8335169267ffffffffffffffff602082013516929190606081019060400135600160201b81111561068057600080fd5b82018360208201111561069257600080fd5b803590602001918460018302840111600160201b831117156106b357600080fd5b509092509050610f1d565b005b6102f36116ea565b6103ae6116fd565b61038a611721565b61030d611730565b6106be6117c6565b6106f061187c565b60408051602080825283518183015283519192839290830191858101910280838360005b8381101561072c578181015183820152602001610714565b505050509050019250505060405180910390f35b6107486118dd565b6040805163ffffffff94851681529290931660208301526001600160801b0319168183015290519081900360600190f35b6102f36118fd565b6106be6004803603602081101561079757600080fd5b50356001600160a01b0316611930565b61038a6119aa565b6107b76119b9565b604080516001600160a01b03909316835263ffffffff90911660208301528051918290030190f35b6107e76119ec565b6040805169ffffffffffffffffffff9092168252519081900360200190f35b61038a611bbf565b6108376004803603602081101561082457600080fd5b503569ffffffffffffffffffff16611bce565b604051808669ffffffffffffffffffff1681526020018581526020018481526020018381526020018269ffffffffffffffffffff1681526020019550505050505060405180910390f35b6106be6004803603604081101561089757600080fd5b810190602081018135600160201b8111156108b157600080fd5b8201836020820111156108c357600080fd5b803590602001918460208302840111600160201b831117156108e457600080fd5b919390929091602081019035600160201b81111561090157600080fd5b82018360208201111561091357600080fd5b803590602001918460208302840111600160201b8311171561093457600080fd5b509092509050611d04565b6106be6004803603602081101561095557600080fd5b50356001600160a01b0316611f1e565b6106be6004803603602081101561097b57600080fd5b50356001600160a01b0316611fee565b6102f3600480360360208110156109a157600080fd5b50356120cf565b6102f3600480360360208110156109be57600080fd5b5035612105565b6106be600480360360a08110156109db57600080fd5b5063ffffffff813581169160208101358216916040820135811691606081013582169160809091013516612145565b6106be60048036036040811015610a2057600080fd5b506001600160a01b038135169060200135612274565b6106be60048036036080811015610a4c57600080fd5b810190602081018135600160201b811115610a6657600080fd5b820183602082011115610a7857600080fd5b803590602001918460018302840111600160201b83111715610a9957600080fd5b919390929091602081019035600160201b811115610ab657600080fd5b820183602082011115610ac857600080fd5b803590602001918460208302840111600160201b83111715610ae957600080fd5b919390929091602081019035600160201b811115610b0657600080fd5b820183602082011115610b1857600080fd5b803590602001918460208302840111600160201b83111715610b3957600080fd5b91935091503561257f565b6102f361338c565b610b7260048036036020811015610b6257600080fd5b50356001600160a01b031661343d565b6040805161ffff9092168252519081900360200190f35b610b916134ea565b604080516001600160801b0319909616865263ffffffff909416602086015260ff9092168484015260170b606084015267ffffffffffffffff166080830152519081900360a00190f35b6106be60048036036040811015610bf157600080fd5b5080356001600160a01b0316906020013563ffffffff166135a4565b6106be60048036036040811015610c2357600080fd5b506001600160a01b03813581169160200135166136f8565b6106be60048036036020811015610c5157600080fd5b50356001600160a01b031661383b565b6106be60048036036020811015610c7757600080fd5b50356001600160a01b03166138e4565b610837613945565b6001600160a01b03811660009081526027602090815260408083208151808301909252805460ff808216845285948401916101009004166002811115610cd157fe5b6002811115610cdc57fe5b9052509050600081602001516002811115610cf357fe5b1415610d03576000915050610dbe565b6040805160a08101825260025463ffffffff8082168352600160201b820481166020840152680100000000000000008204811693830193909352600160601b8104831660608301819052600160801b90910490921660808201528251909160009160019060049060ff16601f8110610d7757fe5b601091828204019190066002029054906101000a900461ffff160361ffff1602633b9aca0002905060016008846000015160ff16601f8110610db557fe5b01540301925050505b919050565b60408051808201909152601881527f4f6666636861696e41676772656761746f7220322e302e300000000000000000602082015290565b7f000000000000000000000000000000000000000000000000000000000000000081565b7f000000000000000000000000000000000000000000000000000000000000000081565b6040805160a08101825260025463ffffffff808216808452600160201b83048216602085018190526801000000000000000084048316958501869052600160601b8404831660608601819052600160801b90940490921660809094018490529490939290565b7f000000000000000000000000000000000000000000000000000000000000000081565b6000610ee08b8b8b8b8b8b8b8b8b8b6139a1565b9b9a5050505050505050505050565b602a54600160b01b900463ffffffff166000908152602b6020526040902054601790810b900b90565b600481565b868560ff8616601f831115610f79576040805162461bcd60e51b815260206004820152601060248201527f746f6f206d616e79207369676e65727300000000000000000000000000000000604482015290519081900360640190fd5b60008111610fce576040805162461bcd60e51b815260206004820152601a60248201527f7468726573686f6c64206d75737420626520706f736974697665000000000000604482015290519081900360640190fd5b81831461100c5760405162461bcd60e51b81526004018080602001828103825260248152602001806149df6024913960400191505060405180910390fd5b806003028311611063576040805162461bcd60e51b815260206004820181905260248201527f6661756c74792d6f7261636c65207468726573686f6c6420746f6f2068696768604482015290519081900360640190fd5b6000546001600160a01b031633146110bb576040805162461bcd60e51b815260206004820152601660248201527527b7363c9031b0b63630b1363290313c9037bbb732b960511b604482015290519081900360640190fd5b602854156111b85760288054600019810191600091839081106110da57fe5b6000918252602082200154602980546001600160a01b039092169350908490811061110157fe5b6000918252602090912001546001600160a01b0316905061112181613aa5565b6001600160a01b03808316600090815260276020526040808220805461ffff199081169091559284168252902080549091169055602880548061116057fe5b600082815260209020810160001990810180546001600160a01b0319169055019055602980548061118d57fe5b600082815260209020810160001990810180546001600160a01b0319169055019055506110bb915050565b60005b8a811015611520576000602760008e8e858181106111d557fe5b602090810292909201356001600160a01b031683525081019190915260400160002054610100900460ff16600281111561120b57fe5b1461125d576040805162461bcd60e51b815260206004820152601760248201527f7265706561746564207369676e65722061646472657373000000000000000000604482015290519081900360640190fd5b6040805180820190915260ff8216815260016020820152602760008e8e8581811061128457fe5b602090810292909201356001600160a01b0316835250818101929092526040016000208251815460ff191660ff90911617808255918301519091829061ff0019166101008360028111156112d457fe5b02179055506000915060069050818c8c858181106112ee57fe5b6001600160a01b036020918202939093013583168452830193909352604090910160002054169190911415905061136c576040805162461bcd60e51b815260206004820152601160248201527f7061796565206d75737420626520736574000000000000000000000000000000604482015290519081900360640190fd5b6000602760008c8c8581811061137e57fe5b602090810292909201356001600160a01b031683525081019190915260400160002054610100900460ff1660028111156113b457fe5b14611406576040805162461bcd60e51b815260206004820152601c60248201527f7265706561746564207472616e736d6974746572206164647265737300000000604482015290519081900360640190fd5b6040805180820190915260ff8216815260026020820152602760008c8c8581811061142d57fe5b602090810292909201356001600160a01b0316835250818101929092526040016000208251815460ff191660ff90911617808255918301519091829061ff00191661010083600281111561147d57fe5b021790555090505060288c8c8381811061149357fe5b835460018101855560009485526020948590200180546001600160a01b0319166001600160a01b03959092029390930135939093169290921790555060298a8a838181106114dd57fe5b835460018181018655600095865260209586902090910180546001600160a01b0319166001600160a01b03969093029490940135949094161790915550016111bb565b50602a805460ff8916600160a81b0260ff60a81b19909116179055602c80544363ffffffff908116600160201b90810267ffffffff0000000019841617808316600101831663ffffffff1990911617938490559091048116911661158c30828f8f8f8f8f8f8f8f6139a1565b602a60000160006101000a8154816fffffffffffffffffffffffffffffffff021916908360801c02179055506000602a60000160106101000a81548164ffffffffff021916908364ffffffffff1602179055507f25d719d88a4512dd76c7442b910a83360845505894eb444ef299409e180f8fb982828f8f8f8f8f8f8f8f604051808b63ffffffff1681526020018a67ffffffffffffffff16815260200180602001806020018760ff1681526020018667ffffffffffffffff1681526020018060200184810384528c8c82818152602001925060200280828437600083820152601f01601f191690910185810384528a8152602090810191508b908b0280828437600083820152601f01601f191690910185810383528681526020019050868680828437600083820152604051601f909101601f19169092018290039f50909d5050505050505050505050505050a150505050505050505050505050565b602a54600160b01b900463ffffffff1690565b7f000000000000000000000000000000000000000000000000000000000000000081565b602e546001600160a01b031690565b602f8054604080516020601f60026000196101006001881615020190951694909404938401819004810282018101909252828152606093909290918301828280156117bc5780601f10611791576101008083540402835291602001916117bc565b820191906000526020600020905b81548152906001019060200180831161179f57829003601f168201915b5050505050905090565b6001546001600160a01b03163314611825576040805162461bcd60e51b815260206004820152601660248201527f4d7573742062652070726f706f736564206f776e657200000000000000000000604482015290519081900360640190fd5b60008054336001600160a01b0319808316821784556001805490911690556040516001600160a01b0390921692909183917f8be0079c531659141344cd1fd0a4f28419497f9722a3daafe3b4186f6b6457e091a350565b606060298054806020026020016040519081016040528092919081815260200182805480156117bc57602002820191906000526020600020905b81546001600160a01b031681526001909101906020018083116118b6575050505050905090565b602c54602a5463ffffffff80831692600160201b9004169060801b909192565b602a54600160b01b900463ffffffff166000908152602b6020526040902054600160c01b900467ffffffffffffffff1690565b6001600160a01b0381811660009081526006602052604090205416331461199e576040805162461bcd60e51b815260206004820152601760248201527f4f6e6c792070617965652063616e207769746864726177000000000000000000604482015290519081900360640190fd5b6119a781613aa5565b50565b6000546001600160a01b031681565b60408051808201909152602d546001600160a01b038116808352600160a01b90910463ffffffff16602090920182905291565b600080546001600160a01b0316331480611aaf5750602e5460408051630d629b5f60e31b815233600482018181526024830193845236604484018190526001600160a01b0390951694636b14daf894929360009391929190606401848480828437600083820152604051601f909101601f1916909201965060209550909350505081840390508186803b158015611a8257600080fd5b505afa158015611a96573d6000803e3d6000fd5b505050506040513d6020811015611aac57600080fd5b50515b611b00576040805162461bcd60e51b815260206004820152601d60248201527f4f6e6c79206f776e6572267265717565737465722063616e2063616c6c000000604482015290519081900360640190fd5b6040805160808082018352602a549081901b6001600160801b031916808352600160801b820464ffffffffff8116602080860191909152600160a81b840460ff90811686880152600160b01b90940463ffffffff9081166060808801919091528751948552600884901c909116918401919091529216818501529251919233927f3ea16a923ff4b1df6526e854c9e3a995c43385d70e73359e10623c74f0b52037929181900390910190a2806060015160010163ffffffff1691505090565b6003546001600160a01b031690565b600080600080600063ffffffff8669ffffffffffffffffffff1611156040518060400160405280600f81526020017f4e6f20646174612070726573656e74000000000000000000000000000000000081525090611ca95760405162461bcd60e51b81526004018080602001828103825283818151815260200191508051906020019080838360005b83811015611c6e578181015183820152602001611c56565b50505050905090810190601f168015611c9b5780820380516001836020036101000a031916815260200191505b509250505060405180910390fd5b5050505063ffffffff83166000908152602b6020908152604091829020825180840190935254601781810b810b810b808552600160c01b90920467ffffffffffffffff1693909201839052949594900b939092508291508490565b6000546001600160a01b03163314611d5c576040805162461bcd60e51b815260206004820152601660248201527527b7363c9031b0b63630b1363290313c9037bbb732b960511b604482015290519081900360640190fd5b828114611db0576040805162461bcd60e51b815260206004820181905260248201527f7472616e736d6974746572732e73697a6520213d207061796565732e73697a65604482015290519081900360640190fd5b60005b83811015611f17576000858583818110611dc957fe5b905060200201356001600160a01b031690506000848484818110611de957fe5b6001600160a01b038581166000908152600660209081526040909120549202939093013583169350909116905080158080611e355750826001600160a01b0316826001600160a01b0316145b611e86576040805162461bcd60e51b815260206004820152601160248201527f706179656520616c726561647920736574000000000000000000000000000000604482015290519081900360640190fd5b6001600160a01b03848116600090815260066020526040902080546001600160a01b03191685831690811790915590831614611f0757826001600160a01b0316826001600160a01b0316856001600160a01b03167f78af32efdcad432315431e9b03d27e6cd98fb79c405fdc5af7c1714d9c0f75b360405160405180910390a45b505060019092019150611db39050565b5050505050565b6000546001600160a01b03163314611f76576040805162461bcd60e51b815260206004820152601660248201527527b7363c9031b0b63630b1363290313c9037bbb732b960511b604482015290519081900360640190fd5b602e546001600160a01b039081169082168114611fea57602e80546001600160a01b0319166001600160a01b03848116918217909255604080519284168352602083019190915280517f27b89aede8b560578baaa25ee5ce3852c5eecad1e114b941bbd89e1eb4bae6349281900390910190a15b5050565b6001600160a01b0381811660009081526007602052604090205416331461205c576040805162461bcd60e51b815260206004820152601f60248201527f6f6e6c792070726f706f736564207061796565732063616e2061636365707400604482015290519081900360640190fd5b6001600160a01b0381811660008181526006602090815260408083208054336001600160a01b031980831682179093556007909452828520805490921690915590519416939092849290917f78af32efdcad432315431e9b03d27e6cd98fb79c405fdc5af7c1714d9c0f75b39190a45050565b600063ffffffff8211156120e557506000610dbe565b5063ffffffff166000908152602b6020526040902054601790810b900b90565b600063ffffffff82111561211b57506000610dbe565b5063ffffffff166000908152602b6020526040902054600160c01b900467ffffffffffffffff1690565b6003546000546001600160a01b039182169116331480612206575060408051630d629b5f60e31b815233600482018181526024830193845236604484018190526001600160a01b03861694636b14daf8946000939190606401848480828437600083820152604051601f909101601f1916909201965060209550909350505081840390508186803b1580156121d957600080fd5b505afa1580156121ed573d6000803e3d6000fd5b505050506040513d602081101561220357600080fd5b50515b612257576040805162461bcd60e51b815260206004820181905260248201527f4f6e6c79206f776e65722662696c6c696e6741646d696e2063616e2063616c6c604482015290519081900360640190fd5b61225f613cc4565b61226c8686868686614067565b505050505050565b6000546001600160a01b0316331480612336575060035460408051630d629b5f60e31b815233600482018181526024830193845236604484018190526001600160a01b0390951694636b14daf894929360009391929190606401848480828437600083820152604051601f909101601f1916909201965060209550909350505081840390508186803b15801561230957600080fd5b505afa15801561231d573d6000803e3d6000fd5b505050506040513d602081101561233357600080fd5b50515b612387576040805162461bcd60e51b815260206004820181905260248201527f4f6e6c79206f776e65722662696c6c696e6741646d696e2063616e2063616c6c604482015290519081900360640190fd5b6000612391614185565b905060007f00000000000000000000000000000000000000000000000000000000000000006001600160a01b03166370a08231306040518263ffffffff1660e01b815260040180826001600160a01b0316815260200191505060206040518083038186803b15801561240257600080fd5b505afa158015612416573d6000803e3d6000fd5b505050506040513d602081101561242c57600080fd5b5051905081811015612485576040805162461bcd60e51b815260206004820152601460248201527f696e73756666696369656e742062616c616e6365000000000000000000000000604482015290519081900360640190fd5b7f00000000000000000000000000000000000000000000000000000000000000006001600160a01b031663a9059cbb856124c18585038761433e565b6040518363ffffffff1660e01b815260040180836001600160a01b0316815260200182815260200192505050602060405180830381600087803b15801561250757600080fd5b505af115801561251b573d6000803e3d6000fd5b505050506040513d602081101561253157600080fd5b5051612579576040805162461bcd60e51b8152602060048201526012602482015271696e73756666696369656e742066756e647360701b604482015290519081900360640190fd5b50505050565b60005a9050612592888888888888614358565b36146125e5576040805162461bcd60e51b815260206004820152601960248201527f7472616e736d6974206d65737361676520746f6f206c6f6e6700000000000000604482015290519081900360640190fd5b6125ed614874565b6040805160808082018352602a549081901b6001600160801b0319168252600160801b810464ffffffffff166020830152600160a81b810460ff1692820192909252600160b01b90910463ffffffff166060808301919091529082526000908a908a9081101561265c57600080fd5b813591602081013591810190606081016040820135600160201b81111561268257600080fd5b82018360208201111561269457600080fd5b803590602001918460208302840111600160201b831117156126b557600080fd5b91908080602002602001604051908101604052809392919081815260200183836020028082843760009201919091525050505060408801525050506080840182905283515190925060589190911b906001600160801b0319808316911614612764576040805162461bcd60e51b815260206004820152601560248201527f636f6e666967446967657374206d69736d617463680000000000000000000000604482015290519081900360640190fd5b608083015183516020015164ffffffffff8083169116106127cc576040805162461bcd60e51b815260206004820152600c60248201527f7374616c65207265706f72740000000000000000000000000000000000000000604482015290519081900360640190fd5b83516040015160ff168911612828576040805162461bcd60e51b815260206004820152601560248201527f6e6f7420656e6f756768207369676e6174757265730000000000000000000000604482015290519081900360640190fd5b601f89111561287e576040805162461bcd60e51b815260206004820152601360248201527f746f6f206d616e79207369676e61747572657300000000000000000000000000604482015290519081900360640190fd5b8689146128d2576040805162461bcd60e51b815260206004820152601e60248201527f7369676e617475726573206f7574206f6620726567697374726174696f6e0000604482015290519081900360640190fd5b601f846040015151111561292d576040805162461bcd60e51b815260206004820152601e60248201527f6e756d206f62736572766174696f6e73206f7574206f6620626f756e64730000604482015290519081900360640190fd5b83600001516040015160020260ff1684604001515111612994576040805162461bcd60e51b815260206004820152601e60248201527f746f6f206665772076616c75657320746f207472757374206d656469616e0000604482015290519081900360640190fd5b8867ffffffffffffffff811180156129ab57600080fd5b506040519080825280601f01601f1916602001820160405280156129d6576020820181803683370190505b50606085015260005b60ff81168a1115612a4757868160ff16602081106129f957fe5b1a60f81b85606001518260ff1681518110612a1057fe5b60200101907effffffffffffffffffffffffffffffffffffffffffffffffffffffffffffff1916908160001a9053506001016129df565b5083604001515167ffffffffffffffff81118015612a6457600080fd5b506040519080825280601f01601f191660200182016040528015612a8f576020820181803683370190505b506020850152612a9d6148a8565b60005b8560400151518160ff161015612ba3576000858260ff1660208110612ac157fe5b1a90508281601f8110612ad057fe5b602002015115612b27576040805162461bcd60e51b815260206004820152601760248201527f6f6273657276657220696e646578207265706561746564000000000000000000604482015290519081900360640190fd5b6001838260ff16601f8110612b3857fe5b91151560209283029190910152869060ff8416908110612b5457fe5b1a60f81b87602001518360ff1681518110612b6b57fe5b60200101907effffffffffffffffffffffffffffffffffffffffffffffffffffffffffffff1916908160001a90535050600101612aa0565b503360009081526027602090815260408083208151808301909252805460ff80821684529293919291840191610100909104166002811115612be157fe5b6002811115612bec57fe5b9052509050600281602001516002811115612c0357fe5b148015612c3757506029816000015160ff1681548110612c1f57fe5b6000918252602090912001546001600160a01b031633145b612c88576040805162461bcd60e51b815260206004820152601860248201527f756e617574686f72697a6564207472616e736d69747465720000000000000000604482015290519081900360640190fd5b5050835164ffffffffff90911660209091015250506040516000908a908a908083838082843760405192018290039091209450612cc993506148a892505050565b612cd16148c7565b60005b89811015612eca57600060018587606001518481518110612cf157fe5b60209101015160f81c601b018e8e86818110612d0957fe5b905060200201358d8d87818110612d1c57fe5b9050602002013560405160008152602001604052604051808581526020018460ff1681526020018381526020018281526020019450505050506020604051602081039080840390855afa158015612d77573d6000803e3d6000fd5b505060408051601f198101516001600160a01b03811660009081526027602090815290849020838501909452835460ff80821685529296509294508401916101009004166002811115612dc657fe5b6002811115612dd157fe5b9052509250600183602001516002811115612de857fe5b14612e3a576040805162461bcd60e51b815260206004820152601e60248201527f61646472657373206e6f7420617574686f72697a656420746f207369676e0000604482015290519081900360640190fd5b8251849060ff16601f8110612e4b57fe5b602002015115612ea2576040805162461bcd60e51b815260206004820152601460248201527f6e6f6e2d756e69717565207369676e6174757265000000000000000000000000604482015290519081900360640190fd5b600184846000015160ff16601f8110612eb757fe5b9115156020909202015250600101612cd4565b5050505060005b600182604001515103811015612f7b57600082604001518260010181518110612ef657fe5b602002602001015160170b83604001518381518110612f1157fe5b602002602001015160170b1315905080612f72576040805162461bcd60e51b815260206004820152601760248201527f6f62736572766174696f6e73206e6f7420736f72746564000000000000000000604482015290519081900360640190fd5b50600101612ed1565b50604081015180516000919060028104908110612f9457fe5b602002602001015190508060170b7f000000000000000000000000000000000000000000000000000000000000000060170b13158015612ffa57507f000000000000000000000000000000000000000000000000000000000000000060170b8160170b13155b61304b576040805162461bcd60e51b815260206004820152601e60248201527f6d656469616e206973206f7574206f66206d696e2d6d61782072616e67650000604482015290519081900360640190fd5b81516060908101805163ffffffff60019091018116909152604080518082018252601785810b80835267ffffffffffffffff42811660208086019182528a5189015188166000908152602b8252878120965187549351909416600160c01b029390950b77ffffffffffffffffffffffffffffffffffffffffffffffff9081167fffffffffffffffff0000000000000000000000000000000000000000000000009093169290921790911691909117909355875186015184890151848a01516080808c015188519586523386890181905291860181905260a0988601898152845199870199909952835194909916997ff6a97944f31ea060dfde0566e4167c1a1082551e64b60ecb14d599a9d023d451998c999298949793969095909492939185019260c086019289820192909102908190849084905b83811015613199578181015183820152602001613181565b50505050905001838103825285818151815260200191508051906020019080838360005b838110156131d55781810151838201526020016131bd565b50505050905090810190601f1680156132025780820380516001836020036101000a031916815260200191505b5097505050505050505060405180910390a281516060015160408051428152905160009263ffffffff16917f0109fc6f55cf40689f02fbaad7af7fe7bbac8a3d2186600afc7d3e10cac60271919081900360200190a381600001516060015163ffffffff168160170b7f0559884fd3a460db3073b7fc896cc77986f16e378210ded43186175bf646fc5f426040518082815260200191505060405180910390a36132b78260000151606001518260170b614370565b5080518051602a8054602084015160408501516060909501516001600160801b031990921660809490941c939093177fffffffffffffffffffffff0000000000ffffffffffffffffffffffffffffffff16600160801b64ffffffffff909416939093029290921760ff60a81b1916600160a81b60ff90941693909302929092177fffffffffffff00000000ffffffffffffffffffffffffffffffffffffffffffff16600160b01b63ffffffff9283160217909155821061337357fe5b613381828260200151614481565b505050505050505050565b6000807f00000000000000000000000000000000000000000000000000000000000000006001600160a01b03166370a08231306040518263ffffffff1660e01b815260040180826001600160a01b0316815260200191505060206040518083038186803b1580156133fc57600080fd5b505afa158015613410573d6000803e3d6000fd5b505050506040513d602081101561342657600080fd5b505190506000613434614185565b90910391505090565b6001600160a01b03811660009081526027602090815260408083208151808301909252805460ff80821684528594840191610100900416600281111561347f57fe5b600281111561348a57fe5b90525090506000816020015160028111156134a157fe5b14156134b1576000915050610dbe565b60016004826000015160ff16601f81106134c757fe5b601091828204019190066002029054906101000a900461ffff1603915050919050565b600080808080333214613544576040805162461bcd60e51b815260206004820152601460248201527f4f6e6c792063616c6c61626c6520627920454f41000000000000000000000000604482015290519081900360640190fd5b5050602a5463ffffffff600160b01b820481166000908152602b6020526040902054608083901b96600160801b909304600881901c909216955064ffffffffff9091169350601781900b9250600160c01b900467ffffffffffffffff1690565b6000546001600160a01b031633146135fc576040805162461bcd60e51b815260206004820152601660248201527527b7363c9031b0b63630b1363290313c9037bbb732b960511b604482015290519081900360640190fd5b60408051808201909152602d546001600160a01b03808216808452600160a01b90920463ffffffff166020840152841614158061364957508163ffffffff16816020015163ffffffff1614155b156136f3576040805180820182526001600160a01b0385811680835263ffffffff8681166020948501819052602d80546001600160a01b03191684177fffffffffffffffff00000000ffffffffffffffffffffffffffffffffffffffff16600160a01b8302179055865187860151875193168352948201528451919493909216927fb04e3a37abe9c0fcdfebdeae019a8e2b12ddf53f5d55ffb0caccc1bedaca1541928290030190a35b505050565b6001600160a01b03828116600090815260066020526040902054163314613766576040805162461bcd60e51b815260206004820152601d60248201527f6f6e6c792063757272656e742070617965652063616e20757064617465000000604482015290519081900360640190fd5b336001600160a01b03821614156137c4576040805162461bcd60e51b815260206004820152601760248201527f63616e6e6f74207472616e7366657220746f2073656c66000000000000000000604482015290519081900360640190fd5b6001600160a01b03808316600090815260076020526040902080548383166001600160a01b0319821681179092559091169081146136f3576040516001600160a01b038084169133918616907f84f7c7c80bb8ed2279b4aab5f61cd05e6374073d38f46d7f32de8c30e9e3836790600090a4505050565b6000546001600160a01b03163314613893576040805162461bcd60e51b815260206004820152601660248201527527b7363c9031b0b63630b1363290313c9037bbb732b960511b604482015290519081900360640190fd5b600180546001600160a01b0319166001600160a01b0383811691821790925560008054604051929316917fed8889f560326eb138920d842192f0eb3dd22b4f139c87a2c57538e05bae12789190a350565b6000546001600160a01b0316331461393c576040805162461bcd60e51b815260206004820152601660248201527527b7363c9031b0b63630b1363290313c9037bbb732b960511b604482015290519081900360640190fd5b6119a7816146b7565b602a54600160b01b900463ffffffff166000818152602b6020908152604091829020825180840190935254601781810b810b810b808552600160c01b90920467ffffffffffffffff1693909201839052929392900b9181908490565b60008a8a8a8a8a8a8a8a8a8a604051602001808b6001600160a01b031681526020018a67ffffffffffffffff16815260200180602001806020018760ff1681526020018667ffffffffffffffff1681526020018060200184810384528c8c82818152602001925060200280828437600083820152601f01601f191690910185810384528a8152602090810191508b908b0280828437600083820152601f01601f191690910185810383528681526020019050868680828437600081840152601f19601f8201169050808301925050509d50505050505050505050505050506040516020818303038152906040528051906020012090509a9950505050505050505050565b6001600160a01b03811660009081526027602090815260408083208151808301909252805460ff80821684529293919291840191610100909104166002811115613aeb57fe5b6002811115613af657fe5b90525090506000613b0683610c8f565b905080156136f3576001600160a01b0380841660009081526006602090815260408083205481517fa9059cbb0000000000000000000000000000000000000000000000000000000081529085166004820181905260248201879052915191947f0000000000000000000000000000000000000000000000000000000000000000169363a9059cbb9360448084019491939192918390030190829087803b158015613baf57600080fd5b505af1158015613bc3573d6000803e3d6000fd5b505050506040513d6020811015613bd957600080fd5b5051613c21576040805162461bcd60e51b8152602060048201526012602482015271696e73756666696369656e742066756e647360701b604482015290519081900360640190fd5b60016004846000015160ff16601f8110613c3757fe5b601091828204019190066002026101000a81548161ffff021916908361ffff16021790555060016008846000015160ff16601f8110613c7257fe5b0155604080516001600160a01b0380871682528316602082015280820184905290517fe8ec50e5150ae28ae37e493ff389ffab7ffaec2dc4dccfca03f12a3de29d12b29181900360600190a150505050565b6040805160a08101825260025463ffffffff8082168352600160201b820481166020840152680100000000000000008204811683850152600160601b820481166060840152600160801b90910416608082015281516103e0810192839052909160009190600490601f908285855b82829054906101000a900461ffff1661ffff1681526020019060020190602082600101049283019260010382029150808411613d32575050604080516103e0810191829052959650600095945060089350601f9250905082845b815481526020019060010190808311613d8c575050505050905060006029805480602002602001604051908101604052809291908181526020018280548015613dfe57602002820191906000526020600020905b81546001600160a01b03168152600190910190602001808311613de0575b5050505050905060005b815181101561404b57600060018483601f8110613e2157fe5b6020020151039050600060018684601f8110613e3957fe5b60200201510361ffff169050600082886060015163ffffffff168302633b9aca0002019050600081111561404057600060066000878781518110613e7957fe5b60200260200101516001600160a01b03166001600160a01b0316815260200190815260200160002060009054906101000a90046001600160a01b031690507f00000000000000000000000000000000000000000000000000000000000000006001600160a01b031663a9059cbb82846040518363ffffffff1660e01b815260040180836001600160a01b0316815260200182815260200192505050602060405180830381600087803b158015613f2e57600080fd5b505af1158015613f42573d6000803e3d6000fd5b505050506040513d6020811015613f5857600080fd5b5051613fa0576040805162461bcd60e51b8152602060048201526012602482015271696e73756666696369656e742066756e647360701b604482015290519081900360640190fd5b60018886601f8110613fae57fe5b61ffff909216602092909202015260018786601f8110613fca57fe5b602002015285517fe8ec50e5150ae28ae37e493ff389ffab7ffaec2dc4dccfca03f12a3de29d12b290879087908110613fff57fe5b6020026020010151828460405180846001600160a01b03168152602001836001600160a01b03168152602001828152602001935050505060405180910390a1505b505050600101613e08565b50614059600484601f6148de565b50611f17600883601f614974565b6040805160a0808201835263ffffffff88811680845288821660208086018290528984168688018190528985166060808901829052958a1660809889018190526002805463ffffffff1916871767ffffffff000000001916600160201b8702176bffffffff00000000000000001916680100000000000000008502177fffffffffffffffffffffffffffffffff00000000ffffffffffffffffffffffff16600160601b8402177fffffffffffffffffffffffff00000000ffffffffffffffffffffffffffffffff16600160801b830217905589519586529285019390935283880152928201529283015291517fd0d9486a2c673e2a4b57fc82e4c8a556b3e2b82dd5db07e2c04a920ca0f469b6929181900390910190a15050505050565b604080516103e0810191829052600091829190600490601f908285855b82829054906101000a900461ffff1661ffff16815260200190600201906020826001010492830192600103820291508084116141a25790505050505050905060005b601f8110156142125760018282601f81106141fb57fe5b60200201510361ffff1692909201916001016141e4565b506040805160a08101825260025463ffffffff8082168352600160201b82048116602080850191909152680100000000000000008304821684860152600160601b8304821660608501819052600160801b90930490911660808401526029805485518184028101840190965280865296909202633b9aca00029592936000939092918301828280156142cd57602002820191906000526020600020905b81546001600160a01b031681526001909101906020018083116142af575b5050604080516103e0810191829052949550600094935060089250601f915082845b8154815260200190600101908083116142ef575050505050905060005b82518110156143365760018282601f811061432357fe5b602002015103959095019460010161430c565b505050505090565b60008183101561434f575081614352565b50805b92915050565b602083810286019082020160e4019695505050505050565b60408051808201909152602d546001600160a01b038116808352600160a01b90910463ffffffff1660208301526143a75750611fea565b600019830163ffffffff8181166000818152602b602090815260408083205487518884015183517fbeed9b510000000000000000000000000000000000000000000000000000000081526004810197909752601792830b90920b602487018190528b88166044880152606487018b9052925192966001600160a01b039091169563beed9b51959290911693608480830194919391928390030190829088803b15801561445257600080fd5b5087f19350505050801561447857506040513d602081101561447357600080fd5b505160015b61226c57611f17565b3360009081526027602090815260408083208151808301909252805460ff808216845292939192918401916101009091041660028111156144be57fe5b60028111156144c957fe5b9052506040805160a08101825260025463ffffffff8082168352600160201b820481166020840152680100000000000000008204811683850152600160601b820481166060840152600160801b90910416608082015281516103e08101928390529293509161458291859190600490601f90826000855b82829054906101000a900461ffff1661ffff1681526020019060020190602082600101049283019260010382029150808411614540579050505050505061472e565b61459090600490601f6148de565b506002826020015160028111156145a357fe5b146145f5576040805162461bcd60e51b815260206004820181905260248201527f73656e7420627920756e64657369676e61746564207472616e736d6974746572604482015290519081900360640190fd5b600061461c633b9aca003a04836020015163ffffffff16846000015163ffffffff166147a3565b90506010360260005a9050600061463b8863ffffffff168585856147c9565b6fffffffffffffffffffffffffffffffff1690506000620f4240866040015163ffffffff1683028161466957fe5b049050856080015163ffffffff16633b9aca0002816008896000015160ff16601f811061469257fe5b015401016008886000015160ff16601f81106146aa57fe5b0155505050505050505050565b6003546001600160a01b039081169082168114611fea57600380546001600160a01b0319166001600160a01b03848116918217909255604080519284168352602083019190915280517f793cb73064f3c8cde7e187ae515511e6e56d1ee89bf08b82fa60fb70f8d489129281900390910190a15050565b6147366148a8565b60005b835181101561479b57600084828151811061475057fe5b016020015160f81c90506147758482601f811061476957fe5b60200201516001614855565b848260ff16601f811061478457fe5b61ffff909216602092909202015250600101614739565b509092915050565b600083838110156147b657600285850304015b6147c0818461433e565b95945050505050565b600081851015614820576040805162461bcd60e51b815260206004820181905260248201527f6761734c6566742063616e6e6f742065786365656420696e697469616c476173604482015290519081900360640190fd5b818503830161179301633b9aca00858202026fffffffffffffffffffffffffffffffff811061484b57fe5b9695505050505050565b600061486d8261ffff168461ffff160161ffff61433e565b9392505050565b6040518060a001604052806148876149a2565b81526060602082018190526040820181905280820152600060809091015290565b604051806103e00160405280601f906020820280368337509192915050565b604080518082019091526000808252602082015290565b6002830191839082156149645791602002820160005b8382111561493457835183826101000a81548161ffff021916908361ffff16021790555092602001926002016020816001010492830192600103026148f4565b80156149625782816101000a81549061ffff0219169055600201602081600101049283019260010302614934565b505b506149709291506149c9565b5090565b82601f8101928215614964579160200282015b82811115614964578251825591602001919060010190614987565b60408051608081018252600080825260208201819052918101829052606081019190915290565b5b8082111561497057600081556001016149ca56fe6f7261636c6520616464726573736573206f7574206f6620726567697374726174696f6ea264697066735822122023f65d54d31794a56661343e68167474800ba5c1d7ce1e7c172cb434e2132df064736f6c63430007060033",
  "linkReferences": {},
  "deployedLinkReferences": {}
}