{
  "_format": "hh-sol-artifact-1",
  "contractName": "AddressStorage",
  "sourceName": "contracts/tokenDistributor/InitializableAdminUpgradeabilityProxy.sol",
  "abi": [
    {
      "constant": true,
      "inputs": [
        {
          "internalType": "bytes32",
          "name": "_key",
          "type": "bytes32"
        }
      ],
      "name": "getAddress",
      "outputs": [
        {
          "internalType": "address",
          "name": "",
          "type": "address"
        }
      ],
      "payable": false,
      "stateMutability": "view",
      "type": "function"
    }
  ],
  "bytecode": "0x608060405234801561001057600080fd5b50610109806100206000396000f3fe6080604052348015600f57600080fd5b506004361060285760003560e01c806321f8a72114602d575b600080fd5b605660048036036020811015604157600080fd5b81019080803590602001909291905050506098565b604051808273ffffffffffffffffffffffffffffffffffffffff1673ffffffffffffffffffffffffffffffffffffffff16815260200191505060405180910390f35b600080600083815260200190815260200160002060009054906101000a900473ffffffffffffffffffffffffffffffffffffffff16905091905056fea265627a7a72315820b620fffdf1ee2d546dd4f8af24b49623927f76fe6fc8b3cc98ac1c45ffb8bb4464736f6c63430005100032",
  "linkReferences": {},
  "deployedLinkReferences": {}
}