{
  "_format": "hh-sol-artifact-1",
  "contractName": "LendingPoolCore",
  "sourceName": "contracts/tokenDistributor/InitializableAdminUpgradeabilityProxy.sol",
  "abi": [
    {
      "anonymous": false,
      "inputs": [
        {
          "indexed": true,
          "internalType": "address",
          "name": "reserve",
          "type": "address"
        },
        {
          "indexed": false,
          "internalType": "uint256",
          "name": "liquidityRate",
          "type": "uint256"
        },
        {
          "indexed": false,
          "internalType": "uint256",
          "name": "stableBorrowRate",
          "type": "uint256"
        },
        {
          "indexed": false,
          "internalType": "uint256",
          "name": "variableBorrowRate",
          "type": "uint256"
        },
        {
          "indexed": false,
          "internalType": "uint256",
          "name": "liquidityIndex",
          "type": "uint256"
        },
        {
          "indexed": false,
          "internalType": "uint256",
          "name": "variableBorrowIndex",
          "type": "uint256"
        }
      ],
      "name": "ReserveUpdated",
      "type": "event"
    },
    {
      "payable": true,
      "stateMutability": "payable",
      "type": "fallback"
    },
    {
      "constant": true,
      "inputs": [],
      "name": "CORE_REVISION",
      "outputs": [
        {
          "internalType": "uint256",
          "name": "",
          "type": "uint256"
        }
      ],
      "payable": false,
      "stateMutability": "view",
      "type": "function"
    },
    {
      "constant": false,
      "inputs": [
        {
          "internalType": "address",
          "name": "_reserve",
          "type": "address"
        }
      ],
      "name": "activateReserve",
      "outputs": [],
      "payable": false,
      "stateMutability": "nonpayable",
      "type": "function"
    },
    {
      "constant": true,
      "inputs": [],
      "name": "addressesProvider",
      "outputs": [
        {
          "internalType": "contract LendingPoolAddressesProvider",
          "name": "",
          "type": "address"
        }
      ],
      "payable": false,
      "stateMutability": "view",
      "type": "function"
    },
    {
      "constant": false,
      "inputs": [
        {
          "internalType": "address",
          "name": "_reserve",
          "type": "address"
        }
      ],
      "name": "deactivateReserve",
      "outputs": [],
      "payable": false,
      "stateMutability": "nonpayable",
      "type": "function"
    },
    {
      "constant": false,
      "inputs": [
        {
          "internalType": "address",
          "name": "_reserve",
          "type": "address"
        }
      ],
      "name": "disableBorrowingOnReserve",
      "outputs": [],
      "payable": false,
      "stateMutability": "nonpayable",
      "type": "function"
    },
    {
      "constant": false,
      "inputs": [
        {
          "internalType": "address",
          "name": "_reserve",
          "type": "address"
        }
      ],
      "name": "disableReserveAsCollateral",
      "outputs": [],
      "payable": false,
      "stateMutability": "nonpayable",
      "type": "function"
    },
    {
      "constant": false,
      "inputs": [
        {
          "internalType": "address",
          "name": "_reserve",
          "type": "address"
        }
      ],
      "name": "disableReserveStableBorrowRate",
      "outputs": [],
      "payable": false,
      "stateMutability": "nonpayable",
      "type": "function"
    },
    {
      "constant": false,
      "inputs": [
        {
          "internalType": "address",
          "name": "_reserve",
          "type": "address"
        },
        {
          "internalType": "bool",
          "name": "_stableBorrowRateEnabled",
          "type": "bool"
        }
      ],
      "name": "enableBorrowingOnReserve",
      "outputs": [],
      "payable": false,
      "stateMutability": "nonpayable",
      "type": "function"
    },
    {
      "constant": false,
      "inputs": [
        {
          "internalType": "address",
          "name": "_reserve",
          "type": "address"
        },
        {
          "internalType": "uint256",
          "name": "_baseLTVasCollateral",
          "type": "uint256"
        },
        {
          "internalType": "uint256",
          "name": "_liquidationThreshold",
          "type": "uint256"
        },
        {
          "internalType": "uint256",
          "name": "_liquidationBonus",
          "type": "uint256"
        }
      ],
      "name": "enableReserveAsCollateral",
      "outputs": [],
      "payable": false,
      "stateMutability": "nonpayable",
      "type": "function"
    },
    {
      "constant": false,
      "inputs": [
        {
          "internalType": "address",
          "name": "_reserve",
          "type": "address"
        }
      ],
      "name": "enableReserveStableBorrowRate",
      "outputs": [],
      "payable": false,
      "stateMutability": "nonpayable",
      "type": "function"
    },
    {
      "constant": false,
      "inputs": [
        {
          "internalType": "address",
          "name": "_reserve",
          "type": "address"
        }
      ],
      "name": "freezeReserve",
      "outputs": [],
      "payable": false,
      "stateMutability": "nonpayable",
      "type": "function"
    },
    {
      "constant": true,
      "inputs": [
        {
          "internalType": "address",
          "name": "_reserve",
          "type": "address"
        }
      ],
      "name": "getReserveATokenAddress",
      "outputs": [
        {
          "internalType": "address",
          "name": "",
          "type": "address"
        }
      ],
      "payable": false,
      "stateMutability": "view",
      "type": "function"
    },
    {
      "constant": true,
      "inputs": [
        {
          "internalType": "address",
          "name": "_reserve",
          "type": "address"
        }
      ],
      "name": "getReserveAvailableLiquidity",
      "outputs": [
        {
          "internalType": "uint256",
          "name": "",
          "type": "uint256"
        }
      ],
      "payable": false,
      "stateMutability": "view",
      "type": "function"
    },
    {
      "constant": true,
      "inputs": [
        {
          "internalType": "address",
          "name": "_reserve",
          "type": "address"
        }
      ],
      "name": "getReserveConfiguration",
      "outputs": [
        {
          "internalType": "uint256",
          "name": "",
          "type": "uint256"
        },
        {
          "internalType": "uint256",
          "name": "",
          "type": "uint256"
        },
        {
          "internalType": "uint256",
          "name": "",
          "type": "uint256"
        },
        {
          "internalType": "bool",
          "name": "",
          "type": "bool"
        }
      ],
      "payable": false,
      "stateMutability": "view",
      "type": "function"
    },
    {
      "constant": true,
      "inputs": [
        {
          "internalType": "address",
          "name": "_reserve",
          "type": "address"
        }
      ],
      "name": "getReserveCurrentAverageStableBorrowRate",
      "outputs": [
        {
          "internalType": "uint256",
          "name": "",
          "type": "uint256"
        }
      ],
      "payable": false,
      "stateMutability": "view",
      "type": "function"
    },
    {
      "constant": true,
      "inputs": [
        {
          "internalType": "address",
          "name": "_reserve",
          "type": "address"
        }
      ],
      "name": "getReserveCurrentLiquidityRate",
      "outputs": [
        {
          "internalType": "uint256",
          "name": "",
          "type": "uint256"
        }
      ],
      "payable": false,
      "stateMutability": "view",
      "type": "function"
    },
    {
      "constant": true,
      "inputs": [
        {
          "internalType": "address",
          "name": "_reserve",
          "type": "address"
        }
      ],
      "name": "getReserveCurrentStableBorrowRate",
      "outputs": [
        {
          "internalType": "uint256",
          "name": "",
          "type": "uint256"
        }
      ],
      "payable": false,
      "stateMutability": "view",
      "type": "function"
    },
    {
      "constant": true,
      "inputs": [
        {
          "internalType": "address",
          "name": "_reserve",
          "type": "address"
        }
      ],
      "name": "getReserveCurrentVariableBorrowRate",
      "outputs": [
        {
          "internalType": "uint256",
          "name": "",
          "type": "uint256"
        }
      ],
      "payable": false,
      "stateMutability": "view",
      "type": "function"
    },
    {
      "constant": true,
      "inputs": [
        {
          "internalType": "address",
          "name": "_reserve",
          "type": "address"
        }
      ],
      "name": "getReserveDecimals",
      "outputs": [
        {
          "internalType": "uint256",
          "name": "",
          "type": "uint256"
        }
      ],
      "payable": false,
      "stateMutability": "view",
      "type": "function"
    },
    {
      "constant": true,
      "inputs": [
        {
          "internalType": "address",
          "name": "_reserve",
          "type": "address"
        }
      ],
      "name": "getReserveInterestRateStrategyAddress",
      "outputs": [
        {
          "internalType": "address",
          "name": "",
          "type": "address"
        }
      ],
      "payable": false,
      "stateMutability": "view",
      "type": "function"
    },
    {
      "constant": true,
      "inputs": [
        {
          "internalType": "address",
          "name": "_reserve",
          "type": "address"
        }
      ],
      "name": "getReserveIsActive",
      "outputs": [
        {
          "internalType": "bool",
          "name": "",
          "type": "bool"
        }
      ],
      "payable": false,
      "stateMutability": "view",
      "type": "function"
    },
    {
      "constant": true,
      "inputs": [
        {
          "internalType": "address",
          "name": "_reserve",
          "type": "address"
        }
      ],
      "name": "getReserveIsFreezed",
      "outputs": [
        {
          "internalType": "bool",
          "name": "",
          "type": "bool"
        }
      ],
      "payable": false,
      "stateMutability": "view",
      "type": "function"
    },
    {
      "constant": true,
      "inputs": [
        {
          "internalType": "address",
          "name": "_reserve",
          "type": "address"
        }
      ],
      "name": "getReserveIsStableBorrowRateEnabled",
      "outputs": [
        {
          "internalType": "bool",
          "name": "",
          "type": "bool"
        }
      ],
      "payable": false,
      "stateMutability": "view",
      "type": "function"
    },
    {
      "constant": true,
      "inputs": [
        {
          "internalType": "address",
          "name": "_reserve",
          "type": "address"
        }
      ],
      "name": "getReserveLastUpdate",
      "outputs": [
        {
          "internalType": "uint40",
          "name": "timestamp",
          "type": "uint40"
        }
      ],
      "payable": false,
      "stateMutability": "view",
      "type": "function"
    },
    {
      "constant": true,
      "inputs": [
        {
          "internalType": "address",
          "name": "_reserve",
          "type": "address"
        }
      ],
      "name": "getReserveLiquidationBonus",
      "outputs": [
        {
          "internalType": "uint256",
          "name": "",
          "type": "uint256"
        }
      ],
      "payable": false,
      "stateMutability": "view",
      "type": "function"
    },
    {
      "constant": true,
      "inputs": [
        {
          "internalType": "address",
          "name": "_reserve",
          "type": "address"
        }
      ],
      "name": "getReserveLiquidationThreshold",
      "outputs": [
        {
          "internalType": "uint256",
          "name": "",
          "type": "uint256"
        }
      ],
      "payable": false,
      "stateMutability": "view",
      "type": "function"
    },
    {
      "constant": true,
      "inputs": [
        {
          "internalType": "address",
          "name": "_reserve",
          "type": "address"
        }
      ],
      "name": "getReserveLiquidityCumulativeIndex",
      "outputs": [
        {
          "internalType": "uint256",
          "name": "",
          "type": "uint256"
        }
      ],
      "payable": false,
      "stateMutability": "view",
      "type": "function"
    },
    {
      "constant": true,
      "inputs": [
        {
          "internalType": "address",
          "name": "_reserve",
          "type": "address"
        }
      ],
      "name": "getReserveNormalizedIncome",
      "outputs": [
        {
          "internalType": "uint256",
          "name": "",
          "type": "uint256"
        }
      ],
      "payable": false,
      "stateMutability": "view",
      "type": "function"
    },
    {
      "constant": true,
      "inputs": [
        {
          "internalType": "address",
          "name": "_reserve",
          "type": "address"
        }
      ],
      "name": "getReserveTotalBorrows",
      "outputs": [
        {
          "internalType": "uint256",
          "name": "",
          "type": "uint256"
        }
      ],
      "payable": false,
      "stateMutability": "view",
      "type": "function"
    },
    {
      "constant": true,
      "inputs": [
        {
          "internalType": "address",
          "name": "_reserve",
          "type": "address"
        }
      ],
      "name": "getReserveTotalBorrowsStable",
      "outputs": [
        {
          "internalType": "uint256",
          "name": "",
          "type": "uint256"
        }
      ],
      "payable": false,
      "stateMutability": "view",
      "type": "function"
    },
    {
      "constant": true,
      "inputs": [
        {
          "internalType": "address",
          "name": "_reserve",
          "type": "address"
        }
      ],
      "name": "getReserveTotalBorrowsVariable",
      "outputs": [
        {
          "internalType": "uint256",
          "name": "",
          "type": "uint256"
        }
      ],
      "payable": false,
      "stateMutability": "view",
      "type": "function"
    },
    {
      "constant": true,
      "inputs": [
        {
          "internalType": "address",
          "name": "_reserve",
          "type": "address"
        }
      ],
      "name": "getReserveTotalLiquidity",
      "outputs": [
        {
          "internalType": "uint256",
          "name": "",
          "type": "uint256"
        }
      ],
      "payable": false,
      "stateMutability": "view",
      "type": "function"
    },
    {
      "constant": true,
      "inputs": [
        {
          "internalType": "address",
          "name": "_reserve",
          "type": "address"
        }
      ],
      "name": "getReserveUtilizationRate",
      "outputs": [
        {
          "internalType": "uint256",
          "name": "",
          "type": "uint256"
        }
      ],
      "payable": false,
      "stateMutability": "view",
      "type": "function"
    },
    {
      "constant": true,
      "inputs": [
        {
          "internalType": "address",
          "name": "_reserve",
          "type": "address"
        }
      ],
      "name": "getReserveVariableBorrowsCumulativeIndex",
      "outputs": [
        {
          "internalType": "uint256",
          "name": "",
          "type": "uint256"
        }
      ],
      "payable": false,
      "stateMutability": "view",
      "type": "function"
    },
    {
      "constant": true,
      "inputs": [],
      "name": "getReserves",
      "outputs": [
        {
          "internalType": "address[]",
          "name": "",
          "type": "address[]"
        }
      ],
      "payable": false,
      "stateMutability": "view",
      "type": "function"
    },
    {
      "constant": true,
      "inputs": [
        {
          "internalType": "address",
          "name": "_reserve",
          "type": "address"
        },
        {
          "internalType": "address",
          "name": "_user",
          "type": "address"
        }
      ],
      "name": "getUserBasicReserveData",
      "outputs": [
        {
          "internalType": "uint256",
          "name": "",
          "type": "uint256"
        },
        {
          "internalType": "uint256",
          "name": "",
          "type": "uint256"
        },
        {
          "internalType": "uint256",
          "name": "",
          "type": "uint256"
        },
        {
          "internalType": "bool",
          "name": "",
          "type": "bool"
        }
      ],
      "payable": false,
      "stateMutability": "view",
      "type": "function"
    },
    {
      "constant": true,
      "inputs": [
        {
          "internalType": "address",
          "name": "_reserve",
          "type": "address"
        },
        {
          "internalType": "address",
          "name": "_user",
          "type": "address"
        }
      ],
      "name": "getUserBorrowBalances",
      "outputs": [
        {
          "internalType": "uint256",
          "name": "",
          "type": "uint256"
        },
        {
          "internalType": "uint256",
          "name": "",
          "type": "uint256"
        },
        {
          "internalType": "uint256",
          "name": "",
          "type": "uint256"
        }
      ],
      "payable": false,
      "stateMutability": "view",
      "type": "function"
    },
    {
      "constant": true,
      "inputs": [
        {
          "internalType": "address",
          "name": "_reserve",
          "type": "address"
        },
        {
          "internalType": "address",
          "name": "_user",
          "type": "address"
        }
      ],
      "name": "getUserCurrentBorrowRateMode",
      "outputs": [
        {
          "internalType": "enum CoreLibrary.InterestRateMode",
          "name": "",
          "type": "uint8"
        }
      ],
      "payable": false,
      "stateMutability": "view",
      "type": "function"
    },
    {
      "constant": true,
      "inputs": [
        {
          "internalType": "address",
          "name": "_reserve",
          "type": "address"
        },
        {
          "internalType": "address",
          "name": "_user",
          "type": "address"
        }
      ],
      "name": "getUserCurrentStableBorrowRate",
      "outputs": [
        {
          "internalType": "uint256",
          "name": "",
          "type": "uint256"
        }
      ],
      "payable": false,
      "stateMutability": "view",
      "type": "function"
    },
    {
      "constant": true,
      "inputs": [
        {
          "internalType": "address",
          "name": "_reserve",
          "type": "address"
        },
        {
          "internalType": "address",
          "name": "_user",
          "type": "address"
        }
      ],
      "name": "getUserLastUpdate",
      "outputs": [
        {
          "internalType": "uint256",
          "name": "timestamp",
          "type": "uint256"
        }
      ],
      "payable": false,
      "stateMutability": "view",
      "type": "function"
    },
    {
      "constant": true,
      "inputs": [
        {
          "internalType": "address",
          "name": "_reserve",
          "type": "address"
        },
        {
          "internalType": "address",
          "name": "_user",
          "type": "address"
        }
      ],
      "name": "getUserOriginationFee",
      "outputs": [
        {
          "internalType": "uint256",
          "name": "",
          "type": "uint256"
        }
      ],
      "payable": false,
      "stateMutability": "view",
      "type": "function"
    },
    {
      "constant": true,
      "inputs": [
        {
          "internalType": "address",
          "name": "_reserve",
          "type": "address"
        },
        {
          "internalType": "address",
          "name": "_user",
          "type": "address"
        }
      ],
      "name": "getUserUnderlyingAssetBalance",
      "outputs": [
        {
          "internalType": "uint256",
          "name": "",
          "type": "uint256"
        }
      ],
      "payable": false,
      "stateMutability": "view",
      "type": "function"
    },
    {
      "constant": true,
      "inputs": [
        {
          "internalType": "address",
          "name": "_reserve",
          "type": "address"
        },
        {
          "internalType": "address",
          "name": "_user",
          "type": "address"
        }
      ],
      "name": "getUserVariableBorrowCumulativeIndex",
      "outputs": [
        {
          "internalType": "uint256",
          "name": "",
          "type": "uint256"
        }
      ],
      "payable": false,
      "stateMutability": "view",
      "type": "function"
    },
    {
      "constant": false,
      "inputs": [
        {
          "internalType": "address",
          "name": "_reserve",
          "type": "address"
        },
        {
          "internalType": "address",
          "name": "_aTokenAddress",
          "type": "address"
        },
        {
          "internalType": "uint256",
          "name": "_decimals",
          "type": "uint256"
        },
        {
          "internalType": "address",
          "name": "_interestRateStrategyAddress",
          "type": "address"
        }
      ],
      "name": "initReserve",
      "outputs": [],
      "payable": false,
      "stateMutability": "nonpayable",
      "type": "function"
    },
    {
      "constant": false,
      "inputs": [
        {
          "internalType": "contract LendingPoolAddressesProvider",
          "name": "_addressesProvider",
          "type": "address"
        }
      ],
      "name": "initialize",
      "outputs": [],
      "payable": false,
      "stateMutability": "nonpayable",
      "type": "function"
    },
    {
      "constant": true,
      "inputs": [
        {
          "internalType": "address",
          "name": "_reserve",
          "type": "address"
        }
      ],
      "name": "isReserveBorrowingEnabled",
      "outputs": [
        {
          "internalType": "bool",
          "name": "",
          "type": "bool"
        }
      ],
      "payable": false,
      "stateMutability": "view",
      "type": "function"
    },
    {
      "constant": true,
      "inputs": [
        {
          "internalType": "address",
          "name": "_reserve",
          "type": "address"
        }
      ],
      "name": "isReserveUsageAsCollateralEnabled",
      "outputs": [
        {
          "internalType": "bool",
          "name": "",
          "type": "bool"
        }
      ],
      "payable": false,
      "stateMutability": "view",
      "type": "function"
    },
    {
      "constant": true,
      "inputs": [
        {
          "internalType": "address",
          "name": "_reserve",
          "type": "address"
        },
        {
          "internalType": "address",
          "name": "_user",
          "type": "address"
        },
        {
          "internalType": "uint256",
          "name": "_amount",
          "type": "uint256"
        }
      ],
      "name": "isUserAllowedToBorrowAtStable",
      "outputs": [
        {
          "internalType": "bool",
          "name": "",
          "type": "bool"
        }
      ],
      "payable": false,
      "stateMutability": "view",
      "type": "function"
    },
    {
      "constant": true,
      "inputs": [
        {
          "internalType": "address",
          "name": "_reserve",
          "type": "address"
        },
        {
          "internalType": "address",
          "name": "_user",
          "type": "address"
        }
      ],
      "name": "isUserUseReserveAsCollateralEnabled",
      "outputs": [
        {
          "internalType": "bool",
          "name": "",
          "type": "bool"
        }
      ],
      "payable": false,
      "stateMutability": "view",
      "type": "function"
    },
    {
      "constant": true,
      "inputs": [],
      "name": "lendingPoolAddress",
      "outputs": [
        {
          "internalType": "address",
          "name": "",
          "type": "address"
        }
      ],
      "payable": false,
      "stateMutability": "view",
      "type": "function"
    },
    {
      "constant": false,
      "inputs": [
        {
          "internalType": "address",
          "name": "_token",
          "type": "address"
        },
        {
          "internalType": "uint256",
          "name": "_amount",
          "type": "uint256"
        },
        {
          "internalType": "address",
          "name": "_destination",
          "type": "address"
        }
      ],
      "name": "liquidateFee",
      "outputs": [],
      "payable": true,
      "stateMutability": "payable",
      "type": "function"
    },
    {
      "constant": false,
      "inputs": [],
      "name": "refreshConfiguration",
      "outputs": [],
      "payable": false,
      "stateMutability": "nonpayable",
      "type": "function"
    },
    {
      "constant": false,
      "inputs": [
        {
          "internalType": "address",
          "name": "_reserveToRemove",
          "type": "address"
        }
      ],
      "name": "removeLastAddedReserve",
      "outputs": [],
      "payable": false,
      "stateMutability": "nonpayable",
      "type": "function"
    },
    {
      "constant": true,
      "inputs": [
        {
          "internalType": "uint256",
          "name": "",
          "type": "uint256"
        }
      ],
      "name": "reservesList",
      "outputs": [
        {
          "internalType": "address",
          "name": "",
          "type": "address"
        }
      ],
      "payable": false,
      "stateMutability": "view",
      "type": "function"
    },
    {
      "constant": false,
      "inputs": [
        {
          "internalType": "address",
          "name": "_reserve",
          "type": "address"
        },
        {
          "internalType": "uint256",
          "name": "_ltv",
          "type": "uint256"
        }
      ],
      "name": "setReserveBaseLTVasCollateral",
      "outputs": [],
      "payable": false,
      "stateMutability": "nonpayable",
      "type": "function"
    },
    {
      "constant": false,
      "inputs": [
        {
          "internalType": "address",
          "name": "_reserve",
          "type": "address"
        },
        {
          "internalType": "uint256",
          "name": "_decimals",
          "type": "uint256"
        }
      ],
      "name": "setReserveDecimals",
      "outputs": [],
      "payable": false,
      "stateMutability": "nonpayable",
      "type": "function"
    },
    {
      "constant": false,
      "inputs": [
        {
          "internalType": "address",
          "name": "_reserve",
          "type": "address"
        },
        {
          "internalType": "address",
          "name": "_rateStrategyAddress",
          "type": "address"
        }
      ],
      "name": "setReserveInterestRateStrategyAddress",
      "outputs": [],
      "payable": false,
      "stateMutability": "nonpayable",
      "type": "function"
    },
    {
      "constant": false,
      "inputs": [
        {
          "internalType": "address",
          "name": "_reserve",
          "type": "address"
        },
        {
          "internalType": "uint256",
          "name": "_bonus",
          "type": "uint256"
        }
      ],
      "name": "setReserveLiquidationBonus",
      "outputs": [],
      "payable": false,
      "stateMutability": "nonpayable",
      "type": "function"
    },
    {
      "constant": false,
      "inputs": [
        {
          "internalType": "address",
          "name": "_reserve",
          "type": "address"
        },
        {
          "internalType": "uint256",
          "name": "_threshold",
          "type": "uint256"
        }
      ],
      "name": "setReserveLiquidationThreshold",
      "outputs": [],
      "payable": false,
      "stateMutability": "nonpayable",
      "type": "function"
    },
    {
      "constant": false,
      "inputs": [
        {
          "internalType": "address",
          "name": "_reserve",
          "type": "address"
        },
        {
          "internalType": "address",
          "name": "_user",
          "type": "address"
        },
        {
          "internalType": "bool",
          "name": "_useAsCollateral",
          "type": "bool"
        }
      ],
      "name": "setUserUseReserveAsCollateral",
      "outputs": [],
      "payable": false,
      "stateMutability": "nonpayable",
      "type": "function"
    },
    {
      "constant": false,
      "inputs": [
        {
          "internalType": "address",
          "name": "_token",
          "type": "address"
        },
        {
          "internalType": "address",
          "name": "_user",
          "type": "address"
        },
        {
          "internalType": "uint256",
          "name": "_amount",
          "type": "uint256"
        },
        {
          "internalType": "address",
          "name": "_destination",
          "type": "address"
        }
      ],
      "name": "transferToFeeCollectionAddress",
      "outputs": [],
      "payable": true,
      "stateMutability": "payable",
      "type": "function"
    },
    {
      "constant": false,
      "inputs": [
        {
          "internalType": "address",
          "name": "_reserve",
          "type": "address"
        },
        {
          "internalType": "address payable",
          "name": "_user",
          "type": "address"
        },
        {
          "internalType": "uint256",
          "name": "_amount",
          "type": "uint256"
        }
      ],
      "name": "transferToReserve",
      "outputs": [],
      "payable": true,
      "stateMutability": "payable",
      "type": "function"
    },
    {
      "constant": false,
      "inputs": [
        {
          "internalType": "address",
          "name": "_reserve",
          "type": "address"
        },
        {
          "internalType": "address payable",
          "name": "_user",
          "type": "address"
        },
        {
          "internalType": "uint256",
          "name": "_amount",
          "type": "uint256"
        }
      ],
      "name": "transferToUser",
      "outputs": [],
      "payable": false,
      "stateMutability": "nonpayable",
      "type": "function"
    },
    {
      "constant": false,
      "inputs": [
        {
          "internalType": "address",
          "name": "_reserve",
          "type": "address"
        }
      ],
      "name": "unfreezeReserve",
      "outputs": [],
      "payable": false,
      "stateMutability": "nonpayable",
      "type": "function"
    },
    {
      "constant": false,
      "inputs": [
        {
          "internalType": "address",
          "name": "_reserve",
          "type": "address"
        },
        {
          "internalType": "address",
          "name": "_user",
          "type": "address"
        },
        {
          "internalType": "uint256",
          "name": "_amountBorrowed",
          "type": "uint256"
        },
        {
          "internalType": "uint256",
          "name": "_borrowFee",
          "type": "uint256"
        },
        {
          "internalType": "enum CoreLibrary.InterestRateMode",
          "name": "_rateMode",
          "type": "uint8"
        }
      ],
      "name": "updateStateOnBorrow",
      "outputs": [
        {
          "internalType": "uint256",
          "name": "",
          "type": "uint256"
        },
        {
          "internalType": "uint256",
          "name": "",
          "type": "uint256"
        }
      ],
      "payable": false,
      "stateMutability": "nonpayable",
      "type": "function"
    },
    {
      "constant": false,
      "inputs": [
        {
          "internalType": "address",
          "name": "_reserve",
          "type": "address"
        },
        {
          "internalType": "address",
          "name": "_user",
          "type": "address"
        },
        {
          "internalType": "uint256",
          "name": "_amount",
          "type": "uint256"
        },
        {
          "internalType": "bool",
          "name": "_isFirstDeposit",
          "type": "bool"
        }
      ],
      "name": "updateStateOnDeposit",
      "outputs": [],
      "payable": false,
      "stateMutability": "nonpayable",
      "type": "function"
    },
    {
      "constant": false,
      "inputs": [
        {
          "internalType": "address",
          "name": "_reserve",
          "type": "address"
        },
        {
          "internalType": "uint256",
          "name": "_availableLiquidityBefore",
          "type": "uint256"
        },
        {
          "internalType": "uint256",
          "name": "_income",
          "type": "uint256"
        },
        {
          "internalType": "uint256",
          "name": "_protocolFee",
          "type": "uint256"
        }
      ],
      "name": "updateStateOnFlashLoan",
      "outputs": [],
      "payable": false,
      "stateMutability": "nonpayable",
      "type": "function"
    },
    {
      "constant": false,
      "inputs": [
        {
          "internalType": "address",
          "name": "_principalReserve",
          "type": "address"
        },
        {
          "internalType": "address",
          "name": "_collateralReserve",
          "type": "address"
        },
        {
          "internalType": "address",
          "name": "_user",
          "type": "address"
        },
        {
          "internalType": "uint256",
          "name": "_amountToLiquidate",
          "type": "uint256"
        },
        {
          "internalType": "uint256",
          "name": "_collateralToLiquidate",
          "type": "uint256"
        },
        {
          "internalType": "uint256",
          "name": "_feeLiquidated",
          "type": "uint256"
        },
        {
          "internalType": "uint256",
          "name": "_liquidatedCollateralForFee",
          "type": "uint256"
        },
        {
          "internalType": "uint256",
          "name": "_balanceIncrease",
          "type": "uint256"
        },
        {
          "internalType": "bool",
          "name": "_liquidatorReceivesAToken",
          "type": "bool"
        }
      ],
      "name": "updateStateOnLiquidation",
      "outputs": [],
      "payable": false,
      "stateMutability": "nonpayable",
      "type": "function"
    },
    {
      "constant": false,
      "inputs": [
        {
          "internalType": "address",
          "name": "_reserve",
          "type": "address"
        },
        {
          "internalType": "address",
          "name": "_user",
          "type": "address"
        },
        {
          "internalType": "uint256",
          "name": "_balanceIncrease",
          "type": "uint256"
        }
      ],
      "name": "updateStateOnRebalance",
      "outputs": [
        {
          "internalType": "uint256",
          "name": "",
          "type": "uint256"
        }
      ],
      "payable": false,
      "stateMutability": "nonpayable",
      "type": "function"
    },
    {
      "constant": false,
      "inputs": [
        {
          "internalType": "address",
          "name": "_reserve",
          "type": "address"
        },
        {
          "internalType": "address",
          "name": "_user",
          "type": "address"
        },
        {
          "internalType": "uint256",
          "name": "_amountRedeemed",
          "type": "uint256"
        },
        {
          "internalType": "bool",
          "name": "_userRedeemedEverything",
          "type": "bool"
        }
      ],
      "name": "updateStateOnRedeem",
      "outputs": [],
      "payable": false,
      "stateMutability": "nonpayable",
      "type": "function"
    },
    {
      "constant": false,
      "inputs": [
        {
          "internalType": "address",
          "name": "_reserve",
          "type": "address"
        },
        {
          "internalType": "address",
          "name": "_user",
          "type": "address"
        },
        {
          "internalType": "uint256",
          "name": "_paybackAmountMinusFees",
          "type": "uint256"
        },
        {
          "internalType": "uint256",
          "name": "_originationFeeRepaid",
          "type": "uint256"
        },
        {
          "internalType": "uint256",
          "name": "_balanceIncrease",
          "type": "uint256"
        },
        {
          "internalType": "bool",
          "name": "_repaidWholeLoan",
          "type": "bool"
        }
      ],
      "name": "updateStateOnRepay",
      "outputs": [],
      "payable": false,
      "stateMutability": "nonpayable",
      "type": "function"
    },
    {
      "constant": false,
      "inputs": [
        {
          "internalType": "address",
          "name": "_reserve",
          "type": "address"
        },
        {
          "internalType": "address",
          "name": "_user",
          "type": "address"
        },
        {
          "internalType": "uint256",
          "name": "_principalBorrowBalance",
          "type": "uint256"
        },
        {
          "internalType": "uint256",
          "name": "_compoundedBorrowBalance",
          "type": "uint256"
        },
        {
          "internalType": "uint256",
          "name": "_balanceIncrease",
          "type": "uint256"
        },
        {
          "internalType": "enum CoreLibrary.InterestRateMode",
          "name": "_currentRateMode",
          "type": "uint8"
        }
      ],
      "name": "updateStateOnSwapRate",
      "outputs": [
        {
          "internalType": "enum CoreLibrary.InterestRateMode",
          "name": "",
          "type": "uint8"
        },
        {
          "internalType": "uint256",
          "name": "",
          "type": "uint256"
        }
      ],
      "payable": false,
      "stateMutability": "nonpayable",
      "type": "function"
    }
  ],
  "bytecode": "0x6080604052600080553480156200001557600080fd5b50619b1c80620000266000396000f3fe60806040526004361061041b5760003560e01c8063a2353fdc1161021e578063d15e005311610123578063e8ae2f5b116100ab578063f61483111161007a578063f614831114612143578063f6ea8d7614612208578063fa51854c1461228d578063fa93b2a51461230a578063feab31ac146123855761041b565b8063e8ae2f5b14611fdf578063eede87c114612030578063ef1f93731461208d578063f054ab46146120de5761041b565b8063dae4c4e7116100f2578063dae4c4e714611d93578063e10076ad14611de4578063e2174d8614611e82578063e240301914611f15578063e6d1819014611f7a5761041b565b8063d15e005314611be1578063d3ae26b314611c46578063d466016f14611c9d578063da12d96f14611cf85761041b565b8063bd7fd79a116101a6578063c540148e11610175578063c540148e146119e1578063c72c4d1014611a46578063c76a6c9c14611a9d578063c7d1423714611b02578063d06e2ec114611b905761041b565b8063bd7fd79a14611861578063bfacad84146118c6578063c33cfd901461192b578063c4d66de8146119905761041b565b8063afcdbea3116101ed578063afcdbea31461164c578063b701d093146116d3578063b75d6f3414611738578063b8c0f74514611789578063bcd6ffa4146117da5761041b565b8063a2353fdc14611498578063a5bc826c146114fd578063a8dc0f451461156c578063af825b07146115bd5761041b565b80635cf2e656116103245780637aca76eb116102ac578063906c0a411161027b578063906c0a411461124957806398bd4737146112ae5780639e3c4f3b146113135780639e6748481461139c5780639fb8afcd146114055761041b565b80637aca76eb146110c05780637f90fec51461111157806388079d88146111765780638f385c22146111db5761041b565b806366d103f3116102f357806366d103f314610dfa57806368beb4d614610e7f5780636ae1441614610f4f5780636fffab0c14610fe057806370fb84f4146110655761041b565b80635cf2e65614610ca15780635fc526ff14610d0a5780636468108314610d8857806366bbd92814610d9f5761041b565b80633443a14b116103a757806345330a401161037657806345330a4014610a4a57806346bc0f2814610ae55780634a08accb14610b4a5780634f14460914610bb35780634fe7a6e514610c265761041b565b80633443a14b1461086057806334b3beee146108bb57806337ac6fe41461094c5780633e72a454146109f95761041b565b806318a4dbca116103ee57806318a4dbca1461060057806318f9bbae146106855780631ca19f19146106ee5780631d2118f91461078157806328fcf4d3146107f25761041b565b806305075d6e146104915780630902f1ac146104fa57806309ac2953146105665780630c7de4e9146105d5575b61043a3373ffffffffffffffffffffffffffffffffffffffff1661240a565b61048f576040517f08c379a00000000000000000000000000000000000000000000000000000000081526004018080602001828103825260368152602001806198706036913960400191505060405180910390fd5b005b34801561049d57600080fd5b506104e0600480360360208110156104b457600080fd5b81019080803573ffffffffffffffffffffffffffffffffffffffff16906020019092919050505061241d565b604051808215151515815260200191505060405180910390f35b34801561050657600080fd5b5061050f61247b565b6040518080602001828103825283818151815260200191508051906020019060200280838360005b83811015610552578082015181840152602081019050610537565b505050509050019250505060405180910390f35b34801561057257600080fd5b506105d36004803603608081101561058957600080fd5b81019080803573ffffffffffffffffffffffffffffffffffffffff169060200190929190803590602001909291908035906020019092919080359060200190929190505050612509565b005b3480156105e157600080fd5b506105ea612685565b6040518082815260200191505060405180910390f35b34801561060c57600080fd5b5061066f6004803603604081101561062357600080fd5b81019080803573ffffffffffffffffffffffffffffffffffffffff169060200190929190803573ffffffffffffffffffffffffffffffffffffffff16906020019092919050505061268a565b6040518082815260200191505060405180910390f35b34801561069157600080fd5b506106d4600480360360208110156106a857600080fd5b81019080803573ffffffffffffffffffffffffffffffffffffffff1690602001909291905050506127b3565b604051808215151515815260200191505060405180910390f35b3480156106fa57600080fd5b5061075d6004803603604081101561071157600080fd5b81019080803573ffffffffffffffffffffffffffffffffffffffff169060200190929190803573ffffffffffffffffffffffffffffffffffffffff169060200190929190505050612811565b6040518082600281111561076d57fe5b60ff16815260200191505060405180910390f35b34801561078d57600080fd5b506107f0600480360360408110156107a457600080fd5b81019080803573ffffffffffffffffffffffffffffffffffffffff169060200190929190803573ffffffffffffffffffffffffffffffffffffffff1690602001909291905050506128c9565b005b61085e6004803603606081101561080857600080fd5b81019080803573ffffffffffffffffffffffffffffffffffffffff169060200190929190803573ffffffffffffffffffffffffffffffffffffffff16906020019092919080359060200190929190505050612a74565b005b34801561086c57600080fd5b506108b96004803603604081101561088357600080fd5b81019080803573ffffffffffffffffffffffffffffffffffffffff16906020019092919080359060200190929190505050612d41565b005b3480156108c757600080fd5b5061090a600480360360208110156108de57600080fd5b81019080803573ffffffffffffffffffffffffffffffffffffffff169060200190929190505050612eb8565b604051808273ffffffffffffffffffffffffffffffffffffffff1673ffffffffffffffffffffffffffffffffffffffff16815260200191505060405180910390f35b34801561095857600080fd5b506109dc600480360360a081101561096f57600080fd5b81019080803573ffffffffffffffffffffffffffffffffffffffff169060200190929190803573ffffffffffffffffffffffffffffffffffffffff1690602001909291908035906020019092919080359060200190929190803560ff169060200190929190505050612f29565b604051808381526020018281526020019250505060405180910390f35b348015610a0557600080fd5b50610a4860048036036020811015610a1c57600080fd5b81019080803573ffffffffffffffffffffffffffffffffffffffff169060200190929190505050613027565b005b348015610a5657600080fd5b50610ae360048036036080811015610a6d57600080fd5b81019080803573ffffffffffffffffffffffffffffffffffffffff169060200190929190803573ffffffffffffffffffffffffffffffffffffffff16906020019092919080359060200190929190803573ffffffffffffffffffffffffffffffffffffffff1690602001909291905050506131b1565b005b348015610af157600080fd5b50610b3460048036036020811015610b0857600080fd5b81019080803573ffffffffffffffffffffffffffffffffffffffff1690602001909291905050506133fd565b6040518082815260200191505060405180910390f35b348015610b5657600080fd5b50610b9960048036036020811015610b6d57600080fd5b81019080803573ffffffffffffffffffffffffffffffffffffffff16906020019092919050505061344e565b604051808215151515815260200191505060405180910390f35b348015610bbf57600080fd5b50610c0260048036036020811015610bd657600080fd5b81019080803573ffffffffffffffffffffffffffffffffffffffff1690602001909291905050506134ac565b604051808264ffffffffff1664ffffffffff16815260200191505060405180910390f35b348015610c3257600080fd5b50610c5f60048036036020811015610c4957600080fd5b810190808035906020019092919050505061350e565b604051808273ffffffffffffffffffffffffffffffffffffffff1673ffffffffffffffffffffffffffffffffffffffff16815260200191505060405180910390f35b348015610cad57600080fd5b50610cf060048036036020811015610cc457600080fd5b81019080803573ffffffffffffffffffffffffffffffffffffffff16906020019092919050505061354a565b604051808215151515815260200191505060405180910390f35b348015610d1657600080fd5b50610d5960048036036020811015610d2d57600080fd5b81019080803573ffffffffffffffffffffffffffffffffffffffff1690602001909291905050506135a8565b604051808581526020018481526020018381526020018215151515815260200194505050505060405180910390f35b348015610d9457600080fd5b50610d9d613638565b005b348015610dab57600080fd5b50610df860048036036040811015610dc257600080fd5b81019080803573ffffffffffffffffffffffffffffffffffffffff16906020019092919080359060200190929190505050613768565b005b348015610e0657600080fd5b50610e6960048036036040811015610e1d57600080fd5b81019080803573ffffffffffffffffffffffffffffffffffffffff169060200190929190803573ffffffffffffffffffffffffffffffffffffffff1690602001909291905050506138df565b6040518082815260200191505060405180910390f35b348015610e8b57600080fd5b50610f4d6004803603610120811015610ea357600080fd5b81019080803573ffffffffffffffffffffffffffffffffffffffff169060200190929190803573ffffffffffffffffffffffffffffffffffffffff169060200190929190803573ffffffffffffffffffffffffffffffffffffffff1690602001909291908035906020019092919080359060200190929190803590602001909291908035906020019092919080359060200190929190803515159060200190929190505050613986565b005b348015610f5b57600080fd5b50610f9e60048036036020811015610f7257600080fd5b81019080803573ffffffffffffffffffffffffffffffffffffffff169060200190929190505050613a89565b604051808273ffffffffffffffffffffffffffffffffffffffff1673ffffffffffffffffffffffffffffffffffffffff16815260200191505060405180910390f35b348015610fec57600080fd5b5061104f6004803603604081101561100357600080fd5b81019080803573ffffffffffffffffffffffffffffffffffffffff169060200190929190803573ffffffffffffffffffffffffffffffffffffffff169060200190929190505050613afa565b6040518082815260200191505060405180910390f35b34801561107157600080fd5b506110be6004803603604081101561108857600080fd5b81019080803573ffffffffffffffffffffffffffffffffffffffff16906020019092919080359060200190929190505050613b89565b005b3480156110cc57600080fd5b5061110f600480360360208110156110e357600080fd5b81019080803573ffffffffffffffffffffffffffffffffffffffff169060200190929190505050613d00565b005b34801561111d57600080fd5b506111606004803603602081101561113457600080fd5b81019080803573ffffffffffffffffffffffffffffffffffffffff169060200190929190505050613e8a565b6040518082815260200191505060405180910390f35b34801561118257600080fd5b506111c56004803603602081101561119957600080fd5b81019080803573ffffffffffffffffffffffffffffffffffffffff169060200190929190505050613edb565b6040518082815260200191505060405180910390f35b611247600480360360608110156111f157600080fd5b81019080803573ffffffffffffffffffffffffffffffffffffffff16906020019092919080359060200190929190803573ffffffffffffffffffffffffffffffffffffffff1690602001909291905050506140a3565b005b34801561125557600080fd5b506112986004803603602081101561126c57600080fd5b81019080803573ffffffffffffffffffffffffffffffffffffffff1690602001909291905050506142fa565b6040518082815260200191505060405180910390f35b3480156112ba57600080fd5b506112fd600480360360208110156112d157600080fd5b81019080803573ffffffffffffffffffffffffffffffffffffffff169060200190929190505050614406565b6040518082815260200191505060405180910390f35b34801561131f57600080fd5b506113826004803603604081101561133657600080fd5b81019080803573ffffffffffffffffffffffffffffffffffffffff169060200190929190803573ffffffffffffffffffffffffffffffffffffffff169060200190929190505050614457565b604051808215151515815260200191505060405180910390f35b3480156113a857600080fd5b506113eb600480360360208110156113bf57600080fd5b81019080803573ffffffffffffffffffffffffffffffffffffffff1690602001909291905050506144f3565b604051808215151515815260200191505060405180910390f35b34801561141157600080fd5b506114746004803603604081101561142857600080fd5b81019080803573ffffffffffffffffffffffffffffffffffffffff169060200190929190803573ffffffffffffffffffffffffffffffffffffffff169060200190929190505050614551565b60405180848152602001838152602001828152602001935050505060405180910390f35b3480156114a457600080fd5b506114e7600480360360208110156114bb57600080fd5b81019080803573ffffffffffffffffffffffffffffffffffffffff169060200190929190505050614677565b6040518082815260200191505060405180910390f35b34801561150957600080fd5b5061156a6004803603608081101561152057600080fd5b81019080803573ffffffffffffffffffffffffffffffffffffffff1690602001909291908035906020019092919080359060200190929190803590602001909291905050506146c3565b005b34801561157857600080fd5b506115bb6004803603602081101561158f57600080fd5b81019080803573ffffffffffffffffffffffffffffffffffffffff1690602001909291905050506148ae565b005b3480156115c957600080fd5b50611636600480360360608110156115e057600080fd5b81019080803573ffffffffffffffffffffffffffffffffffffffff169060200190929190803573ffffffffffffffffffffffffffffffffffffffff16906020019092919080359060200190929190505050614a7e565b6040518082815260200191505060405180910390f35b34801561165857600080fd5b506116d16004803603608081101561166f57600080fd5b81019080803573ffffffffffffffffffffffffffffffffffffffff169060200190929190803573ffffffffffffffffffffffffffffffffffffffff16906020019092919080359060200190929190803515159060200190929190505050614bd1565b005b3480156116df57600080fd5b50611722600480360360208110156116f657600080fd5b81019080803573ffffffffffffffffffffffffffffffffffffffff169060200190929190505050614ce3565b6040518082815260200191505060405180910390f35b34801561174457600080fd5b506117876004803603602081101561175b57600080fd5b81019080803573ffffffffffffffffffffffffffffffffffffffff169060200190929190505050614d34565b005b34801561179557600080fd5b506117d8600480360360208110156117ac57600080fd5b81019080803573ffffffffffffffffffffffffffffffffffffffff169060200190929190505050614f2b565b005b3480156117e657600080fd5b5061185f600480360360808110156117fd57600080fd5b81019080803573ffffffffffffffffffffffffffffffffffffffff169060200190929190803573ffffffffffffffffffffffffffffffffffffffff169060200190929190803590602001909291908035151590602001909291905050506150b5565b005b34801561186d57600080fd5b506118b06004803603602081101561188457600080fd5b81019080803573ffffffffffffffffffffffffffffffffffffffff1690602001909291905050506151c7565b6040518082815260200191505060405180910390f35b3480156118d257600080fd5b50611915600480360360208110156118e957600080fd5b81019080803573ffffffffffffffffffffffffffffffffffffffff169060200190929190505050615218565b6040518082815260200191505060405180910390f35b34801561193757600080fd5b5061197a6004803603602081101561194e57600080fd5b81019080803573ffffffffffffffffffffffffffffffffffffffff1690602001909291905050506152ba565b6040518082815260200191505060405180910390f35b34801561199c57600080fd5b506119df600480360360208110156119b357600080fd5b81019080803573ffffffffffffffffffffffffffffffffffffffff169060200190929190505050615329565b005b3480156119ed57600080fd5b50611a3060048036036020811015611a0457600080fd5b81019080803573ffffffffffffffffffffffffffffffffffffffff169060200190929190505050615462565b6040518082815260200191505060405180910390f35b348015611a5257600080fd5b50611a5b6154b3565b604051808273ffffffffffffffffffffffffffffffffffffffff1673ffffffffffffffffffffffffffffffffffffffff16815260200191505060405180910390f35b348015611aa957600080fd5b50611aec60048036036020811015611ac057600080fd5b81019080803573ffffffffffffffffffffffffffffffffffffffff1690602001909291905050506154d9565b6040518082815260200191505060405180910390f35b611b8e60048036036080811015611b1857600080fd5b81019080803573ffffffffffffffffffffffffffffffffffffffff169060200190929190803573ffffffffffffffffffffffffffffffffffffffff16906020019092919080359060200190929190803573ffffffffffffffffffffffffffffffffffffffff16906020019092919050505061552a565b005b348015611b9c57600080fd5b50611bdf60048036036020811015611bb357600080fd5b81019080803573ffffffffffffffffffffffffffffffffffffffff1690602001909291905050506157dd565b005b348015611bed57600080fd5b50611c3060048036036020811015611c0457600080fd5b81019080803573ffffffffffffffffffffffffffffffffffffffff169060200190929190505050615e35565b6040518082815260200191505060405180910390f35b348015611c5257600080fd5b50611c5b615e8a565b604051808273ffffffffffffffffffffffffffffffffffffffff1673ffffffffffffffffffffffffffffffffffffffff16815260200191505060405180910390f35b348015611ca957600080fd5b50611cf660048036036040811015611cc057600080fd5b81019080803573ffffffffffffffffffffffffffffffffffffffff16906020019092919080359060200190929190505050615eb0565b005b348015611d0457600080fd5b50611d91600480360360c0811015611d1b57600080fd5b81019080803573ffffffffffffffffffffffffffffffffffffffff169060200190929190803573ffffffffffffffffffffffffffffffffffffffff169060200190929190803590602001909291908035906020019092919080359060200190929190803515159060200190929190505050616027565b005b348015611d9f57600080fd5b50611de260048036036020811015611db657600080fd5b81019080803573ffffffffffffffffffffffffffffffffffffffff1690602001909291905050506160fb565b005b348015611df057600080fd5b50611e5360048036036040811015611e0757600080fd5b81019080803573ffffffffffffffffffffffffffffffffffffffff169060200190929190803573ffffffffffffffffffffffffffffffffffffffff169060200190929190505050616285565b604051808581526020018481526020018381526020018215151515815260200194505050505060405180910390f35b348015611e8e57600080fd5b50611efb60048036036060811015611ea557600080fd5b81019080803573ffffffffffffffffffffffffffffffffffffffff169060200190929190803573ffffffffffffffffffffffffffffffffffffffff169060200190929190803590602001909291905050506163d5565b604051808215151515815260200191505060405180910390f35b348015611f2157600080fd5b50611f6460048036036020811015611f3857600080fd5b81019080803573ffffffffffffffffffffffffffffffffffffffff169060200190929190505050616506565b6040518082815260200191505060405180910390f35b348015611f8657600080fd5b50611fc960048036036020811015611f9d57600080fd5b81019080803573ffffffffffffffffffffffffffffffffffffffff169060200190929190505050616614565b6040518082815260200191505060405180910390f35b348015611feb57600080fd5b5061202e6004803603602081101561200257600080fd5b81019080803573ffffffffffffffffffffffffffffffffffffffff169060200190929190505050616664565b005b34801561203c57600080fd5b5061208b6004803603604081101561205357600080fd5b81019080803573ffffffffffffffffffffffffffffffffffffffff169060200190929190803515159060200190929190505050616834565b005b34801561209957600080fd5b506120dc600480360360208110156120b057600080fd5b81019080803573ffffffffffffffffffffffffffffffffffffffff169060200190929190505050616a11565b005b3480156120ea57600080fd5b5061212d6004803603602081101561210157600080fd5b81019080803573ffffffffffffffffffffffffffffffffffffffff169060200190929190505050616b9b565b6040518082815260200191505060405180910390f35b34801561214f57600080fd5b506121dd600480360360c081101561216657600080fd5b81019080803573ffffffffffffffffffffffffffffffffffffffff169060200190929190803573ffffffffffffffffffffffffffffffffffffffff169060200190929190803590602001909291908035906020019092919080359060200190929190803560ff169060200190929190505050616bec565b604051808360028111156121ed57fe5b60ff1681526020018281526020019250505060405180910390f35b34801561221457600080fd5b506122776004803603604081101561222b57600080fd5b81019080803573ffffffffffffffffffffffffffffffffffffffff169060200190929190803573ffffffffffffffffffffffffffffffffffffffff169060200190929190505050616cd9565b6040518082815260200191505060405180910390f35b34801561229957600080fd5b50612308600480360360608110156122b057600080fd5b81019080803573ffffffffffffffffffffffffffffffffffffffff169060200190929190803573ffffffffffffffffffffffffffffffffffffffff169060200190929190803515159060200190929190505050616d68565b005b34801561231657600080fd5b506123836004803603606081101561232d57600080fd5b81019080803573ffffffffffffffffffffffffffffffffffffffff169060200190929190803573ffffffffffffffffffffffffffffffffffffffff16906020019092919080359060200190929190505050616eb0565b005b34801561239157600080fd5b506123f4600480360360408110156123a857600080fd5b81019080803573ffffffffffffffffffffffffffffffffffffffff169060200190929190803573ffffffffffffffffffffffffffffffffffffffff1690602001909291905050506170a8565b6040518082815260200191505060405180910390f35b600080823b905060008111915050919050565b600080603660008473ffffffffffffffffffffffffffffffffffffffff1673ffffffffffffffffffffffffffffffffffffffff168152602001908152602001600020905080600d01601c9054906101000a900460ff16915050919050565b606060388054806020026020016040519081016040528092919081815260200182805480156124ff57602002820191906000526020600020905b8160009054906101000a900473ffffffffffffffffffffffffffffffffffffffff1673ffffffffffffffffffffffffffffffffffffffff16815260200190600101908083116124b5575b5050505050905090565b3373ffffffffffffffffffffffffffffffffffffffff16603460009054906101000a900473ffffffffffffffffffffffffffffffffffffffff1673ffffffffffffffffffffffffffffffffffffffff16146125af576040517f08c379a000000000000000000000000000000000000000000000000000000000815260040180806020018281038252602a815260200180619a71602a913960400191505060405180910390fd5b6125b98482617137565b612600603660008673ffffffffffffffffffffffffffffffffffffffff1673ffffffffffffffffffffffffffffffffffffffff168152602001908152602001600020617295565b600061261d61260e86616614565b8561733e90919063ffffffff16565b90506126728184603660008973ffffffffffffffffffffffffffffffffffffffff1673ffffffffffffffffffffffffffffffffffffffff1681526020019081526020016000206173c69092919063ffffffff16565b61267e85846000617431565b5050505050565b600481565b600080603660008573ffffffffffffffffffffffffffffffffffffffff1673ffffffffffffffffffffffffffffffffffffffff168152602001908152602001600020600c0160009054906101000a900473ffffffffffffffffffffffffffffffffffffffff1690508073ffffffffffffffffffffffffffffffffffffffff166370a08231846040518263ffffffff1660e01b8152600401808273ffffffffffffffffffffffffffffffffffffffff1673ffffffffffffffffffffffffffffffffffffffff16815260200191505060206040518083038186803b15801561276f57600080fd5b505afa158015612783573d6000803e3d6000fd5b505050506040513d602081101561279957600080fd5b810190808051906020019092919050505091505092915050565b600080603660008473ffffffffffffffffffffffffffffffffffffffff1673ffffffffffffffffffffffffffffffffffffffff168152602001908152602001600020905080600d01601a9054906101000a900460ff16915050919050565b600080603760008473ffffffffffffffffffffffffffffffffffffffff1673ffffffffffffffffffffffffffffffffffffffff16815260200190815260200160002060008573ffffffffffffffffffffffffffffffffffffffff1673ffffffffffffffffffffffffffffffffffffffff16815260200190815260200160002090506000816000015414156128a95760009150506128c3565b60008160030154116128bc5760026128bf565b60015b9150505b92915050565b3373ffffffffffffffffffffffffffffffffffffffff16603560009054906101000a900473ffffffffffffffffffffffffffffffffffffffff1673ffffffffffffffffffffffffffffffffffffffff166385c858b16040518163ffffffff1660e01b815260040160206040518083038186803b15801561294857600080fd5b505afa15801561295c573d6000803e3d6000fd5b505050506040513d602081101561297257600080fd5b810190808051906020019092919050505073ffffffffffffffffffffffffffffffffffffffff16146129ef576040517f08c379a00000000000000000000000000000000000000000000000000000000081526004018080602001828103825260378152602001806199c76037913960400191505060405180910390fd5b80603660008473ffffffffffffffffffffffffffffffffffffffff1673ffffffffffffffffffffffffffffffffffffffff168152602001908152602001600020600d0160006101000a81548173ffffffffffffffffffffffffffffffffffffffff021916908373ffffffffffffffffffffffffffffffffffffffff1602179055505050565b3373ffffffffffffffffffffffffffffffffffffffff16603460009054906101000a900473ffffffffffffffffffffffffffffffffffffffff1673ffffffffffffffffffffffffffffffffffffffff1614612b1a576040517f08c379a000000000000000000000000000000000000000000000000000000000815260040180806020018281038252602a815260200180619a71602a913960400191505060405180910390fd5b612b22617686565b73ffffffffffffffffffffffffffffffffffffffff168373ffffffffffffffffffffffffffffffffffffffff1614612bdf5760003414612bad576040517f08c379a00000000000000000000000000000000000000000000000000000000081526004018080602001828103825260328152602001806199066032913960400191505060405180910390fd5b612bda8230838673ffffffffffffffffffffffffffffffffffffffff166176a2909392919063ffffffff16565b612d3c565b80341015612c38576040517f08c379a000000000000000000000000000000000000000000000000000000000815260040180806020018281038252603581526020018061983b6035913960400191505060405180910390fd5b80341115612d3b576000612c5582346177a890919063ffffffff16565b905060008373ffffffffffffffffffffffffffffffffffffffff168261c35090604051806000019050600060405180830381858888f193505050503d8060008114612cbc576040519150601f19603f3d011682016040523d82523d6000602084013e612cc1565b606091505b5050905080612d38576040517f08c379a00000000000000000000000000000000000000000000000000000000081526004018080602001828103825260168152602001807f5472616e73666572206f6620455448206661696c65640000000000000000000081525060200191505060405180910390fd5b50505b5b505050565b3373ffffffffffffffffffffffffffffffffffffffff16603560009054906101000a900473ffffffffffffffffffffffffffffffffffffffff1673ffffffffffffffffffffffffffffffffffffffff166385c858b16040518163ffffffff1660e01b815260040160206040518083038186803b158015612dc057600080fd5b505afa158015612dd4573d6000803e3d6000fd5b505050506040513d6020811015612dea57600080fd5b810190808051906020019092919050505073ffffffffffffffffffffffffffffffffffffffff1614612e67576040517f08c379a00000000000000000000000000000000000000000000000000000000081526004018080602001828103825260378152602001806199c76037913960400191505060405180910390fd5b6000603660008473ffffffffffffffffffffffffffffffffffffffff1673ffffffffffffffffffffffffffffffffffffffff1681526020019081526020016000209050818160090181905550505050565b600080603660008473ffffffffffffffffffffffffffffffffffffffff1673ffffffffffffffffffffffffffffffffffffffff168152602001908152602001600020905080600c0160009054906101000a900473ffffffffffffffffffffffffffffffffffffffff16915050919050565b6000803373ffffffffffffffffffffffffffffffffffffffff16603460009054906101000a900473ffffffffffffffffffffffffffffffffffffffff1673ffffffffffffffffffffffffffffffffffffffff1614612fd2576040517f08c379a000000000000000000000000000000000000000000000000000000000815260040180806020018281038252602a815260200180619a71602a913960400191505060405180910390fd5b600080612fdf8989614551565b9250509150612ff2898984848b8a617831565b613000898989848a8a61788e565b61300c89600089617431565b6130168989617ab4565b819350935050509550959350505050565b3373ffffffffffffffffffffffffffffffffffffffff16603560009054906101000a900473ffffffffffffffffffffffffffffffffffffffff1673ffffffffffffffffffffffffffffffffffffffff166385c858b16040518163ffffffff1660e01b815260040160206040518083038186803b1580156130a657600080fd5b505afa1580156130ba573d6000803e3d6000fd5b505050506040513d60208110156130d057600080fd5b810190808051906020019092919050505073ffffffffffffffffffffffffffffffffffffffff161461314d576040517f08c379a00000000000000000000000000000000000000000000000000000000081526004018080602001828103825260378152602001806199c76037913960400191505060405180910390fd5b6000603660008373ffffffffffffffffffffffffffffffffffffffff1673ffffffffffffffffffffffffffffffffffffffff1681526020019081526020016000209050600081600d01601c6101000a81548160ff0219169083151502179055505050565b3373ffffffffffffffffffffffffffffffffffffffff16603560009054906101000a900473ffffffffffffffffffffffffffffffffffffffff1673ffffffffffffffffffffffffffffffffffffffff166385c858b16040518163ffffffff1660e01b815260040160206040518083038186803b15801561323057600080fd5b505afa158015613244573d6000803e3d6000fd5b505050506040513d602081101561325a57600080fd5b810190808051906020019092919050505073ffffffffffffffffffffffffffffffffffffffff16146132d7576040517f08c379a00000000000000000000000000000000000000000000000000000000081526004018080602001828103825260378152602001806199c76037913960400191505060405180910390fd5b603660008573ffffffffffffffffffffffffffffffffffffffff1673ffffffffffffffffffffffffffffffffffffffff16815260200190815260200160002073__$fc4c0231a091b74b50bb583255876fbd67$__6313769cd490918585856040518563ffffffff1660e01b8152600401808581526020018473ffffffffffffffffffffffffffffffffffffffff1673ffffffffffffffffffffffffffffffffffffffff1681526020018381526020018273ffffffffffffffffffffffffffffffffffffffff1673ffffffffffffffffffffffffffffffffffffffff16815260200194505050505060006040518083038186803b1580156133d657600080fd5b505af41580156133ea573d6000803e3d6000fd5b505050506133f784617bdd565b50505050565b600080603660008473ffffffffffffffffffffffffffffffffffffffff1673ffffffffffffffffffffffffffffffffffffffff16815260200190815260200160002090508060060154915050919050565b600080603660008473ffffffffffffffffffffffffffffffffffffffff1673ffffffffffffffffffffffffffffffffffffffff168152602001908152602001600020905080600d01601d9054906101000a900460ff16915050919050565b600080603660008473ffffffffffffffffffffffffffffffffffffffff1673ffffffffffffffffffffffffffffffffffffffff168152602001908152602001600020905080600d0160149054906101000a900464ffffffffff16915050919050565b6038818154811061351b57fe5b906000526020600020016000915054906101000a900473ffffffffffffffffffffffffffffffffffffffff1681565b600080603660008473ffffffffffffffffffffffffffffffffffffffff1673ffffffffffffffffffffffffffffffffffffffff168152602001908152602001600020905080600d0160199054906101000a900460ff16915050919050565b6000806000806000806000806000603660008b73ffffffffffffffffffffffffffffffffffffffff1673ffffffffffffffffffffffffffffffffffffffff168152602001908152602001600020905080600b01549450806008015493508060090154925080600d01601a9054906101000a900460ff16915084848484985098509850985050505050509193509193565b3373ffffffffffffffffffffffffffffffffffffffff16603560009054906101000a900473ffffffffffffffffffffffffffffffffffffffff1673ffffffffffffffffffffffffffffffffffffffff166385c858b16040518163ffffffff1660e01b815260040160206040518083038186803b1580156136b757600080fd5b505afa1580156136cb573d6000803e3d6000fd5b505050506040513d60208110156136e157600080fd5b810190808051906020019092919050505073ffffffffffffffffffffffffffffffffffffffff161461375e576040517f08c379a00000000000000000000000000000000000000000000000000000000081526004018080602001828103825260378152602001806199c76037913960400191505060405180910390fd5b613766617ce3565b565b3373ffffffffffffffffffffffffffffffffffffffff16603560009054906101000a900473ffffffffffffffffffffffffffffffffffffffff1673ffffffffffffffffffffffffffffffffffffffff166385c858b16040518163ffffffff1660e01b815260040160206040518083038186803b1580156137e757600080fd5b505afa1580156137fb573d6000803e3d6000fd5b505050506040513d602081101561381157600080fd5b810190808051906020019092919050505073ffffffffffffffffffffffffffffffffffffffff161461388e576040517f08c379a00000000000000000000000000000000000000000000000000000000081526004018080602001828103825260378152602001806199c76037913960400191505060405180910390fd5b6000603660008473ffffffffffffffffffffffffffffffffffffffff1673ffffffffffffffffffffffffffffffffffffffff16815260200190815260200160002090508181600b0181905550505050565b600080603760008473ffffffffffffffffffffffffffffffffffffffff1673ffffffffffffffffffffffffffffffffffffffff16815260200190815260200160002060008573ffffffffffffffffffffffffffffffffffffffff1673ffffffffffffffffffffffffffffffffffffffff16815260200190815260200160002090508060040160009054906101000a900464ffffffffff1664ffffffffff1691505092915050565b3373ffffffffffffffffffffffffffffffffffffffff16603460009054906101000a900473ffffffffffffffffffffffffffffffffffffffff1673ffffffffffffffffffffffffffffffffffffffff1614613a2c576040517f08c379a000000000000000000000000000000000000000000000000000000000815260040180806020018281038252602a815260200180619a71602a913960400191505060405180910390fd5b613a3889888885617dc8565b613a4188617f28565b613a4e8988888786617f72565b613a5a89876000617431565b80613a7e57613a7d886000613a78868961733e90919063ffffffff16565b617431565b5b505050505050505050565b600080603660008473ffffffffffffffffffffffffffffffffffffffff1673ffffffffffffffffffffffffffffffffffffffff168152602001908152602001600020905080600d0160009054906101000a900473ffffffffffffffffffffffffffffffffffffffff16915050919050565b600080603760008473ffffffffffffffffffffffffffffffffffffffff1673ffffffffffffffffffffffffffffffffffffffff16815260200190815260200160002060008573ffffffffffffffffffffffffffffffffffffffff1673ffffffffffffffffffffffffffffffffffffffff1681526020019081526020016000209050806003015491505092915050565b3373ffffffffffffffffffffffffffffffffffffffff16603560009054906101000a900473ffffffffffffffffffffffffffffffffffffffff1673ffffffffffffffffffffffffffffffffffffffff166385c858b16040518163ffffffff1660e01b815260040160206040518083038186803b158015613c0857600080fd5b505afa158015613c1c573d6000803e3d6000fd5b505050506040513d6020811015613c3257600080fd5b810190808051906020019092919050505073ffffffffffffffffffffffffffffffffffffffff1614613caf576040517f08c379a00000000000000000000000000000000000000000000000000000000081526004018080602001828103825260378152602001806199c76037913960400191505060405180910390fd5b6000603660008473ffffffffffffffffffffffffffffffffffffffff1673ffffffffffffffffffffffffffffffffffffffff16815260200190815260200160002090508181600a0181905550505050565b3373ffffffffffffffffffffffffffffffffffffffff16603560009054906101000a900473ffffffffffffffffffffffffffffffffffffffff1673ffffffffffffffffffffffffffffffffffffffff166385c858b16040518163ffffffff1660e01b815260040160206040518083038186803b158015613d7f57600080fd5b505afa158015613d93573d6000803e3d6000fd5b505050506040513d6020811015613da957600080fd5b810190808051906020019092919050505073ffffffffffffffffffffffffffffffffffffffff1614613e26576040517f08c379a00000000000000000000000000000000000000000000000000000000081526004018080602001828103825260378152602001806199c76037913960400191505060405180910390fd5b6000603660008373ffffffffffffffffffffffffffffffffffffffff1673ffffffffffffffffffffffffffffffffffffffff1681526020019081526020016000209050600181600d01601d6101000a81548160ff0219169083151502179055505050565b600080603660008473ffffffffffffffffffffffffffffffffffffffff1673ffffffffffffffffffffffffffffffffffffffff16815260200190815260200160002090508060020154915050919050565b600080603660008473ffffffffffffffffffffffffffffffffffffffff1673ffffffffffffffffffffffffffffffffffffffff16815260200190815260200160002090506000603560009054906101000a900473ffffffffffffffffffffffffffffffffffffffff1673ffffffffffffffffffffffffffffffffffffffff16633618abba6040518163ffffffff1660e01b815260040160206040518083038186803b158015613f8957600080fd5b505afa158015613f9d573d6000803e3d6000fd5b505050506040513d6020811015613fb357600080fd5b81019080805190602001909291905050509050600082600501541415614094578073ffffffffffffffffffffffffffffffffffffffff1663bb85c0bb856040518263ffffffff1660e01b8152600401808273ffffffffffffffffffffffffffffffffffffffff1673ffffffffffffffffffffffffffffffffffffffff16815260200191505060206040518083038186803b15801561405057600080fd5b505afa158015614064573d6000803e3d6000fd5b505050506040513d602081101561407a57600080fd5b81019080805190602001909291905050509250505061409e565b8160050154925050505b919050565b3373ffffffffffffffffffffffffffffffffffffffff16603460009054906101000a900473ffffffffffffffffffffffffffffffffffffffff1673ffffffffffffffffffffffffffffffffffffffff1614614149576040517f08c379a000000000000000000000000000000000000000000000000000000000815260040180806020018281038252602a815260200180619a71602a913960400191505060405180910390fd5b6000819050600034146141a7576040517f08c379a00000000000000000000000000000000000000000000000000000000081526004018080602001828103825260368152602001806197b56036913960400191505060405180910390fd5b6141af617686565b73ffffffffffffffffffffffffffffffffffffffff168473ffffffffffffffffffffffffffffffffffffffff16146142115761420c81848673ffffffffffffffffffffffffffffffffffffffff166180f29092919063ffffffff16565b6142f4565b60008173ffffffffffffffffffffffffffffffffffffffff168461c35090604051806000019050600060405180830381858888f193505050503d8060008114614276576040519150601f19603f3d011682016040523d82523d6000602084013e61427b565b606091505b50509050806142f2576040517f08c379a00000000000000000000000000000000000000000000000000000000081526004018080602001828103825260168152602001807f5472616e73666572206f6620455448206661696c65640000000000000000000081525060200191505060405180910390fd5b505b50505050565b600080603660008473ffffffffffffffffffffffffffffffffffffffff1673ffffffffffffffffffffffffffffffffffffffff16815260200190815260200160002090506000816004015414156143f85780600d0160009054906101000a900473ffffffffffffffffffffffffffffffffffffffff1673ffffffffffffffffffffffffffffffffffffffff166334762ca56040518163ffffffff1660e01b815260040160206040518083038186803b1580156143b557600080fd5b505afa1580156143c9573d6000803e3d6000fd5b505050506040513d60208110156143df57600080fd5b8101908080519060200190929190505050915050614401565b80600401549150505b919050565b600080603660008473ffffffffffffffffffffffffffffffffffffffff1673ffffffffffffffffffffffffffffffffffffffff16815260200190815260200160002090508060030154915050919050565b600080603760008473ffffffffffffffffffffffffffffffffffffffff1673ffffffffffffffffffffffffffffffffffffffff16815260200190815260200160002060008573ffffffffffffffffffffffffffffffffffffffff1673ffffffffffffffffffffffffffffffffffffffff16815260200190815260200160002090508060040160059054906101000a900460ff1691505092915050565b600080603660008473ffffffffffffffffffffffffffffffffffffffff1673ffffffffffffffffffffffffffffffffffffffff168152602001908152602001600020905080600d01601b9054906101000a900460ff16915050919050565b600080600080603760008673ffffffffffffffffffffffffffffffffffffffff1673ffffffffffffffffffffffffffffffffffffffff16815260200190815260200160002060008773ffffffffffffffffffffffffffffffffffffffff1673ffffffffffffffffffffffffffffffffffffffff16815260200190815260200160002090506000816000015414156145fc57600080600082925081915080905093509350935050614670565b600081600001549050600061464f83603660008b73ffffffffffffffffffffffffffffffffffffffff1673ffffffffffffffffffffffffffffffffffffffff1681526020019081526020016000206181c3565b9050818161466684846177a890919063ffffffff16565b9550955095505050505b9250925092565b6000603660008373ffffffffffffffffffffffffffffffffffffffff1673ffffffffffffffffffffffffffffffffffffffff168152602001908152602001600020600b01549050919050565b3373ffffffffffffffffffffffffffffffffffffffff16603560009054906101000a900473ffffffffffffffffffffffffffffffffffffffff1673ffffffffffffffffffffffffffffffffffffffff166385c858b16040518163ffffffff1660e01b815260040160206040518083038186803b15801561474257600080fd5b505afa158015614756573d6000803e3d6000fd5b505050506040513d602081101561476c57600080fd5b810190808051906020019092919050505073ffffffffffffffffffffffffffffffffffffffff16146147e9576040517f08c379a00000000000000000000000000000000000000000000000000000000081526004018080602001828103825260378152602001806199c76037913960400191505060405180910390fd5b603660008573ffffffffffffffffffffffffffffffffffffffff1673ffffffffffffffffffffffffffffffffffffffff16815260200190815260200160002073__$fc4c0231a091b74b50bb583255876fbd67$__6324ddc4e690918585856040518563ffffffff1660e01b81526004018085815260200184815260200183815260200182815260200194505050505060006040518083038186803b15801561489057600080fd5b505af41580156148a4573d6000803e3d6000fd5b5050505050505050565b3373ffffffffffffffffffffffffffffffffffffffff16603560009054906101000a900473ffffffffffffffffffffffffffffffffffffffff1673ffffffffffffffffffffffffffffffffffffffff166385c858b16040518163ffffffff1660e01b815260040160206040518083038186803b15801561492d57600080fd5b505afa158015614941573d6000803e3d6000fd5b505050506040513d602081101561495757600080fd5b810190808051906020019092919050505073ffffffffffffffffffffffffffffffffffffffff16146149d4576040517f08c379a00000000000000000000000000000000000000000000000000000000081526004018080602001828103825260378152602001806199c76037913960400191505060405180910390fd5b603660008273ffffffffffffffffffffffffffffffffffffffff1673ffffffffffffffffffffffffffffffffffffffff16815260200190815260200160002073__$fc4c0231a091b74b50bb583255876fbd67$__63e5df56a690916040518263ffffffff1660e01b81526004018082815260200191505060006040518083038186803b158015614a6357600080fd5b505af4158015614a77573d6000803e3d6000fd5b5050505050565b60003373ffffffffffffffffffffffffffffffffffffffff16603460009054906101000a900473ffffffffffffffffffffffffffffffffffffffff1673ffffffffffffffffffffffffffffffffffffffff1614614b26576040517f08c379a000000000000000000000000000000000000000000000000000000000815260040180806020018281038252602a815260200180619a71602a913960400191505060405180910390fd5b614b318484846182fa565b614b3c8484846183e6565b614b4884600080617431565b603760008473ffffffffffffffffffffffffffffffffffffffff1673ffffffffffffffffffffffffffffffffffffffff16815260200190815260200160002060008573ffffffffffffffffffffffffffffffffffffffff1673ffffffffffffffffffffffffffffffffffffffff1681526020019081526020016000206003015490509392505050565b3373ffffffffffffffffffffffffffffffffffffffff16603460009054906101000a900473ffffffffffffffffffffffffffffffffffffffff1673ffffffffffffffffffffffffffffffffffffffff1614614c77576040517f08c379a000000000000000000000000000000000000000000000000000000000815260040180806020018281038252602a815260200180619a71602a913960400191505060405180910390fd5b614cbe603660008673ffffffffffffffffffffffffffffffffffffffff1673ffffffffffffffffffffffffffffffffffffffff168152602001908152602001600020617295565b614cca84600084617431565b8015614cdd57614cdc84846000616d68565b5b50505050565b600080603660008473ffffffffffffffffffffffffffffffffffffffff1673ffffffffffffffffffffffffffffffffffffffff16815260200190815260200160002090508060070154915050919050565b3373ffffffffffffffffffffffffffffffffffffffff16603560009054906101000a900473ffffffffffffffffffffffffffffffffffffffff1673ffffffffffffffffffffffffffffffffffffffff166385c858b16040518163ffffffff1660e01b815260040160206040518083038186803b158015614db357600080fd5b505afa158015614dc7573d6000803e3d6000fd5b505050506040513d6020811015614ddd57600080fd5b810190808051906020019092919050505073ffffffffffffffffffffffffffffffffffffffff1614614e5a576040517f08c379a00000000000000000000000000000000000000000000000000000000081526004018080602001828103825260378152602001806199c76037913960400191505060405180910390fd5b6000603660008373ffffffffffffffffffffffffffffffffffffffff1673ffffffffffffffffffffffffffffffffffffffff168152602001908152602001600020905060008160000154118015614eb5575060008160070154115b614f0a576040517f08c379a00000000000000000000000000000000000000000000000000000000081526004018080602001828103825260248152602001806199fe6024913960400191505060405180910390fd5b600181600d01601c6101000a81548160ff0219169083151502179055505050565b3373ffffffffffffffffffffffffffffffffffffffff16603560009054906101000a900473ffffffffffffffffffffffffffffffffffffffff1673ffffffffffffffffffffffffffffffffffffffff166385c858b16040518163ffffffff1660e01b815260040160206040518083038186803b158015614faa57600080fd5b505afa158015614fbe573d6000803e3d6000fd5b505050506040513d6020811015614fd457600080fd5b810190808051906020019092919050505073ffffffffffffffffffffffffffffffffffffffff1614615051576040517f08c379a00000000000000000000000000000000000000000000000000000000081526004018080602001828103825260378152602001806199c76037913960400191505060405180910390fd5b6000603660008373ffffffffffffffffffffffffffffffffffffffff1673ffffffffffffffffffffffffffffffffffffffff1681526020019081526020016000209050600081600d01601b6101000a81548160ff0219169083151502179055505050565b3373ffffffffffffffffffffffffffffffffffffffff16603460009054906101000a900473ffffffffffffffffffffffffffffffffffffffff1673ffffffffffffffffffffffffffffffffffffffff161461515b576040517f08c379a000000000000000000000000000000000000000000000000000000000815260040180806020018281038252602a815260200180619a71602a913960400191505060405180910390fd5b6151a2603660008673ffffffffffffffffffffffffffffffffffffffff1673ffffffffffffffffffffffffffffffffffffffff168152602001908152602001600020617295565b6151ae84836000617431565b80156151c1576151c084846001616d68565b5b50505050565b600080603660008473ffffffffffffffffffffffffffffffffffffffff1673ffffffffffffffffffffffffffffffffffffffff16815260200190815260200160002090508060000154915050919050565b600080603660008473ffffffffffffffffffffffffffffffffffffffff1673ffffffffffffffffffffffffffffffffffffffff1681526020019081526020016000209050600061526782618501565b9050600081141561527d576000925050506152b5565b600061528885616506565b90506152af6152a0838361733e90919063ffffffff16565b8361852590919063ffffffff16565b93505050505b919050565b600080603660008473ffffffffffffffffffffffffffffffffffffffff1673ffffffffffffffffffffffffffffffffffffffff168152602001908152602001600020905061532161530a82618501565b61531385616506565b61733e90919063ffffffff16565b915050919050565b6000615333618581565b9050600160009054906101000a900460ff1680615354575061535361858a565b5b80615360575060005481115b6153b5576040517f08c379a000000000000000000000000000000000000000000000000000000000815260040180806020018281038252602e815260200180619a43602e913960400191505060405180910390fd5b6000600160009054906101000a900460ff1615905080156153f25760018060006101000a81548160ff021916908315150217905550816000819055505b82603560006101000a81548173ffffffffffffffffffffffffffffffffffffffff021916908373ffffffffffffffffffffffffffffffffffffffff16021790555061543b617ce3565b801561545d576000600160006101000a81548160ff0219169083151502179055505b505050565b600080603660008473ffffffffffffffffffffffffffffffffffffffff1673ffffffffffffffffffffffffffffffffffffffff16815260200190815260200160002090508060010154915050919050565b603560009054906101000a900473ffffffffffffffffffffffffffffffffffffffff1681565b600080603660008473ffffffffffffffffffffffffffffffffffffffff1673ffffffffffffffffffffffffffffffffffffffff168152602001908152602001600020905080600a0154915050919050565b3373ffffffffffffffffffffffffffffffffffffffff16603460009054906101000a900473ffffffffffffffffffffffffffffffffffffffff1673ffffffffffffffffffffffffffffffffffffffff16146155d0576040517f08c379a000000000000000000000000000000000000000000000000000000000815260040180806020018281038252602a815260200180619a71602a913960400191505060405180910390fd5b60008190506155dd617686565b73ffffffffffffffffffffffffffffffffffffffff168573ffffffffffffffffffffffffffffffffffffffff161461569a5760003414615668576040517f08c379a000000000000000000000000000000000000000000000000000000000815260040180806020018281038252605f815260200180619938605f913960600191505060405180910390fd5b6156958482858873ffffffffffffffffffffffffffffffffffffffff166176a2909392919063ffffffff16565b6157d6565b823410156156f3576040517f08c379a000000000000000000000000000000000000000000000000000000000815260040180806020018281038252603581526020018061983b6035913960400191505060405180910390fd5b60008173ffffffffffffffffffffffffffffffffffffffff168461c35090604051806000019050600060405180830381858888f193505050503d8060008114615758576040519150601f19603f3d011682016040523d82523d6000602084013e61575d565b606091505b50509050806157d4576040517f08c379a00000000000000000000000000000000000000000000000000000000081526004018080602001828103825260168152602001807f5472616e73666572206f6620455448206661696c65640000000000000000000081525060200191505060405180910390fd5b505b5050505050565b3373ffffffffffffffffffffffffffffffffffffffff16603560009054906101000a900473ffffffffffffffffffffffffffffffffffffffff1673ffffffffffffffffffffffffffffffffffffffff166385c858b16040518163ffffffff1660e01b815260040160206040518083038186803b15801561585c57600080fd5b505afa158015615870573d6000803e3d6000fd5b505050506040513d602081101561588657600080fd5b810190808051906020019092919050505073ffffffffffffffffffffffffffffffffffffffff1614615903576040517f08c379a00000000000000000000000000000000000000000000000000000000081526004018080602001828103825260378152602001806199c76037913960400191505060405180910390fd5b600060386001603880549050038154811061591a57fe5b9060005260206000200160009054906101000a900473ffffffffffffffffffffffffffffffffffffffff1690508173ffffffffffffffffffffffffffffffffffffffff168173ffffffffffffffffffffffffffffffffffffffff16146159cb576040517f08c379a000000000000000000000000000000000000000000000000000000000815260040180806020018281038252603d8152602001806198c9603d913960400191505060405180910390fd5b60006159d682616614565b14615a2c576040517f08c379a00000000000000000000000000000000000000000000000000000000081526004018080602001828103825260308152602001806199976030913960400191505060405180910390fd5b6000603660008373ffffffffffffffffffffffffffffffffffffffff1673ffffffffffffffffffffffffffffffffffffffff168152602001908152602001600020600d01601c6101000a81548160ff0219169083151502179055506000603660008373ffffffffffffffffffffffffffffffffffffffff1673ffffffffffffffffffffffffffffffffffffffff168152602001908152602001600020600c0160006101000a81548173ffffffffffffffffffffffffffffffffffffffff021916908373ffffffffffffffffffffffffffffffffffffffff1602179055506000603660008373ffffffffffffffffffffffffffffffffffffffff1673ffffffffffffffffffffffffffffffffffffffff168152602001908152602001600020600b01819055506000603660008373ffffffffffffffffffffffffffffffffffffffff1673ffffffffffffffffffffffffffffffffffffffff168152602001908152602001600020600001819055506000603660008373ffffffffffffffffffffffffffffffffffffffff1673ffffffffffffffffffffffffffffffffffffffff168152602001908152602001600020600701819055506000603660008373ffffffffffffffffffffffffffffffffffffffff1673ffffffffffffffffffffffffffffffffffffffff168152602001908152602001600020600d0160196101000a81548160ff0219169083151502179055506000603660008373ffffffffffffffffffffffffffffffffffffffff1673ffffffffffffffffffffffffffffffffffffffff168152602001908152602001600020600d01601a6101000a81548160ff0219169083151502179055506000603660008373ffffffffffffffffffffffffffffffffffffffff1673ffffffffffffffffffffffffffffffffffffffff168152602001908152602001600020600801819055506000603660008373ffffffffffffffffffffffffffffffffffffffff1673ffffffffffffffffffffffffffffffffffffffff168152602001908152602001600020600901819055506000603660008373ffffffffffffffffffffffffffffffffffffffff1673ffffffffffffffffffffffffffffffffffffffff168152602001908152602001600020600a01819055506000603660008373ffffffffffffffffffffffffffffffffffffffff1673ffffffffffffffffffffffffffffffffffffffff168152602001908152602001600020600d0160006101000a81548173ffffffffffffffffffffffffffffffffffffffff021916908373ffffffffffffffffffffffffffffffffffffffff1602179055506038805480615dfc57fe5b6001900381819060005260206000200160006101000a81549073ffffffffffffffffffffffffffffffffffffffff021916905590555050565b600080603660008473ffffffffffffffffffffffffffffffffffffffff1673ffffffffffffffffffffffffffffffffffffffff1681526020019081526020016000209050615e828161859b565b915050919050565b603460009054906101000a900473ffffffffffffffffffffffffffffffffffffffff1681565b3373ffffffffffffffffffffffffffffffffffffffff16603560009054906101000a900473ffffffffffffffffffffffffffffffffffffffff1673ffffffffffffffffffffffffffffffffffffffff166385c858b16040518163ffffffff1660e01b815260040160206040518083038186803b158015615f2f57600080fd5b505afa158015615f43573d6000803e3d6000fd5b505050506040513d6020811015615f5957600080fd5b810190808051906020019092919050505073ffffffffffffffffffffffffffffffffffffffff1614615fd6576040517f08c379a00000000000000000000000000000000000000000000000000000000081526004018080602001828103825260378152602001806199c76037913960400191505060405180910390fd5b6000603660008473ffffffffffffffffffffffffffffffffffffffff1673ffffffffffffffffffffffffffffffffffffffff1681526020019081526020016000209050818160080181905550505050565b3373ffffffffffffffffffffffffffffffffffffffff16603460009054906101000a900473ffffffffffffffffffffffffffffffffffffffff1673ffffffffffffffffffffffffffffffffffffffff16146160cd576040517f08c379a000000000000000000000000000000000000000000000000000000000815260040180806020018281038252602a815260200180619a71602a913960400191505060405180910390fd5b6160d9868686856185e2565b6160e7868686868686618780565b6160f386856000617431565b505050505050565b3373ffffffffffffffffffffffffffffffffffffffff16603560009054906101000a900473ffffffffffffffffffffffffffffffffffffffff1673ffffffffffffffffffffffffffffffffffffffff166385c858b16040518163ffffffff1660e01b815260040160206040518083038186803b15801561617a57600080fd5b505afa15801561618e573d6000803e3d6000fd5b505050506040513d60208110156161a457600080fd5b810190808051906020019092919050505073ffffffffffffffffffffffffffffffffffffffff1614616221576040517f08c379a00000000000000000000000000000000000000000000000000000000081526004018080602001828103825260378152602001806199c76037913960400191505060405180910390fd5b6000603660008373ffffffffffffffffffffffffffffffffffffffff1673ffffffffffffffffffffffffffffffffffffffff1681526020019081526020016000209050600181600d01601b6101000a81548160ff0219169083151502179055505050565b6000806000806000603660008873ffffffffffffffffffffffffffffffffffffffff1673ffffffffffffffffffffffffffffffffffffffff16815260200190815260200160002090506000603760008873ffffffffffffffffffffffffffffffffffffffff1673ffffffffffffffffffffffffffffffffffffffff16815260200190815260200160002060008973ffffffffffffffffffffffffffffffffffffffff1673ffffffffffffffffffffffffffffffffffffffff1681526020019081526020016000209050600061635a898961268a565b905060008260000154141561639557806000808460040160059054906101000a900460ff1682925081915096509650965096505050506163cc565b806163a984846181c390919063ffffffff16565b83600201548460040160059054906101000a900460ff1696509650965096505050505b92959194509250565b600080603660008673ffffffffffffffffffffffffffffffffffffffff1673ffffffffffffffffffffffffffffffffffffffff16815260200190815260200160002090506000603760008673ffffffffffffffffffffffffffffffffffffffff1673ffffffffffffffffffffffffffffffffffffffff16815260200190815260200160002060008773ffffffffffffffffffffffffffffffffffffffff1673ffffffffffffffffffffffffffffffffffffffff168152602001908152602001600020905081600d01601b9054906101000a900460ff166164ba576000925050506164ff565b8060040160059054906101000a900460ff1615806164e7575081600d01601a9054906101000a900460ff16155b806164fa57506164f7868661268a565b84115b925050505b9392505050565b60008060009050616515617686565b73ffffffffffffffffffffffffffffffffffffffff168373ffffffffffffffffffffffffffffffffffffffff1614156165505747905061660b565b8273ffffffffffffffffffffffffffffffffffffffff166370a08231306040518263ffffffff1660e01b8152600401808273ffffffffffffffffffffffffffffffffffffffff1673ffffffffffffffffffffffffffffffffffffffff16815260200191505060206040518083038186803b1580156165cd57600080fd5b505afa1580156165e1573d6000803e3d6000fd5b505050506040513d60208110156165f757600080fd5b810190808051906020019092919050505090505b80915050919050565b600061665d603660008473ffffffffffffffffffffffffffffffffffffffff1673ffffffffffffffffffffffffffffffffffffffff168152602001908152602001600020618501565b9050919050565b3373ffffffffffffffffffffffffffffffffffffffff16603560009054906101000a900473ffffffffffffffffffffffffffffffffffffffff1673ffffffffffffffffffffffffffffffffffffffff166385c858b16040518163ffffffff1660e01b815260040160206040518083038186803b1580156166e357600080fd5b505afa1580156166f7573d6000803e3d6000fd5b505050506040513d602081101561670d57600080fd5b810190808051906020019092919050505073ffffffffffffffffffffffffffffffffffffffff161461678a576040517f08c379a00000000000000000000000000000000000000000000000000000000081526004018080602001828103825260378152602001806199c76037913960400191505060405180910390fd5b603660008273ffffffffffffffffffffffffffffffffffffffff1673ffffffffffffffffffffffffffffffffffffffff16815260200190815260200160002073__$fc4c0231a091b74b50bb583255876fbd67$__6383c165a090916040518263ffffffff1660e01b81526004018082815260200191505060006040518083038186803b15801561681957600080fd5b505af415801561682d573d6000803e3d6000fd5b5050505050565b3373ffffffffffffffffffffffffffffffffffffffff16603560009054906101000a900473ffffffffffffffffffffffffffffffffffffffff1673ffffffffffffffffffffffffffffffffffffffff166385c858b16040518163ffffffff1660e01b815260040160206040518083038186803b1580156168b357600080fd5b505afa1580156168c7573d6000803e3d6000fd5b505050506040513d60208110156168dd57600080fd5b810190808051906020019092919050505073ffffffffffffffffffffffffffffffffffffffff161461695a576040517f08c379a00000000000000000000000000000000000000000000000000000000081526004018080602001828103825260378152602001806199c76037913960400191505060405180910390fd5b603660008373ffffffffffffffffffffffffffffffffffffffff1673ffffffffffffffffffffffffffffffffffffffff16815260200190815260200160002073__$fc4c0231a091b74b50bb583255876fbd67$__63f63babbe9091836040518363ffffffff1660e01b815260040180838152602001821515151581526020019250505060006040518083038186803b1580156169f557600080fd5b505af4158015616a09573d6000803e3d6000fd5b505050505050565b3373ffffffffffffffffffffffffffffffffffffffff16603560009054906101000a900473ffffffffffffffffffffffffffffffffffffffff1673ffffffffffffffffffffffffffffffffffffffff166385c858b16040518163ffffffff1660e01b815260040160206040518083038186803b158015616a9057600080fd5b505afa158015616aa4573d6000803e3d6000fd5b505050506040513d6020811015616aba57600080fd5b810190808051906020019092919050505073ffffffffffffffffffffffffffffffffffffffff1614616b37576040517f08c379a00000000000000000000000000000000000000000000000000000000081526004018080602001828103825260378152602001806199c76037913960400191505060405180910390fd5b6000603660008373ffffffffffffffffffffffffffffffffffffffff1673ffffffffffffffffffffffffffffffffffffffff1681526020019081526020016000209050600081600d01601d6101000a81548160ff0219169083151502179055505050565b600080603660008473ffffffffffffffffffffffffffffffffffffffff1673ffffffffffffffffffffffffffffffffffffffff16815260200190815260200160002090508060090154915050919050565b6000803373ffffffffffffffffffffffffffffffffffffffff16603460009054906101000a900473ffffffffffffffffffffffffffffffffffffffff1673ffffffffffffffffffffffffffffffffffffffff1614616c95576040517f08c379a000000000000000000000000000000000000000000000000000000000815260040180806020018281038252602a815260200180619a71602a913960400191505060405180910390fd5b616ca288888888876188ea565b6000616cb089898787618ad9565b9050616cbe89600080617431565b80616cc98a8a617ab4565b9250925050965096945050505050565b600080603760008473ffffffffffffffffffffffffffffffffffffffff1673ffffffffffffffffffffffffffffffffffffffff16815260200190815260200160002060008573ffffffffffffffffffffffffffffffffffffffff1673ffffffffffffffffffffffffffffffffffffffff1681526020019081526020016000209050806001015491505092915050565b3373ffffffffffffffffffffffffffffffffffffffff16603460009054906101000a900473ffffffffffffffffffffffffffffffffffffffff1673ffffffffffffffffffffffffffffffffffffffff1614616e0e576040517f08c379a000000000000000000000000000000000000000000000000000000000815260040180806020018281038252602a815260200180619a71602a913960400191505060405180910390fd5b6000603760008473ffffffffffffffffffffffffffffffffffffffff1673ffffffffffffffffffffffffffffffffffffffff16815260200190815260200160002060008573ffffffffffffffffffffffffffffffffffffffff1673ffffffffffffffffffffffffffffffffffffffff1681526020019081526020016000209050818160040160056101000a81548160ff02191690831515021790555050505050565b3373ffffffffffffffffffffffffffffffffffffffff16603460009054906101000a900473ffffffffffffffffffffffffffffffffffffffff1673ffffffffffffffffffffffffffffffffffffffff1614616f56576040517f08c379a000000000000000000000000000000000000000000000000000000000815260040180806020018281038252602a815260200180619a71602a913960400191505060405180910390fd5b616f5e617686565b73ffffffffffffffffffffffffffffffffffffffff168373ffffffffffffffffffffffffffffffffffffffff1614616fc057616fbb82828573ffffffffffffffffffffffffffffffffffffffff166180f29092919063ffffffff16565b6170a3565b60008273ffffffffffffffffffffffffffffffffffffffff168261c35090604051806000019050600060405180830381858888f193505050503d8060008114617025576040519150601f19603f3d011682016040523d82523d6000602084013e61702a565b606091505b50509050806170a1576040517f08c379a00000000000000000000000000000000000000000000000000000000081526004018080602001828103825260168152602001807f5472616e73666572206f6620455448206661696c65640000000000000000000081525060200191505060405180910390fd5b505b505050565b600080603760008473ffffffffffffffffffffffffffffffffffffffff1673ffffffffffffffffffffffffffffffffffffffff16815260200190815260200160002060008573ffffffffffffffffffffffffffffffffffffffff1673ffffffffffffffffffffffffffffffffffffffff1681526020019081526020016000209050806002015491505092915050565b6000603560009054906101000a900473ffffffffffffffffffffffffffffffffffffffff1673ffffffffffffffffffffffffffffffffffffffff1663ee8912966040518163ffffffff1660e01b815260040160206040518083038186803b1580156171a157600080fd5b505afa1580156171b5573d6000803e3d6000fd5b505050506040513d60208110156171cb57600080fd5b810190808051906020019092919050505090506171e6617686565b73ffffffffffffffffffffffffffffffffffffffff168373ffffffffffffffffffffffffffffffffffffffff16146172485761724381838573ffffffffffffffffffffffffffffffffffffffff166180f29092919063ffffffff16565b617290565b8073ffffffffffffffffffffffffffffffffffffffff166108fc839081150290604051600060405180830381858888f1935050505015801561728e573d6000803e3d6000fd5b505b505050565b60006172a082618501565b9050600081111561733a5760006172d0836001015484600d0160149054906101000a900464ffffffffff16618cc3565b90506172e9836000015482618d4390919063ffffffff16565b83600001819055506000617316846004015485600d0160149054906101000a900464ffffffffff16618da6565b905061732f846007015482618d4390919063ffffffff16565b846007018190555050505b5050565b6000808284019050838110156173bc576040517f08c379a000000000000000000000000000000000000000000000000000000000815260040180806020018281038252601b8152602001807f536166654d6174683a206164646974696f6e206f766572666c6f77000000000081525060200191505060405180910390fd5b8091505092915050565b60006173eb6173d484618e16565b6173dd84618e16565b61852590919063ffffffff16565b905060006174096173fa618e36565b8361733e90919063ffffffff16565b9050617422856000015482618d4390919063ffffffff16565b85600001819055505050505050565b6000603660008573ffffffffffffffffffffffffffffffffffffffff1673ffffffffffffffffffffffffffffffffffffffff1681526020019081526020016000209050600080600083600d0160009054906101000a900473ffffffffffffffffffffffffffffffffffffffff1673ffffffffffffffffffffffffffffffffffffffff166357e37af0886174e7886174d98b6174cb8e616506565b61733e90919063ffffffff16565b6177a890919063ffffffff16565b8760020154886003015489600601546040518663ffffffff1660e01b8152600401808673ffffffffffffffffffffffffffffffffffffffff1673ffffffffffffffffffffffffffffffffffffffff1681526020018581526020018481526020018381526020018281526020019550505050505060606040518083038186803b15801561757257600080fd5b505afa158015617586573d6000803e3d6000fd5b505050506040513d606081101561759c57600080fd5b810190808051906020019092919080519060200190929190805190602001909291905050509250925092508284600101819055508184600501819055508084600401819055504284600d0160146101000a81548164ffffffffff021916908364ffffffffff1602179055508673ffffffffffffffffffffffffffffffffffffffff167f04e4f521f16fcfd987978b05504262c2a2db223844977aab000e5accedb2d72584848488600001548960070154604051808681526020018581526020018481526020018381526020018281526020019550505050505060405180910390a250505050505050565b600073eeeeeeeeeeeeeeeeeeeeeeeeeeeeeeeeeeeeeeee905090565b6177a2848573ffffffffffffffffffffffffffffffffffffffff166323b872dd905060e01b858585604051602401808473ffffffffffffffffffffffffffffffffffffffff1673ffffffffffffffffffffffffffffffffffffffff1681526020018373ffffffffffffffffffffffffffffffffffffffff1673ffffffffffffffffffffffffffffffffffffffff1681526020018281526020019350505050604051602081830303815290604052907bffffffffffffffffffffffffffffffffffffffffffffffffffffffff19166020820180517bffffffffffffffffffffffffffffffffffffffffffffffffffffffff8381831617835250505050618e4a565b50505050565b600082821115617820576040517f08c379a000000000000000000000000000000000000000000000000000000000815260040180806020018281038252601e8152602001807f536166654d6174683a207375627472616374696f6e206f766572666c6f77000081525060200191505060405180910390fd5b600082840390508091505092915050565b617878603660008873ffffffffffffffffffffffffffffffffffffffff1673ffffffffffffffffffffffffffffffffffffffff168152602001908152602001600020617295565b617886868686868686619095565b505050505050565b6000603660008873ffffffffffffffffffffffffffffffffffffffff1673ffffffffffffffffffffffffffffffffffffffff16815260200190815260200160002090506000603760008873ffffffffffffffffffffffffffffffffffffffff1673ffffffffffffffffffffffffffffffffffffffff16815260200190815260200160002060008973ffffffffffffffffffffffffffffffffffffffff1673ffffffffffffffffffffffffffffffffffffffff16815260200190815260200160002090506001600281111561795e57fe5b83600281111561796a57fe5b141561798c578160050154816003018190555060008160010181905550617a35565b60028081111561799857fe5b8360028111156179a457fe5b14156179c6576000816003018190555081600701548160010181905550617a34565b6040517f08c379a00000000000000000000000000000000000000000000000000000000081526004018080602001828103825260188152602001807f496e76616c696420626f72726f772072617465206d6f6465000000000000000081525060200191505060405180910390fd5b5b617a5e85617a5088846000015461733e90919063ffffffff16565b61733e90919063ffffffff16565b8160000181905550617a7d84826002015461733e90919063ffffffff16565b8160020181905550428160040160006101000a81548164ffffffffff021916908364ffffffffff1602179055505050505050505050565b600080617ac18484612811565b905060006002811115617ad057fe5b816002811115617adc57fe5b1415617aec576000915050617bd7565b60016002811115617af957fe5b816002811115617b0557fe5b14617b5257603660008573ffffffffffffffffffffffffffffffffffffffff1673ffffffffffffffffffffffffffffffffffffffff16815260200190815260200160002060040154617bd3565b603760008473ffffffffffffffffffffffffffffffffffffffff1673ffffffffffffffffffffffffffffffffffffffff16815260200190815260200160002060008573ffffffffffffffffffffffffffffffffffffffff1673ffffffffffffffffffffffffffffffffffffffff168152602001908152602001600020600301545b9150505b92915050565b600080905060008090505b603880549050811015617c72578273ffffffffffffffffffffffffffffffffffffffff1660388281548110617c1957fe5b9060005260206000200160009054906101000a900473ffffffffffffffffffffffffffffffffffffffff1673ffffffffffffffffffffffffffffffffffffffff161415617c6557600191505b8080600101915050617be8565b5080617cdf5760388290806001815401808255809150509060018203906000526020600020016000909192909190916101000a81548173ffffffffffffffffffffffffffffffffffffffff021916908373ffffffffffffffffffffffffffffffffffffffff160217905550505b5050565b603560009054906101000a900473ffffffffffffffffffffffffffffffffffffffff1673ffffffffffffffffffffffffffffffffffffffff16630261bf8b6040518163ffffffff1660e01b815260040160206040518083038186803b158015617d4b57600080fd5b505afa158015617d5f573d6000803e3d6000fd5b505050506040513d6020811015617d7557600080fd5b8101908080519060200190929190505050603460006101000a81548173ffffffffffffffffffffffffffffffffffffffff021916908373ffffffffffffffffffffffffffffffffffffffff160217905550565b6000603660008673ffffffffffffffffffffffffffffffffffffffff1673ffffffffffffffffffffffffffffffffffffffff16815260200190815260200160002090506000603760008673ffffffffffffffffffffffffffffffffffffffff1673ffffffffffffffffffffffffffffffffffffffff16815260200190815260200160002060008773ffffffffffffffffffffffffffffffffffffffff1673ffffffffffffffffffffffffffffffffffffffff1681526020019081526020016000209050617e9482617295565b6000617ea08787612811565b905060016002811115617eaf57fe5b816002811115617ebb57fe5b1415617ef857617eda848360030154856192ed9092919063ffffffff16565b617ef3858360030154856193989092919063ffffffff16565b617f1f565b617f0b848461953490919063ffffffff16565b617f1e858461955790919063ffffffff16565b5b50505050505050565b617f6f603660008373ffffffffffffffffffffffffffffffffffffffff1673ffffffffffffffffffffffffffffffffffffffff168152602001908152602001600020617295565b50565b6000603760008673ffffffffffffffffffffffffffffffffffffffff1673ffffffffffffffffffffffffffffffffffffffff16815260200190815260200160002060008773ffffffffffffffffffffffffffffffffffffffff1673ffffffffffffffffffffffffffffffffffffffff16815260200190815260200160002090506000603660008873ffffffffffffffffffffffffffffffffffffffff1673ffffffffffffffffffffffffffffffffffffffff168152602001908152602001600020905061805e8561805085856000015461733e90919063ffffffff16565b6177a890919063ffffffff16565b826000018190555060028081111561807257fe5b61807c8888612811565b600281111561808757fe5b141561809b57806007015482600101819055505b60008411156180c4576180bb8483600201546177a890919063ffffffff16565b82600201819055505b428260040160006101000a81548164ffffffffff021916908364ffffffffff16021790555050505050505050565b6181be838473ffffffffffffffffffffffffffffffffffffffff1663a9059cbb905060e01b8484604051602401808373ffffffffffffffffffffffffffffffffffffffff1673ffffffffffffffffffffffffffffffffffffffff16815260200182815260200192505050604051602081830303815290604052907bffffffffffffffffffffffffffffffffffffffffffffffffffffffff19166020820180517bffffffffffffffffffffffffffffffffffffffffffffffffffffffff8381831617835250505050618e4a565b505050565b600080836000015414156181da57600090506182f4565b60006181e98460000154618e16565b90506000809050600080905060008660030154111561822c5761822586600301548760040160009054906101000a900464ffffffffff16618da6565b905061827e565b61827b866001015461826d876007015461825f89600401548a600d0160149054906101000a900464ffffffffff16618da6565b618d4390919063ffffffff16565b61852590919063ffffffff16565b90505b6182996182948285618d4390919063ffffffff16565b6195d7565b915085600001548214156182ed57428660040160009054906101000a900464ffffffffff1664ffffffffff16146182ec576182e26001876000015461733e90919063ffffffff16565b93505050506182f4565b5b8193505050505b92915050565b6000603660008573ffffffffffffffffffffffffffffffffffffffff1673ffffffffffffffffffffffffffffffffffffffff16815260200190815260200160002090506000603760008573ffffffffffffffffffffffffffffffffffffffff1673ffffffffffffffffffffffffffffffffffffffff16815260200190815260200160002060008673ffffffffffffffffffffffffffffffffffffffff1673ffffffffffffffffffffffffffffffffffffffff16815260200190815260200160002090506183c682617295565b6183df838260030154846192ed9092919063ffffffff16565b5050505050565b6000603760008473ffffffffffffffffffffffffffffffffffffffff1673ffffffffffffffffffffffffffffffffffffffff16815260200190815260200160002060008573ffffffffffffffffffffffffffffffffffffffff1673ffffffffffffffffffffffffffffffffffffffff16815260200190815260200160002090506000603660008673ffffffffffffffffffffffffffffffffffffffff1673ffffffffffffffffffffffffffffffffffffffff16815260200190815260200160002090506184c083836000015461733e90919063ffffffff16565b826000018190555080600501548260030181905550428260040160006101000a81548164ffffffffff021916908364ffffffffff1602179055505050505050565b600061851e8260030154836002015461733e90919063ffffffff16565b9050919050565b6000806002838161853257fe5b0490506185788361856a61855b6b033b2e3c9fd0803ce80000008861961c90919063ffffffff16565b8461733e90919063ffffffff16565b6196a290919063ffffffff16565b91505092915050565b60006004905090565b600080303b90506000811491505090565b6000806185d783600001546185c9856001015486600d0160149054906101000a900464ffffffffff16618cc3565b618d4390919063ffffffff16565b905080915050919050565b6000603660008673ffffffffffffffffffffffffffffffffffffffff1673ffffffffffffffffffffffffffffffffffffffff16815260200190815260200160002090506000603760008773ffffffffffffffffffffffffffffffffffffffff1673ffffffffffffffffffffffffffffffffffffffff16815260200190815260200160002060008673ffffffffffffffffffffffffffffffffffffffff1673ffffffffffffffffffffffffffffffffffffffff168152602001908152602001600020905060006186b18787612811565b90506186fa603660008973ffffffffffffffffffffffffffffffffffffffff1673ffffffffffffffffffffffffffffffffffffffff168152602001908152602001600020617295565b6001600281111561870757fe5b81600281111561871357fe5b141561875057618732848360030154856192ed9092919063ffffffff16565b61874b858360030154856193989092919063ffffffff16565b618777565b618763848461953490919063ffffffff16565b618776858461955790919063ffffffff16565b5b50505050505050565b6000603660008873ffffffffffffffffffffffffffffffffffffffff1673ffffffffffffffffffffffffffffffffffffffff16815260200190815260200160002090506000603760008873ffffffffffffffffffffffffffffffffffffffff1673ffffffffffffffffffffffffffffffffffffffff16815260200190815260200160002060008973ffffffffffffffffffffffffffffffffffffffff1673ffffffffffffffffffffffffffffffffffffffff168152602001908152602001600020905061886c8661885e86846000015461733e90919063ffffffff16565b6177a890919063ffffffff16565b816000018190555081600701548160010181905550821561889c5760008160030181905550600081600101819055505b6188b38582600201546177a890919063ffffffff16565b8160020181905550428160040160006101000a81548164ffffffffff021916908364ffffffffff1602179055505050505050505050565b6000603660008773ffffffffffffffffffffffffffffffffffffffff1673ffffffffffffffffffffffffffffffffffffffff16815260200190815260200160002090506000603760008773ffffffffffffffffffffffffffffffffffffffff1673ffffffffffffffffffffffffffffffffffffffff16815260200190815260200160002060008873ffffffffffffffffffffffffffffffffffffffff1673ffffffffffffffffffffffffffffffffffffffff16815260200190815260200160002090506189b682617295565b600160028111156189c357fe5b8360028111156189cf57fe5b1415618a0c576000816003015490506189f38682856193989092919063ffffffff16565b618a06858461953490919063ffffffff16565b50618ad0565b600280811115618a1857fe5b836002811115618a2457fe5b1415618a6157600082600501549050618a46868461955790919063ffffffff16565b618a5b8582856192ed9092919063ffffffff16565b50618acf565b6040517f08c379a000000000000000000000000000000000000000000000000000000000815260040180806020018281038252601a8152602001807f496e76616c69642072617465206d6f646520726563656976656400000000000081525060200191505060405180910390fd5b5b50505050505050565b600080603760008673ffffffffffffffffffffffffffffffffffffffff1673ffffffffffffffffffffffffffffffffffffffff16815260200190815260200160002060008773ffffffffffffffffffffffffffffffffffffffff1673ffffffffffffffffffffffffffffffffffffffff16815260200190815260200160002090506000603660008873ffffffffffffffffffffffffffffffffffffffff1673ffffffffffffffffffffffffffffffffffffffff16815260200190815260200160002090506000809050600280811115618bae57fe5b856002811115618bba57fe5b1415618be057600190508160050154836003018190555060008360010181905550618c71565b60016002811115618bed57fe5b856002811115618bf957fe5b1415618c1f57600290506000836003018190555081600701548360010181905550618c70565b6040517f08c379a0000000000000000000000000000000000000000000000000000000008152600401808060200182810382526023815260200180619a9b6023913960400191505060405180910390fd5b5b618c8886846000015461733e90919063ffffffff16565b8360000181905550428360040160006101000a81548164ffffffffff021916908364ffffffffff160217905550809350505050949350505050565b600080618ce08364ffffffffff16426177a890919063ffffffff16565b90506000618d0b618cf46301e13380618e16565b618cfd84618e16565b61852590919063ffffffff16565b9050618d39618d18618e36565b618d2b8388618d4390919063ffffffff16565b61733e90919063ffffffff16565b9250505092915050565b6000618d9e6b033b2e3c9fd0803ce8000000618d90618d6b858761961c90919063ffffffff16565b60026b033b2e3c9fd0803ce800000081618d8157fe5b0461733e90919063ffffffff16565b6196a290919063ffffffff16565b905092915050565b600080618dc38364ffffffffff16426177a890919063ffffffff16565b90506000618dde6301e13380866196a290919063ffffffff16565b9050618e0c82618dfe618def618e36565b8461733e90919063ffffffff16565b61973190919063ffffffff16565b9250505092915050565b6000618e2f633b9aca008361961c90919063ffffffff16565b9050919050565b60006b033b2e3c9fd0803ce8000000905090565b618e698273ffffffffffffffffffffffffffffffffffffffff1661240a565b618edb576040517f08c379a000000000000000000000000000000000000000000000000000000000815260040180806020018281038252601f8152602001807f5361666545524332303a2063616c6c20746f206e6f6e2d636f6e74726163740081525060200191505060405180910390fd5b600060608373ffffffffffffffffffffffffffffffffffffffff16836040518082805190602001908083835b60208310618f2a5780518252602082019150602081019050602083039250618f07565b6001836020036101000a0380198251168184511680821785525050505050509050019150506000604051808303816000865af19150503d8060008114618f8c576040519150601f19603f3d011682016040523d82523d6000602084013e618f91565b606091505b509150915081619009576040517f08c379a00000000000000000000000000000000000000000000000000000000081526004018080602001828103825260208152602001807f5361666545524332303a206c6f772d6c6576656c2063616c6c206661696c656481525060200191505060405180910390fd5b60008151111561908f5780806020019051602081101561902857600080fd5b810190808051906020019092919050505061908e576040517f08c379a000000000000000000000000000000000000000000000000000000000815260040180806020018281038252602a815260200180619abe602a913960400191505060405180910390fd5b5b50505050565b60006190a18787612811565b90506000603660008973ffffffffffffffffffffffffffffffffffffffff1673ffffffffffffffffffffffffffffffffffffffff1681526020019081526020016000209050600160028111156190f357fe5b8260028111156190ff57fe5b14156191a4576000603760008973ffffffffffffffffffffffffffffffffffffffff1673ffffffffffffffffffffffffffffffffffffffff16815260200190815260200160002060008a73ffffffffffffffffffffffffffffffffffffffff1673ffffffffffffffffffffffffffffffffffffffff168152602001908152602001600020905061919e878260030154846193989092919063ffffffff16565b506191d7565b6002808111156191b057fe5b8260028111156191bc57fe5b14156191d6576191d5868261955790919063ffffffff16565b5b5b60006191fe856191f0888a61733e90919063ffffffff16565b61733e90919063ffffffff16565b90506001600281111561920d57fe5b84600281111561921957fe5b141561923d57619238818360050154846192ed9092919063ffffffff16565b6192e2565b60028081111561924957fe5b84600281111561925557fe5b14156192735761926e818361953490919063ffffffff16565b6192e1565b6040517f08c379a000000000000000000000000000000000000000000000000000000000815260040180806020018281038252601c8152602001807f496e76616c6964206e657720626f72726f772072617465206d6f64650000000081525060200191505060405180910390fd5b5b505050505050505050565b60008360020154905061930d83856002015461733e90919063ffffffff16565b846002018190555060006193328361932486618e16565b618d4390919063ffffffff16565b90506000619355866006015461934785618e16565b618d4390919063ffffffff16565b90506193886193678760020154618e16565b61937a838561733e90919063ffffffff16565b61852590919063ffffffff16565b8660060181905550505050505050565b8183600201541015619412576040517f08c379a000000000000000000000000000000000000000000000000000000000815260040180806020018281038252601a8152602001807f496e76616c696420616d6f756e7420746f20646563726561736500000000000081525060200191505060405180910390fd5b6000836002015490506194328385600201546177a890919063ffffffff16565b846002018190555060008460020154141561945757600084600601819055505061952f565b60006194748361946686618e16565b618d4390919063ffffffff16565b90506000619497866006015461948985618e16565b618d4390919063ffffffff16565b9050818110156194f2576040517f08c379a00000000000000000000000000000000000000000000000000000000081526004018080602001828103825260238152602001806198a66023913960400191505060405180910390fd5b6195236195028760020154618e16565b61951584846177a890919063ffffffff16565b61852590919063ffffffff16565b86600601819055505050505b505050565b61954b81836003015461733e90919063ffffffff16565b82600301819055505050565b80826003015410156195b4576040517f08c379a00000000000000000000000000000000000000000000000000000000081526004018080602001828103825260508152602001806197eb6050913960600191505060405180910390fd5b6195cb8183600301546177a890919063ffffffff16565b82600301819055505050565b6000806002633b9aca00816195e857fe5b049050619614633b9aca00619606858461733e90919063ffffffff16565b6196a290919063ffffffff16565b915050919050565b60008083141561962f576000905061969c565b600082840290508284828161964057fe5b0414619697576040517f08c379a0000000000000000000000000000000000000000000000000000000008152600401808060200182810382526021815260200180619a226021913960400191505060405180910390fd5b809150505b92915050565b6000808211619719576040517f08c379a000000000000000000000000000000000000000000000000000000000815260040180806020018281038252601a8152602001807f536166654d6174683a206469766973696f6e206279207a65726f00000000000081525060200191505060405180910390fd5b600082848161972457fe5b0490508091505092915050565b6000806002838161973e57fe5b061415619757576b033b2e3c9fd0803ce8000000619759565b825b90506002828161976557fe5b0491505b600082146197ae5761977b8384618d43565b925060006002838161978957fe5b061461979c576197998184618d43565b90505b600282816197a657fe5b049150619769565b9291505056fe466565206c69717569646174696f6e20646f6573206e6f74207265717569726520616e79207472616e73666572206f662076616c756554686520616d6f756e742074686174206973206265696e6720737562747261637465642066726f6d20746865207661726961626c6520746f74616c20626f72726f777320697320696e636f727265637454686520616d6f756e7420616e64207468652076616c75652073656e7420746f206465706f73697420646f206e6f74206d617463684f6e6c7920636f6e7472616374732063616e2073656e6420657468657220746f20746865204c656e64696e6720706f6f6c20636f726554686520616d6f756e747320746f20737562747261637420646f6e2774206d6174636852657365727665206265696e672072656d6f76656420697320646966666572656e74207468616e20746865207265736572766520726571756573746564557365722069732073656e64696e672045544820616c6f6e67207769746820746865204552433230207472616e736665722e557365722069732073656e64696e672045544820616c6f6e67207769746820746865204552433230207472616e736665722e20436865636b207468652076616c756520617474726962757465206f6620746865207472616e73616374696f6e43616e6e6f742072656d6f7665206120726573657276652077697468206c6971756964697479206465706f73697465645468652063616c6c6572206d7573742062652061206c656e64696e6720706f6f6c20636f6e666967757261746f7220636f6e74726163745265736572766520686173206e6f74206265656e20696e697469616c697a656420796574536166654d6174683a206d756c7469706c69636174696f6e206f766572666c6f77436f6e747261637420696e7374616e63652068617320616c7265616479206265656e20696e697469616c697a65645468652063616c6c6572206d7573742062652061206c656e64696e6720706f6f6c20636f6e7472616374496e76616c696420696e7465726573742072617465206d6f64652072656365697665645361666545524332303a204552433230206f7065726174696f6e20646964206e6f742073756363656564a265627a7a723158204d7b31d4677601f056bebd5409787190ab7219930650f461f9a3e4bee79e501164736f6c63430005100032",
  "linkReferences": {
    "contracts/tokenDistributor/InitializableAdminUpgradeabilityProxy.sol": {
      "CoreLibrary": [
        {
          "length": 20,
          "start": 13118
        },
        {
          "length": 20,
          "start": 18512
        },
        {
          "length": 20,
          "start": 19003
        },
        {
          "length": 20,
          "start": 26609
        },
        {
          "length": 20,
          "start": 27073
        }
      ]
    }
  },
  "deployedLinkReferences": {
    "contracts/tokenDistributor/InitializableAdminUpgradeabilityProxy.sol": {
      "CoreLibrary": [
        {
          "length": 20,
          "start": 13080
        },
        {
          "length": 20,
          "start": 18474
        },
        {
          "length": 20,
          "start": 18965
        },
        {
          "length": 20,
          "start": 26571
        },
        {
          "length": 20,
          "start": 27035
        }
      ]
    }
  }
}