{
  "_format": "hh-sol-artifact-1",
  "contractName": "UintStorage",
  "sourceName": "contracts/tokenDistributor/InitializableAdminUpgradeabilityProxy.sol",
  "abi": [
    {
      "constant": true,
      "inputs": [
        {
          "internalType": "bytes32",
          "name": "_key",
          "type": "bytes32"
        }
      ],
      "name": "getUint",
      "outputs": [
        {
          "internalType": "uint256",
          "name": "",
          "type": "uint256"
        }
      ],
      "payable": false,
      "stateMutability": "view",
      "type": "function"
    }
  ],
  "bytecode": "0x6080604052348015600f57600080fd5b5060bd8061001e6000396000f3fe6080604052348015600f57600080fd5b506004361060285760003560e01c8063bd02d0f514602d575b600080fd5b605660048036036020811015604157600080fd5b8101908080359060200190929190505050606c565b6040518082815260200191505060405180910390f35b600080600083815260200190815260200160002054905091905056fea265627a7a72315820ea86f199bf957227eb611b254ec31c0e86609badbb712258e1fc1ef181e6a8f964736f6c63430005100032",
  "linkReferences": {},
  "deployedLinkReferences": {}
}